{
  "contractName": "BaseRegistrarImplementation",
  "abi": [
    {
      "inputs": [
        {
          "internalType": "contract CNS",
          "name": "_cns",
          "type": "address"
        },
        {
          "internalType": "bytes32",
          "name": "_baseNode",
          "type": "bytes32"
        }
      ],
      "stateMutability": "nonpayable",
      "type": "constructor"
    },
    {
      "anonymous": false,
      "inputs": [
        {
          "indexed": true,
          "internalType": "address",
          "name": "owner",
          "type": "address"
        },
        {
          "indexed": true,
          "internalType": "address",
          "name": "approved",
          "type": "address"
        },
        {
          "indexed": true,
          "internalType": "uint256",
          "name": "tokenId",
          "type": "uint256"
        }
      ],
      "name": "Approval",
      "type": "event"
    },
    {
      "anonymous": false,
      "inputs": [
        {
          "indexed": true,
          "internalType": "address",
          "name": "owner",
          "type": "address"
        },
        {
          "indexed": true,
          "internalType": "address",
          "name": "operator",
          "type": "address"
        },
        {
          "indexed": false,
          "internalType": "bool",
          "name": "approved",
          "type": "bool"
        }
      ],
      "name": "ApprovalForAll",
      "type": "event"
    },
    {
      "anonymous": false,
      "inputs": [
        {
          "indexed": true,
          "internalType": "address",
          "name": "controller",
          "type": "address"
        }
      ],
      "name": "ControllerAdded",
      "type": "event"
    },
    {
      "anonymous": false,
      "inputs": [
        {
          "indexed": true,
          "internalType": "address",
          "name": "controller",
          "type": "address"
        }
      ],
      "name": "ControllerRemoved",
      "type": "event"
    },
    {
      "anonymous": false,
      "inputs": [
        {
          "indexed": true,
          "internalType": "uint256",
          "name": "id",
          "type": "uint256"
        },
        {
          "indexed": true,
          "internalType": "address",
          "name": "owner",
          "type": "address"
        },
        {
          "indexed": false,
          "internalType": "uint256",
          "name": "expires",
          "type": "uint256"
        }
      ],
      "name": "NameMigrated",
      "type": "event"
    },
    {
      "anonymous": false,
      "inputs": [
        {
          "indexed": true,
          "internalType": "uint256",
          "name": "id",
          "type": "uint256"
        },
        {
          "indexed": true,
          "internalType": "address",
          "name": "owner",
          "type": "address"
        },
        {
          "indexed": false,
          "internalType": "uint256",
          "name": "expires",
          "type": "uint256"
        }
      ],
      "name": "NameRegistered",
      "type": "event"
    },
    {
      "anonymous": false,
      "inputs": [
        {
          "indexed": true,
          "internalType": "uint256",
          "name": "id",
          "type": "uint256"
        },
        {
          "indexed": false,
          "internalType": "uint256",
          "name": "expires",
          "type": "uint256"
        }
      ],
      "name": "NameRenewed",
      "type": "event"
    },
    {
      "anonymous": false,
      "inputs": [
        {
          "indexed": true,
          "internalType": "address",
          "name": "previousOwner",
          "type": "address"
        },
        {
          "indexed": true,
          "internalType": "address",
          "name": "newOwner",
          "type": "address"
        }
      ],
      "name": "OwnershipTransferred",
      "type": "event"
    },
    {
      "anonymous": false,
      "inputs": [
        {
          "indexed": true,
          "internalType": "address",
          "name": "from",
          "type": "address"
        },
        {
          "indexed": true,
          "internalType": "address",
          "name": "to",
          "type": "address"
        },
        {
          "indexed": true,
          "internalType": "uint256",
          "name": "tokenId",
          "type": "uint256"
        }
      ],
      "name": "Transfer",
      "type": "event"
    },
    {
      "inputs": [],
      "name": "GRACE_PERIOD",
      "outputs": [
        {
          "internalType": "uint256",
          "name": "",
          "type": "uint256"
        }
      ],
      "stateMutability": "view",
      "type": "function"
    },
    {
      "inputs": [
        {
          "internalType": "address",
          "name": "to",
          "type": "address"
        },
        {
          "internalType": "uint256",
          "name": "tokenId",
          "type": "uint256"
        }
      ],
      "name": "approve",
      "outputs": [],
      "stateMutability": "nonpayable",
      "type": "function"
    },
    {
      "inputs": [
        {
          "internalType": "address",
          "name": "owner",
          "type": "address"
        }
      ],
      "name": "balanceOf",
      "outputs": [
        {
          "internalType": "uint256",
          "name": "",
          "type": "uint256"
        }
      ],
      "stateMutability": "view",
      "type": "function"
    },
    {
      "inputs": [],
      "name": "baseNode",
      "outputs": [
        {
          "internalType": "bytes32",
          "name": "",
          "type": "bytes32"
        }
      ],
      "stateMutability": "view",
      "type": "function"
    },
    {
      "inputs": [],
      "name": "baseURI",
      "outputs": [
        {
          "internalType": "string",
          "name": "",
          "type": "string"
        }
      ],
      "stateMutability": "view",
      "type": "function"
    },
    {
      "inputs": [],
      "name": "cns",
      "outputs": [
        {
          "internalType": "contract CNS",
          "name": "",
          "type": "address"
        }
      ],
      "stateMutability": "view",
      "type": "function"
    },
    {
      "inputs": [
        {
          "internalType": "address",
          "name": "",
          "type": "address"
        }
      ],
      "name": "controllers",
      "outputs": [
        {
          "internalType": "bool",
          "name": "",
          "type": "bool"
        }
      ],
      "stateMutability": "view",
      "type": "function"
    },
    {
      "inputs": [
        {
          "internalType": "uint256",
          "name": "tokenId",
          "type": "uint256"
        }
      ],
      "name": "getApproved",
      "outputs": [
        {
          "internalType": "address",
          "name": "",
          "type": "address"
        }
      ],
      "stateMutability": "view",
      "type": "function"
    },
    {
      "inputs": [
        {
          "internalType": "address",
          "name": "owner",
          "type": "address"
        },
        {
          "internalType": "address",
          "name": "operator",
          "type": "address"
        }
      ],
      "name": "isApprovedForAll",
      "outputs": [
        {
          "internalType": "bool",
          "name": "",
          "type": "bool"
        }
      ],
      "stateMutability": "view",
      "type": "function"
    },
    {
      "inputs": [],
      "name": "name",
      "outputs": [
        {
          "internalType": "string",
          "name": "",
          "type": "string"
        }
      ],
      "stateMutability": "view",
      "type": "function"
    },
    {
      "inputs": [],
      "name": "owner",
      "outputs": [
        {
          "internalType": "address",
          "name": "",
          "type": "address"
        }
      ],
      "stateMutability": "view",
      "type": "function"
    },
    {
      "inputs": [],
      "name": "renounceOwnership",
      "outputs": [],
      "stateMutability": "nonpayable",
      "type": "function"
    },
    {
      "inputs": [
        {
          "internalType": "address",
          "name": "from",
          "type": "address"
        },
        {
          "internalType": "address",
          "name": "to",
          "type": "address"
        },
        {
          "internalType": "uint256",
          "name": "tokenId",
          "type": "uint256"
        }
      ],
      "name": "safeTransferFrom",
      "outputs": [],
      "stateMutability": "nonpayable",
      "type": "function"
    },
    {
      "inputs": [
        {
          "internalType": "address",
          "name": "from",
          "type": "address"
        },
        {
          "internalType": "address",
          "name": "to",
          "type": "address"
        },
        {
          "internalType": "uint256",
          "name": "tokenId",
          "type": "uint256"
        },
        {
          "internalType": "bytes",
          "name": "_data",
          "type": "bytes"
        }
      ],
      "name": "safeTransferFrom",
      "outputs": [],
      "stateMutability": "nonpayable",
      "type": "function"
    },
    {
      "inputs": [
        {
          "internalType": "address",
          "name": "operator",
          "type": "address"
        },
        {
          "internalType": "bool",
          "name": "approved",
          "type": "bool"
        }
      ],
      "name": "setApprovalForAll",
      "outputs": [],
      "stateMutability": "nonpayable",
      "type": "function"
    },
    {
      "inputs": [
        {
          "internalType": "bytes4",
          "name": "interfaceId",
          "type": "bytes4"
        }
      ],
      "name": "supportsInterface",
      "outputs": [
        {
          "internalType": "bool",
          "name": "",
          "type": "bool"
        }
      ],
      "stateMutability": "view",
      "type": "function"
    },
    {
      "inputs": [],
      "name": "symbol",
      "outputs": [
        {
          "internalType": "string",
          "name": "",
          "type": "string"
        }
      ],
      "stateMutability": "view",
      "type": "function"
    },
    {
      "inputs": [
        {
          "internalType": "uint256",
          "name": "index",
          "type": "uint256"
        }
      ],
      "name": "tokenByIndex",
      "outputs": [
        {
          "internalType": "uint256",
          "name": "",
          "type": "uint256"
        }
      ],
      "stateMutability": "view",
      "type": "function"
    },
    {
      "inputs": [
        {
          "internalType": "address",
          "name": "owner",
          "type": "address"
        },
        {
          "internalType": "uint256",
          "name": "index",
          "type": "uint256"
        }
      ],
      "name": "tokenOfOwnerByIndex",
      "outputs": [
        {
          "internalType": "uint256",
          "name": "",
          "type": "uint256"
        }
      ],
      "stateMutability": "view",
      "type": "function"
    },
    {
      "inputs": [
        {
          "internalType": "uint256",
          "name": "tokenId",
          "type": "uint256"
        }
      ],
      "name": "tokenURI",
      "outputs": [
        {
          "internalType": "string",
          "name": "",
          "type": "string"
        }
      ],
      "stateMutability": "view",
      "type": "function"
    },
    {
      "inputs": [],
      "name": "totalSupply",
      "outputs": [
        {
          "internalType": "uint256",
          "name": "",
          "type": "uint256"
        }
      ],
      "stateMutability": "view",
      "type": "function"
    },
    {
      "inputs": [
        {
          "internalType": "address",
          "name": "from",
          "type": "address"
        },
        {
          "internalType": "address",
          "name": "to",
          "type": "address"
        },
        {
          "internalType": "uint256",
          "name": "tokenId",
          "type": "uint256"
        }
      ],
      "name": "transferFrom",
      "outputs": [],
      "stateMutability": "nonpayable",
      "type": "function"
    },
    {
      "inputs": [
        {
          "internalType": "address",
          "name": "newOwner",
          "type": "address"
        }
      ],
      "name": "transferOwnership",
      "outputs": [],
      "stateMutability": "nonpayable",
      "type": "function"
    },
    {
      "inputs": [
        {
          "internalType": "uint256",
          "name": "tokenId",
          "type": "uint256"
        }
      ],
      "name": "ownerOf",
      "outputs": [
        {
          "internalType": "address",
          "name": "",
          "type": "address"
        }
      ],
      "stateMutability": "view",
      "type": "function"
    },
    {
      "inputs": [
        {
          "internalType": "string",
          "name": "_base",
          "type": "string"
        }
      ],
      "name": "setBaseURI",
      "outputs": [],
      "stateMutability": "nonpayable",
      "type": "function"
    },
    {
      "inputs": [
        {
          "internalType": "address",
          "name": "controller",
          "type": "address"
        }
      ],
      "name": "addController",
      "outputs": [],
      "stateMutability": "nonpayable",
      "type": "function"
    },
    {
      "inputs": [
        {
          "internalType": "address",
          "name": "controller",
          "type": "address"
        }
      ],
      "name": "removeController",
      "outputs": [],
      "stateMutability": "nonpayable",
      "type": "function"
    },
    {
      "inputs": [
        {
          "internalType": "address",
          "name": "resolver",
          "type": "address"
        }
      ],
      "name": "setResolver",
      "outputs": [],
      "stateMutability": "nonpayable",
      "type": "function"
    },
    {
      "inputs": [
        {
          "internalType": "uint256",
          "name": "id",
          "type": "uint256"
        }
      ],
      "name": "nameExpires",
      "outputs": [
        {
          "internalType": "uint256",
          "name": "",
          "type": "uint256"
        }
      ],
      "stateMutability": "view",
      "type": "function"
    },
    {
      "inputs": [
        {
          "internalType": "uint256",
          "name": "id",
          "type": "uint256"
        }
      ],
      "name": "available",
      "outputs": [
        {
          "internalType": "bool",
          "name": "",
          "type": "bool"
        }
      ],
      "stateMutability": "view",
      "type": "function"
    },
    {
      "inputs": [
        {
          "internalType": "uint256",
          "name": "id",
          "type": "uint256"
        },
        {
          "internalType": "address",
          "name": "owner",
          "type": "address"
        },
        {
          "internalType": "uint256",
          "name": "duration",
          "type": "uint256"
        }
      ],
      "name": "register",
      "outputs": [
        {
          "internalType": "uint256",
          "name": "",
          "type": "uint256"
        }
      ],
      "stateMutability": "nonpayable",
      "type": "function"
    },
    {
      "inputs": [
        {
          "internalType": "uint256",
          "name": "id",
          "type": "uint256"
        },
        {
          "internalType": "address",
          "name": "owner",
          "type": "address"
        },
        {
          "internalType": "uint256",
          "name": "duration",
          "type": "uint256"
        }
      ],
      "name": "registerOnly",
      "outputs": [
        {
          "internalType": "uint256",
          "name": "",
          "type": "uint256"
        }
      ],
      "stateMutability": "nonpayable",
      "type": "function"
    },
    {
      "inputs": [
        {
          "internalType": "uint256",
          "name": "id",
          "type": "uint256"
        },
        {
          "internalType": "uint256",
          "name": "duration",
          "type": "uint256"
        }
      ],
      "name": "renew",
      "outputs": [
        {
          "internalType": "uint256",
          "name": "",
          "type": "uint256"
        }
      ],
      "stateMutability": "nonpayable",
      "type": "function"
    },
    {
      "inputs": [
        {
          "internalType": "uint256",
          "name": "id",
          "type": "uint256"
        },
        {
          "internalType": "address",
          "name": "owner",
          "type": "address"
        }
      ],
      "name": "reclaim",
      "outputs": [],
      "stateMutability": "nonpayable",
      "type": "function"
    }
  ],
  "bytecode": "0x60806040523480156200001157600080fd5b5060405162004ebb38038062004ebb833981810160405281019062000037919062000303565b6040518060400160405280601481526020017f436f6e666c7578204e616d6520536572766963650000000000000000000000008152506040518060400160405280600381526020017f434e530000000000000000000000000000000000000000000000000000000000815250620000d5620000c062000159640100000000026401000000009004565b62000161640100000000026401000000009004565b8160019080519060200190620000ed92919062000225565b5080600290805190602001906200010692919062000225565b50505081600b60006101000a81548173ffffffffffffffffffffffffffffffffffffffff021916908373ffffffffffffffffffffffffffffffffffffffff16021790555080600c8190555050506200042f565b600033905090565b60008060009054906101000a900473ffffffffffffffffffffffffffffffffffffffff169050816000806101000a81548173ffffffffffffffffffffffffffffffffffffffff021916908373ffffffffffffffffffffffffffffffffffffffff1602179055508173ffffffffffffffffffffffffffffffffffffffff168173ffffffffffffffffffffffffffffffffffffffff167f8be0079c531659141344cd1fd0a4f28419497f9722a3daafe3b4186f6b6457e060405160405180910390a35050565b828054620002339062000396565b90600052602060002090601f016020900481019282620002575760008555620002a3565b82601f106200027257805160ff1916838001178555620002a3565b82800160010185558215620002a3579182015b82811115620002a257825182559160200191906001019062000285565b5b509050620002b29190620002b6565b5090565b5b80821115620002d1576000816000905550600101620002b7565b5090565b600081519050620002e681620003fb565b92915050565b600081519050620002fd8162000415565b92915050565b600080604083850312156200031757600080fd5b60006200032785828601620002ec565b92505060206200033a85828601620002d5565b9150509250929050565b6000620003518262000376565b9050919050565b6000819050919050565b60006200036f8262000344565b9050919050565b600073ffffffffffffffffffffffffffffffffffffffff82169050919050565b60006002820490506001821680620003af57607f821691505b60208210811415620003c657620003c5620003cc565b5b50919050565b7f4e487b7100000000000000000000000000000000000000000000000000000000600052602260045260246000fd5b620004068162000358565b81146200041257600080fd5b50565b620004208162000362565b81146200042c57600080fd5b50565b614a7c806200043f6000396000f3fe608060405234801561001057600080fd5b5060043610610223576000357c0100000000000000000000000000000000000000000000000000000000900480638da5cb5b11610137578063c87b56dd116100ca578063e985e9c511610099578063e985e9c514610640578063f1c248b114610670578063f2fde38b1461068e578063f6a74ed7146106aa578063fca247ac146106c657610223565b8063c87b56dd14610592578063d6e4fa86146105c2578063da8c229e146105f2578063ddf7fcb01461062257610223565b8063a7fc7a0711610106578063a7fc7a071461050c578063b88d4fde14610528578063c1a287e214610544578063c475abff1461056257610223565b80638da5cb5b1461048457806395d89b41146104a257806396e494e8146104c0578063a22cb465146104f057610223565b80632f745c59116101ba57806355f804b31161018957806355f804b3146103e05780636352211e146103fc5780636c0360eb1461042c57806370a082311461044a578063715018a61461047a57610223565b80632f745c591461034857806342842e0e146103785780634e543b26146103945780634f6ccce7146103b057610223565b80630e297b45116101f65780630e297b45146102c257806318160ddd146102f257806323b872dd1461031057806328ed4f6c1461032c57610223565b806301ffc9a71461022857806306fdde0314610258578063081812fc14610276578063095ea7b3146102a6575b600080fd5b610242600480360381019061023d91906136e6565b6106f6565b60405161024f9190613cc1565b60405180910390f35b610260610770565b60405161026d9190613d72565b60405180910390f35b610290600480360381019061028b9190613779565b610802565b60405161029d9190613c5a565b60405180910390f35b6102c060048036038101906102bb9190613681565b610887565b005b6102dc60048036038101906102d791906137de565b61099f565b6040516102e99190614034565b60405180910390f35b6102fa6109b7565b6040516103079190614034565b60405180910390f35b61032a6004803603810190610325919061357b565b6109c4565b005b610346600480360381019061034191906137a2565b610a24565b005b610362600480360381019061035d9190613681565b610c44565b60405161036f9190614034565b60405180910390f35b610392600480360381019061038d919061357b565b610ce9565b005b6103ae60048036038101906103a991906134ed565b610d09565b005b6103ca60048036038101906103c59190613779565b610e35565b6040516103d79190614034565b60405180910390f35b6103fa60048036038101906103f59190613738565b610ecc565b005b61041660048036038101906104119190613779565b610f62565b6040516104239190613c5a565b60405180910390f35b610434610f93565b6040516104419190613d72565b60405180910390f35b610464600480360381019061045f91906134ed565b611021565b6040516104719190614034565b60405180910390f35b6104826110d9565b005b61048c611161565b6040516104999190613c5a565b60405180910390f35b6104aa61118a565b6040516104b79190613d72565b60405180910390f35b6104da60048036038101906104d59190613779565b61121c565b6040516104e79190613cc1565b60405180910390f35b61050a60048036038101906105059190613645565b611249565b005b610526600480360381019061052191906134ed565b6113ca565b005b610542600480360381019061053d91906135ca565b6114e4565b005b61054c611546565b6040516105599190614034565b60405180910390f35b61057c6004803603810190610577919061382d565b61154d565b6040516105899190614034565b60405180910390f35b6105ac60048036038101906105a79190613779565b611816565b6040516105b99190613d72565b60405180910390f35b6105dc60048036038101906105d79190613779565b6118bd565b6040516105e99190614034565b60405180910390f35b61060c600480360381019061060791906134ed565b6118da565b6040516106199190613cc1565b60405180910390f35b61062a6118fa565b6040516106379190613cdc565b60405180910390f35b61065a6004803603810190610655919061353f565b611900565b6040516106679190613cc1565b60405180910390f35b610678611994565b6040516106859190613d57565b60405180910390f35b6106a860048036038101906106a391906134ed565b6119ba565b005b6106c460048036038101906106bf91906134ed565b611ab2565b005b6106e060048036038101906106db91906137de565b611bcc565b6040516106ed9190614034565b60405180910390f35b60007f780e9d63000000000000000000000000000000000000000000000000000000007bffffffffffffffffffffffffffffffffffffffffffffffffffffffff1916827bffffffffffffffffffffffffffffffffffffffffffffffffffffffff19161480610769575061076882611be4565b5b9050919050565b60606001805461077f906142b8565b80601f01602080910402602001604051908101604052809291908181526020018280546107ab906142b8565b80156107f85780601f106107cd576101008083540402835291602001916107f8565b820191906000526020600020905b8154815290600101906020018083116107db57829003601f168201915b5050505050905090565b600061080d82611cc6565b61084c576040517f08c379a000000000000000000000000000000000000000000000000000000000815260040161084390613f34565b60405180910390fd5b6005600083815260200190815260200160002060009054906101000a900473ffffffffffffffffffffffffffffffffffffffff169050919050565b600061089282611d32565b90508073ffffffffffffffffffffffffffffffffffffffff168373ffffffffffffffffffffffffffffffffffffffff161415610903576040517f08c379a00000000000000000000000000000000000000000000000000000000081526004016108fa90613fd4565b60405180910390fd5b8073ffffffffffffffffffffffffffffffffffffffff16610922611de4565b73ffffffffffffffffffffffffffffffffffffffff16148061095157506109508161094b611de4565b611900565b5b610990576040517f08c379a000000000000000000000000000000000000000000000000000000000815260040161098790613e94565b60405180910390fd5b61099a8383611dec565b505050565b60006109ae8484846000611ea5565b90509392505050565b6000600980549050905090565b6109d56109cf611de4565b82612273565b610a14576040517f08c379a0000000000000000000000000000000000000000000000000000000008152600401610a0b90613ff4565b60405180910390fd5b610a1f838383612351565b505050565b3073ffffffffffffffffffffffffffffffffffffffff16600b60009054906101000a900473ffffffffffffffffffffffffffffffffffffffff1673ffffffffffffffffffffffffffffffffffffffff166302571be3600c546040518263ffffffff167c0100000000000000000000000000000000000000000000000000000000028152600401610ab49190613cdc565b60206040518083038186803b158015610acc57600080fd5b505afa158015610ae0573d6000803e3d6000fd5b505050506040513d601f19601f82011682018060405250810190610b049190613516565b73ffffffffffffffffffffffffffffffffffffffff1614610b5a576040517f08c379a0000000000000000000000000000000000000000000000000000000008152600401610b5190613dd4565b60405180910390fd5b610b643383612273565b610b6d57600080fd5b600b60009054906101000a900473ffffffffffffffffffffffffffffffffffffffff1673ffffffffffffffffffffffffffffffffffffffff166306ab5923600c5484600102846040518463ffffffff167c0100000000000000000000000000000000000000000000000000000000028152600401610bed93929190613d20565b602060405180830381600087803b158015610c0757600080fd5b505af1158015610c1b573d6000803e3d6000fd5b505050506040513d601f19601f82011682018060405250810190610c3f91906136bd565b505050565b6000610c4f83611021565b8210610c90576040517f08c379a0000000000000000000000000000000000000000000000000000000008152600401610c8790613d94565b60405180910390fd5b600760008473ffffffffffffffffffffffffffffffffffffffff1673ffffffffffffffffffffffffffffffffffffffff168152602001908152602001600020600083815260200190815260200160002054905092915050565b610d04838383604051806020016040528060008152506114e4565b505050565b610d11611de4565b73ffffffffffffffffffffffffffffffffffffffff16610d2f611161565b73ffffffffffffffffffffffffffffffffffffffff1614610d85576040517f08c379a0000000000000000000000000000000000000000000000000000000008152600401610d7c90613f54565b60405180910390fd5b600b60009054906101000a900473ffffffffffffffffffffffffffffffffffffffff1673ffffffffffffffffffffffffffffffffffffffff16631896f70a600c54836040518363ffffffff167c0100000000000000000000000000000000000000000000000000000000028152600401610e00929190613cf7565b600060405180830381600087803b158015610e1a57600080fd5b505af1158015610e2e573d6000803e3d6000fd5b5050505050565b6000610e3f6109b7565b8210610e80576040517f08c379a0000000000000000000000000000000000000000000000000000000008152600401610e7790614014565b60405180910390fd5b60098281548110610eba577f4e487b7100000000000000000000000000000000000000000000000000000000600052603260045260246000fd5b90600052602060002001549050919050565b610ed4611de4565b73ffffffffffffffffffffffffffffffffffffffff16610ef2611161565b73ffffffffffffffffffffffffffffffffffffffff1614610f48576040517f08c379a0000000000000000000000000000000000000000000000000000000008152600401610f3f90613f54565b60405180910390fd5b80600f9080519060200190610f5e9291906132e7565b5050565b600042600e60008481526020019081526020016000205411610f8357600080fd5b610f8c82611d32565b9050919050565b600f8054610fa0906142b8565b80601f0160208091040260200160405190810160405280929190818152602001828054610fcc906142b8565b80156110195780601f10610fee57610100808354040283529160200191611019565b820191906000526020600020905b815481529060010190602001808311610ffc57829003601f168201915b505050505081565b60008073ffffffffffffffffffffffffffffffffffffffff168273ffffffffffffffffffffffffffffffffffffffff161415611092576040517f08c379a000000000000000000000000000000000000000000000000000000000815260040161108990613ed4565b60405180910390fd5b600460008373ffffffffffffffffffffffffffffffffffffffff1673ffffffffffffffffffffffffffffffffffffffff168152602001908152602001600020549050919050565b6110e1611de4565b73ffffffffffffffffffffffffffffffffffffffff166110ff611161565b73ffffffffffffffffffffffffffffffffffffffff1614611155576040517f08c379a000000000000000000000000000000000000000000000000000000000815260040161114c90613f54565b60405180910390fd5b61115f60006125ad565b565b60008060009054906101000a900473ffffffffffffffffffffffffffffffffffffffff16905090565b606060028054611199906142b8565b80601f01602080910402602001604051908101604052809291908181526020018280546111c5906142b8565b80156112125780601f106111e757610100808354040283529160200191611212565b820191906000526020600020905b8154815290600101906020018083116111f557829003601f168201915b5050505050905090565b6000426276a700600e6000858152602001908152602001600020546112419190614119565b109050919050565b611251611de4565b73ffffffffffffffffffffffffffffffffffffffff168273ffffffffffffffffffffffffffffffffffffffff1614156112bf576040517f08c379a00000000000000000000000000000000000000000000000000000000081526004016112b690613e54565b60405180910390fd5b80600660006112cc611de4565b73ffffffffffffffffffffffffffffffffffffffff1673ffffffffffffffffffffffffffffffffffffffff16815260200190815260200160002060008473ffffffffffffffffffffffffffffffffffffffff1673ffffffffffffffffffffffffffffffffffffffff16815260200190815260200160002060006101000a81548160ff0219169083151502179055508173ffffffffffffffffffffffffffffffffffffffff16611379611de4565b73ffffffffffffffffffffffffffffffffffffffff167f17307eab39ab6107e8899845ad3d59bd9653f200f220920489ca2b5937696c31836040516113be9190613cc1565b60405180910390a35050565b6113d2611de4565b73ffffffffffffffffffffffffffffffffffffffff166113f0611161565b73ffffffffffffffffffffffffffffffffffffffff1614611446576040517f08c379a000000000000000000000000000000000000000000000000000000000815260040161143d90613f54565b60405180910390fd5b6001600d60008373ffffffffffffffffffffffffffffffffffffffff1673ffffffffffffffffffffffffffffffffffffffff16815260200190815260200160002060006101000a81548160ff0219169083151502179055508073ffffffffffffffffffffffffffffffffffffffff167f0a8bb31534c0ed46f380cb867bd5c803a189ced9a764e30b3a4991a9901d747460405160405180910390a250565b6114f56114ef611de4565b83612273565b611534576040517f08c379a000000000000000000000000000000000000000000000000000000000815260040161152b90613ff4565b60405180910390fd5b61154084848484612671565b50505050565b6276a70081565b60003073ffffffffffffffffffffffffffffffffffffffff16600b60009054906101000a900473ffffffffffffffffffffffffffffffffffffffff1673ffffffffffffffffffffffffffffffffffffffff166302571be3600c546040518263ffffffff167c01000000000000000000000000000000000000000000000000000000000281526004016115df9190613cdc565b60206040518083038186803b1580156115f757600080fd5b505afa15801561160b573d6000803e3d6000fd5b505050506040513d601f19601f8201168201806040525081019061162f9190613516565b73ffffffffffffffffffffffffffffffffffffffff1614611685576040517f08c379a000000000000000000000000000000000000000000000000000000000815260040161167c90613dd4565b60405180910390fd5b600d60003373ffffffffffffffffffffffffffffffffffffffff1673ffffffffffffffffffffffffffffffffffffffff16815260200190815260200160002060009054906101000a900460ff16611711576040517f08c379a000000000000000000000000000000000000000000000000000000000815260040161170890613fb4565b60405180910390fd5b426276a700600e6000868152602001908152602001600020546117349190614119565b101561173f57600080fd5b6276a7008261174e9190614119565b6276a70083600e6000878152602001908152602001600020546117719190614119565b61177b9190614119565b1161178557600080fd5b81600e600085815260200190815260200160002060008282546117a89190614119565b92505081905550827f9b87a00e30f1ac65d898f070f8a3488fe60517182d0a2098e1b4b93a54aa9bd6600e6000868152602001908152602001600020546040516117f29190614034565b60405180910390a2600e600084815260200190815260200160002054905092915050565b606061182182611cc6565b611860576040517f08c379a000000000000000000000000000000000000000000000000000000000815260040161185790613f94565b60405180910390fd5b600061186a6126cd565b9050600081511161188a57604051806020016040528060008152506118b5565b806118948461275f565b6040516020016118a5929190613c36565b6040516020818303038152906040525b915050919050565b6000600e6000838152602001908152602001600020549050919050565b600d6020528060005260406000206000915054906101000a900460ff1681565b600c5481565b6000600660008473ffffffffffffffffffffffffffffffffffffffff1673ffffffffffffffffffffffffffffffffffffffff16815260200190815260200160002060008373ffffffffffffffffffffffffffffffffffffffff1673ffffffffffffffffffffffffffffffffffffffff16815260200190815260200160002060009054906101000a900460ff16905092915050565b600b60009054906101000a900473ffffffffffffffffffffffffffffffffffffffff1681565b6119c2611de4565b73ffffffffffffffffffffffffffffffffffffffff166119e0611161565b73ffffffffffffffffffffffffffffffffffffffff1614611a36576040517f08c379a0000000000000000000000000000000000000000000000000000000008152600401611a2d90613f54565b60405180910390fd5b600073ffffffffffffffffffffffffffffffffffffffff168173ffffffffffffffffffffffffffffffffffffffff161415611aa6576040517f08c379a0000000000000000000000000000000000000000000000000000000008152600401611a9d90613df4565b60405180910390fd5b611aaf816125ad565b50565b611aba611de4565b73ffffffffffffffffffffffffffffffffffffffff16611ad8611161565b73ffffffffffffffffffffffffffffffffffffffff1614611b2e576040517f08c379a0000000000000000000000000000000000000000000000000000000008152600401611b2590613f54565b60405180910390fd5b6000600d60008373ffffffffffffffffffffffffffffffffffffffff1673ffffffffffffffffffffffffffffffffffffffff16815260200190815260200160002060006101000a81548160ff0219169083151502179055508073ffffffffffffffffffffffffffffffffffffffff167f33d83959be2573f5453b12eb9d43b3499bc57d96bd2f067ba44803c859e8111360405160405180910390a250565b6000611bdb8484846001611ea5565b90509392505050565b60007f80ac58cd000000000000000000000000000000000000000000000000000000007bffffffffffffffffffffffffffffffffffffffffffffffffffffffff1916827bffffffffffffffffffffffffffffffffffffffffffffffffffffffff19161480611caf57507f5b5e139f000000000000000000000000000000000000000000000000000000007bffffffffffffffffffffffffffffffffffffffffffffffffffffffff1916827bffffffffffffffffffffffffffffffffffffffffffffffffffffffff1916145b80611cbf5750611cbe8261292b565b5b9050919050565b60008073ffffffffffffffffffffffffffffffffffffffff166003600084815260200190815260200160002060009054906101000a900473ffffffffffffffffffffffffffffffffffffffff1673ffffffffffffffffffffffffffffffffffffffff1614159050919050565b6000806003600084815260200190815260200160002060009054906101000a900473ffffffffffffffffffffffffffffffffffffffff169050600073ffffffffffffffffffffffffffffffffffffffff168173ffffffffffffffffffffffffffffffffffffffff161415611ddb576040517f08c379a0000000000000000000000000000000000000000000000000000000008152600401611dd290613ef4565b60405180910390fd5b80915050919050565b600033905090565b816005600083815260200190815260200160002060006101000a81548173ffffffffffffffffffffffffffffffffffffffff021916908373ffffffffffffffffffffffffffffffffffffffff160217905550808273ffffffffffffffffffffffffffffffffffffffff16611e5f83611d32565b73ffffffffffffffffffffffffffffffffffffffff167f8c5be1e5ebec7d5bd14f71427d1e84f3dd0314c0f7b2291e5b200ac8c7c3b92560405160405180910390a45050565b60003073ffffffffffffffffffffffffffffffffffffffff16600b60009054906101000a900473ffffffffffffffffffffffffffffffffffffffff1673ffffffffffffffffffffffffffffffffffffffff166302571be3600c546040518263ffffffff167c0100000000000000000000000000000000000000000000000000000000028152600401611f379190613cdc565b60206040518083038186803b158015611f4f57600080fd5b505afa158015611f63573d6000803e3d6000fd5b505050506040513d601f19601f82011682018060405250810190611f879190613516565b73ffffffffffffffffffffffffffffffffffffffff1614611fdd576040517f08c379a0000000000000000000000000000000000000000000000000000000008152600401611fd490613dd4565b60405180910390fd5b600d60003373ffffffffffffffffffffffffffffffffffffffff1673ffffffffffffffffffffffffffffffffffffffff16815260200190815260200160002060009054906101000a900460ff16612069576040517f08c379a000000000000000000000000000000000000000000000000000000000815260040161206090613fb4565b60405180910390fd5b6120728561121c565b61207b57600080fd5b6276a7004261208a9190614119565b6276a700844261209a9190614119565b6120a49190614119565b116120e4576040517f08c379a00000000000000000000000000000000000000000000000000000000081526004016120db90613eb4565b60405180910390fd5b82426120f09190614119565b600e60008781526020019081526020016000208190555061211085611cc6565b1561211f5761211e85612995565b5b6121298486612aa6565b811561220357600b60009054906101000a900473ffffffffffffffffffffffffffffffffffffffff1673ffffffffffffffffffffffffffffffffffffffff166306ab5923600c5487600102876040518463ffffffff167c01000000000000000000000000000000000000000000000000000000000281526004016121af93929190613d20565b602060405180830381600087803b1580156121c957600080fd5b505af11580156121dd573d6000803e3d6000fd5b505050506040513d601f19601f8201168201806040525081019061220191906136bd565b505b8373ffffffffffffffffffffffffffffffffffffffff16857fb3d987963d01b2f68493b4bdb130988f157ea43070d4ad840fee0466ed9370d985426122489190614119565b6040516122559190614034565b60405180910390a382426122699190614119565b9050949350505050565b600061227e82611cc6565b6122bd576040517f08c379a00000000000000000000000000000000000000000000000000000000081526004016122b490613e74565b60405180910390fd5b60006122c883611d32565b90508073ffffffffffffffffffffffffffffffffffffffff168473ffffffffffffffffffffffffffffffffffffffff16148061233757508373ffffffffffffffffffffffffffffffffffffffff1661231f84610802565b73ffffffffffffffffffffffffffffffffffffffff16145b8061234857506123478185611900565b5b91505092915050565b8273ffffffffffffffffffffffffffffffffffffffff1661237182611d32565b73ffffffffffffffffffffffffffffffffffffffff16146123c7576040517f08c379a00000000000000000000000000000000000000000000000000000000081526004016123be90613f74565b60405180910390fd5b600073ffffffffffffffffffffffffffffffffffffffff168273ffffffffffffffffffffffffffffffffffffffff161415612437576040517f08c379a000000000000000000000000000000000000000000000000000000000815260040161242e90613e34565b60405180910390fd5b612442838383612c74565b61244d600082611dec565b6001600460008573ffffffffffffffffffffffffffffffffffffffff1673ffffffffffffffffffffffffffffffffffffffff168152602001908152602001600020600082825461249d91906141a0565b925050819055506001600460008473ffffffffffffffffffffffffffffffffffffffff1673ffffffffffffffffffffffffffffffffffffffff16815260200190815260200160002060008282546124f49190614119565b92505081905550816003600083815260200190815260200160002060006101000a81548173ffffffffffffffffffffffffffffffffffffffff021916908373ffffffffffffffffffffffffffffffffffffffff160217905550808273ffffffffffffffffffffffffffffffffffffffff168473ffffffffffffffffffffffffffffffffffffffff167fddf252ad1be2c89b69c2b068fc378daa952ba7f163c4a11628f55a4df523b3ef60405160405180910390a4505050565b60008060009054906101000a900473ffffffffffffffffffffffffffffffffffffffff169050816000806101000a81548173ffffffffffffffffffffffffffffffffffffffff021916908373ffffffffffffffffffffffffffffffffffffffff1602179055508173ffffffffffffffffffffffffffffffffffffffff168173ffffffffffffffffffffffffffffffffffffffff167f8be0079c531659141344cd1fd0a4f28419497f9722a3daafe3b4186f6b6457e060405160405180910390a35050565b61267c848484612351565b61268884848484612d88565b6126c7576040517f08c379a00000000000000000000000000000000000000000000000000000000081526004016126be90613db4565b60405180910390fd5b50505050565b6060600f80546126dc906142b8565b80601f0160208091040260200160405190810160405280929190818152602001828054612708906142b8565b80156127555780601f1061272a57610100808354040283529160200191612755565b820191906000526020600020905b81548152906001019060200180831161273857829003601f168201915b5050505050905090565b606060008214156127a7576040518060400160405280600181526020017f30000000000000000000000000000000000000000000000000000000000000008152509050612926565b600082905060005b600082146127d95780806127c29061431b565b915050600a826127d2919061416f565b91506127af565b60008167ffffffffffffffff81111561281b577f4e487b7100000000000000000000000000000000000000000000000000000000600052604160045260246000fd5b6040519080825280601f01601f19166020018201604052801561284d5781602001600182028036833780820191505090505b5090505b6000851461291f5760018261286691906141a0565b9150600a856128759190614364565b60306128819190614119565b7f0100000000000000000000000000000000000000000000000000000000000000028183815181106128dc577f4e487b7100000000000000000000000000000000000000000000000000000000600052603260045260246000fd5b60200101907effffffffffffffffffffffffffffffffffffffffffffffffffffffffffffff1916908160001a905350600a85612918919061416f565b9450612851565b8093505050505b919050565b60007f01ffc9a7000000000000000000000000000000000000000000000000000000007bffffffffffffffffffffffffffffffffffffffffffffffffffffffff1916827bffffffffffffffffffffffffffffffffffffffffffffffffffffffff1916149050919050565b60006129a082611d32565b90506129ae81600084612c74565b6129b9600083611dec565b6001600460008373ffffffffffffffffffffffffffffffffffffffff1673ffffffffffffffffffffffffffffffffffffffff1681526020019081526020016000206000828254612a0991906141a0565b925050819055506003600083815260200190815260200160002060006101000a81549073ffffffffffffffffffffffffffffffffffffffff021916905581600073ffffffffffffffffffffffffffffffffffffffff168273ffffffffffffffffffffffffffffffffffffffff167fddf252ad1be2c89b69c2b068fc378daa952ba7f163c4a11628f55a4df523b3ef60405160405180910390a45050565b600073ffffffffffffffffffffffffffffffffffffffff168273ffffffffffffffffffffffffffffffffffffffff161415612b16576040517f08c379a0000000000000000000000000000000000000000000000000000000008152600401612b0d90613f14565b60405180910390fd5b612b1f81611cc6565b15612b5f576040517f08c379a0000000000000000000000000000000000000000000000000000000008152600401612b5690613e14565b60405180910390fd5b612b6b60008383612c74565b6001600460008473ffffffffffffffffffffffffffffffffffffffff1673ffffffffffffffffffffffffffffffffffffffff1681526020019081526020016000206000828254612bbb9190614119565b92505081905550816003600083815260200190815260200160002060006101000a81548173ffffffffffffffffffffffffffffffffffffffff021916908373ffffffffffffffffffffffffffffffffffffffff160217905550808273ffffffffffffffffffffffffffffffffffffffff16600073ffffffffffffffffffffffffffffffffffffffff167fddf252ad1be2c89b69c2b068fc378daa952ba7f163c4a11628f55a4df523b3ef60405160405180910390a45050565b612c7f838383612f57565b600073ffffffffffffffffffffffffffffffffffffffff168373ffffffffffffffffffffffffffffffffffffffff161415612cc257612cbd81612f5c565b612d01565b8173ffffffffffffffffffffffffffffffffffffffff168373ffffffffffffffffffffffffffffffffffffffff1614612d0057612cff8382612fa5565b5b5b600073ffffffffffffffffffffffffffffffffffffffff168273ffffffffffffffffffffffffffffffffffffffff161415612d4457612d3f81613112565b612d83565b8273ffffffffffffffffffffffffffffffffffffffff168273ffffffffffffffffffffffffffffffffffffffff1614612d8257612d818282613255565b5b5b505050565b6000612da98473ffffffffffffffffffffffffffffffffffffffff166132d4565b15612f4a578373ffffffffffffffffffffffffffffffffffffffff1663150b7a02612dd2611de4565b8786866040518563ffffffff167c0100000000000000000000000000000000000000000000000000000000028152600401612e109493929190613c75565b602060405180830381600087803b158015612e2a57600080fd5b505af1925050508015612e5b57506040513d601f19601f82011682018060405250810190612e58919061370f565b60015b612ede573d8060008114612e8b576040519150601f19603f3d011682016040523d82523d6000602084013e612e90565b606091505b50600081511415612ed6576040517f08c379a0000000000000000000000000000000000000000000000000000000008152600401612ecd90613db4565b60405180910390fd5b805181602001fd5b63150b7a027c0100000000000000000000000000000000000000000000000000000000027bffffffffffffffffffffffffffffffffffffffffffffffffffffffff1916817bffffffffffffffffffffffffffffffffffffffffffffffffffffffff191614915050612f4f565b600190505b949350505050565b505050565b600980549050600a600083815260200190815260200160002081905550600981908060018154018082558091505060019003906000526020600020016000909190919091505550565b60006001612fb284611021565b612fbc91906141a0565b90506000600860008481526020019081526020016000205490508181146130a1576000600760008673ffffffffffffffffffffffffffffffffffffffff1673ffffffffffffffffffffffffffffffffffffffff168152602001908152602001600020600084815260200190815260200160002054905080600760008773ffffffffffffffffffffffffffffffffffffffff1673ffffffffffffffffffffffffffffffffffffffff168152602001908152602001600020600084815260200190815260200160002081905550816008600083815260200190815260200160002081905550505b6008600084815260200190815260200160002060009055600760008573ffffffffffffffffffffffffffffffffffffffff1673ffffffffffffffffffffffffffffffffffffffff16815260200190815260200160002060008381526020019081526020016000206000905550505050565b6000600160098054905061312691906141a0565b90506000600a600084815260200190815260200160002054905060006009838154811061317c577f4e487b7100000000000000000000000000000000000000000000000000000000600052603260045260246000fd5b9060005260206000200154905080600983815481106131c4577f4e487b7100000000000000000000000000000000000000000000000000000000600052603260045260246000fd5b906000526020600020018190555081600a600083815260200190815260200160002081905550600a6000858152602001908152602001600020600090556009805480613239577f4e487b7100000000000000000000000000000000000000000000000000000000600052603160045260246000fd5b6001900381819060005260206000200160009055905550505050565b600061326083611021565b905081600760008573ffffffffffffffffffffffffffffffffffffffff1673ffffffffffffffffffffffffffffffffffffffff168152602001908152602001600020600083815260200190815260200160002081905550806008600084815260200190815260200160002081905550505050565b600080823b905060008111915050919050565b8280546132f3906142b8565b90600052602060002090601f016020900481019282613315576000855561335c565b82601f1061332e57805160ff191683800117855561335c565b8280016001018555821561335c579182015b8281111561335b578251825591602001919060010190613340565b5b509050613369919061336d565b5090565b5b8082111561338657600081600090555060010161336e565b5090565b600061339d61339884614074565b61404f565b9050828152602081018484840111156133b557600080fd5b6133c0848285614276565b509392505050565b60006133db6133d6846140a5565b61404f565b9050828152602081018484840111156133f357600080fd5b6133fe848285614276565b509392505050565b600081359050613415816149d3565b92915050565b60008151905061342a816149d3565b92915050565b60008135905061343f816149ea565b92915050565b60008151905061345481614a01565b92915050565b60008135905061346981614a18565b92915050565b60008151905061347e81614a18565b92915050565b600082601f83011261349557600080fd5b81356134a584826020860161338a565b91505092915050565b600082601f8301126134bf57600080fd5b81356134cf8482602086016133c8565b91505092915050565b6000813590506134e781614a2f565b92915050565b6000602082840312156134ff57600080fd5b600061350d84828501613406565b91505092915050565b60006020828403121561352857600080fd5b60006135368482850161341b565b91505092915050565b6000806040838503121561355257600080fd5b600061356085828601613406565b925050602061357185828601613406565b9150509250929050565b60008060006060848603121561359057600080fd5b600061359e86828701613406565b93505060206135af86828701613406565b92505060406135c0868287016134d8565b9150509250925092565b600080600080608085870312156135e057600080fd5b60006135ee87828801613406565b94505060206135ff87828801613406565b9350506040613610878288016134d8565b925050606085013567ffffffffffffffff81111561362d57600080fd5b61363987828801613484565b91505092959194509250565b6000806040838503121561365857600080fd5b600061366685828601613406565b925050602061367785828601613430565b9150509250929050565b6000806040838503121561369457600080fd5b60006136a285828601613406565b92505060206136b3858286016134d8565b9150509250929050565b6000602082840312156136cf57600080fd5b60006136dd84828501613445565b91505092915050565b6000602082840312156136f857600080fd5b60006137068482850161345a565b91505092915050565b60006020828403121561372157600080fd5b600061372f8482850161346f565b91505092915050565b60006020828403121561374a57600080fd5b600082013567ffffffffffffffff81111561376457600080fd5b613770848285016134ae565b91505092915050565b60006020828403121561378b57600080fd5b6000613799848285016134d8565b91505092915050565b600080604083850312156137b557600080fd5b60006137c3858286016134d8565b92505060206137d485828601613406565b9150509250929050565b6000806000606084860312156137f357600080fd5b6000613801868287016134d8565b935050602061381286828701613406565b9250506040613823868287016134d8565b9150509250925092565b6000806040838503121561384057600080fd5b600061384e858286016134d8565b925050602061385f858286016134d8565b9150509250929050565b613872816141d4565b82525050565b613881816141e6565b82525050565b613890816141f2565b82525050565b60006138a1826140d6565b6138ab81856140ec565b93506138bb818560208601614285565b6138c481614451565b840191505092915050565b6138d881614252565b82525050565b60006138e9826140e1565b6138f381856140fd565b9350613903818560208601614285565b61390c81614451565b840191505092915050565b6000613922826140e1565b61392c818561410e565b935061393c818560208601614285565b80840191505092915050565b6000613955602b836140fd565b915061396082614462565b604082019050919050565b60006139786032836140fd565b9150613983826144b1565b604082019050919050565b600061399b6016836140fd565b91506139a682614500565b602082019050919050565b60006139be6026836140fd565b91506139c982614529565b604082019050919050565b60006139e1601c836140fd565b91506139ec82614578565b602082019050919050565b6000613a046024836140fd565b9150613a0f826145a1565b604082019050919050565b6000613a276019836140fd565b9150613a32826145f0565b602082019050919050565b6000613a4a602c836140fd565b9150613a5582614619565b604082019050919050565b6000613a6d6038836140fd565b9150613a7882614668565b604082019050919050565b6000613a90600a836140fd565b9150613a9b826146b7565b602082019050919050565b6000613ab3602a836140fd565b9150613abe826146e0565b604082019050919050565b6000613ad66029836140fd565b9150613ae18261472f565b604082019050919050565b6000613af96020836140fd565b9150613b048261477e565b602082019050919050565b6000613b1c602c836140fd565b9150613b27826147a7565b604082019050919050565b6000613b3f6020836140fd565b9150613b4a826147f6565b602082019050919050565b6000613b626029836140fd565b9150613b6d8261481f565b604082019050919050565b6000613b85602f836140fd565b9150613b908261486e565b604082019050919050565b6000613ba86011836140fd565b9150613bb3826148bd565b602082019050919050565b6000613bcb6021836140fd565b9150613bd6826148e6565b604082019050919050565b6000613bee6031836140fd565b9150613bf982614935565b604082019050919050565b6000613c11602c836140fd565b9150613c1c82614984565b604082019050919050565b613c3081614248565b82525050565b6000613c428285613917565b9150613c4e8284613917565b91508190509392505050565b6000602082019050613c6f6000830184613869565b92915050565b6000608082019050613c8a6000830187613869565b613c976020830186613869565b613ca46040830185613c27565b8181036060830152613cb68184613896565b905095945050505050565b6000602082019050613cd66000830184613878565b92915050565b6000602082019050613cf16000830184613887565b92915050565b6000604082019050613d0c6000830185613887565b613d196020830184613869565b9392505050565b6000606082019050613d356000830186613887565b613d426020830185613887565b613d4f6040830184613869565b949350505050565b6000602082019050613d6c60008301846138cf565b92915050565b60006020820190508181036000830152613d8c81846138de565b905092915050565b60006020820190508181036000830152613dad81613948565b9050919050565b60006020820190508181036000830152613dcd8161396b565b9050919050565b60006020820190508181036000830152613ded8161398e565b9050919050565b60006020820190508181036000830152613e0d816139b1565b9050919050565b60006020820190508181036000830152613e2d816139d4565b9050919050565b60006020820190508181036000830152613e4d816139f7565b9050919050565b60006020820190508181036000830152613e6d81613a1a565b9050919050565b60006020820190508181036000830152613e8d81613a3d565b9050919050565b60006020820190508181036000830152613ead81613a60565b9050919050565b60006020820190508181036000830152613ecd81613a83565b9050919050565b60006020820190508181036000830152613eed81613aa6565b9050919050565b60006020820190508181036000830152613f0d81613ac9565b9050919050565b60006020820190508181036000830152613f2d81613aec565b9050919050565b60006020820190508181036000830152613f4d81613b0f565b9050919050565b60006020820190508181036000830152613f6d81613b32565b9050919050565b60006020820190508181036000830152613f8d81613b55565b9050919050565b60006020820190508181036000830152613fad81613b78565b9050919050565b60006020820190508181036000830152613fcd81613b9b565b9050919050565b60006020820190508181036000830152613fed81613bbe565b9050919050565b6000602082019050818103600083015261400d81613be1565b9050919050565b6000602082019050818103600083015261402d81613c04565b9050919050565b60006020820190506140496000830184613c27565b92915050565b600061405961406a565b905061406582826142ea565b919050565b6000604051905090565b600067ffffffffffffffff82111561408f5761408e614422565b5b61409882614451565b9050602081019050919050565b600067ffffffffffffffff8211156140c0576140bf614422565b5b6140c982614451565b9050602081019050919050565b600081519050919050565b600081519050919050565b600082825260208201905092915050565b600082825260208201905092915050565b600081905092915050565b600061412482614248565b915061412f83614248565b9250827fffffffffffffffffffffffffffffffffffffffffffffffffffffffffffffffff0382111561416457614163614395565b5b828201905092915050565b600061417a82614248565b915061418583614248565b925082614195576141946143c4565b5b828204905092915050565b60006141ab82614248565b91506141b683614248565b9250828210156141c9576141c8614395565b5b828203905092915050565b60006141df82614228565b9050919050565b60008115159050919050565b6000819050919050565b60007fffffffff0000000000000000000000000000000000000000000000000000000082169050919050565b600073ffffffffffffffffffffffffffffffffffffffff82169050919050565b6000819050919050565b600061425d82614264565b9050919050565b600061426f82614228565b9050919050565b82818337600083830152505050565b60005b838110156142a3578082015181840152602081019050614288565b838111156142b2576000848401525b50505050565b600060028204905060018216806142d057607f821691505b602082108114156142e4576142e36143f3565b5b50919050565b6142f382614451565b810181811067ffffffffffffffff8211171561431257614311614422565b5b80604052505050565b600061432682614248565b91507fffffffffffffffffffffffffffffffffffffffffffffffffffffffffffffffff82141561435957614358614395565b5b600182019050919050565b600061436f82614248565b915061437a83614248565b92508261438a576143896143c4565b5b828206905092915050565b7f4e487b7100000000000000000000000000000000000000000000000000000000600052601160045260246000fd5b7f4e487b7100000000000000000000000000000000000000000000000000000000600052601260045260246000fd5b7f4e487b7100000000000000000000000000000000000000000000000000000000600052602260045260246000fd5b7f4e487b7100000000000000000000000000000000000000000000000000000000600052604160045260246000fd5b6000601f19601f8301169050919050565b7f455243373231456e756d657261626c653a206f776e657220696e646578206f7560008201527f74206f6620626f756e6473000000000000000000000000000000000000000000602082015250565b7f4552433732313a207472616e7366657220746f206e6f6e20455243373231526560008201527f63656976657220696d706c656d656e7465720000000000000000000000000000602082015250565b7f426173654e6f6465206e6f7420636e73206f776e657200000000000000000000600082015250565b7f4f776e61626c653a206e6577206f776e657220697320746865207a65726f206160008201527f6464726573730000000000000000000000000000000000000000000000000000602082015250565b7f4552433732313a20746f6b656e20616c7265616479206d696e74656400000000600082015250565b7f4552433732313a207472616e7366657220746f20746865207a65726f2061646460008201527f7265737300000000000000000000000000000000000000000000000000000000602082015250565b7f4552433732313a20617070726f766520746f2063616c6c657200000000000000600082015250565b7f4552433732313a206f70657261746f7220717565727920666f72206e6f6e657860008201527f697374656e7420746f6b656e0000000000000000000000000000000000000000602082015250565b7f4552433732313a20617070726f76652063616c6c6572206973206e6f74206f7760008201527f6e6572206e6f7220617070726f76656420666f7220616c6c0000000000000000602082015250565b7f54696d65206572726f7200000000000000000000000000000000000000000000600082015250565b7f4552433732313a2062616c616e636520717565727920666f7220746865207a6560008201527f726f206164647265737300000000000000000000000000000000000000000000602082015250565b7f4552433732313a206f776e657220717565727920666f72206e6f6e657869737460008201527f656e7420746f6b656e0000000000000000000000000000000000000000000000602082015250565b7f4552433732313a206d696e7420746f20746865207a65726f2061646472657373600082015250565b7f4552433732313a20617070726f76656420717565727920666f72206e6f6e657860008201527f697374656e7420746f6b656e0000000000000000000000000000000000000000602082015250565b7f4f776e61626c653a2063616c6c6572206973206e6f7420746865206f776e6572600082015250565b7f4552433732313a207472616e73666572206f6620746f6b656e2074686174206960008201527f73206e6f74206f776e0000000000000000000000000000000000000000000000602082015250565b7f4552433732314d657461646174613a2055524920717565727920666f72206e6f60008201527f6e6578697374656e7420746f6b656e0000000000000000000000000000000000602082015250565b7f436f6e74726f6c6c657273206572726f72000000000000000000000000000000600082015250565b7f4552433732313a20617070726f76616c20746f2063757272656e74206f776e6560008201527f7200000000000000000000000000000000000000000000000000000000000000602082015250565b7f4552433732313a207472616e736665722063616c6c6572206973206e6f74206f60008201527f776e6572206e6f7220617070726f766564000000000000000000000000000000602082015250565b7f455243373231456e756d657261626c653a20676c6f62616c20696e646578206f60008201527f7574206f6620626f756e64730000000000000000000000000000000000000000602082015250565b6149dc816141d4565b81146149e757600080fd5b50565b6149f3816141e6565b81146149fe57600080fd5b50565b614a0a816141f2565b8114614a1557600080fd5b50565b614a21816141fc565b8114614a2c57600080fd5b50565b614a3881614248565b8114614a4357600080fd5b5056fea26469706673582212205ec18d55f3bd02da35c4b8e6fdc6555ea6b21f0e9e6328883d62987b3026c8f064736f6c63430008040033",
  "immutableReferences": {},
  "source": "// SPDX-License-Identifier: UNLICCNSED\n\npragma solidity ^0.8.4;\n\nimport \"../registry/CNS.sol\";\nimport \"@openzeppelin/contracts/token/ERC721/extensions/ERC721Enumerable.sol\";\nimport \"./BaseRegistrar.sol\";\n\ncontract BaseRegistrarImplementation is ERC721Enumerable, BaseRegistrar {\n    // A map of expiry times\n    mapping(uint256=>uint) expiries;\n\n    string public baseURI;\n\n    bytes4 constant private INTERFACE_META_ID = bytes4(keccak256(\"supportsInterface(bytes4)\"));\n    bytes4 constant private ERC721_ID = bytes4(\n        keccak256(\"totalSupply()\") ^\n        keccak256(\"balanceOf(address)\") ^\n        keccak256(\"ownerOf(uint256)\") ^\n        keccak256(\"approve(address,uint256)\") ^\n        keccak256(\"getApproved(uint256)\") ^\n        keccak256(\"setApprovalForAll(address,bool)\") ^\n        keccak256(\"isApprovedForAll(address,address)\") ^\n        keccak256(\"transferFrom(address,address,uint256)\") ^\n        keccak256(\"safeTransferFrom(address,address,uint256)\") ^\n        keccak256(\"safeTransferFrom(address,address,uint256,bytes)\") ^\n        keccak256(\"tokenByIndex(uint256 index)\") ^\n        keccak256(\"tokenOfOwnerByIndex(address owner, uint256 index)\")\n    );\n    bytes4 constant private RECLAIM_ID = bytes4(keccak256(\"reclaim(uint256,address)\"));\n\n    constructor(CNS _cns, bytes32 _baseNode) ERC721(\"Conflux Name Service\",\"CNS\") {\n        cns = _cns;\n        baseNode = _baseNode;\n    }\n\n    modifier live {\n        require(cns.owner(baseNode) == address(this),\"BaseNode not cns owner\");\n        _;\n    }\n\n    modifier onlyController {\n        require(controllers[msg.sender],\"Controllers error\");\n        _;\n    }\n    \n\n    /**\n     * @dev Gets the owner of the specified token ID. Names become unowned\n     *      when their registration expires.\n     * @param tokenId uint256 ID of the token to query the owner of\n     * @return address currently marked as the owner of the given token ID\n     */\n    function ownerOf(uint256 tokenId) public view override(IERC721, ERC721) returns (address) {\n        require(expiries[tokenId] > block.timestamp);\n        return super.ownerOf(tokenId);\n    }\n\n    /**\n     * @dev Base URI for computing {tokenURI}. If set, the resulting URI for each\n     * token will be the concatenation of the `baseURI` and the `tokenId`. Empty\n     * by default, can be overriden in child contracts.\n     */\n    function _baseURI() internal view override returns (string memory) {\n        return baseURI;\n    }\n\n    function setBaseURI(string memory _base) public onlyOwner{\n        baseURI = _base;\n    }\n\n    // Authorises a controller, who can register and renew domains.\n    function addController(address controller) external override onlyOwner {\n        controllers[controller] = true;\n        emit ControllerAdded(controller);\n    }\n\n    // Revoke controller permission for an address.\n    function removeController(address controller) external override onlyOwner {\n        controllers[controller] = false;\n        emit ControllerRemoved(controller);\n    }\n\n    // Set the resolver for the TLD this registrar manages.\n    function setResolver(address resolver) external override onlyOwner {\n        cns.setResolver(baseNode, resolver);\n    }\n\n    // Returns the expiration timestamp of the specified id.\n    function nameExpires(uint256 id) external view override returns(uint) {\n        return expiries[id];\n    }\n\n    // Returns true iff the specified name is available for registration.\n    function available(uint256 id) public view override returns(bool) {\n        // Not available if it's registered here or in its grace period.\n        return expiries[id] + GRACE_PERIOD < block.timestamp;\n    }\n\n    /**\n     * @dev Register a name.\n     * @param id The token ID (keccak256 of the label).\n     * @param owner The address that should own the registration.\n     * @param duration Duration in seconds for the registration.\n     */\n    function register(uint256 id, address owner, uint duration) external override returns(uint) {\n      return _register(id, owner, duration, true);\n    }\n\n    /**\n     * @dev Register a name, without modifying the registry.\n     * @param id The token ID (keccak256 of the label).\n     * @param owner The address that should own the registration.\n     * @param duration Duration in seconds for the registration.\n     */\n    function registerOnly(uint256 id, address owner, uint duration) external returns(uint) {\n      return _register(id, owner, duration, false);\n    }\n\n    function _register(uint256 tokenId, address owner, uint duration, bool updateRegistry) internal live onlyController returns(uint) {\n        require(available(tokenId));\n        require(block.timestamp + duration + GRACE_PERIOD > block.timestamp + GRACE_PERIOD,\"Time error\"); // Prevent future overflow\n        expiries[tokenId] = block.timestamp + duration;\n        if(_exists(tokenId)) {\n            // Name was previously owned, and expired\n            _burn(tokenId);\n        }\n        _mint(owner, tokenId);\n        if(updateRegistry) {\n            cns.setSubnodeOwner(baseNode, bytes32(tokenId), owner);\n        }\n\n        emit NameRegistered(tokenId, owner, block.timestamp + duration);\n\n        return block.timestamp + duration;\n    }\n\n    function renew(uint256 id, uint duration) external override live onlyController returns(uint) {\n        require(expiries[id] + GRACE_PERIOD >= block.timestamp); // Name must be registered here or in grace period\n        require(expiries[id] + duration + GRACE_PERIOD > duration + GRACE_PERIOD); // Prevent future overflow\n\n        expiries[id] += duration;\n        emit NameRenewed(id, expiries[id]);\n        return expiries[id];\n    }\n\n    /**\n     * @dev Reclaim ownership of a name in CNS, if you own it in the registrar.\n     */\n    function reclaim(uint256 id, address owner) external override live {\n        require(_isApprovedOrOwner(msg.sender, id));\n        cns.setSubnodeOwner(baseNode, bytes32(id), owner);\n    }\n\n}\n",
  "sourcePath": "/Users/yzbbanban/Downloads/money/chk/nftbox/bns/yns-sol-master-025696b23c531f8117f2fb03dee6f8c96f21692e/contracts/ynsregistry/BaseRegistrarImplementation.sol",
  "compiler": {
    "name": "solc",
    "version": "0.8.4+commit.c7e474f2.Emscripten.clang"
  },
  "schemaVersion": "3.4.3",
  "updatedAt": "2022-09-08T01:23:16.621Z",
  "devdoc": {
    "kind": "dev",
    "methods": {
      "approve(address,uint256)": {
        "details": "See {IERC721-approve}."
      },
      "balanceOf(address)": {
        "details": "See {IERC721-balanceOf}."
      },
      "getApproved(uint256)": {
        "details": "See {IERC721-getApproved}."
      },
      "isApprovedForAll(address,address)": {
        "details": "See {IERC721-isApprovedForAll}."
      },
      "name()": {
        "details": "See {IERC721Metadata-name}."
      },
      "owner()": {
        "details": "Returns the address of the current owner."
      },
      "ownerOf(uint256)": {
        "details": "Gets the owner of the specified token ID. Names become unowned      when their registration expires.",
        "params": {
          "tokenId": "uint256 ID of the token to query the owner of"
        },
        "returns": {
          "_0": "address currently marked as the owner of the given token ID"
        }
      },
      "reclaim(uint256,address)": {
        "details": "Reclaim ownership of a name in CNS, if you own it in the registrar."
      },
      "register(uint256,address,uint256)": {
        "details": "Register a name.",
        "params": {
          "duration": "Duration in seconds for the registration.",
          "id": "The token ID (keccak256 of the label).",
          "owner": "The address that should own the registration."
        }
      },
      "registerOnly(uint256,address,uint256)": {
        "details": "Register a name, without modifying the registry.",
        "params": {
          "duration": "Duration in seconds for the registration.",
          "id": "The token ID (keccak256 of the label).",
          "owner": "The address that should own the registration."
        }
      },
      "renounceOwnership()": {
        "details": "Leaves the contract without owner. It will not be possible to call `onlyOwner` functions anymore. Can only be called by the current owner. NOTE: Renouncing ownership will leave the contract without an owner, thereby removing any functionality that is only available to the owner."
      },
      "safeTransferFrom(address,address,uint256)": {
        "details": "See {IERC721-safeTransferFrom}."
      },
      "safeTransferFrom(address,address,uint256,bytes)": {
        "details": "See {IERC721-safeTransferFrom}."
      },
      "setApprovalForAll(address,bool)": {
        "details": "See {IERC721-setApprovalForAll}."
      },
      "supportsInterface(bytes4)": {
        "details": "See {IERC165-supportsInterface}."
      },
      "symbol()": {
        "details": "See {IERC721Metadata-symbol}."
      },
      "tokenByIndex(uint256)": {
        "details": "See {IERC721Enumerable-tokenByIndex}."
      },
      "tokenOfOwnerByIndex(address,uint256)": {
        "details": "See {IERC721Enumerable-tokenOfOwnerByIndex}."
      },
      "tokenURI(uint256)": {
        "details": "See {IERC721Metadata-tokenURI}."
      },
      "totalSupply()": {
        "details": "See {IERC721Enumerable-totalSupply}."
      },
      "transferFrom(address,address,uint256)": {
        "details": "See {IERC721-transferFrom}."
      },
      "transferOwnership(address)": {
        "details": "Transfers ownership of the contract to a new account (`newOwner`). Can only be called by the current owner."
      }
    },
    "version": 1
  },
  "userdoc": {
    "kind": "user",
    "methods": {},
    "version": 1
  }
}