{
  "contractName": "BPriceOracle",
  "abi": [
    {
      "inputs": [
        {
          "internalType": "uint256[]",
          "name": "_rentPrices",
          "type": "uint256[]"
        }
      ],
      "stateMutability": "nonpayable",
      "type": "constructor"
    },
    {
      "anonymous": false,
      "inputs": [
        {
          "indexed": true,
          "internalType": "address",
          "name": "previousOwner",
          "type": "address"
        },
        {
          "indexed": true,
          "internalType": "address",
          "name": "newOwner",
          "type": "address"
        }
      ],
      "name": "OwnershipTransferred",
      "type": "event"
    },
    {
      "anonymous": false,
      "inputs": [
        {
          "indexed": false,
          "internalType": "uint256[]",
          "name": "prices",
          "type": "uint256[]"
        }
      ],
      "name": "RentPriceChanged",
      "type": "event"
    },
    {
      "inputs": [],
      "name": "owner",
      "outputs": [
        {
          "internalType": "address",
          "name": "",
          "type": "address"
        }
      ],
      "stateMutability": "view",
      "type": "function"
    },
    {
      "inputs": [],
      "name": "renounceOwnership",
      "outputs": [],
      "stateMutability": "nonpayable",
      "type": "function"
    },
    {
      "inputs": [
        {
          "internalType": "uint256",
          "name": "",
          "type": "uint256"
        }
      ],
      "name": "rentPrices",
      "outputs": [
        {
          "internalType": "uint256",
          "name": "",
          "type": "uint256"
        }
      ],
      "stateMutability": "view",
      "type": "function"
    },
    {
      "inputs": [
        {
          "internalType": "address",
          "name": "newOwner",
          "type": "address"
        }
      ],
      "name": "transferOwnership",
      "outputs": [],
      "stateMutability": "nonpayable",
      "type": "function"
    },
    {
      "inputs": [
        {
          "internalType": "string",
          "name": "name",
          "type": "string"
        },
        {
          "internalType": "uint256",
          "name": "expires",
          "type": "uint256"
        },
        {
          "internalType": "uint256",
          "name": "duration",
          "type": "uint256"
        }
      ],
      "name": "price",
      "outputs": [
        {
          "internalType": "uint256",
          "name": "",
          "type": "uint256"
        }
      ],
      "stateMutability": "view",
      "type": "function"
    },
    {
      "inputs": [
        {
          "internalType": "uint256[]",
          "name": "_rentPrices",
          "type": "uint256[]"
        }
      ],
      "name": "setPrices",
      "outputs": [],
      "stateMutability": "nonpayable",
      "type": "function"
    },
    {
      "inputs": [
        {
          "internalType": "bytes4",
          "name": "interfaceID",
          "type": "bytes4"
        }
      ],
      "name": "supportsInterface",
      "outputs": [
        {
          "internalType": "bool",
          "name": "",
          "type": "bool"
        }
      ],
      "stateMutability": "view",
      "type": "function"
    }
  ],
  "bytecode": "0x60806040523480156200001157600080fd5b506040516200190b3803806200190b83398181016040528101906200003791906200039f565b62000069620000546200008a640100000000026401000000009004565b62000092640100000000026401000000009004565b620000838162000156640100000000026401000000009004565b506200064b565b600033905090565b60008060009054906101000a900473ffffffffffffffffffffffffffffffffffffffff169050816000806101000a81548173ffffffffffffffffffffffffffffffffffffffff021916908373ffffffffffffffffffffffffffffffffffffffff1602179055508173ffffffffffffffffffffffffffffffffffffffff168173ffffffffffffffffffffffffffffffffffffffff167f8be0079c531659141344cd1fd0a4f28419497f9722a3daafe3b4186f6b6457e060405160405180910390a35050565b6200016f6200008a640100000000026401000000009004565b73ffffffffffffffffffffffffffffffffffffffff166200019e6200024c640100000000026401000000009004565b73ffffffffffffffffffffffffffffffffffffffff1614620001f7576040517f08c379a0000000000000000000000000000000000000000000000000000000008152600401620001ee90620004c4565b60405180910390fd5b80600190805190602001906200020f92919062000275565b507f73422d94aedd596c2d4d39f27a01033adc390a9054efaf259afefd95ef7331df81604051620002419190620004a0565b60405180910390a150565b60008060009054906101000a900473ffffffffffffffffffffffffffffffffffffffff16905090565b828054828255906000526020600020908101928215620002b4579160200282015b82811115620002b357825182559160200191906001019062000296565b5b509050620002c39190620002c7565b5090565b5b80821115620002e2576000816000905550600101620002c8565b5090565b6000620002fd620002f7846200050f565b620004e6565b905080838252602082019050828560208602820111156200031d57600080fd5b60005b8581101562000351578162000336888262000388565b84526020840193506020830192505060018101905062000320565b5050509392505050565b600082601f8301126200036d57600080fd5b81516200037f848260208601620002e6565b91505092915050565b600081519050620003998162000631565b92915050565b600060208284031215620003b257600080fd5b600082015167ffffffffffffffff811115620003cd57600080fd5b620003db848285016200035b565b91505092915050565b6000620003f283836200048f565b60208301905092915050565b60006200040b826200054e565b62000417818562000566565b935062000424836200053e565b8060005b838110156200045b5781516200043f8882620003e4565b97506200044c8362000559565b92505060018101905062000428565b5085935050505092915050565b60006200047760208362000577565b9150620004848262000608565b602082019050919050565b6200049a8162000588565b82525050565b60006020820190508181036000830152620004bc8184620003fe565b905092915050565b60006020820190508181036000830152620004df8162000468565b9050919050565b6000620004f262000505565b905062000500828262000592565b919050565b6000604051905090565b600067ffffffffffffffff8211156200052d576200052c620005c8565b5b602082029050602081019050919050565b6000819050602082019050919050565b600081519050919050565b6000602082019050919050565b600082825260208201905092915050565b600082825260208201905092915050565b6000819050919050565b6200059d82620005f7565b810181811067ffffffffffffffff82111715620005bf57620005be620005c8565b5b80604052505050565b7f4e487b7100000000000000000000000000000000000000000000000000000000600052604160045260246000fd5b6000601f19601f8301169050919050565b7f4f776e61626c653a2063616c6c6572206973206e6f7420746865206f776e6572600082015250565b6200063c8162000588565b81146200064857600080fd5b50565b6112b0806200065b6000396000f3fe608060405234801561001057600080fd5b506004361061009a576000357c010000000000000000000000000000000000000000000000000000000090048063715018a611610078578063715018a61461012f57806379cf92d3146101395780638da5cb5b14610155578063f2fde38b146101735761009a565b806301ffc9a71461009f57806306d5d0b6146100cf57806350e9a715146100ff575b600080fd5b6100b960048036038101906100b49190610c18565b61018f565b6040516100c69190610e0b565b60405180910390f35b6100e960048036038101906100e49190610cad565b610283565b6040516100f69190610e66565b60405180910390f35b61011960048036038101906101149190610c41565b6102a7565b6040516101269190610e66565b60405180910390f35b6101376103c0565b005b610153600480360381019061014e9190610bd7565b610448565b005b61015d610515565b60405161016a9190610dce565b60405180910390f35b61018d60048036038101906101889190610bae565b61053e565b005b60007f01ffc9a7a5cef8baa21ed3c5c0d7e23accb804b619e9333b597f47a0d84076e27bffffffffffffffffffffffffffffffffffffffffffffffffffffffff1916827bffffffffffffffffffffffffffffffffffffffffffffffffffffffff1916148061027c57507fa34e3596c835a2bb0c76af3bc7896686f9d9abbb37ea27272246c0e9dab761c57f50e9a715a506f81ba3cfca69197fa8231c19274521697ca4e52316238d69d8a9187bffffffffffffffffffffffffffffffffffffffffffffffffffffffff1916827bffffffffffffffffffffffffffffffffffffffffffffffffffffffff1916145b9050919050565b6001818154811061029357600080fd5b906000526020600020016000915090505481565b6000806102f786868080601f016020809104026020016040519081016040528093929190818152602001838380828437600081840152601f19601f82011690508083019250505050505050610636565b905060018054905081111561030f5760018054905090505b6000811161031c57600080fd5b600061038084600180856103309190610ffd565b81548110610367577f4e487b7100000000000000000000000000000000000000000000000000000000600052603260045260246000fd5b90600052602060002001546108ec90919063ffffffff16565b90506103b46402540be4006103a6670de0b6b3a7640000846108ec90919063ffffffff16565b61093190919063ffffffff16565b92505050949350505050565b6103c8610959565b73ffffffffffffffffffffffffffffffffffffffff166103e6610515565b73ffffffffffffffffffffffffffffffffffffffff161461043c576040517f08c379a000000000000000000000000000000000000000000000000000000000815260040161043390610e46565b60405180910390fd5b6104466000610961565b565b610450610959565b73ffffffffffffffffffffffffffffffffffffffff1661046e610515565b73ffffffffffffffffffffffffffffffffffffffff16146104c4576040517f08c379a00000000000000000000000000000000000000000000000000000000081526004016104bb90610e46565b60405180910390fd5b80600190805190602001906104da929190610a25565b507f73422d94aedd596c2d4d39f27a01033adc390a9054efaf259afefd95ef7331df8160405161050a9190610de9565b60405180910390a150565b60008060009054906101000a900473ffffffffffffffffffffffffffffffffffffffff16905090565b610546610959565b73ffffffffffffffffffffffffffffffffffffffff16610564610515565b73ffffffffffffffffffffffffffffffffffffffff16146105ba576040517f08c379a00000000000000000000000000000000000000000000000000000000081526004016105b190610e46565b60405180910390fd5b600073ffffffffffffffffffffffffffffffffffffffff168173ffffffffffffffffffffffffffffffffffffffff16141561062a576040517f08c379a000000000000000000000000000000000000000000000000000000000815260040161062190610e26565b60405180910390fd5b61063381610961565b50565b60008060008084519050600092505b808210156108e1576000858381518110610688577f4e487b7100000000000000000000000000000000000000000000000000000000600052603260045260246000fd5b60200101517f010000000000000000000000000000000000000000000000000000000000000090047f010000000000000000000000000000000000000000000000000000000000000002905060807f010000000000000000000000000000000000000000000000000000000000000002817effffffffffffffffffffffffffffffffffffffffffffffffffffffffffffff191610156107355760018361072e9190610f1c565b92506108cd565b60e07f010000000000000000000000000000000000000000000000000000000000000002817effffffffffffffffffffffffffffffffffffffffffffffffffffffffffffff191610156107965760028361078f9190610f1c565b92506108cc565b60f07f010000000000000000000000000000000000000000000000000000000000000002817effffffffffffffffffffffffffffffffffffffffffffffffffffffffffffff191610156107f7576003836107f09190610f1c565b92506108cb565b60f87f010000000000000000000000000000000000000000000000000000000000000002817effffffffffffffffffffffffffffffffffffffffffffffffffffffffffffff19161015610858576004836108519190610f1c565b92506108ca565b60fc7f010000000000000000000000000000000000000000000000000000000000000002817effffffffffffffffffffffffffffffffffffffffffffffffffffffffffffff191610156108b9576005836108b29190610f1c565b92506108c9565b6006836108c69190610f1c565b92505b5b5b5b5b5082806108d9906110d6565b935050610645565b829350505050919050565b6000808314156108ff576000905061092b565b6000828461090d9190610fa3565b905082848261091c9190610f72565b1461092657600080fd5b809150505b92915050565b600080821161093f57600080fd5b6000828461094d9190610f72565b90508091505092915050565b600033905090565b60008060009054906101000a900473ffffffffffffffffffffffffffffffffffffffff169050816000806101000a81548173ffffffffffffffffffffffffffffffffffffffff021916908373ffffffffffffffffffffffffffffffffffffffff1602179055508173ffffffffffffffffffffffffffffffffffffffff168173ffffffffffffffffffffffffffffffffffffffff167f8be0079c531659141344cd1fd0a4f28419497f9722a3daafe3b4186f6b6457e060405160405180910390a35050565b828054828255906000526020600020908101928215610a61579160200282015b82811115610a60578251825591602001919060010190610a45565b5b509050610a6e9190610a72565b5090565b5b80821115610a8b576000816000905550600101610a73565b5090565b6000610aa2610a9d84610ea6565b610e81565b90508083825260208201905082856020860282011115610ac157600080fd5b60005b85811015610af15781610ad78882610b99565b845260208401935060208301925050600181019050610ac4565b5050509392505050565b600081359050610b0a81611235565b92915050565b600082601f830112610b2157600080fd5b8135610b31848260208601610a8f565b91505092915050565b600081359050610b498161124c565b92915050565b60008083601f840112610b6157600080fd5b8235905067ffffffffffffffff811115610b7a57600080fd5b602083019150836001820283011115610b9257600080fd5b9250929050565b600081359050610ba881611263565b92915050565b600060208284031215610bc057600080fd5b6000610bce84828501610afb565b91505092915050565b600060208284031215610be957600080fd5b600082013567ffffffffffffffff811115610c0357600080fd5b610c0f84828501610b10565b91505092915050565b600060208284031215610c2a57600080fd5b6000610c3884828501610b3a565b91505092915050565b60008060008060608587031215610c5757600080fd5b600085013567ffffffffffffffff811115610c7157600080fd5b610c7d87828801610b4f565b94509450506020610c9087828801610b99565b9250506040610ca187828801610b99565b91505092959194509250565b600060208284031215610cbf57600080fd5b6000610ccd84828501610b99565b91505092915050565b6000610ce28383610db0565b60208301905092915050565b610cf781611031565b82525050565b6000610d0882610ee2565b610d128185610efa565b9350610d1d83610ed2565b8060005b83811015610d4e578151610d358882610cd6565b9750610d4083610eed565b925050600181019050610d21565b5085935050505092915050565b610d6481611043565b82525050565b6000610d77602683610f0b565b9150610d82826111bd565b604082019050919050565b6000610d9a602083610f0b565b9150610da58261120c565b602082019050919050565b610db98161109b565b82525050565b610dc88161109b565b82525050565b6000602082019050610de36000830184610cee565b92915050565b60006020820190508181036000830152610e038184610cfd565b905092915050565b6000602082019050610e206000830184610d5b565b92915050565b60006020820190508181036000830152610e3f81610d6a565b9050919050565b60006020820190508181036000830152610e5f81610d8d565b9050919050565b6000602082019050610e7b6000830184610dbf565b92915050565b6000610e8b610e9c565b9050610e9782826110a5565b919050565b6000604051905090565b600067ffffffffffffffff821115610ec157610ec061117d565b5b602082029050602081019050919050565b6000819050602082019050919050565b600081519050919050565b6000602082019050919050565b600082825260208201905092915050565b600082825260208201905092915050565b6000610f278261109b565b9150610f328361109b565b9250827fffffffffffffffffffffffffffffffffffffffffffffffffffffffffffffffff03821115610f6757610f6661111f565b5b828201905092915050565b6000610f7d8261109b565b9150610f888361109b565b925082610f9857610f9761114e565b5b828204905092915050565b6000610fae8261109b565b9150610fb98361109b565b9250817fffffffffffffffffffffffffffffffffffffffffffffffffffffffffffffffff0483118215151615610ff257610ff161111f565b5b828202905092915050565b60006110088261109b565b91506110138361109b565b9250828210156110265761102561111f565b5b828203905092915050565b600061103c8261107b565b9050919050565b60008115159050919050565b60007fffffffff0000000000000000000000000000000000000000000000000000000082169050919050565b600073ffffffffffffffffffffffffffffffffffffffff82169050919050565b6000819050919050565b6110ae826111ac565b810181811067ffffffffffffffff821117156110cd576110cc61117d565b5b80604052505050565b60006110e18261109b565b91507fffffffffffffffffffffffffffffffffffffffffffffffffffffffffffffffff8214156111145761111361111f565b5b600182019050919050565b7f4e487b7100000000000000000000000000000000000000000000000000000000600052601160045260246000fd5b7f4e487b7100000000000000000000000000000000000000000000000000000000600052601260045260246000fd5b7f4e487b7100000000000000000000000000000000000000000000000000000000600052604160045260246000fd5b6000601f19601f8301169050919050565b7f4f776e61626c653a206e6577206f776e657220697320746865207a65726f206160008201527f6464726573730000000000000000000000000000000000000000000000000000602082015250565b7f4f776e61626c653a2063616c6c6572206973206e6f7420746865206f776e6572600082015250565b61123e81611031565b811461124957600080fd5b50565b6112558161104f565b811461126057600080fd5b50565b61126c8161109b565b811461127757600080fd5b5056fea26469706673582212203297d520df9fdf6a3f097df1e1fb1f18a21bbdd58b14971b9bbbcec1aa962e6a64736f6c63430008040033",
  "immutableReferences": {},
  "source": "// SPDX-License-Identifier: MIT\r\n\r\npragma solidity >=0.8.4;\r\n\r\nimport \"./PriceOracle.sol\";\r\nimport \"./SafeMath.sol\";\r\nimport \"./StringUtils.sol\";\r\nimport \"@openzeppelin/contracts/access/Ownable.sol\";\r\n\r\ninterface AggregatorInterface {\r\n  function latestAnswer() external view returns (int256);\r\n}\r\n\r\n// StablePriceOracle sets a price in USD, based on an oracle.\r\ncontract BPriceOracle is Ownable, PriceOracle {\r\n    using SafeMath for *;\r\n    using StringUtils for *;\r\n\r\n    // Rent in base price units by length. Element 0 is for 1-length names, and so on.\r\n    uint[] public rentPrices;\r\n\r\n    event RentPriceChanged(uint[] prices);\r\n\r\n    bytes4 constant private INTERFACE_META_ID = bytes4(keccak256(\"supportsInterface(bytes4)\"));\r\n    bytes4 constant private ORACLE_ID = bytes4(keccak256(\"price(string,uint256,uint256)\") ^ keccak256(\"premium(string,uint256,uint256)\"));\r\n\r\n    constructor(uint[] memory _rentPrices) public {\r\n        setPrices(_rentPrices);\r\n    }\r\n\r\n    function price(string calldata name, uint expires, uint duration) external view override returns(uint) {\r\n        uint len = name.strlen();\r\n        if(len > rentPrices.length) {\r\n            len = rentPrices.length;\r\n        }\r\n        require(len > 0);\r\n        \r\n        uint basePrice = rentPrices[len - 1].mul(duration);\r\n        return basePrice.mul(1e18).div(10000000000);\r\n    }\r\n\r\n    /**\r\n     * @dev Sets rent prices.\r\n     * @param _rentPrices The price array. Each element corresponds to a specific\r\n     *                    name length; names longer than the length of the array\r\n     *                    default to the price of the last element. Values are\r\n     *                    in base price units, equal to one attodollar (1e-18\r\n     *                    dollar) each.\r\n     */\r\n    function setPrices(uint[] memory _rentPrices) public onlyOwner {\r\n        rentPrices = _rentPrices;\r\n        emit RentPriceChanged(_rentPrices);\r\n    }\r\n\r\n\r\n    function supportsInterface(bytes4 interfaceID) public view virtual returns (bool) {\r\n        return interfaceID == INTERFACE_META_ID || interfaceID == ORACLE_ID;\r\n    }\r\n}\r\n",
  "sourcePath": "E:\\CNS\\truffle-ens\\contracts\\ynsregistry\\CNSPriceOracle.sol",
  "compiler": {
    "name": "solc",
    "version": "0.8.4+commit.c7e474f2.Emscripten.clang"
  },
  "schemaVersion": "3.4.3",
  "updatedAt": "2021-10-15T09:44:04.632Z",
  "devdoc": {
    "kind": "dev",
    "methods": {
      "owner()": {
        "details": "Returns the address of the current owner."
      },
      "price(string,uint256,uint256)": {
        "details": "Returns the price to register or renew a name.",
        "params": {
          "duration": "How long the name is being registered or extended for, in seconds.",
          "expires": "When the name presently expires (0 if this is a new registration).",
          "name": "The name being registered or renewed."
        },
        "returns": {
          "_0": "The price of this renewal or registration, in wei."
        }
      },
      "renounceOwnership()": {
        "details": "Leaves the contract without owner. It will not be possible to call `onlyOwner` functions anymore. Can only be called by the current owner. NOTE: Renouncing ownership will leave the contract without an owner, thereby removing any functionality that is only available to the owner."
      },
      "setPrices(uint256[])": {
        "details": "Sets rent prices.",
        "params": {
          "_rentPrices": "The price array. Each element corresponds to a specific                    name length; names longer than the length of the array                    default to the price of the last element. Values are                    in base price units, equal to one attodollar (1e-18                    dollar) each."
        }
      },
      "transferOwnership(address)": {
        "details": "Transfers ownership of the contract to a new account (`newOwner`). Can only be called by the current owner."
      }
    },
    "version": 1
  },
  "userdoc": {
    "kind": "user",
    "methods": {},
    "version": 1
  }
}