{
  "contractName": "CNSPriceOracle",
  "abi": [
    {
      "inputs": [
        {
          "internalType": "uint256[]",
          "name": "_rentPrices",
          "type": "uint256[]"
        }
      ],
      "stateMutability": "nonpayable",
      "type": "constructor"
    },
    {
      "anonymous": false,
      "inputs": [
        {
          "indexed": true,
          "internalType": "address",
          "name": "previousOwner",
          "type": "address"
        },
        {
          "indexed": true,
          "internalType": "address",
          "name": "newOwner",
          "type": "address"
        }
      ],
      "name": "OwnershipTransferred",
      "type": "event"
    },
    {
      "anonymous": false,
      "inputs": [
        {
          "indexed": false,
          "internalType": "uint256[]",
          "name": "prices",
          "type": "uint256[]"
        }
      ],
      "name": "RentPriceChanged",
      "type": "event"
    },
    {
      "inputs": [
        {
          "internalType": "address",
          "name": "",
          "type": "address"
        }
      ],
      "name": "discount",
      "outputs": [
        {
          "internalType": "uint256",
          "name": "",
          "type": "uint256"
        }
      ],
      "stateMutability": "view",
      "type": "function",
      "constant": true
    },
    {
      "inputs": [],
      "name": "owner",
      "outputs": [
        {
          "internalType": "address",
          "name": "",
          "type": "address"
        }
      ],
      "stateMutability": "view",
      "type": "function",
      "constant": true
    },
    {
      "inputs": [],
      "name": "renounceOwnership",
      "outputs": [],
      "stateMutability": "nonpayable",
      "type": "function"
    },
    {
      "inputs": [
        {
          "internalType": "uint256",
          "name": "",
          "type": "uint256"
        }
      ],
      "name": "rentPrices",
      "outputs": [
        {
          "internalType": "uint256",
          "name": "",
          "type": "uint256"
        }
      ],
      "stateMutability": "view",
      "type": "function",
      "constant": true
    },
    {
      "inputs": [
        {
          "internalType": "address",
          "name": "newOwner",
          "type": "address"
        }
      ],
      "name": "transferOwnership",
      "outputs": [],
      "stateMutability": "nonpayable",
      "type": "function"
    },
    {
      "inputs": [
        {
          "internalType": "string",
          "name": "name",
          "type": "string"
        },
        {
          "internalType": "uint256",
          "name": "expires",
          "type": "uint256"
        },
        {
          "internalType": "uint256",
          "name": "duration",
          "type": "uint256"
        },
        {
          "internalType": "address",
          "name": "dealer",
          "type": "address"
        }
      ],
      "name": "price",
      "outputs": [
        {
          "internalType": "uint256",
          "name": "",
          "type": "uint256"
        }
      ],
      "stateMutability": "view",
      "type": "function",
      "constant": true
    },
    {
      "inputs": [
        {
          "internalType": "uint256[]",
          "name": "_rentPrices",
          "type": "uint256[]"
        }
      ],
      "name": "setPrices",
      "outputs": [],
      "stateMutability": "nonpayable",
      "type": "function"
    },
    {
      "inputs": [
        {
          "internalType": "address",
          "name": "_dealer",
          "type": "address"
        },
        {
          "internalType": "uint256",
          "name": "_discount",
          "type": "uint256"
        }
      ],
      "name": "setDiscount",
      "outputs": [],
      "stateMutability": "nonpayable",
      "type": "function"
    },
    {
      "inputs": [
        {
          "internalType": "bytes4",
          "name": "interfaceID",
          "type": "bytes4"
        }
      ],
      "name": "supportsInterface",
      "outputs": [
        {
          "internalType": "bool",
          "name": "",
          "type": "bool"
        }
      ],
      "stateMutability": "view",
      "type": "function",
      "constant": true
    }
  ],
  "bytecode": "0x60806040523480156200001157600080fd5b5060405162001beb38038062001beb8339818101604052810190620000379190620003eb565b6200006962000054620000d6640100000000026401000000009004565b620000de640100000000026401000000009004565b6200008381620001a2640100000000026401000000009004565b670de0b6b3a7640000600260008073ffffffffffffffffffffffffffffffffffffffff1673ffffffffffffffffffffffffffffffffffffffff168152602001908152602001600020819055505062000697565b600033905090565b60008060009054906101000a900473ffffffffffffffffffffffffffffffffffffffff169050816000806101000a81548173ffffffffffffffffffffffffffffffffffffffff021916908373ffffffffffffffffffffffffffffffffffffffff1602179055508173ffffffffffffffffffffffffffffffffffffffff168173ffffffffffffffffffffffffffffffffffffffff167f8be0079c531659141344cd1fd0a4f28419497f9722a3daafe3b4186f6b6457e060405160405180910390a35050565b620001bb620000d6640100000000026401000000009004565b73ffffffffffffffffffffffffffffffffffffffff16620001ea62000298640100000000026401000000009004565b73ffffffffffffffffffffffffffffffffffffffff161462000243576040517f08c379a00000000000000000000000000000000000000000000000000000000081526004016200023a9062000510565b60405180910390fd5b80600190805190602001906200025b929190620002c1565b507f73422d94aedd596c2d4d39f27a01033adc390a9054efaf259afefd95ef7331df816040516200028d9190620004ec565b60405180910390a150565b60008060009054906101000a900473ffffffffffffffffffffffffffffffffffffffff16905090565b82805482825590600052602060002090810192821562000300579160200282015b82811115620002ff578251825591602001919060010190620002e2565b5b5090506200030f919062000313565b5090565b5b808211156200032e57600081600090555060010162000314565b5090565b60006200034962000343846200055b565b62000532565b905080838252602082019050828560208602820111156200036957600080fd5b60005b858110156200039d5781620003828882620003d4565b8452602084019350602083019250506001810190506200036c565b5050509392505050565b600082601f830112620003b957600080fd5b8151620003cb84826020860162000332565b91505092915050565b600081519050620003e5816200067d565b92915050565b600060208284031215620003fe57600080fd5b600082015167ffffffffffffffff8111156200041957600080fd5b6200042784828501620003a7565b91505092915050565b60006200043e8383620004db565b60208301905092915050565b600062000457826200059a565b620004638185620005b2565b935062000470836200058a565b8060005b83811015620004a75781516200048b888262000430565b97506200049883620005a5565b92505060018101905062000474565b5085935050505092915050565b6000620004c3602083620005c3565b9150620004d08262000654565b602082019050919050565b620004e681620005d4565b82525050565b600060208201905081810360008301526200050881846200044a565b905092915050565b600060208201905081810360008301526200052b81620004b4565b9050919050565b60006200053e62000551565b90506200054c8282620005de565b919050565b6000604051905090565b600067ffffffffffffffff82111562000579576200057862000614565b5b602082029050602081019050919050565b6000819050602082019050919050565b600081519050919050565b6000602082019050919050565b600082825260208201905092915050565b600082825260208201905092915050565b6000819050919050565b620005e98262000643565b810181811067ffffffffffffffff821117156200060b576200060a62000614565b5b80604052505050565b7f4e487b7100000000000000000000000000000000000000000000000000000000600052604160045260246000fd5b6000601f19601f8301169050919050565b7f4f776e61626c653a2063616c6c6572206973206e6f7420746865206f776e6572600082015250565b6200068881620005d4565b81146200069457600080fd5b50565b61154480620006a76000396000f3fe608060405234801561001057600080fd5b50600436106100b0576000357c01000000000000000000000000000000000000000000000000000000009004806379cf92d31161008357806379cf92d31461013b57806389fce619146101575780638da5cb5b14610187578063ce068980146101a5578063f2fde38b146101d5576100b0565b806301ffc9a7146100b557806306d5d0b6146100e55780631e92ffe514610115578063715018a614610131575b600080fd5b6100cf60048036038101906100ca9190610e67565b6101f1565b6040516100dc919061106e565b60405180910390f35b6100ff60048036038101906100fa9190610f10565b6102e5565b60405161010c91906110c9565b60405180910390f35b61012f600480360381019061012a9190610dea565b610309565b005b6101396103cd565b005b61015560048036038101906101509190610e26565b610455565b005b610171600480360381019061016c9190610e90565b610522565b60405161017e91906110c9565b60405180910390f35b61018f610710565b60405161019c9190611031565b60405180910390f35b6101bf60048036038101906101ba9190610dc1565b610739565b6040516101cc91906110c9565b60405180910390f35b6101ef60048036038101906101ea9190610dc1565b610751565b005b60007f01ffc9a7a5cef8baa21ed3c5c0d7e23accb804b619e9333b597f47a0d84076e27bffffffffffffffffffffffffffffffffffffffffffffffffffffffff1916827bffffffffffffffffffffffffffffffffffffffffffffffffffffffff191614806102de57507fa34e3596c835a2bb0c76af3bc7896686f9d9abbb37ea27272246c0e9dab761c57f50e9a715a506f81ba3cfca69197fa8231c19274521697ca4e52316238d69d8a9187bffffffffffffffffffffffffffffffffffffffffffffffffffffffff1916827bffffffffffffffffffffffffffffffffffffffffffffffffffffffff1916145b9050919050565b600181815481106102f557600080fd5b906000526020600020016000915090505481565b610311610849565b73ffffffffffffffffffffffffffffffffffffffff1661032f610710565b73ffffffffffffffffffffffffffffffffffffffff1614610385576040517f08c379a000000000000000000000000000000000000000000000000000000000815260040161037c906110a9565b60405180910390fd5b80600260008473ffffffffffffffffffffffffffffffffffffffff1673ffffffffffffffffffffffffffffffffffffffff168152602001908152602001600020819055505050565b6103d5610849565b73ffffffffffffffffffffffffffffffffffffffff166103f3610710565b73ffffffffffffffffffffffffffffffffffffffff1614610449576040517f08c379a0000000000000000000000000000000000000000000000000000000008152600401610440906110a9565b60405180910390fd5b6104536000610851565b565b61045d610849565b73ffffffffffffffffffffffffffffffffffffffff1661047b610710565b73ffffffffffffffffffffffffffffffffffffffff16146104d1576040517f08c379a00000000000000000000000000000000000000000000000000000000081526004016104c8906110a9565b60405180910390fd5b80600190805190602001906104e7929190610c38565b507f73422d94aedd596c2d4d39f27a01033adc390a9054efaf259afefd95ef7331df81604051610517919061104c565b60405180910390a150565b60008061057287878080601f016020809104026020016040519081016040528093929190818152602001838380828437600081840152601f19601f82011690508083019250505050505050610915565b905060018054905081111561058a5760018054905090505b6000811161059757600080fd5b60006105b06301e187e086610bcb90919063ffffffff16565b905060006301e187e0866105c49190611382565b11156105da576001816105d7919061117f565b90505b60006106e56000600260008873ffffffffffffffffffffffffffffffffffffffff1673ffffffffffffffffffffffffffffffffffffffff168152602001908152602001600020541461066b57600260008773ffffffffffffffffffffffffffffffffffffffff1673ffffffffffffffffffffffffffffffffffffffff16815260200190815260200160002054610675565b670de0b6b3a76400005b6106d784600180886106879190611260565b815481106106be577f4e487b7100000000000000000000000000000000000000000000000000000000600052603260045260246000fd5b9060005260206000200154610bf390919063ffffffff16565b610bf390919063ffffffff16565b9050610702670de0b6b3a764000082610bcb90919063ffffffff16565b935050505095945050505050565b60008060009054906101000a900473ffffffffffffffffffffffffffffffffffffffff16905090565b60026020528060005260406000206000915090505481565b610759610849565b73ffffffffffffffffffffffffffffffffffffffff16610777610710565b73ffffffffffffffffffffffffffffffffffffffff16146107cd576040517f08c379a00000000000000000000000000000000000000000000000000000000081526004016107c4906110a9565b60405180910390fd5b600073ffffffffffffffffffffffffffffffffffffffff168173ffffffffffffffffffffffffffffffffffffffff16141561083d576040517f08c379a000000000000000000000000000000000000000000000000000000000815260040161083490611089565b60405180910390fd5b61084681610851565b50565b600033905090565b60008060009054906101000a900473ffffffffffffffffffffffffffffffffffffffff169050816000806101000a81548173ffffffffffffffffffffffffffffffffffffffff021916908373ffffffffffffffffffffffffffffffffffffffff1602179055508173ffffffffffffffffffffffffffffffffffffffff168173ffffffffffffffffffffffffffffffffffffffff167f8be0079c531659141344cd1fd0a4f28419497f9722a3daafe3b4186f6b6457e060405160405180910390a35050565b60008060008084519050600092505b80821015610bc0576000858381518110610967577f4e487b7100000000000000000000000000000000000000000000000000000000600052603260045260246000fd5b60200101517f010000000000000000000000000000000000000000000000000000000000000090047f010000000000000000000000000000000000000000000000000000000000000002905060807f010000000000000000000000000000000000000000000000000000000000000002817effffffffffffffffffffffffffffffffffffffffffffffffffffffffffffff19161015610a1457600183610a0d919061117f565b9250610bac565b60e07f010000000000000000000000000000000000000000000000000000000000000002817effffffffffffffffffffffffffffffffffffffffffffffffffffffffffffff19161015610a7557600283610a6e919061117f565b9250610bab565b60f07f010000000000000000000000000000000000000000000000000000000000000002817effffffffffffffffffffffffffffffffffffffffffffffffffffffffffffff19161015610ad657600383610acf919061117f565b9250610baa565b60f87f010000000000000000000000000000000000000000000000000000000000000002817effffffffffffffffffffffffffffffffffffffffffffffffffffffffffffff19161015610b3757600483610b30919061117f565b9250610ba9565b60fc7f010000000000000000000000000000000000000000000000000000000000000002817effffffffffffffffffffffffffffffffffffffffffffffffffffffffffffff19161015610b9857600583610b91919061117f565b9250610ba8565b600683610ba5919061117f565b92505b5b5b5b5b508280610bb890611339565b935050610924565b829350505050919050565b6000808211610bd957600080fd5b60008284610be791906111d5565b90508091505092915050565b600080831415610c065760009050610c32565b60008284610c149190611206565b9050828482610c2391906111d5565b14610c2d57600080fd5b809150505b92915050565b828054828255906000526020600020908101928215610c74579160200282015b82811115610c73578251825591602001919060010190610c58565b5b509050610c819190610c85565b5090565b5b80821115610c9e576000816000905550600101610c86565b5090565b6000610cb5610cb084611109565b6110e4565b90508083825260208201905082856020860282011115610cd457600080fd5b60005b85811015610d045781610cea8882610dac565b845260208401935060208301925050600181019050610cd7565b5050509392505050565b600081359050610d1d816114c9565b92915050565b600082601f830112610d3457600080fd5b8135610d44848260208601610ca2565b91505092915050565b600081359050610d5c816114e0565b92915050565b60008083601f840112610d7457600080fd5b8235905067ffffffffffffffff811115610d8d57600080fd5b602083019150836001820283011115610da557600080fd5b9250929050565b600081359050610dbb816114f7565b92915050565b600060208284031215610dd357600080fd5b6000610de184828501610d0e565b91505092915050565b60008060408385031215610dfd57600080fd5b6000610e0b85828601610d0e565b9250506020610e1c85828601610dac565b9150509250929050565b600060208284031215610e3857600080fd5b600082013567ffffffffffffffff811115610e5257600080fd5b610e5e84828501610d23565b91505092915050565b600060208284031215610e7957600080fd5b6000610e8784828501610d4d565b91505092915050565b600080600080600060808688031215610ea857600080fd5b600086013567ffffffffffffffff811115610ec257600080fd5b610ece88828901610d62565b95509550506020610ee188828901610dac565b9350506040610ef288828901610dac565b9250506060610f0388828901610d0e565b9150509295509295909350565b600060208284031215610f2257600080fd5b6000610f3084828501610dac565b91505092915050565b6000610f458383611013565b60208301905092915050565b610f5a81611294565b82525050565b6000610f6b82611145565b610f75818561115d565b9350610f8083611135565b8060005b83811015610fb1578151610f988882610f39565b9750610fa383611150565b925050600181019050610f84565b5085935050505092915050565b610fc7816112a6565b82525050565b6000610fda60268361116e565b9150610fe582611451565b604082019050919050565b6000610ffd60208361116e565b9150611008826114a0565b602082019050919050565b61101c816112fe565b82525050565b61102b816112fe565b82525050565b60006020820190506110466000830184610f51565b92915050565b600060208201905081810360008301526110668184610f60565b905092915050565b60006020820190506110836000830184610fbe565b92915050565b600060208201905081810360008301526110a281610fcd565b9050919050565b600060208201905081810360008301526110c281610ff0565b9050919050565b60006020820190506110de6000830184611022565b92915050565b60006110ee6110ff565b90506110fa8282611308565b919050565b6000604051905090565b600067ffffffffffffffff82111561112457611123611411565b5b602082029050602081019050919050565b6000819050602082019050919050565b600081519050919050565b6000602082019050919050565b600082825260208201905092915050565b600082825260208201905092915050565b600061118a826112fe565b9150611195836112fe565b9250827fffffffffffffffffffffffffffffffffffffffffffffffffffffffffffffffff038211156111ca576111c96113b3565b5b828201905092915050565b60006111e0826112fe565b91506111eb836112fe565b9250826111fb576111fa6113e2565b5b828204905092915050565b6000611211826112fe565b915061121c836112fe565b9250817fffffffffffffffffffffffffffffffffffffffffffffffffffffffffffffffff0483118215151615611255576112546113b3565b5b828202905092915050565b600061126b826112fe565b9150611276836112fe565b925082821015611289576112886113b3565b5b828203905092915050565b600061129f826112de565b9050919050565b60008115159050919050565b60007fffffffff0000000000000000000000000000000000000000000000000000000082169050919050565b600073ffffffffffffffffffffffffffffffffffffffff82169050919050565b6000819050919050565b61131182611440565b810181811067ffffffffffffffff821117156113305761132f611411565b5b80604052505050565b6000611344826112fe565b91507fffffffffffffffffffffffffffffffffffffffffffffffffffffffffffffffff821415611377576113766113b3565b5b600182019050919050565b600061138d826112fe565b9150611398836112fe565b9250826113a8576113a76113e2565b5b828206905092915050565b7f4e487b7100000000000000000000000000000000000000000000000000000000600052601160045260246000fd5b7f4e487b7100000000000000000000000000000000000000000000000000000000600052601260045260246000fd5b7f4e487b7100000000000000000000000000000000000000000000000000000000600052604160045260246000fd5b6000601f19601f8301169050919050565b7f4f776e61626c653a206e6577206f776e657220697320746865207a65726f206160008201527f6464726573730000000000000000000000000000000000000000000000000000602082015250565b7f4f776e61626c653a2063616c6c6572206973206e6f7420746865206f776e6572600082015250565b6114d281611294565b81146114dd57600080fd5b50565b6114e9816112b2565b81146114f457600080fd5b50565b611500816112fe565b811461150b57600080fd5b5056fea264697066735822122096b92518b9a55e87b8c19437c8aa3e4d7ef52762bce82dbc10815170809a21ce64736f6c63430008040033",
  "immutableReferences": {},
  "source": "// SPDX-License-Identifier: UNLICCNSED\n\npragma solidity ^0.8.4;\n\nimport \"./PriceOracle.sol\";\nimport \"./SafeMath.sol\";\nimport \"./StringUtils.sol\";\nimport \"@openzeppelin/contracts/access/Ownable.sol\";\n\n// StablePriceOracle sets a price in USD, based on an oracle.\ncontract CNSPriceOracle is Ownable, PriceOracle {\n    using SafeMath for uint256;\n    using StringUtils for *;\n\n    // Rent in base price units by length. Element 0 is for 1-length names, and so on.\n    uint[] public rentPrices;\n\n    mapping(address=>uint) public discount;\n\n    event RentPriceChanged(uint[] prices);\n\n    bytes4 constant private INTERFACE_META_ID = bytes4(keccak256(\"supportsInterface(bytes4)\"));\n    bytes4 constant private ORACLE_ID = bytes4(keccak256(\"price(string,uint256,uint256)\") ^ keccak256(\"premium(string,uint256,uint256)\"));\n\n    constructor(uint[] memory _rentPrices) {\n        setPrices(_rentPrices);\n        discount[address(0)] = 1e18;\n    }\n\n    function price(string calldata name, uint expires, uint duration, address dealer) external view override returns(uint) {\n        // expires is not used in this contract\n        uint len = name.strlen();\n        //over price length - 1\n        if(len > rentPrices.length) {\n            len = rentPrices.length;\n        }\n        require(len > 0);\n        //for about 365.25 4years leap\n        uint ys = duration.div(31557600);\n        if(duration % 31557600 > 0 ){\n             ys += 1;   \n        }\n        \n        uint basePrice = rentPrices[len - 1].mul(ys).mul(discount[dealer] == 0?1e18:discount[dealer]);\n        return basePrice.div(1e18);\n    }\n\n    /**\n     * @dev Sets rent prices.\n     * @param _rentPrices The price array. Each element corresponds to a specific\n     *                    name length; names longer than the length of the array\n     *                    default to the price of the last element. Values are\n     *                    in base price units, equal to one attodollar (1e-18\n     *                    dollar) each.\n     */\n    function setPrices(uint[] memory _rentPrices) public onlyOwner {\n        rentPrices = _rentPrices;\n        emit RentPriceChanged(_rentPrices);\n    }\n\n    function setDiscount(address _dealer,uint _discount) public onlyOwner {\n        discount[_dealer] = _discount;\n    }\n\n    function supportsInterface(bytes4 interfaceID) public view virtual returns (bool) {\n        return interfaceID == INTERFACE_META_ID || interfaceID == ORACLE_ID;\n    }\n}\n",
  "sourcePath": "/Users/yzbbanban/Downloads/money/chk/nftbox/bns/yns-sol-master-025696b23c531f8117f2fb03dee6f8c96f21692e/contracts/ynsregistry/CNSPriceOracle.sol",
  "compiler": {
    "name": "solc",
    "version": "0.8.4+commit.c7e474f2.Emscripten.clang"
  },
  "schemaVersion": "3.4.3",
  "updatedAt": "2022-08-28T14:25:25.128Z",
  "networkType": "ethereum",
  "devdoc": {
    "kind": "dev",
    "methods": {
      "owner()": {
        "details": "Returns the address of the current owner."
      },
      "price(string,uint256,uint256,address)": {
        "details": "Returns the price to register or renew a name.",
        "params": {
          "duration": "How long the name is being registered or extended for, in seconds.",
          "expires": "When the name presently expires (0 if this is a new registration).",
          "name": "The name being registered or renewed."
        },
        "returns": {
          "_0": "The price of this renewal or registration, in wei."
        }
      },
      "renounceOwnership()": {
        "details": "Leaves the contract without owner. It will not be possible to call `onlyOwner` functions anymore. Can only be called by the current owner. NOTE: Renouncing ownership will leave the contract without an owner, thereby removing any functionality that is only available to the owner."
      },
      "setPrices(uint256[])": {
        "details": "Sets rent prices.",
        "params": {
          "_rentPrices": "The price array. Each element corresponds to a specific                    name length; names longer than the length of the array                    default to the price of the last element. Values are                    in base price units, equal to one attodollar (1e-18                    dollar) each."
        }
      },
      "transferOwnership(address)": {
        "details": "Transfers ownership of the contract to a new account (`newOwner`). Can only be called by the current owner."
      }
    },
    "version": 1
  },
  "userdoc": {
    "kind": "user",
    "methods": {},
    "version": 1
  }
}