{
  "contractName": "CNSRegistrarController",
  "abi": [
    {
      "inputs": [
        {
          "internalType": "contract BaseRegistrar",
          "name": "_base",
          "type": "address"
        },
        {
          "internalType": "contract PriceOracle",
          "name": "_prices",
          "type": "address"
        },
        {
          "internalType": "address",
          "name": "_admin",
          "type": "address"
        }
      ],
      "stateMutability": "nonpayable",
      "type": "constructor"
    },
    {
      "anonymous": false,
      "inputs": [
        {
          "indexed": false,
          "internalType": "string",
          "name": "name",
          "type": "string"
        },
        {
          "indexed": true,
          "internalType": "bytes32",
          "name": "label",
          "type": "bytes32"
        },
        {
          "indexed": true,
          "internalType": "address",
          "name": "owner",
          "type": "address"
        },
        {
          "indexed": false,
          "internalType": "uint256",
          "name": "cost",
          "type": "uint256"
        },
        {
          "indexed": false,
          "internalType": "uint256",
          "name": "expires",
          "type": "uint256"
        },
        {
          "indexed": false,
          "internalType": "address",
          "name": "_dealer",
          "type": "address"
        }
      ],
      "name": "NameRegistered",
      "type": "event"
    },
    {
      "anonymous": false,
      "inputs": [
        {
          "indexed": true,
          "internalType": "address",
          "name": "operator",
          "type": "address"
        },
        {
          "indexed": false,
          "internalType": "string",
          "name": "name",
          "type": "string"
        },
        {
          "indexed": true,
          "internalType": "bytes32",
          "name": "label",
          "type": "bytes32"
        },
        {
          "indexed": false,
          "internalType": "uint256",
          "name": "cost",
          "type": "uint256"
        },
        {
          "indexed": false,
          "internalType": "uint256",
          "name": "expires",
          "type": "uint256"
        }
      ],
      "name": "NameRenewed",
      "type": "event"
    },
    {
      "anonymous": false,
      "inputs": [
        {
          "indexed": true,
          "internalType": "address",
          "name": "oracle",
          "type": "address"
        }
      ],
      "name": "NewPriceOracle",
      "type": "event"
    },
    {
      "anonymous": false,
      "inputs": [
        {
          "indexed": true,
          "internalType": "address",
          "name": "previousOwner",
          "type": "address"
        },
        {
          "indexed": true,
          "internalType": "address",
          "name": "newOwner",
          "type": "address"
        }
      ],
      "name": "OwnershipTransferred",
      "type": "event"
    },
    {
      "inputs": [],
      "name": "MIN_REGISTRATION_DURATION",
      "outputs": [
        {
          "internalType": "uint256",
          "name": "",
          "type": "uint256"
        }
      ],
      "stateMutability": "view",
      "type": "function"
    },
    {
      "inputs": [],
      "name": "adminAddress",
      "outputs": [
        {
          "internalType": "address",
          "name": "",
          "type": "address"
        }
      ],
      "stateMutability": "view",
      "type": "function"
    },
    {
      "inputs": [
        {
          "internalType": "bytes32",
          "name": "",
          "type": "bytes32"
        }
      ],
      "name": "commitments",
      "outputs": [
        {
          "internalType": "uint256",
          "name": "",
          "type": "uint256"
        }
      ],
      "stateMutability": "view",
      "type": "function"
    },
    {
      "inputs": [
        {
          "internalType": "address",
          "name": "",
          "type": "address"
        }
      ],
      "name": "dealerAddress",
      "outputs": [
        {
          "internalType": "address",
          "name": "",
          "type": "address"
        }
      ],
      "stateMutability": "view",
      "type": "function"
    },
    {
      "inputs": [],
      "name": "maxCommitmentAge",
      "outputs": [
        {
          "internalType": "uint256",
          "name": "",
          "type": "uint256"
        }
      ],
      "stateMutability": "view",
      "type": "function"
    },
    {
      "inputs": [],
      "name": "minCommitmentAge",
      "outputs": [
        {
          "internalType": "uint256",
          "name": "",
          "type": "uint256"
        }
      ],
      "stateMutability": "view",
      "type": "function"
    },
    {
      "inputs": [],
      "name": "minNameLength",
      "outputs": [
        {
          "internalType": "uint256",
          "name": "",
          "type": "uint256"
        }
      ],
      "stateMutability": "view",
      "type": "function"
    },
    {
      "inputs": [],
      "name": "owner",
      "outputs": [
        {
          "internalType": "address",
          "name": "",
          "type": "address"
        }
      ],
      "stateMutability": "view",
      "type": "function"
    },
    {
      "inputs": [],
      "name": "renounceOwnership",
      "outputs": [],
      "stateMutability": "nonpayable",
      "type": "function"
    },
    {
      "inputs": [
        {
          "internalType": "address",
          "name": "newOwner",
          "type": "address"
        }
      ],
      "name": "transferOwnership",
      "outputs": [],
      "stateMutability": "nonpayable",
      "type": "function"
    },
    {
      "inputs": [
        {
          "internalType": "string",
          "name": "name",
          "type": "string"
        },
        {
          "internalType": "uint256",
          "name": "duration",
          "type": "uint256"
        },
        {
          "internalType": "address",
          "name": "dealer",
          "type": "address"
        }
      ],
      "name": "rentPrice",
      "outputs": [
        {
          "internalType": "uint256",
          "name": "",
          "type": "uint256"
        }
      ],
      "stateMutability": "view",
      "type": "function"
    },
    {
      "inputs": [
        {
          "internalType": "string",
          "name": "name",
          "type": "string"
        }
      ],
      "name": "validMin",
      "outputs": [
        {
          "internalType": "bool",
          "name": "",
          "type": "bool"
        }
      ],
      "stateMutability": "view",
      "type": "function"
    },
    {
      "inputs": [
        {
          "internalType": "string",
          "name": "name",
          "type": "string"
        }
      ],
      "name": "available",
      "outputs": [
        {
          "internalType": "bool",
          "name": "",
          "type": "bool"
        }
      ],
      "stateMutability": "view",
      "type": "function"
    },
    {
      "inputs": [
        {
          "internalType": "string",
          "name": "name",
          "type": "string"
        },
        {
          "internalType": "address",
          "name": "owner",
          "type": "address"
        },
        {
          "internalType": "bytes32",
          "name": "secret",
          "type": "bytes32"
        }
      ],
      "name": "makeCommitment",
      "outputs": [
        {
          "internalType": "bytes32",
          "name": "",
          "type": "bytes32"
        }
      ],
      "stateMutability": "pure",
      "type": "function"
    },
    {
      "inputs": [
        {
          "internalType": "string",
          "name": "name",
          "type": "string"
        },
        {
          "internalType": "address",
          "name": "owner",
          "type": "address"
        },
        {
          "internalType": "bytes32",
          "name": "secret",
          "type": "bytes32"
        },
        {
          "internalType": "address",
          "name": "resolver",
          "type": "address"
        },
        {
          "internalType": "address",
          "name": "addr",
          "type": "address"
        }
      ],
      "name": "makeCommitmentWithConfig",
      "outputs": [
        {
          "internalType": "bytes32",
          "name": "",
          "type": "bytes32"
        }
      ],
      "stateMutability": "pure",
      "type": "function"
    },
    {
      "inputs": [
        {
          "internalType": "bytes32",
          "name": "commitment",
          "type": "bytes32"
        }
      ],
      "name": "commit",
      "outputs": [],
      "stateMutability": "nonpayable",
      "type": "function"
    },
    {
      "inputs": [
        {
          "internalType": "string",
          "name": "name",
          "type": "string"
        },
        {
          "internalType": "address",
          "name": "owner",
          "type": "address"
        },
        {
          "internalType": "uint256",
          "name": "duration",
          "type": "uint256"
        }
      ],
      "name": "register",
      "outputs": [],
      "stateMutability": "payable",
      "type": "function"
    },
    {
      "inputs": [
        {
          "internalType": "string",
          "name": "name",
          "type": "string"
        },
        {
          "internalType": "address",
          "name": "owner",
          "type": "address"
        },
        {
          "internalType": "uint256",
          "name": "duration",
          "type": "uint256"
        },
        {
          "internalType": "address",
          "name": "resolver",
          "type": "address"
        },
        {
          "internalType": "address",
          "name": "addr",
          "type": "address"
        },
        {
          "internalType": "address",
          "name": "dealer",
          "type": "address"
        }
      ],
      "name": "registerWithConfig",
      "outputs": [],
      "stateMutability": "payable",
      "type": "function"
    },
    {
      "inputs": [
        {
          "internalType": "string",
          "name": "name",
          "type": "string"
        },
        {
          "internalType": "uint256",
          "name": "duration",
          "type": "uint256"
        },
        {
          "internalType": "address",
          "name": "dealer",
          "type": "address"
        }
      ],
      "name": "renew",
      "outputs": [],
      "stateMutability": "payable",
      "type": "function"
    },
    {
      "inputs": [
        {
          "internalType": "contract PriceOracle",
          "name": "_prices",
          "type": "address"
        }
      ],
      "name": "setPriceOracle",
      "outputs": [],
      "stateMutability": "nonpayable",
      "type": "function"
    },
    {
      "inputs": [
        {
          "internalType": "address",
          "name": "_admin",
          "type": "address"
        }
      ],
      "name": "setAdmin",
      "outputs": [],
      "stateMutability": "nonpayable",
      "type": "function"
    },
    {
      "inputs": [
        {
          "internalType": "uint256",
          "name": "_minCommitmentAge",
          "type": "uint256"
        },
        {
          "internalType": "uint256",
          "name": "_maxCommitmentAge",
          "type": "uint256"
        }
      ],
      "name": "setCommitmentAges",
      "outputs": [],
      "stateMutability": "nonpayable",
      "type": "function"
    },
    {
      "inputs": [],
      "name": "withdraw",
      "outputs": [],
      "stateMutability": "nonpayable",
      "type": "function"
    },
    {
      "inputs": [
        {
          "internalType": "uint256",
          "name": "_minNameLength",
          "type": "uint256"
        }
      ],
      "name": "setNameLength",
      "outputs": [],
      "stateMutability": "nonpayable",
      "type": "function"
    },
    {
      "inputs": [
        {
          "internalType": "address",
          "name": "_dealerAddress",
          "type": "address"
        },
        {
          "internalType": "address",
          "name": "_payAddress",
          "type": "address"
        }
      ],
      "name": "setDealerAddress",
      "outputs": [],
      "stateMutability": "nonpayable",
      "type": "function"
    },
    {
      "inputs": [
        {
          "internalType": "bytes4",
          "name": "interfaceID",
          "type": "bytes4"
        }
      ],
      "name": "supportsInterface",
      "outputs": [
        {
          "internalType": "bool",
          "name": "",
          "type": "bool"
        }
      ],
      "stateMutability": "pure",
      "type": "function"
    }
  ],
  "bytecode": "0x60806040523480156200001157600080fd5b5060405162003b4238038062003b42833981810160405281019062000037919062000260565b62000069620000546200014f640100000000026401000000009004565b62000157640100000000026401000000009004565b82600160006101000a81548173ffffffffffffffffffffffffffffffffffffffff021916908373ffffffffffffffffffffffffffffffffffffffff16021790555081600260006101000a81548173ffffffffffffffffffffffffffffffffffffffff021916908373ffffffffffffffffffffffffffffffffffffffff16021790555080600660006101000a81548173ffffffffffffffffffffffffffffffffffffffff021916908373ffffffffffffffffffffffffffffffffffffffff160217905550603c60038190555062015180600481905550600260058190555050505062000360565b600033905090565b60008060009054906101000a900473ffffffffffffffffffffffffffffffffffffffff169050816000806101000a81548173ffffffffffffffffffffffffffffffffffffffff021916908373ffffffffffffffffffffffffffffffffffffffff1602179055508173ffffffffffffffffffffffffffffffffffffffff168173ffffffffffffffffffffffffffffffffffffffff167f8be0079c531659141344cd1fd0a4f28419497f9722a3daafe3b4186f6b6457e060405160405180910390a35050565b6000815190506200022c8162000312565b92915050565b60008151905062000243816200032c565b92915050565b6000815190506200025a8162000346565b92915050565b6000806000606084860312156200027657600080fd5b6000620002868682870162000232565b9350506020620002998682870162000249565b9250506040620002ac868287016200021b565b9150509250925092565b6000620002c382620002f2565b9050919050565b6000620002d782620002b6565b9050919050565b6000620002eb82620002b6565b9050919050565b600073ffffffffffffffffffffffffffffffffffffffff82169050919050565b6200031d81620002b6565b81146200032957600080fd5b50565b6200033781620002ca565b81146200034357600080fd5b50565b6200035181620002de565b81146200035d57600080fd5b50565b6137d280620003706000396000f3fe60806040526004361061019d576000357c010000000000000000000000000000000000000000000000000000000090048063839df945116100ee578063ce1e09c0116100a7578063f2fde38b11610081578063f2fde38b14610580578063f49826be146105a9578063fbcc1621146105e6578063fc6f9468146106025761019d565b8063ce1e09c014610510578063d393c8711461053b578063f14fcbc8146105575761019d565b8063839df945146103f95780638a95b09f146104365780638d839ffe146104615780638da5cb5b1461048c578063a73eff6e146104b7578063aeb8ce9b146104d35761019d565b806344d31f061161015b578063704b6c0211610135578063704b6c0214610367578063715018a6146103905780637e324479146103a75780637f22d28f146103d05761019d565b806344d31f06146102c4578063530e784f14610301578063571785d01461032a5761019d565b80628cc37c146101a257806301ffc9a7146101cb5780631b06db3d146102085780631c1149c3146102335780633ccfd60b146102705780633d86c52f14610287575b600080fd5b3480156101ae57600080fd5b506101c960048036038101906101c49190612a41565b61062d565b005b3480156101d757600080fd5b506101f260048036038101906101ed91906126af565b6106b3565b6040516101ff9190612e55565b60405180910390f35b34801561021457600080fd5b5061021d6108b9565b60405161022a9190613080565b60405180910390f35b34801561023f57600080fd5b5061025a60048036038101906102559190612802565b6108bf565b6040516102679190612e55565b60405180910390f35b34801561027c57600080fd5b506102856108d5565b005b34801561029357600080fd5b506102ae60048036038101906102a991906128aa565b6109b1565b6040516102bb9190612e70565b60405180910390f35b3480156102d057600080fd5b506102eb60048036038101906102e691906129da565b610b0a565b6040516102f89190613080565b60405180910390f35b34801561030d57600080fd5b5061032860048036038101906103239190612701565b610cb8565b005b34801561033657600080fd5b50610351600480360381019061034c91906125cf565b610ddd565b60405161035e9190612e03565b60405180910390f35b34801561037357600080fd5b5061038e600480360381019061038991906125cf565b610e10565b005b34801561039c57600080fd5b506103a5610f40565b005b3480156103b357600080fd5b506103ce60048036038101906103c99190612a93565b610fc8565b005b3480156103dc57600080fd5b506103f760048036038101906103f291906125f8565b611056565b005b34801561040557600080fd5b50610420600480360381019061041b919061265d565b611154565b60405161042d9190613080565b60405180910390f35b34801561044257600080fd5b5061044b61116c565b6040516104589190613080565b60405180910390f35b34801561046d57600080fd5b50610476611173565b6040516104839190613080565b60405180910390f35b34801561049857600080fd5b506104a1611179565b6040516104ae9190612e03565b60405180910390f35b6104d160048036038101906104cc9190612939565b6111a2565b005b3480156104df57600080fd5b506104fa60048036038101906104f59190612802565b611add565b6040516105079190612e55565b60405180910390f35b34801561051c57600080fd5b50610525611bce565b6040516105329190613080565b60405180910390f35b6105556004803603810190610550919061272a565b611bd4565b005b34801561056357600080fd5b5061057e6004803603810190610579919061265d565b611c2e565b005b34801561058c57600080fd5b506105a760048036038101906105a291906125cf565b611cab565b005b3480156105b557600080fd5b506105d060048036038101906105cb9190612843565b611da3565b6040516105dd9190612e70565b60405180910390f35b61060060048036038101906105fb9190612796565b611dbc565b005b34801561060e57600080fd5b50610617612014565b6040516106249190612e03565b60405180910390f35b61063561203a565b73ffffffffffffffffffffffffffffffffffffffff16610653611179565b73ffffffffffffffffffffffffffffffffffffffff16146106a9576040517f08c379a00000000000000000000000000000000000000000000000000000000081526004016106a090613020565b60405180910390fd5b8060058190555050565b60007f01ffc9a7a5cef8baa21ed3c5c0d7e23accb804b619e9333b597f47a0d84076e27bffffffffffffffffffffffffffffffffffffffffffffffffffffffff1916827bffffffffffffffffffffffffffffffffffffffffffffffffffffffff1916148061082857507facf1a8418b97267ffdb4c11281360744af0ddfe62846b256a04a02acee3a53c37f85f6d1554d9d3ed5c2776e29804063f395dfd65a8dc71f4d1cb6f073d7ee75a37ff14fcbc8f6996b31406143e2613e60bde3c1118cfe166c0aa27ba40ef1033df57ff49826be766d3cc8dc7e4aab3f18eb3d339eb3bce85a7b9144119bbe997b2cc37faeb8ce9b70d5d3f3fba501c34cd61a54703dbe3cfb25bd75d3574635f9ea76837f44d31f064c6c8e85f531572bcefd5d8474c18efe00994a94f148b6e10fc463e118181818187bffffffffffffffffffffffffffffffffffffffffffffffffffffffff1916827bffffffffffffffffffffffffffffffffffffffffffffffffffffffff1916145b806108b257507f3d86c52f15403f1a062ec90b8fe0792e3be0a9cb236cd8ee4ec4b45821bd2faa7ff7a169630bfe39d181bbd2e0b758ee9f1a6ddc0eca0932c13225406d06d41653187bffffffffffffffffffffffffffffffffffffffffffffffffffffffff1916827bffffffffffffffffffffffffffffffffffffffffffffffffffffffff1916145b9050919050565b60055481565b60006005546108cd83612042565b119050919050565b6108dd61203a565b73ffffffffffffffffffffffffffffffffffffffff166108fb611179565b73ffffffffffffffffffffffffffffffffffffffff1614610951576040517f08c379a000000000000000000000000000000000000000000000000000000000815260040161094890613020565b60405180910390fd5b3373ffffffffffffffffffffffffffffffffffffffff166108fc3073ffffffffffffffffffffffffffffffffffffffff16319081150290604051600060405180830381858888f193505050501580156109ae573d6000803e3d6000fd5b50565b60008086805190602001209050600073ffffffffffffffffffffffffffffffffffffffff168473ffffffffffffffffffffffffffffffffffffffff16148015610a265750600073ffffffffffffffffffffffffffffffffffffffff168373ffffffffffffffffffffffffffffffffffffffff16145b15610a5e57808686604051602001610a4093929190612d81565b60405160208183030381529060405280519060200120915050610b01565b600073ffffffffffffffffffffffffffffffffffffffff168473ffffffffffffffffffffffffffffffffffffffff161415610ace576040517f08c379a0000000000000000000000000000000000000000000000000000000008152600401610ac590612f40565b60405180910390fd5b8086858588604051602001610ae7959493929190612d22565b604051602081830303815290604052805190602001209150505b95945050505050565b60008084805190602001209050600260009054906101000a900473ffffffffffffffffffffffffffffffffffffffff1673ffffffffffffffffffffffffffffffffffffffff166389fce61986600160009054906101000a900473ffffffffffffffffffffffffffffffffffffffff1673ffffffffffffffffffffffffffffffffffffffff1663d6e4fa8685600190046040518263ffffffff167c0100000000000000000000000000000000000000000000000000000000028152600401610bd19190613080565b60206040518083038186803b158015610be957600080fd5b505afa158015610bfd573d6000803e3d6000fd5b505050506040513d601f19601f82011682018060405250810190610c219190612a6a565b87876040518563ffffffff167c0100000000000000000000000000000000000000000000000000000000028152600401610c5e9493929190612ef4565b60206040518083038186803b158015610c7657600080fd5b505afa158015610c8a573d6000803e3d6000fd5b505050506040513d601f19601f82011682018060405250810190610cae9190612a6a565b9150509392505050565b610cc061203a565b73ffffffffffffffffffffffffffffffffffffffff16610cde611179565b73ffffffffffffffffffffffffffffffffffffffff1614610d34576040517f08c379a0000000000000000000000000000000000000000000000000000000008152600401610d2b90613020565b60405180910390fd5b80600260006101000a81548173ffffffffffffffffffffffffffffffffffffffff021916908373ffffffffffffffffffffffffffffffffffffffff160217905550600260009054906101000a900473ffffffffffffffffffffffffffffffffffffffff1673ffffffffffffffffffffffffffffffffffffffff167ff261845a790fe29bbd6631e2ca4a5bdc83e6eed7c3271d9590d97287e00e912360405160405180910390a250565b60086020528060005260406000206000915054906101000a900473ffffffffffffffffffffffffffffffffffffffff1681565b610e1861203a565b73ffffffffffffffffffffffffffffffffffffffff16610e36611179565b73ffffffffffffffffffffffffffffffffffffffff1614610e8c576040517f08c379a0000000000000000000000000000000000000000000000000000000008152600401610e8390613020565b60405180910390fd5b600073ffffffffffffffffffffffffffffffffffffffff168173ffffffffffffffffffffffffffffffffffffffff161415610efc576040517f08c379a0000000000000000000000000000000000000000000000000000000008152600401610ef390612f60565b60405180910390fd5b80600660006101000a81548173ffffffffffffffffffffffffffffffffffffffff021916908373ffffffffffffffffffffffffffffffffffffffff16021790555050565b610f4861203a565b73ffffffffffffffffffffffffffffffffffffffff16610f66611179565b73ffffffffffffffffffffffffffffffffffffffff1614610fbc576040517f08c379a0000000000000000000000000000000000000000000000000000000008152600401610fb390613020565b60405180910390fd5b610fc660006122f8565b565b610fd061203a565b73ffffffffffffffffffffffffffffffffffffffff16610fee611179565b73ffffffffffffffffffffffffffffffffffffffff1614611044576040517f08c379a000000000000000000000000000000000000000000000000000000000815260040161103b90613020565b60405180910390fd5b81600381905550806004819055505050565b61105e61203a565b73ffffffffffffffffffffffffffffffffffffffff1661107c611179565b73ffffffffffffffffffffffffffffffffffffffff16146110d2576040517f08c379a00000000000000000000000000000000000000000000000000000000081526004016110c990613020565b60405180910390fd5b80600860008473ffffffffffffffffffffffffffffffffffffffff1673ffffffffffffffffffffffffffffffffffffffff16815260200190815260200160002060006101000a81548173ffffffffffffffffffffffffffffffffffffffff021916908373ffffffffffffffffffffffffffffffffffffffff1602179055505050565b60076020528060005260406000206000915090505481565b6224ea0081565b60035481565b60008060009054906101000a900473ffffffffffffffffffffffffffffffffffffffff16905090565b6111ab86611add565b6111ea576040517f08c379a00000000000000000000000000000000000000000000000000000000081526004016111e190612fa0565b60405180910390fd5b60006111f78786846123bc565b905060008780519060200120905060008160019004905060008073ffffffffffffffffffffffffffffffffffffffff168773ffffffffffffffffffffffffffffffffffffffff161461175a57600160009054906101000a900473ffffffffffffffffffffffffffffffffffffffff1673ffffffffffffffffffffffffffffffffffffffff1663fca247ac83308b6040518463ffffffff167c01000000000000000000000000000000000000000000000000000000000281526004016112be939291906130c4565b602060405180830381600087803b1580156112d857600080fd5b505af11580156112ec573d6000803e3d6000fd5b505050506040513d601f19601f820116820180604052508101906113109190612a6a565b90506000600160009054906101000a900473ffffffffffffffffffffffffffffffffffffffff1673ffffffffffffffffffffffffffffffffffffffff1663ddf7fcb06040518163ffffffff167c010000000000000000000000000000000000000000000000000000000002815260040160206040518083038186803b15801561139857600080fd5b505afa1580156113ac573d6000803e3d6000fd5b505050506040513d601f19601f820116820180604052508101906113d09190612686565b846040516020016113e2929190612dbe565b604051602081830303815290604052805190602001209050600160009054906101000a900473ffffffffffffffffffffffffffffffffffffffff1673ffffffffffffffffffffffffffffffffffffffff1663f1c248b16040518163ffffffff167c010000000000000000000000000000000000000000000000000000000002815260040160206040518083038186803b15801561147e57600080fd5b505afa158015611492573d6000803e3d6000fd5b505050506040513d601f19601f820116820180604052508101906114b691906126d8565b73ffffffffffffffffffffffffffffffffffffffff16631896f70a828a6040518363ffffffff167c010000000000000000000000000000000000000000000000000000000002815260040161150c929190612e8b565b600060405180830381600087803b15801561152657600080fd5b505af115801561153a573d6000803e3d6000fd5b50505050600073ffffffffffffffffffffffffffffffffffffffff168773ffffffffffffffffffffffffffffffffffffffff16146115fc578773ffffffffffffffffffffffffffffffffffffffff1663d5fa2b0082896040518363ffffffff167c01000000000000000000000000000000000000000000000000000000000281526004016115c9929190612e8b565b600060405180830381600087803b1580156115e357600080fd5b505af11580156115f7573d6000803e3d6000fd5b505050505b600160009054906101000a900473ffffffffffffffffffffffffffffffffffffffff1673ffffffffffffffffffffffffffffffffffffffff166328ed4f6c848c6040518363ffffffff167c010000000000000000000000000000000000000000000000000000000002815260040161167592919061309b565b600060405180830381600087803b15801561168f57600080fd5b505af11580156116a3573d6000803e3d6000fd5b50505050600160009054906101000a900473ffffffffffffffffffffffffffffffffffffffff1673ffffffffffffffffffffffffffffffffffffffff166323b872dd308c866040518463ffffffff167c010000000000000000000000000000000000000000000000000000000002815260040161172293929190612e1e565b600060405180830381600087803b15801561173c57600080fd5b505af1158015611750573d6000803e3d6000fd5b5050505050611899565b600073ffffffffffffffffffffffffffffffffffffffff168673ffffffffffffffffffffffffffffffffffffffff16146117c9576040517f08c379a00000000000000000000000000000000000000000000000000000000081526004016117c090613060565b60405180910390fd5b600160009054906101000a900473ffffffffffffffffffffffffffffffffffffffff1673ffffffffffffffffffffffffffffffffffffffff1663fca247ac838b8b6040518463ffffffff167c0100000000000000000000000000000000000000000000000000000000028152600401611844939291906130c4565b602060405180830381600087803b15801561185e57600080fd5b505af1158015611872573d6000803e3d6000fd5b505050506040513d601f19601f820116820180604052508101906118969190612a6a565b90505b8873ffffffffffffffffffffffffffffffffffffffff16837f489b73af74b72d8e071336c37f28bf70a70214b0cb52ebd01aa886285a73f9e08c87858a6040516118e69493929190612ef4565b60405180910390a3600073ffffffffffffffffffffffffffffffffffffffff168573ffffffffffffffffffffffffffffffffffffffff16141580156119b75750600073ffffffffffffffffffffffffffffffffffffffff16600860008773ffffffffffffffffffffffffffffffffffffffff1673ffffffffffffffffffffffffffffffffffffffff16815260200190815260200160002060009054906101000a900473ffffffffffffffffffffffffffffffffffffffff1673ffffffffffffffffffffffffffffffffffffffff1614155b15611a6757600860008673ffffffffffffffffffffffffffffffffffffffff1673ffffffffffffffffffffffffffffffffffffffff16815260200190815260200160002060009054906101000a900473ffffffffffffffffffffffffffffffffffffffff1673ffffffffffffffffffffffffffffffffffffffff166108fc349081150290604051600060405180830381858888f19350505050158015611a61573d6000803e3d6000fd5b50611ad1565b600660009054906101000a900473ffffffffffffffffffffffffffffffffffffffff1673ffffffffffffffffffffffffffffffffffffffff166108fc349081150290604051600060405180830381858888f19350505050158015611acf573d6000803e3d6000fd5b505b50505050505050505050565b60008082805190602001209050611af3836108bf565b8015611bc65750600160009054906101000a900473ffffffffffffffffffffffffffffffffffffffff1673ffffffffffffffffffffffffffffffffffffffff166396e494e882600190046040518263ffffffff167c0100000000000000000000000000000000000000000000000000000000028152600401611b759190613080565b60206040518083038186803b158015611b8d57600080fd5b505afa158015611ba1573d6000803e3d6000fd5b505050506040513d601f19601f82011682018060405250810190611bc59190612634565b5b915050919050565b60045481565b611c2884848080601f016020809104026020016040519081016040528093929190818152602001838380828437600081840152601f19601f82011690508083019250505050505050838360008060006111a2565b50505050565b426004546007600084815260200190815260200160002054611c5091906131a1565b10611c90576040517f08c379a0000000000000000000000000000000000000000000000000000000008152600401611c8790613000565b60405180910390fd5b42600760008381526020019081526020016000208190555050565b611cb361203a565b73ffffffffffffffffffffffffffffffffffffffff16611cd1611179565b73ffffffffffffffffffffffffffffffffffffffff1614611d27576040517f08c379a0000000000000000000000000000000000000000000000000000000008152600401611d1e90613020565b60405180910390fd5b600073ffffffffffffffffffffffffffffffffffffffff168173ffffffffffffffffffffffffffffffffffffffff161415611d97576040517f08c379a0000000000000000000000000000000000000000000000000000000008152600401611d8e90612f80565b60405180910390fd5b611da0816122f8565b50565b6000611db38484846000806109b1565b90509392505050565b6000611e0d85858080601f016020809104026020016040519081016040528093929190818152602001838380828437600081840152601f19601f820116905080830192505050505050508484610b0a565b9050803410158015611e1f5750600034115b611e5e576040517f08c379a0000000000000000000000000000000000000000000000000000000008152600401611e5590612fe0565b60405180910390fd5b60008585604051611e70929190612dea565b604051809103902090506000600160009054906101000a900473ffffffffffffffffffffffffffffffffffffffff1673ffffffffffffffffffffffffffffffffffffffff1663c475abff8360019004876040518363ffffffff167c0100000000000000000000000000000000000000000000000000000000028152600401611ef99291906130fb565b602060405180830381600087803b158015611f1357600080fd5b505af1158015611f27573d6000803e3d6000fd5b505050506040513d601f19601f82011682018060405250810190611f4b9190612a6a565b9050600660009054906101000a900473ffffffffffffffffffffffffffffffffffffffff1673ffffffffffffffffffffffffffffffffffffffff166108fc349081150290604051600060405180830381858888f19350505050158015611fb5573d6000803e3d6000fd5b50813373ffffffffffffffffffffffffffffffffffffffff167fcc14b609f159e50a72853ae547cdf3b3fb35835b92893c64b5b2eec8d82934bc898987866040516120039493929190612eb4565b60405180910390a350505050505050565b600660009054906101000a900473ffffffffffffffffffffffffffffffffffffffff1681565b600033905090565b60008060008084519050600092505b808210156122ed576000858381518110612094577f4e487b7100000000000000000000000000000000000000000000000000000000600052603260045260246000fd5b60200101517f010000000000000000000000000000000000000000000000000000000000000090047f010000000000000000000000000000000000000000000000000000000000000002905060807f010000000000000000000000000000000000000000000000000000000000000002817effffffffffffffffffffffffffffffffffffffffffffffffffffffffffffff191610156121415760018361213a91906131a1565b92506122d9565b60e07f010000000000000000000000000000000000000000000000000000000000000002817effffffffffffffffffffffffffffffffffffffffffffffffffffffffffffff191610156121a25760028361219b91906131a1565b92506122d8565b60f07f010000000000000000000000000000000000000000000000000000000000000002817effffffffffffffffffffffffffffffffffffffffffffffffffffffffffffff19161015612203576003836121fc91906131a1565b92506122d7565b60f87f010000000000000000000000000000000000000000000000000000000000000002817effffffffffffffffffffffffffffffffffffffffffffffffffffffffffffff191610156122645760048361225d91906131a1565b92506122d6565b60fc7f010000000000000000000000000000000000000000000000000000000000000002817effffffffffffffffffffffffffffffffffffffffffffffffffffffffffffff191610156122c5576005836122be91906131a1565b92506122d5565b6006836122d291906131a1565b92505b5b5b5b5b5082806122e59061330c565b935050612051565b829350505050919050565b60008060009054906101000a900473ffffffffffffffffffffffffffffffffffffffff169050816000806101000a81548173ffffffffffffffffffffffffffffffffffffffff021916908373ffffffffffffffffffffffffffffffffffffffff1602179055508173ffffffffffffffffffffffffffffffffffffffff168173ffffffffffffffffffffffffffffffffffffffff167f8be0079c531659141344cd1fd0a4f28419497f9722a3daafe3b4186f6b6457e060405160405180910390a35050565b6000806123ca858585610b0a565b90506224ea00841015612412576040517f08c379a000000000000000000000000000000000000000000000000000000000815260040161240990612fc0565b60405180910390fd5b80341015612455576040517f08c379a000000000000000000000000000000000000000000000000000000000815260040161244c90613040565b60405180910390fd5b809150509392505050565b600061247361246e84613149565b613124565b90508281526020810184848401111561248b57600080fd5b612496848285613299565b509392505050565b6000813590506124ad816136fb565b92915050565b6000815190506124c281613712565b92915050565b6000813590506124d781613729565b92915050565b6000815190506124ec81613729565b92915050565b60008135905061250181613740565b92915050565b60008151905061251681613757565b92915050565b60008135905061252b8161376e565b92915050565b60008083601f84011261254357600080fd5b8235905067ffffffffffffffff81111561255c57600080fd5b60208301915083600182028301111561257457600080fd5b9250929050565b600082601f83011261258c57600080fd5b813561259c848260208601612460565b91505092915050565b6000813590506125b481613785565b92915050565b6000815190506125c981613785565b92915050565b6000602082840312156125e157600080fd5b60006125ef8482850161249e565b91505092915050565b6000806040838503121561260b57600080fd5b60006126198582860161249e565b925050602061262a8582860161249e565b9150509250929050565b60006020828403121561264657600080fd5b6000612654848285016124b3565b91505092915050565b60006020828403121561266f57600080fd5b600061267d848285016124c8565b91505092915050565b60006020828403121561269857600080fd5b60006126a6848285016124dd565b91505092915050565b6000602082840312156126c157600080fd5b60006126cf848285016124f2565b91505092915050565b6000602082840312156126ea57600080fd5b60006126f884828501612507565b91505092915050565b60006020828403121561271357600080fd5b60006127218482850161251c565b91505092915050565b6000806000806060858703121561274057600080fd5b600085013567ffffffffffffffff81111561275a57600080fd5b61276687828801612531565b945094505060206127798782880161249e565b925050604061278a878288016125a5565b91505092959194509250565b600080600080606085870312156127ac57600080fd5b600085013567ffffffffffffffff8111156127c657600080fd5b6127d287828801612531565b945094505060206127e5878288016125a5565b92505060406127f68782880161249e565b91505092959194509250565b60006020828403121561281457600080fd5b600082013567ffffffffffffffff81111561282e57600080fd5b61283a8482850161257b565b91505092915050565b60008060006060848603121561285857600080fd5b600084013567ffffffffffffffff81111561287257600080fd5b61287e8682870161257b565b935050602061288f8682870161249e565b92505060406128a0868287016124c8565b9150509250925092565b600080600080600060a086880312156128c257600080fd5b600086013567ffffffffffffffff8111156128dc57600080fd5b6128e88882890161257b565b95505060206128f98882890161249e565b945050604061290a888289016124c8565b935050606061291b8882890161249e565b925050608061292c8882890161249e565b9150509295509295909350565b60008060008060008060c0878903121561295257600080fd5b600087013567ffffffffffffffff81111561296c57600080fd5b61297889828a0161257b565b965050602061298989828a0161249e565b955050604061299a89828a016125a5565b94505060606129ab89828a0161249e565b93505060806129bc89828a0161249e565b92505060a06129cd89828a0161249e565b9150509295509295509295565b6000806000606084860312156129ef57600080fd5b600084013567ffffffffffffffff811115612a0957600080fd5b612a158682870161257b565b9350506020612a26868287016125a5565b9250506040612a378682870161249e565b9150509250925092565b600060208284031215612a5357600080fd5b6000612a61848285016125a5565b91505092915050565b600060208284031215612a7c57600080fd5b6000612a8a848285016125ba565b91505092915050565b60008060408385031215612aa657600080fd5b6000612ab4858286016125a5565b9250506020612ac5858286016125a5565b9150509250929050565b612ad8816131f7565b82525050565b612aef612aea826131f7565b613355565b82525050565b612afe81613209565b82525050565b612b0d81613215565b82525050565b612b24612b1f82613215565b613367565b82525050565b6000612b368385613185565b9350612b43838584613299565b82840190509392505050565b6000612b5b8385613190565b9350612b68838584613299565b612b71836133e1565b840190509392505050565b6000612b878261317a565b612b918185613190565b9350612ba18185602086016132a8565b612baa816133e1565b840191505092915050565b6000612bc2602483613190565b9150612bcd8261340b565b604082019050919050565b6000612be5602283613190565b9150612bf08261345a565b604082019050919050565b6000612c08602683613190565b9150612c13826134a9565b604082019050919050565b6000612c2b602283613190565b9150612c36826134f8565b604082019050919050565b6000612c4e602683613190565b9150612c5982613547565b604082019050919050565b6000612c71602383613190565b9150612c7c82613596565b604082019050919050565b6000612c94602283613190565b9150612c9f826135e5565b604082019050919050565b6000612cb7602083613190565b9150612cc282613634565b602082019050919050565b6000612cda602283613190565b9150612ce58261365d565b604082019050919050565b6000612cfd602183613190565b9150612d08826136ac565b604082019050919050565b612d1c8161328f565b82525050565b6000612d2e8288612b13565b602082019150612d3e8287612ade565b601482019150612d4e8286612ade565b601482019150612d5e8285612ade565b601482019150612d6e8284612b13565b6020820191508190509695505050505050565b6000612d8d8286612b13565b602082019150612d9d8285612ade565b601482019150612dad8284612b13565b602082019150819050949350505050565b6000612dca8285612b13565b602082019150612dda8284612b13565b6020820191508190509392505050565b6000612df7828486612b2a565b91508190509392505050565b6000602082019050612e186000830184612acf565b92915050565b6000606082019050612e336000830186612acf565b612e406020830185612acf565b612e4d6040830184612d13565b949350505050565b6000602082019050612e6a6000830184612af5565b92915050565b6000602082019050612e856000830184612b04565b92915050565b6000604082019050612ea06000830185612b04565b612ead6020830184612acf565b9392505050565b60006060820190508181036000830152612ecf818688612b4f565b9050612ede6020830185612d13565b612eeb6040830184612d13565b95945050505050565b60006080820190508181036000830152612f0e8187612b7c565b9050612f1d6020830186612d13565b612f2a6040830185612d13565b612f376060830184612acf565b95945050505050565b60006020820190508181036000830152612f5981612bb5565b9050919050565b60006020820190508181036000830152612f7981612bd8565b9050919050565b60006020820190508181036000830152612f9981612bfb565b9050919050565b60006020820190508181036000830152612fb981612c1e565b9050919050565b60006020820190508181036000830152612fd981612c41565b9050919050565b60006020820190508181036000830152612ff981612c64565b9050919050565b6000602082019050818103600083015261301981612c87565b9050919050565b6000602082019050818103600083015261303981612caa565b9050919050565b6000602082019050818103600083015261305981612ccd565b9050919050565b6000602082019050818103600083015261307981612cf0565b9050919050565b60006020820190506130956000830184612d13565b92915050565b60006040820190506130b06000830185612d13565b6130bd6020830184612acf565b9392505050565b60006060820190506130d96000830186612d13565b6130e66020830185612acf565b6130f36040830184612d13565b949350505050565b60006040820190506131106000830185612d13565b61311d6020830184612d13565b9392505050565b600061312e61313f565b905061313a82826132db565b919050565b6000604051905090565b600067ffffffffffffffff821115613164576131636133b2565b5b61316d826133e1565b9050602081019050919050565b600081519050919050565b600081905092915050565b600082825260208201905092915050565b60006131ac8261328f565b91506131b78361328f565b9250827fffffffffffffffffffffffffffffffffffffffffffffffffffffffffffffffff038211156131ec576131eb613383565b5b828201905092915050565b60006132028261326f565b9050919050565b60008115159050919050565b6000819050919050565b60007fffffffff0000000000000000000000000000000000000000000000000000000082169050919050565b6000613256826131f7565b9050919050565b6000613268826131f7565b9050919050565b600073ffffffffffffffffffffffffffffffffffffffff82169050919050565b6000819050919050565b82818337600083830152505050565b60005b838110156132c65780820151818401526020810190506132ab565b838111156132d5576000848401525b50505050565b6132e4826133e1565b810181811067ffffffffffffffff82111715613303576133026133b2565b5b80604052505050565b60006133178261328f565b91507fffffffffffffffffffffffffffffffffffffffffffffffffffffffffffffffff82141561334a57613349613383565b5b600182019050919050565b600061336082613371565b9050919050565b6000819050919050565b600061337c826133f2565b9050919050565b7f4e487b7100000000000000000000000000000000000000000000000000000000600052601160045260246000fd5b7f4e487b7100000000000000000000000000000000000000000000000000000000600052604160045260246000fd5b6000601f19601f8301169050919050565b60006c0100000000000000000000000082029050919050565b7f434e53526567697374726172436f6e74726f6c6c65723a2072656f766c65722060008201527f7a65726f00000000000000000000000000000000000000000000000000000000602082015250565b7f434e53526567697374726172436f6e74726f6c6c65723a2061646d696e207a6560008201527f726f000000000000000000000000000000000000000000000000000000000000602082015250565b7f4f776e61626c653a206e6577206f776e657220697320746865207a65726f206160008201527f6464726573730000000000000000000000000000000000000000000000000000602082015250565b7f434e53526567697374726172436f6e74726f6c6c65723a206e616d652065727260008201527f6f72000000000000000000000000000000000000000000000000000000000000602082015250565b7f434e53526567697374726172436f6e74726f6c6c65723a206475726174696f6e60008201527f206572726f720000000000000000000000000000000000000000000000000000602082015250565b7f434e53526567697374726172436f6e74726f6c6c65723a20707269636520657260008201527f726f720000000000000000000000000000000000000000000000000000000000602082015250565b7f434e53526567697374726172436f6e74726f6c6c65723a2074696d652065727260008201527f6f72000000000000000000000000000000000000000000000000000000000000602082015250565b7f4f776e61626c653a2063616c6c6572206973206e6f7420746865206f776e6572600082015250565b7f434e53526567697374726172436f6e74726f6c6c65723a20636f73742065727260008201527f6f72000000000000000000000000000000000000000000000000000000000000602082015250565b7f434e53526567697374726172436f6e74726f6c6c65723a2061646472207a657260008201527f6f00000000000000000000000000000000000000000000000000000000000000602082015250565b613704816131f7565b811461370f57600080fd5b50565b61371b81613209565b811461372657600080fd5b50565b61373281613215565b811461373d57600080fd5b50565b6137498161321f565b811461375457600080fd5b50565b6137608161324b565b811461376b57600080fd5b50565b6137778161325d565b811461378257600080fd5b50565b61378e8161328f565b811461379957600080fd5b5056fea2646970667358221220e25e2ee090a5280f8908e652072dec7c64771f2a8168ce0a506e08801a39209264736f6c63430008040033",
  "immutableReferences": {},
  "source": "// SPDX-License-Identifier: UNLICCNSED\n\npragma solidity ^0.8.0;\n\nimport \"./PriceOracle.sol\";\nimport \"./BaseRegistrar.sol\";\nimport \"./StringUtils.sol\";\nimport \"@openzeppelin/contracts/access/Ownable.sol\";\nimport \"../resolvers/Resolver.sol\";\n\n/**\n * @dev A registrar controller for registering and renewing names at fixed cost.\n */\ncontract CNSRegistrarController is Ownable {\n    using StringUtils for *;\n\n    uint constant public MIN_REGISTRATION_DURATION = 28 days;\n\n    bytes4 constant private INTERFACE_META_ID = bytes4(keccak256(\"supportsInterface(bytes4)\"));\n    bytes4 constant private COMMITMENT_CONTROLLER_ID = bytes4(\n        keccak256(\"rentPrice(string,uint256,address)\") ^\n        keccak256(\"available(string)\") ^\n        keccak256(\"makeCommitment(string,address,bytes32)\") ^\n        keccak256(\"commit(bytes32)\") ^\n        keccak256(\"register(string,address,uint256,bytes32)\") ^\n        keccak256(\"renew(string,uint256)\")\n    );\n\n    bytes4 constant private COMMITMENT_WITH_CONFIG_CONTROLLER_ID = bytes4(\n        keccak256(\"registerWithConfig(string,address,uint256,bytes32,address,address)\") ^\n        keccak256(\"makeCommitmentWithConfig(string,address,bytes32,address,address)\")\n    );\n\n    BaseRegistrar base;\n    PriceOracle prices;\n    uint public minCommitmentAge;\n    uint public maxCommitmentAge;\n    uint public minNameLength;\n    address public adminAddress;\n\n    mapping(bytes32=>uint) public commitments;\n    mapping(address=>address) public dealerAddress;\n\n    event NameRegistered(string name, bytes32 indexed label, address indexed owner, uint cost, uint expires,address _dealer);\n    event NameRenewed(address indexed operator ,string name, bytes32 indexed label, uint cost, uint expires);\n    event NewPriceOracle(address indexed oracle);\n\n    constructor(BaseRegistrar _base, PriceOracle _prices,address _admin) {\n        base = _base;\n        prices = _prices;\n        adminAddress = _admin;\n        minCommitmentAge = 60;\n        maxCommitmentAge = 86400;\n        minNameLength = 2;\n    }\n\n    function rentPrice(string memory name, uint duration,address dealer) view public returns(uint) {\n        bytes32 hash = keccak256(bytes(name));\n        return prices.price(name, base.nameExpires(uint256(hash)), duration,dealer);\n    }\n\n    function validMin(string memory name) public view returns(bool) {\n        return name.strlen() > minNameLength;\n    }\n\n    function available(string memory name) public view returns(bool) {\n        bytes32 label = keccak256(bytes(name));\n        return validMin(name) && base.available(uint256(label));\n    }\n    \n    function makeCommitment(string memory name, address owner, bytes32 secret) pure public returns(bytes32) {\n        return makeCommitmentWithConfig(name, owner, secret, address(0), address(0));\n    }\n\n    function makeCommitmentWithConfig(string memory name, address owner, bytes32 secret, address resolver, address addr) pure public returns(bytes32) {\n        bytes32 label = keccak256(bytes(name));\n        if (resolver == address(0) && addr == address(0)) {\n            return keccak256(abi.encodePacked(label, owner, secret));\n        }\n        require(resolver != address(0), \"CNSRegistrarController: reovler zero\");\n        return keccak256(abi.encodePacked(label, owner, resolver, addr, secret));\n    }\n\n    function commit(bytes32 commitment) public {\n        require(commitments[commitment] + maxCommitmentAge < block.timestamp, \"CNSRegistrarController: time error\");\n        commitments[commitment] = block.timestamp;\n    }\n\n    // bytes32 secret\n    function register(string calldata name, address owner, uint duration) external payable {\n      registerWithConfig(name, owner, duration, address(0), address(0),address(0));\n    }\n\n    // bytes32 secret,\n    function registerWithConfig(string memory name, address owner, uint duration,  address resolver, address addr , address dealer) public payable {\n        require(available(name), \"CNSRegistrarController: name error\");        \n        // bytes32 commitment = makeCommitmentWithConfig(name, owner, secret, resolver, addr);\n        uint cost = _consumeCommitment(name,duration,dealer);\n\n        bytes32 label = keccak256(bytes(name));\n        uint256 tokenId = uint256(label);\n\n        uint expires;\n        if(resolver != address(0)) {\n            // Set this contract as the (temporary) owner, giving it\n            // permission to set up the resolver.\n            expires = base.register(tokenId, address(this), duration);\n\n            // The nodehash of this label\n            bytes32 nodehash = keccak256(abi.encodePacked(base.baseNode(), label));\n\n            // Set the resolver\n            base.cns().setResolver(nodehash, resolver);\n\n            // Configure the resolver\n            if (addr != address(0)) {\n                Resolver(resolver).setAddr(nodehash, addr);\n            }\n\n            // Now transfer full ownership to the expeceted owner\n            base.reclaim(tokenId, owner);\n            base.transferFrom(address(this), owner, tokenId);\n        } else {\n            require(addr == address(0), \"CNSRegistrarController: addr zero\");\n            expires = base.register(tokenId, owner, duration);\n        }\n\n        emit NameRegistered(name, label, owner, cost, expires,dealer);\n\n        //    \n        if(dealer != address(0) && dealerAddress[dealer] != address(0)){\n            payable(dealerAddress[dealer]).transfer(msg.value);\n        }else{\n            payable(adminAddress).transfer(msg.value);\n        }\n    }\n\n    function renew(string calldata name, uint duration,address dealer) external payable {\n        uint cost = rentPrice(name, duration,dealer);\n        require(msg.value >= cost && msg.value > 0, \"CNSRegistrarController: price error\");\n\n        bytes32 label = keccak256(bytes(name));\n        uint expires = base.renew(uint256(label), duration);\n        \n        payable(adminAddress).transfer(msg.value);\n\n        emit NameRenewed(msg.sender,name, label, cost, expires);\n    }\n\n    function setPriceOracle(PriceOracle _prices) public onlyOwner {\n        prices = _prices;\n        emit NewPriceOracle(address(prices));\n    }\n    \n    function setAdmin(address _admin) public onlyOwner {\n        require(_admin != address(0), \"CNSRegistrarController: admin zero\");\n        adminAddress = _admin;\n    }\n\n    function setCommitmentAges(uint _minCommitmentAge, uint _maxCommitmentAge) public onlyOwner {\n        minCommitmentAge = _minCommitmentAge;\n        maxCommitmentAge = _maxCommitmentAge;\n    }\n\n    function withdraw() public onlyOwner {\n        payable(msg.sender).transfer(address(this).balance);\n    }\n\n    function setNameLength(uint _minNameLength) public onlyOwner {\n        minNameLength = _minNameLength;\n    }\n\n    function setDealerAddress(address _dealerAddress,address _payAddress) public onlyOwner {\n        dealerAddress[_dealerAddress] = _payAddress;\n    }\n\n    function supportsInterface(bytes4 interfaceID) external pure returns (bool) {\n        return interfaceID == INTERFACE_META_ID ||\n               interfaceID == COMMITMENT_CONTROLLER_ID ||\n               interfaceID == COMMITMENT_WITH_CONFIG_CONTROLLER_ID;\n    }\n\n    function _consumeCommitment(string memory name, uint duration,address dealer) internal returns (uint256) {\n        // Require a valid commitment\n        // require(commitments[commitment] + minCommitmentAge <= block.timestamp);\n\n        // // If the commitment is too old, or the name is registered, stop\n        // require(commitments[commitment] + maxCommitmentAge > block.timestamp);\n        // require(available(name));\n\n        // delete(commitments[commitment]);\n\n        uint cost = rentPrice(name, duration,dealer);\n        require(duration >= MIN_REGISTRATION_DURATION, \"CNSRegistrarController: duration error\");\n        require(msg.value >= cost, \"CNSRegistrarController: cost error\");\n\n        return cost;\n    }\n\n}\n",
  "sourcePath": "/Users/yzbbanban/Downloads/money/chk/nftbox/bns/yns-sol-master-025696b23c531f8117f2fb03dee6f8c96f21692e/contracts/ynsregistry/CNSRegistrarController.sol",
  "compiler": {
    "name": "solc",
    "version": "0.8.4+commit.c7e474f2.Emscripten.clang"
  },
  "schemaVersion": "3.4.3",
  "updatedAt": "2022-09-08T01:23:16.637Z",
  "devdoc": {
    "details": "A registrar controller for registering and renewing names at fixed cost.",
    "kind": "dev",
    "methods": {
      "owner()": {
        "details": "Returns the address of the current owner."
      },
      "renounceOwnership()": {
        "details": "Leaves the contract without owner. It will not be possible to call `onlyOwner` functions anymore. Can only be called by the current owner. NOTE: Renouncing ownership will leave the contract without an owner, thereby removing any functionality that is only available to the owner."
      },
      "transferOwnership(address)": {
        "details": "Transfers ownership of the contract to a new account (`newOwner`). Can only be called by the current owner."
      }
    },
    "version": 1
  },
  "userdoc": {
    "kind": "user",
    "methods": {},
    "version": 1
  }
}