{
  "contractName": "DefaultReverseResolver",
  "abi": [
    {
      "inputs": [
        {
          "internalType": "contract CNS",
          "name": "cnsAddr",
          "type": "address"
        }
      ],
      "stateMutability": "nonpayable",
      "type": "constructor"
    },
    {
      "inputs": [],
      "name": "cns",
      "outputs": [
        {
          "internalType": "contract CNS",
          "name": "",
          "type": "address"
        }
      ],
      "stateMutability": "view",
      "type": "function",
      "constant": true
    },
    {
      "inputs": [
        {
          "internalType": "bytes32",
          "name": "",
          "type": "bytes32"
        }
      ],
      "name": "name",
      "outputs": [
        {
          "internalType": "string",
          "name": "",
          "type": "string"
        }
      ],
      "stateMutability": "view",
      "type": "function",
      "constant": true
    },
    {
      "inputs": [
        {
          "internalType": "bytes32",
          "name": "node",
          "type": "bytes32"
        },
        {
          "internalType": "string",
          "name": "_name",
          "type": "string"
        }
      ],
      "name": "setName",
      "outputs": [],
      "stateMutability": "nonpayable",
      "type": "function"
    }
  ],
  "bytecode": "0x60806040523480156200001157600080fd5b5060405162000bba38038062000bba8339818101604052810190620000379190620002f3565b806000806101000a81548173ffffffffffffffffffffffffffffffffffffffff021916908373ffffffffffffffffffffffffffffffffffffffff16021790555060008060009054906101000a900473ffffffffffffffffffffffffffffffffffffffff1673ffffffffffffffffffffffffffffffffffffffff166302571be37f91d1777781884d03a6757a803996e38de2a42967fb37eeaca72729271025a9e26001026040518263ffffffff167c01000000000000000000000000000000000000000000000000000000000281526004016200011491906200035e565b60206040518083038186803b1580156200012d57600080fd5b505afa15801562000142573d6000803e3d6000fd5b505050506040513d601f19601f820116820180604052508101906200016891906200029b565b9050600073ffffffffffffffffffffffffffffffffffffffff168173ffffffffffffffffffffffffffffffffffffffff16146200024e578073ffffffffffffffffffffffffffffffffffffffff16631e83409a336040518263ffffffff167c0100000000000000000000000000000000000000000000000000000000028152600401620001f6919062000341565b602060405180830381600087803b1580156200021157600080fd5b505af115801562000226573d6000803e3d6000fd5b505050506040513d601f19601f820116820180604052508101906200024c9190620002c7565b505b50506200041b565b6000815190506200026781620003cd565b92915050565b6000815190506200027e81620003e7565b92915050565b600081519050620002958162000401565b92915050565b600060208284031215620002ae57600080fd5b6000620002be8482850162000256565b91505092915050565b600060208284031215620002da57600080fd5b6000620002ea848285016200026d565b91505092915050565b6000602082840312156200030657600080fd5b6000620003168482850162000284565b91505092915050565b6200032a816200037b565b82525050565b6200033b816200038f565b82525050565b60006020820190506200035860008301846200031f565b92915050565b600060208201905062000375600083018462000330565b92915050565b60006200038882620003ad565b9050919050565b6000819050919050565b6000620003a6826200037b565b9050919050565b600073ffffffffffffffffffffffffffffffffffffffff82169050919050565b620003d8816200037b565b8114620003e457600080fd5b50565b620003f2816200038f565b8114620003fe57600080fd5b50565b6200040c8162000399565b81146200041857600080fd5b50565b61078f806200042b6000396000f3fe608060405234801561001057600080fd5b506004361061005e576000357c010000000000000000000000000000000000000000000000000000000090048063691f3431146100635780637737221314610093578063f1c248b1146100af575b600080fd5b61007d60048036038101906100789190610419565b6100cd565b60405161008a9190610523565b60405180910390f35b6100ad60048036038101906100a89190610442565b61016d565b005b6100b7610297565b6040516100c49190610508565b60405180910390f35b600160205280600052604060002060009150905080546100ec90610659565b80601f016020809104026020016040519081016040528092919081815260200182805461011890610659565b80156101655780601f1061013a57610100808354040283529160200191610165565b820191906000526020600020905b81548152906001019060200180831161014857829003601f168201915b505050505081565b8160008054906101000a900473ffffffffffffffffffffffffffffffffffffffff1673ffffffffffffffffffffffffffffffffffffffff166302571be3826040518263ffffffff167c01000000000000000000000000000000000000000000000000000000000281526004016101e391906104ed565b60206040518083038186803b1580156101fb57600080fd5b505afa15801561020f573d6000803e3d6000fd5b505050506040513d601f19601f8201168201806040525081019061023391906103f0565b73ffffffffffffffffffffffffffffffffffffffff163373ffffffffffffffffffffffffffffffffffffffff161461026a57600080fd5b816001600085815260200190815260200160002090805190602001906102919291906102bb565b50505050565b60008054906101000a900473ffffffffffffffffffffffffffffffffffffffff1681565b8280546102c790610659565b90600052602060002090601f0160209004810192826102e95760008555610330565b82601f1061030257805160ff1916838001178555610330565b82800160010185558215610330579182015b8281111561032f578251825591602001919060010190610314565b5b50905061033d9190610341565b5090565b5b8082111561035a576000816000905550600101610342565b5090565b600061037161036c8461056a565b610545565b90508281526020810184848401111561038957600080fd5b610394848285610617565b509392505050565b6000815190506103ab8161072b565b92915050565b6000813590506103c081610742565b92915050565b600082601f8301126103d757600080fd5b81356103e784826020860161035e565b91505092915050565b60006020828403121561040257600080fd5b60006104108482850161039c565b91505092915050565b60006020828403121561042b57600080fd5b6000610439848285016103b1565b91505092915050565b6000806040838503121561045557600080fd5b6000610463858286016103b1565b925050602083013567ffffffffffffffff81111561048057600080fd5b61048c858286016103c6565b9150509250929050565b61049f816105c9565b82525050565b6104ae816105f3565b82525050565b60006104bf8261059b565b6104c981856105a6565b93506104d9818560208601610626565b6104e28161071a565b840191505092915050565b60006020820190506105026000830184610496565b92915050565b600060208201905061051d60008301846104a5565b92915050565b6000602082019050818103600083015261053d81846104b4565b905092915050565b600061054f610560565b905061055b828261068b565b919050565b6000604051905090565b600067ffffffffffffffff821115610585576105846106eb565b5b61058e8261071a565b9050602081019050919050565b600081519050919050565b600082825260208201905092915050565b60006105c2826105d3565b9050919050565b6000819050919050565b600073ffffffffffffffffffffffffffffffffffffffff82169050919050565b60006105fe82610605565b9050919050565b6000610610826105d3565b9050919050565b82818337600083830152505050565b60005b83811015610644578082015181840152602081019050610629565b83811115610653576000848401525b50505050565b6000600282049050600182168061067157607f821691505b60208210811415610685576106846106bc565b5b50919050565b6106948261071a565b810181811067ffffffffffffffff821117156106b3576106b26106eb565b5b80604052505050565b7f4e487b7100000000000000000000000000000000000000000000000000000000600052602260045260246000fd5b7f4e487b7100000000000000000000000000000000000000000000000000000000600052604160045260246000fd5b6000601f19601f8301169050919050565b610734816105b7565b811461073f57600080fd5b50565b61074b816105c9565b811461075657600080fd5b5056fea2646970667358221220cff1934c72f89cdf3c2bf4b4954483259f69018753ee145ff3740d4b9e49f9bc64736f6c63430008040033",
  "immutableReferences": {},
  "source": "// SPDX-License-Identifier: UNLICCNSED\n\npragma solidity ^0.8.0;\n\nimport \"../registry/CNS.sol\";\nimport \"../registry/ReverseRegistrar.sol\";\n\n/**\n * @dev Provides a default implementation of a resolver for reverse records,\n * which permits only the owner to update it.\n */\ncontract DefaultReverseResolver {\n    // namehash('addr.reverse')\n    bytes32 constant ADDR_REVERSE_NODE = 0x91d1777781884d03a6757a803996e38de2a42967fb37eeaca72729271025a9e2;\n\n    CNS public cns;\n    mapping (bytes32 => string) public name;\n\n    /**\n     * @dev Only permits calls by the reverse registrar.\n     * @param node The node permission is required for.\n     */\n    modifier onlyOwner(bytes32 node) {\n        require(msg.sender == cns.owner(node));\n        _;\n    }\n\n    /**\n     * @dev Constructor\n     * @param cnsAddr The address of the CNS registry.\n     */\n    constructor(CNS cnsAddr) {\n        cns = cnsAddr;\n        // Assign ownership of the reverse record to our deployer\n        ReverseRegistrar registrar = ReverseRegistrar(cns.owner(ADDR_REVERSE_NODE));\n        if (address(registrar) != address(0x0)) {\n            registrar.claim(msg.sender);\n        }\n    }\n\n    /**\n     * @dev Sets the name for a node.\n     * @param node The node to update.\n     * @param _name The name to set.\n     */\n    function setName(bytes32 node, string memory _name) public onlyOwner(node) {\n        name[node] = _name;\n    }\n}\n",
  "sourcePath": "/Users/yzbbanban/Downloads/money/chk/nftbox/bns/yns-sol-master-025696b23c531f8117f2fb03dee6f8c96f21692e/contracts/resolvers/DefaultReverseResolver.sol",
  "compiler": {
    "name": "solc",
    "version": "0.8.4+commit.c7e474f2.Emscripten.clang"
  },
  "schemaVersion": "3.4.3",
  "updatedAt": "2022-08-28T14:26:02.498Z",
  "networkType": "ethereum",
  "devdoc": {
    "details": "Provides a default implementation of a resolver for reverse records, which permits only the owner to update it.",
    "kind": "dev",
    "methods": {
      "constructor": {
        "details": "Constructor",
        "params": {
          "cnsAddr": "The address of the CNS registry."
        }
      },
      "setName(bytes32,string)": {
        "details": "Sets the name for a node.",
        "params": {
          "_name": "The name to set.",
          "node": "The node to update."
        }
      }
    },
    "version": 1
  },
  "userdoc": {
    "kind": "user",
    "methods": {},
    "version": 1
  }
}