{
  "contractName": "CNSRegistryWithFallback",
  "abi": [
    {
      "inputs": [
        {
          "internalType": "contract CNS",
          "name": "_old",
          "type": "address"
        }
      ],
      "stateMutability": "nonpayable",
      "type": "constructor"
    },
    {
      "anonymous": false,
      "inputs": [
        {
          "indexed": true,
          "internalType": "address",
          "name": "owner",
          "type": "address"
        },
        {
          "indexed": true,
          "internalType": "address",
          "name": "operator",
          "type": "address"
        },
        {
          "indexed": false,
          "internalType": "bool",
          "name": "approved",
          "type": "bool"
        }
      ],
      "name": "ApprovalForAll",
      "type": "event"
    },
    {
      "anonymous": false,
      "inputs": [
        {
          "indexed": true,
          "internalType": "bytes32",
          "name": "node",
          "type": "bytes32"
        },
        {
          "indexed": true,
          "internalType": "bytes32",
          "name": "label",
          "type": "bytes32"
        },
        {
          "indexed": false,
          "internalType": "address",
          "name": "owner",
          "type": "address"
        }
      ],
      "name": "NewOwner",
      "type": "event"
    },
    {
      "anonymous": false,
      "inputs": [
        {
          "indexed": true,
          "internalType": "bytes32",
          "name": "node",
          "type": "bytes32"
        },
        {
          "indexed": false,
          "internalType": "address",
          "name": "resolver",
          "type": "address"
        }
      ],
      "name": "NewResolver",
      "type": "event"
    },
    {
      "anonymous": false,
      "inputs": [
        {
          "indexed": true,
          "internalType": "bytes32",
          "name": "node",
          "type": "bytes32"
        },
        {
          "indexed": false,
          "internalType": "uint64",
          "name": "ttl",
          "type": "uint64"
        }
      ],
      "name": "NewTTL",
      "type": "event"
    },
    {
      "anonymous": false,
      "inputs": [
        {
          "indexed": true,
          "internalType": "bytes32",
          "name": "node",
          "type": "bytes32"
        },
        {
          "indexed": false,
          "internalType": "address",
          "name": "owner",
          "type": "address"
        }
      ],
      "name": "Transfer",
      "type": "event"
    },
    {
      "inputs": [
        {
          "internalType": "address",
          "name": "_owner",
          "type": "address"
        },
        {
          "internalType": "address",
          "name": "operator",
          "type": "address"
        }
      ],
      "name": "isApprovedForAll",
      "outputs": [
        {
          "internalType": "bool",
          "name": "",
          "type": "bool"
        }
      ],
      "stateMutability": "view",
      "type": "function"
    },
    {
      "inputs": [],
      "name": "old",
      "outputs": [
        {
          "internalType": "contract CNS",
          "name": "",
          "type": "address"
        }
      ],
      "stateMutability": "view",
      "type": "function"
    },
    {
      "inputs": [
        {
          "internalType": "bytes32",
          "name": "node",
          "type": "bytes32"
        }
      ],
      "name": "recordExists",
      "outputs": [
        {
          "internalType": "bool",
          "name": "",
          "type": "bool"
        }
      ],
      "stateMutability": "view",
      "type": "function"
    },
    {
      "inputs": [
        {
          "internalType": "address",
          "name": "operator",
          "type": "address"
        },
        {
          "internalType": "bool",
          "name": "approved",
          "type": "bool"
        }
      ],
      "name": "setApprovalForAll",
      "outputs": [],
      "stateMutability": "nonpayable",
      "type": "function"
    },
    {
      "inputs": [
        {
          "internalType": "bytes32",
          "name": "node",
          "type": "bytes32"
        },
        {
          "internalType": "address",
          "name": "_owner",
          "type": "address"
        }
      ],
      "name": "setOwner",
      "outputs": [],
      "stateMutability": "nonpayable",
      "type": "function"
    },
    {
      "inputs": [
        {
          "internalType": "bytes32",
          "name": "_node",
          "type": "bytes32"
        },
        {
          "internalType": "address",
          "name": "_owner",
          "type": "address"
        },
        {
          "internalType": "address",
          "name": "_resolver",
          "type": "address"
        },
        {
          "internalType": "uint64",
          "name": "_ttl",
          "type": "uint64"
        }
      ],
      "name": "setRecord",
      "outputs": [],
      "stateMutability": "nonpayable",
      "type": "function"
    },
    {
      "inputs": [
        {
          "internalType": "bytes32",
          "name": "node",
          "type": "bytes32"
        },
        {
          "internalType": "address",
          "name": "_resolver",
          "type": "address"
        }
      ],
      "name": "setResolver",
      "outputs": [],
      "stateMutability": "nonpayable",
      "type": "function"
    },
    {
      "inputs": [
        {
          "internalType": "bytes32",
          "name": "node",
          "type": "bytes32"
        },
        {
          "internalType": "bytes32",
          "name": "label",
          "type": "bytes32"
        },
        {
          "internalType": "address",
          "name": "_owner",
          "type": "address"
        }
      ],
      "name": "setSubnodeOwner",
      "outputs": [
        {
          "internalType": "bytes32",
          "name": "",
          "type": "bytes32"
        }
      ],
      "stateMutability": "nonpayable",
      "type": "function"
    },
    {
      "inputs": [
        {
          "internalType": "bytes32",
          "name": "node",
          "type": "bytes32"
        },
        {
          "internalType": "bytes32",
          "name": "label",
          "type": "bytes32"
        },
        {
          "internalType": "address",
          "name": "_owner",
          "type": "address"
        },
        {
          "internalType": "address",
          "name": "_resolver",
          "type": "address"
        },
        {
          "internalType": "uint64",
          "name": "_ttl",
          "type": "uint64"
        }
      ],
      "name": "setSubnodeRecord",
      "outputs": [],
      "stateMutability": "nonpayable",
      "type": "function"
    },
    {
      "inputs": [
        {
          "internalType": "bytes32",
          "name": "node",
          "type": "bytes32"
        },
        {
          "internalType": "uint64",
          "name": "_ttl",
          "type": "uint64"
        }
      ],
      "name": "setTTL",
      "outputs": [],
      "stateMutability": "nonpayable",
      "type": "function"
    },
    {
      "inputs": [
        {
          "internalType": "bytes32",
          "name": "node",
          "type": "bytes32"
        }
      ],
      "name": "resolver",
      "outputs": [
        {
          "internalType": "address",
          "name": "",
          "type": "address"
        }
      ],
      "stateMutability": "view",
      "type": "function"
    },
    {
      "inputs": [
        {
          "internalType": "bytes32",
          "name": "node",
          "type": "bytes32"
        }
      ],
      "name": "owner",
      "outputs": [
        {
          "internalType": "address",
          "name": "",
          "type": "address"
        }
      ],
      "stateMutability": "view",
      "type": "function"
    },
    {
      "inputs": [
        {
          "internalType": "bytes32",
          "name": "node",
          "type": "bytes32"
        }
      ],
      "name": "ttl",
      "outputs": [
        {
          "internalType": "uint64",
          "name": "",
          "type": "uint64"
        }
      ],
      "stateMutability": "view",
      "type": "function"
    }
  ],
  "bytecode": "0x60806040523480156200001157600080fd5b5060405162001956380380620019568339818101604052810190620000379190620000ed565b3360008080600102815260200190815260200160002060000160006101000a81548173ffffffffffffffffffffffffffffffffffffffff021916908373ffffffffffffffffffffffffffffffffffffffff16021790555080600260006101000a81548173ffffffffffffffffffffffffffffffffffffffff021916908373ffffffffffffffffffffffffffffffffffffffff160217905550506200017b565b600081519050620000e78162000161565b92915050565b6000602082840312156200010057600080fd5b60006200011084828501620000d6565b91505092915050565b6000620001268262000141565b9050919050565b60006200013a8262000119565b9050919050565b600073ffffffffffffffffffffffffffffffffffffffff82169050919050565b6200016c816200012d565b81146200017857600080fd5b50565b6117cb806200018b6000396000f3fe608060405234801561001057600080fd5b50600436106100ec576000357c0100000000000000000000000000000000000000000000000000000000900480635b0fc9c3116100a9578063b83f866311610083578063b83f86631461023d578063cf4088231461025b578063e985e9c514610277578063f79fe538146102a7576100ec565b80635b0fc9c3146101e95780635ef2c7f014610205578063a22cb46514610221576100ec565b80630178b8bf146100f157806302571be31461012157806306ab59231461015157806314ab90381461018157806316a25cbd1461019d5780631896f70a146101cd575b600080fd5b61010b6004803603810190610106919061132a565b6102d7565b60405161011891906115ce565b60405180910390f35b61013b6004803603810190610136919061132a565b6103c5565b60405161014891906115ce565b60405180910390f35b61016b600480360381019061016691906113f2565b6104b3565b6040516101789190611604565b60405180910390f35b61019b600480360381019061019691906114b8565b61066c565b005b6101b760048036038101906101b2919061132a565b610820565b6040516101c4919061165a565b60405180910390f35b6101e760048036038101906101e29190611353565b61090e565b005b61020360048036038101906101fe9190611353565b610ada565b005b61021f600480360381019061021a9190611441565b610c5c565b005b61023b600480360381019061023691906112ee565b610c7e565b005b610245610d7b565b604051610252919061161f565b60405180910390f35b6102756004803603810190610270919061138f565b610da1565b005b610291600480360381019061028c91906112b2565b610dbc565b60405161029e91906115e9565b60405180910390f35b6102c160048036038101906102bc919061132a565b610e50565b6040516102ce91906115e9565b60405180910390f35b60006102e282610e50565b6103b457600260009054906101000a900473ffffffffffffffffffffffffffffffffffffffff1673ffffffffffffffffffffffffffffffffffffffff16630178b8bf836040518263ffffffff167c010000000000000000000000000000000000000000000000000000000002815260040161035d9190611604565b60206040518083038186803b15801561037557600080fd5b505afa158015610389573d6000803e3d6000fd5b505050506040513d601f19601f820116820180604052508101906103ad9190611289565b90506103c0565b6103bd82610ebe565b90505b919050565b60006103d082610e50565b6104a257600260009054906101000a900473ffffffffffffffffffffffffffffffffffffffff1673ffffffffffffffffffffffffffffffffffffffff166302571be3836040518263ffffffff167c010000000000000000000000000000000000000000000000000000000002815260040161044b9190611604565b60206040518083038186803b15801561046357600080fd5b505afa158015610477573d6000803e3d6000fd5b505050506040513d601f19601f8201168201806040525081019061049b9190611289565b90506104ae565b6104ab82610efd565b90505b919050565b600083600080600083815260200190815260200160002060000160009054906101000a900473ffffffffffffffffffffffffffffffffffffffff1690503373ffffffffffffffffffffffffffffffffffffffff168173ffffffffffffffffffffffffffffffffffffffff1614806105b05750600160008273ffffffffffffffffffffffffffffffffffffffff1673ffffffffffffffffffffffffffffffffffffffff16815260200190815260200160002060003373ffffffffffffffffffffffffffffffffffffffff1673ffffffffffffffffffffffffffffffffffffffff16815260200190815260200160002060009054906101000a900460ff165b6105ef576040517f08c379a00000000000000000000000000000000000000000000000000000000081526004016105e69061163a565b60405180910390fd5b600086866040516020016106049291906115a2565b6040516020818303038152906040528051906020012090506106268186610f80565b85877fce0457fe73731f824cc272376169235128c118b49d344817417c6d108d155e828760405161065791906115ce565b60405180910390a38093505050509392505050565b81600080600083815260200190815260200160002060000160009054906101000a900473ffffffffffffffffffffffffffffffffffffffff1690503373ffffffffffffffffffffffffffffffffffffffff168173ffffffffffffffffffffffffffffffffffffffff1614806107675750600160008273ffffffffffffffffffffffffffffffffffffffff1673ffffffffffffffffffffffffffffffffffffffff16815260200190815260200160002060003373ffffffffffffffffffffffffffffffffffffffff1673ffffffffffffffffffffffffffffffffffffffff16815260200190815260200160002060009054906101000a900460ff165b6107a6576040517f08c379a000000000000000000000000000000000000000000000000000000000815260040161079d9061163a565b60405180910390fd5b837f1d4f9bbfc9cab89d66e1a1562f2233ccbf1308cb4f63de2ead5787adddb8fa68846040516107d6919061165a565b60405180910390a28260008086815260200190815260200160002060010160146101000a81548167ffffffffffffffff021916908367ffffffffffffffff16021790555050505050565b600061082b82610e50565b6108fd57600260009054906101000a900473ffffffffffffffffffffffffffffffffffffffff1673ffffffffffffffffffffffffffffffffffffffff166316a25cbd836040518263ffffffff167c01000000000000000000000000000000000000000000000000000000000281526004016108a69190611604565b60206040518083038186803b1580156108be57600080fd5b505afa1580156108d2573d6000803e3d6000fd5b505050506040513d601f19601f820116820180604052508101906108f691906114f4565b9050610909565b61090682610fcd565b90505b919050565b81600080600083815260200190815260200160002060000160009054906101000a900473ffffffffffffffffffffffffffffffffffffffff1690503373ffffffffffffffffffffffffffffffffffffffff168173ffffffffffffffffffffffffffffffffffffffff161480610a095750600160008273ffffffffffffffffffffffffffffffffffffffff1673ffffffffffffffffffffffffffffffffffffffff16815260200190815260200160002060003373ffffffffffffffffffffffffffffffffffffffff1673ffffffffffffffffffffffffffffffffffffffff16815260200190815260200160002060009054906101000a900460ff165b610a48576040517f08c379a0000000000000000000000000000000000000000000000000000000008152600401610a3f9061163a565b60405180910390fd5b837f335721b01866dc23fbee8b6b2c7b1e14d6f05c28cd35a2c934239f94095602a084604051610a7891906115ce565b60405180910390a28260008086815260200190815260200160002060010160006101000a81548173ffffffffffffffffffffffffffffffffffffffff021916908373ffffffffffffffffffffffffffffffffffffffff16021790555050505050565b81600080600083815260200190815260200160002060000160009054906101000a900473ffffffffffffffffffffffffffffffffffffffff1690503373ffffffffffffffffffffffffffffffffffffffff168173ffffffffffffffffffffffffffffffffffffffff161480610bd55750600160008273ffffffffffffffffffffffffffffffffffffffff1673ffffffffffffffffffffffffffffffffffffffff16815260200190815260200160002060003373ffffffffffffffffffffffffffffffffffffffff1673ffffffffffffffffffffffffffffffffffffffff16815260200190815260200160002060009054906101000a900460ff165b610c14576040517f08c379a0000000000000000000000000000000000000000000000000000000008152600401610c0b9061163a565b60405180910390fd5b610c1e8484610f80565b837fd4735d920b0f87494915f556dd9b54c8f309026070caea5c737245152564d26684604051610c4e91906115ce565b60405180910390a250505050565b6000610c698686866104b3565b9050610c76818484611000565b505050505050565b80600160003373ffffffffffffffffffffffffffffffffffffffff1673ffffffffffffffffffffffffffffffffffffffff16815260200190815260200160002060008473ffffffffffffffffffffffffffffffffffffffff1673ffffffffffffffffffffffffffffffffffffffff16815260200190815260200160002060006101000a81548160ff0219169083151502179055508173ffffffffffffffffffffffffffffffffffffffff163373ffffffffffffffffffffffffffffffffffffffff167f17307eab39ab6107e8899845ad3d59bd9653f200f220920489ca2b5937696c3183604051610d6f91906115e9565b60405180910390a35050565b600260009054906101000a900473ffffffffffffffffffffffffffffffffffffffff1681565b610dab8484610ada565b610db6848383611000565b50505050565b6000600160008473ffffffffffffffffffffffffffffffffffffffff1673ffffffffffffffffffffffffffffffffffffffff16815260200190815260200160002060008373ffffffffffffffffffffffffffffffffffffffff1673ffffffffffffffffffffffffffffffffffffffff16815260200190815260200160002060009054906101000a900460ff16905092915050565b60008073ffffffffffffffffffffffffffffffffffffffff1660008084815260200190815260200160002060000160009054906101000a900473ffffffffffffffffffffffffffffffffffffffff1673ffffffffffffffffffffffffffffffffffffffff1614159050919050565b600080600083815260200190815260200160002060010160009054906101000a900473ffffffffffffffffffffffffffffffffffffffff169050919050565b60008060008084815260200190815260200160002060000160009054906101000a900473ffffffffffffffffffffffffffffffffffffffff1690503073ffffffffffffffffffffffffffffffffffffffff168173ffffffffffffffffffffffffffffffffffffffff161415610f76576000915050610f7b565b809150505b919050565b6000819050600073ffffffffffffffffffffffffffffffffffffffff168173ffffffffffffffffffffffffffffffffffffffff161415610fbe573090505b610fc883826111b3565b505050565b600080600083815260200190815260200160002060010160149054906101000a900467ffffffffffffffff169050919050565b60008084815260200190815260200160002060010160009054906101000a900473ffffffffffffffffffffffffffffffffffffffff1673ffffffffffffffffffffffffffffffffffffffff168273ffffffffffffffffffffffffffffffffffffffff16146110f5578160008085815260200190815260200160002060010160006101000a81548173ffffffffffffffffffffffffffffffffffffffff021916908373ffffffffffffffffffffffffffffffffffffffff160217905550827f335721b01866dc23fbee8b6b2c7b1e14d6f05c28cd35a2c934239f94095602a0836040516110ec91906115ce565b60405180910390a25b60008084815260200190815260200160002060010160149054906101000a900467ffffffffffffffff1667ffffffffffffffff168167ffffffffffffffff16146111ae578060008085815260200190815260200160002060010160146101000a81548167ffffffffffffffff021916908367ffffffffffffffff160217905550827f1d4f9bbfc9cab89d66e1a1562f2233ccbf1308cb4f63de2ead5787adddb8fa68826040516111a5919061165a565b60405180910390a25b505050565b8060008084815260200190815260200160002060000160006101000a81548173ffffffffffffffffffffffffffffffffffffffff021916908373ffffffffffffffffffffffffffffffffffffffff1602179055505050565b60008135905061121a81611739565b92915050565b60008151905061122f81611739565b92915050565b60008135905061124481611750565b92915050565b60008135905061125981611767565b92915050565b60008135905061126e8161177e565b92915050565b6000815190506112838161177e565b92915050565b60006020828403121561129b57600080fd5b60006112a984828501611220565b91505092915050565b600080604083850312156112c557600080fd5b60006112d38582860161120b565b92505060206112e48582860161120b565b9150509250929050565b6000806040838503121561130157600080fd5b600061130f8582860161120b565b925050602061132085828601611235565b9150509250929050565b60006020828403121561133c57600080fd5b600061134a8482850161124a565b91505092915050565b6000806040838503121561136657600080fd5b60006113748582860161124a565b92505060206113858582860161120b565b9150509250929050565b600080600080608085870312156113a557600080fd5b60006113b38782880161124a565b94505060206113c48782880161120b565b93505060406113d58782880161120b565b92505060606113e68782880161125f565b91505092959194509250565b60008060006060848603121561140757600080fd5b60006114158682870161124a565b93505060206114268682870161124a565b92505060406114378682870161120b565b9150509250925092565b600080600080600060a0868803121561145957600080fd5b60006114678882890161124a565b95505060206114788882890161124a565b94505060406114898882890161120b565b935050606061149a8882890161120b565b92505060806114ab8882890161125f565b9150509295509295909350565b600080604083850312156114cb57600080fd5b60006114d98582860161124a565b92505060206114ea8582860161125f565b9150509250929050565b60006020828403121561150657600080fd5b600061151484828501611274565b91505092915050565b61152681611686565b82525050565b61153581611698565b82525050565b611544816116a4565b82525050565b61155b611556826116a4565b611706565b82525050565b61156a816116e2565b82525050565b600061157d600f83611675565b915061158882611710565b602082019050919050565b61159c816116ce565b82525050565b60006115ae828561154a565b6020820191506115be828461154a565b6020820191508190509392505050565b60006020820190506115e3600083018461151d565b92915050565b60006020820190506115fe600083018461152c565b92915050565b6000602082019050611619600083018461153b565b92915050565b60006020820190506116346000830184611561565b92915050565b6000602082019050818103600083015261165381611570565b9050919050565b600060208201905061166f6000830184611593565b92915050565b600082825260208201905092915050565b6000611691826116ae565b9050919050565b60008115159050919050565b6000819050919050565b600073ffffffffffffffffffffffffffffffffffffffff82169050919050565b600067ffffffffffffffff82169050919050565b60006116ed826116f4565b9050919050565b60006116ff826116ae565b9050919050565b6000819050919050565b7f4f70657261746f7273206572726f720000000000000000000000000000000000600082015250565b61174281611686565b811461174d57600080fd5b50565b61175981611698565b811461176457600080fd5b50565b611770816116a4565b811461177b57600080fd5b50565b611787816116ce565b811461179257600080fd5b5056fea2646970667358221220c53fd69035b37d3c14b2c1f374ef2e47d9b733b746bd281e2f5fe729c6e86f2f64736f6c63430008040033",
  "immutableReferences": {},
  "source": "// SPDX-License-Identifier: UNLICCNSED\r\npragma solidity ^0.8.0;\r\n\r\nimport \"./CNS.sol\";\r\nimport \"./CNSRegistry.sol\";\r\n\r\n/**\r\n * The CNS registry contract.\r\n */\r\ncontract CNSRegistryWithFallback is CNSRegistry {\r\n\r\n    CNS public old;\r\n\r\n    /**\r\n     * @dev Constructs a new CNS registrar.\r\n     */\r\n    constructor(CNS _old) CNSRegistry() {\r\n        old = _old;\r\n    }\r\n\r\n    /**\r\n     * @dev Returns the address of the resolver for the specified node.\r\n     * @param node The specified node.\r\n     * @return address of the resolver.\r\n     */\r\n    function resolver(bytes32 node) public override view returns (address) {\r\n        if (!recordExists(node)) {\r\n            return old.resolver(node);\r\n        }\r\n\r\n        return super.resolver(node);\r\n    }\r\n\r\n    /**\r\n     * @dev Returns the address that owns the specified node.\r\n     * @param node The specified node.\r\n     * @return address of the owner.\r\n     */\r\n    function owner(bytes32 node) public override view returns (address) {\r\n        if (!recordExists(node)) {\r\n            return old.owner(node);\r\n        }\r\n\r\n        return super.owner(node);\r\n    }\r\n\r\n    /**\r\n     * @dev Returns the TTL of a node, and any records associated with it.\r\n     * @param node The specified node.\r\n     * @return ttl of the node.\r\n     */\r\n    function ttl(bytes32 node) public override view returns (uint64) {\r\n        if (!recordExists(node)) {\r\n            return old.ttl(node);\r\n        }\r\n\r\n        return super.ttl(node);\r\n    }\r\n\r\n    function _setOwner(bytes32 node, address _owner) internal override {\r\n        address addr = _owner;\r\n        if (addr == address(0x0)) {\r\n            addr = address(this);\r\n        }\r\n\r\n        super._setOwner(node, addr);\r\n    }\r\n}\r\n",
  "sourcePath": "E:\\CNS\\yns\\contracts\\registry\\CNSRegistryWithFallback.sol",
  "compiler": {
    "name": "solc",
    "version": "0.8.4+commit.c7e474f2.Emscripten.clang"
  },
  "schemaVersion": "3.4.3",
  "updatedAt": "2021-11-18T09:13:35.644Z",
  "networkType": "ethereum",
  "devdoc": {
    "kind": "dev",
    "methods": {
      "constructor": {
        "details": "Constructs a new CNS registrar."
      },
      "isApprovedForAll(address,address)": {
        "details": "Query if an address is an authorized operator for another address.",
        "params": {
          "_owner": "The address that owns the records.",
          "operator": "The address that acts on behalf of the owner."
        },
        "returns": {
          "_0": "True if `operator` is an approved operator for `owner`, false otherwise."
        }
      },
      "owner(bytes32)": {
        "details": "Returns the address that owns the specified node.",
        "params": {
          "node": "The specified node."
        },
        "returns": {
          "_0": "address of the owner."
        }
      },
      "recordExists(bytes32)": {
        "details": "Returns whether a record has been imported to the registry.",
        "params": {
          "node": "The specified node."
        },
        "returns": {
          "_0": "Bool if record exists"
        }
      },
      "resolver(bytes32)": {
        "details": "Returns the address of the resolver for the specified node.",
        "params": {
          "node": "The specified node."
        },
        "returns": {
          "_0": "address of the resolver."
        }
      },
      "setApprovalForAll(address,bool)": {
        "details": "Enable or disable approval for a third party (\"operator\") to manage  all of `msg.sender`'s CNS records. Emits the ApprovalForAll event.",
        "params": {
          "approved": "True if the operator is approved, false to revoke approval.",
          "operator": "Address to add to the set of authorized operators."
        }
      },
      "setOwner(bytes32,address)": {
        "details": "Transfers ownership of a node to a new address. May only be called by the current owner of the node.",
        "params": {
          "_owner": "The address of the new owner.",
          "node": "The node to transfer ownership of."
        }
      },
      "setRecord(bytes32,address,address,uint64)": {
        "details": "Sets the record for a node.",
        "params": {
          "_node": "The node to update.",
          "_owner": "The address of the new owner.",
          "_resolver": "The address of the resolver.",
          "_ttl": "The TTL in seconds."
        }
      },
      "setResolver(bytes32,address)": {
        "details": "Sets the resolver address for the specified node.",
        "params": {
          "_resolver": "The address of the resolver.",
          "node": "The node to update."
        }
      },
      "setSubnodeOwner(bytes32,bytes32,address)": {
        "details": "Transfers ownership of a subnode keccak256(node, label) to a new address. May only be called by the owner of the parent node.",
        "params": {
          "_owner": "The address of the new owner.",
          "label": "The hash of the label specifying the subnode.",
          "node": "The parent node."
        }
      },
      "setSubnodeRecord(bytes32,bytes32,address,address,uint64)": {
        "details": "Sets the record for a subnode.",
        "params": {
          "_owner": "The address of the new owner.",
          "_resolver": "The address of the resolver.",
          "_ttl": "The TTL in seconds.",
          "label": "The hash of the label specifying the subnode.",
          "node": "The parent node."
        }
      },
      "setTTL(bytes32,uint64)": {
        "details": "Sets the TTL for the specified node.",
        "params": {
          "_ttl": "The TTL in seconds.",
          "node": "The node to update."
        }
      },
      "ttl(bytes32)": {
        "details": "Returns the TTL of a node, and any records associated with it.",
        "params": {
          "node": "The specified node."
        },
        "returns": {
          "_0": "ttl of the node."
        }
      }
    },
    "version": 1
  },
  "userdoc": {
    "kind": "user",
    "methods": {},
    "notice": "The CNS registry contract.",
    "version": 1
  }
}