{
  "contractName": "CNSRegistry",
  "abi": [
    {
      "inputs": [],
      "stateMutability": "nonpayable",
      "type": "constructor"
    },
    {
      "anonymous": false,
      "inputs": [
        {
          "indexed": true,
          "internalType": "address",
          "name": "owner",
          "type": "address"
        },
        {
          "indexed": true,
          "internalType": "address",
          "name": "operator",
          "type": "address"
        },
        {
          "indexed": false,
          "internalType": "bool",
          "name": "approved",
          "type": "bool"
        }
      ],
      "name": "ApprovalForAll",
      "type": "event"
    },
    {
      "anonymous": false,
      "inputs": [
        {
          "indexed": true,
          "internalType": "bytes32",
          "name": "node",
          "type": "bytes32"
        },
        {
          "indexed": true,
          "internalType": "bytes32",
          "name": "label",
          "type": "bytes32"
        },
        {
          "indexed": false,
          "internalType": "address",
          "name": "owner",
          "type": "address"
        }
      ],
      "name": "NewOwner",
      "type": "event"
    },
    {
      "anonymous": false,
      "inputs": [
        {
          "indexed": true,
          "internalType": "bytes32",
          "name": "node",
          "type": "bytes32"
        },
        {
          "indexed": false,
          "internalType": "address",
          "name": "resolver",
          "type": "address"
        }
      ],
      "name": "NewResolver",
      "type": "event"
    },
    {
      "anonymous": false,
      "inputs": [
        {
          "indexed": true,
          "internalType": "bytes32",
          "name": "node",
          "type": "bytes32"
        },
        {
          "indexed": false,
          "internalType": "uint64",
          "name": "ttl",
          "type": "uint64"
        }
      ],
      "name": "NewTTL",
      "type": "event"
    },
    {
      "anonymous": false,
      "inputs": [
        {
          "indexed": true,
          "internalType": "bytes32",
          "name": "node",
          "type": "bytes32"
        },
        {
          "indexed": false,
          "internalType": "address",
          "name": "owner",
          "type": "address"
        }
      ],
      "name": "Transfer",
      "type": "event"
    },
    {
      "inputs": [
        {
          "internalType": "bytes32",
          "name": "_node",
          "type": "bytes32"
        },
        {
          "internalType": "address",
          "name": "_owner",
          "type": "address"
        },
        {
          "internalType": "address",
          "name": "_resolver",
          "type": "address"
        },
        {
          "internalType": "uint64",
          "name": "_ttl",
          "type": "uint64"
        }
      ],
      "name": "setRecord",
      "outputs": [],
      "stateMutability": "nonpayable",
      "type": "function"
    },
    {
      "inputs": [
        {
          "internalType": "bytes32",
          "name": "node",
          "type": "bytes32"
        },
        {
          "internalType": "bytes32",
          "name": "label",
          "type": "bytes32"
        },
        {
          "internalType": "address",
          "name": "_owner",
          "type": "address"
        },
        {
          "internalType": "address",
          "name": "_resolver",
          "type": "address"
        },
        {
          "internalType": "uint64",
          "name": "_ttl",
          "type": "uint64"
        }
      ],
      "name": "setSubnodeRecord",
      "outputs": [],
      "stateMutability": "nonpayable",
      "type": "function"
    },
    {
      "inputs": [
        {
          "internalType": "bytes32",
          "name": "node",
          "type": "bytes32"
        },
        {
          "internalType": "address",
          "name": "_owner",
          "type": "address"
        }
      ],
      "name": "setOwner",
      "outputs": [],
      "stateMutability": "nonpayable",
      "type": "function"
    },
    {
      "inputs": [
        {
          "internalType": "bytes32",
          "name": "node",
          "type": "bytes32"
        },
        {
          "internalType": "bytes32",
          "name": "label",
          "type": "bytes32"
        },
        {
          "internalType": "address",
          "name": "_owner",
          "type": "address"
        }
      ],
      "name": "setSubnodeOwner",
      "outputs": [
        {
          "internalType": "bytes32",
          "name": "",
          "type": "bytes32"
        }
      ],
      "stateMutability": "nonpayable",
      "type": "function"
    },
    {
      "inputs": [
        {
          "internalType": "bytes32",
          "name": "node",
          "type": "bytes32"
        },
        {
          "internalType": "address",
          "name": "_resolver",
          "type": "address"
        }
      ],
      "name": "setResolver",
      "outputs": [],
      "stateMutability": "nonpayable",
      "type": "function"
    },
    {
      "inputs": [
        {
          "internalType": "bytes32",
          "name": "node",
          "type": "bytes32"
        },
        {
          "internalType": "uint64",
          "name": "_ttl",
          "type": "uint64"
        }
      ],
      "name": "setTTL",
      "outputs": [],
      "stateMutability": "nonpayable",
      "type": "function"
    },
    {
      "inputs": [
        {
          "internalType": "address",
          "name": "operator",
          "type": "address"
        },
        {
          "internalType": "bool",
          "name": "approved",
          "type": "bool"
        }
      ],
      "name": "setApprovalForAll",
      "outputs": [],
      "stateMutability": "nonpayable",
      "type": "function"
    },
    {
      "inputs": [
        {
          "internalType": "bytes32",
          "name": "node",
          "type": "bytes32"
        }
      ],
      "name": "owner",
      "outputs": [
        {
          "internalType": "address",
          "name": "",
          "type": "address"
        }
      ],
      "stateMutability": "view",
      "type": "function",
      "constant": true
    },
    {
      "inputs": [
        {
          "internalType": "bytes32",
          "name": "node",
          "type": "bytes32"
        }
      ],
      "name": "resolver",
      "outputs": [
        {
          "internalType": "address",
          "name": "",
          "type": "address"
        }
      ],
      "stateMutability": "view",
      "type": "function",
      "constant": true
    },
    {
      "inputs": [
        {
          "internalType": "bytes32",
          "name": "node",
          "type": "bytes32"
        }
      ],
      "name": "ttl",
      "outputs": [
        {
          "internalType": "uint64",
          "name": "",
          "type": "uint64"
        }
      ],
      "stateMutability": "view",
      "type": "function",
      "constant": true
    },
    {
      "inputs": [
        {
          "internalType": "bytes32",
          "name": "node",
          "type": "bytes32"
        }
      ],
      "name": "recordExists",
      "outputs": [
        {
          "internalType": "bool",
          "name": "",
          "type": "bool"
        }
      ],
      "stateMutability": "view",
      "type": "function",
      "constant": true
    },
    {
      "inputs": [
        {
          "internalType": "address",
          "name": "_owner",
          "type": "address"
        },
        {
          "internalType": "address",
          "name": "operator",
          "type": "address"
        }
      ],
      "name": "isApprovedForAll",
      "outputs": [
        {
          "internalType": "bool",
          "name": "",
          "type": "bool"
        }
      ],
      "stateMutability": "view",
      "type": "function",
      "constant": true
    }
  ],
  "bytecode": "0x608060405234801561001057600080fd5b503360008080600102815260200190815260200160002060000160006101000a81548173ffffffffffffffffffffffffffffffffffffffff021916908373ffffffffffffffffffffffffffffffffffffffff16021790555061138b806100776000396000f3fe608060405234801561001057600080fd5b50600436106100d1576000357c0100000000000000000000000000000000000000000000000000000000900480635b0fc9c31161008e5780635b0fc9c3146101ce5780635ef2c7f0146101ea578063a22cb46514610206578063cf40882314610222578063e985e9c51461023e578063f79fe5381461026e576100d1565b80630178b8bf146100d657806302571be31461010657806306ab59231461013657806314ab90381461016657806316a25cbd146101825780631896f70a146101b2575b600080fd5b6100f060048036038101906100eb9190610f61565b61029e565b6040516100fd91906111cd565b60405180910390f35b610120600480360381019061011b9190610f61565b6102dd565b60405161012d91906111cd565b60405180910390f35b610150600480360381019061014b9190611029565b610360565b60405161015d9190611203565b60405180910390f35b610180600480360381019061017b91906110ef565b610519565b005b61019c60048036038101906101979190610f61565b6106cd565b6040516101a9919061123e565b60405180910390f35b6101cc60048036038101906101c79190610f8a565b610700565b005b6101e860048036038101906101e39190610f8a565b6108cc565b005b61020460048036038101906101ff9190611078565b610a4e565b005b610220600480360381019061021b9190610f25565b610a70565b005b61023c60048036038101906102379190610fc6565b610b6d565b005b61025860048036038101906102539190610ee9565b610b88565b60405161026591906111e8565b60405180910390f35b61028860048036038101906102839190610f61565b610c1c565b60405161029591906111e8565b60405180910390f35b600080600083815260200190815260200160002060010160009054906101000a900473ffffffffffffffffffffffffffffffffffffffff169050919050565b60008060008084815260200190815260200160002060000160009054906101000a900473ffffffffffffffffffffffffffffffffffffffff1690503073ffffffffffffffffffffffffffffffffffffffff168173ffffffffffffffffffffffffffffffffffffffff16141561035657600091505061035b565b809150505b919050565b600083600080600083815260200190815260200160002060000160009054906101000a900473ffffffffffffffffffffffffffffffffffffffff1690503373ffffffffffffffffffffffffffffffffffffffff168173ffffffffffffffffffffffffffffffffffffffff16148061045d5750600160008273ffffffffffffffffffffffffffffffffffffffff1673ffffffffffffffffffffffffffffffffffffffff16815260200190815260200160002060003373ffffffffffffffffffffffffffffffffffffffff1673ffffffffffffffffffffffffffffffffffffffff16815260200190815260200160002060009054906101000a900460ff165b61049c576040517f08c379a00000000000000000000000000000000000000000000000000000000081526004016104939061121e565b60405180910390fd5b600086866040516020016104b19291906111a1565b6040516020818303038152906040528051906020012090506104d38186610c8a565b85877fce0457fe73731f824cc272376169235128c118b49d344817417c6d108d155e828760405161050491906111cd565b60405180910390a38093505050509392505050565b81600080600083815260200190815260200160002060000160009054906101000a900473ffffffffffffffffffffffffffffffffffffffff1690503373ffffffffffffffffffffffffffffffffffffffff168173ffffffffffffffffffffffffffffffffffffffff1614806106145750600160008273ffffffffffffffffffffffffffffffffffffffff1673ffffffffffffffffffffffffffffffffffffffff16815260200190815260200160002060003373ffffffffffffffffffffffffffffffffffffffff1673ffffffffffffffffffffffffffffffffffffffff16815260200190815260200160002060009054906101000a900460ff165b610653576040517f08c379a000000000000000000000000000000000000000000000000000000000815260040161064a9061121e565b60405180910390fd5b837f1d4f9bbfc9cab89d66e1a1562f2233ccbf1308cb4f63de2ead5787adddb8fa6884604051610683919061123e565b60405180910390a28260008086815260200190815260200160002060010160146101000a81548167ffffffffffffffff021916908367ffffffffffffffff16021790555050505050565b600080600083815260200190815260200160002060010160149054906101000a900467ffffffffffffffff169050919050565b81600080600083815260200190815260200160002060000160009054906101000a900473ffffffffffffffffffffffffffffffffffffffff1690503373ffffffffffffffffffffffffffffffffffffffff168173ffffffffffffffffffffffffffffffffffffffff1614806107fb5750600160008273ffffffffffffffffffffffffffffffffffffffff1673ffffffffffffffffffffffffffffffffffffffff16815260200190815260200160002060003373ffffffffffffffffffffffffffffffffffffffff1673ffffffffffffffffffffffffffffffffffffffff16815260200190815260200160002060009054906101000a900460ff165b61083a576040517f08c379a00000000000000000000000000000000000000000000000000000000081526004016108319061121e565b60405180910390fd5b837f335721b01866dc23fbee8b6b2c7b1e14d6f05c28cd35a2c934239f94095602a08460405161086a91906111cd565b60405180910390a28260008086815260200190815260200160002060010160006101000a81548173ffffffffffffffffffffffffffffffffffffffff021916908373ffffffffffffffffffffffffffffffffffffffff16021790555050505050565b81600080600083815260200190815260200160002060000160009054906101000a900473ffffffffffffffffffffffffffffffffffffffff1690503373ffffffffffffffffffffffffffffffffffffffff168173ffffffffffffffffffffffffffffffffffffffff1614806109c75750600160008273ffffffffffffffffffffffffffffffffffffffff1673ffffffffffffffffffffffffffffffffffffffff16815260200190815260200160002060003373ffffffffffffffffffffffffffffffffffffffff1673ffffffffffffffffffffffffffffffffffffffff16815260200190815260200160002060009054906101000a900460ff165b610a06576040517f08c379a00000000000000000000000000000000000000000000000000000000081526004016109fd9061121e565b60405180910390fd5b610a108484610c8a565b837fd4735d920b0f87494915f556dd9b54c8f309026070caea5c737245152564d26684604051610a4091906111cd565b60405180910390a250505050565b6000610a5b868686610360565b9050610a68818484610ce2565b505050505050565b80600160003373ffffffffffffffffffffffffffffffffffffffff1673ffffffffffffffffffffffffffffffffffffffff16815260200190815260200160002060008473ffffffffffffffffffffffffffffffffffffffff1673ffffffffffffffffffffffffffffffffffffffff16815260200190815260200160002060006101000a81548160ff0219169083151502179055508173ffffffffffffffffffffffffffffffffffffffff163373ffffffffffffffffffffffffffffffffffffffff167f17307eab39ab6107e8899845ad3d59bd9653f200f220920489ca2b5937696c3183604051610b6191906111e8565b60405180910390a35050565b610b7784846108cc565b610b82848383610ce2565b50505050565b6000600160008473ffffffffffffffffffffffffffffffffffffffff1673ffffffffffffffffffffffffffffffffffffffff16815260200190815260200160002060008373ffffffffffffffffffffffffffffffffffffffff1673ffffffffffffffffffffffffffffffffffffffff16815260200190815260200160002060009054906101000a900460ff16905092915050565b60008073ffffffffffffffffffffffffffffffffffffffff1660008084815260200190815260200160002060000160009054906101000a900473ffffffffffffffffffffffffffffffffffffffff1673ffffffffffffffffffffffffffffffffffffffff1614159050919050565b8060008084815260200190815260200160002060000160006101000a81548173ffffffffffffffffffffffffffffffffffffffff021916908373ffffffffffffffffffffffffffffffffffffffff1602179055505050565b60008084815260200190815260200160002060010160009054906101000a900473ffffffffffffffffffffffffffffffffffffffff1673ffffffffffffffffffffffffffffffffffffffff168273ffffffffffffffffffffffffffffffffffffffff1614610dd7578160008085815260200190815260200160002060010160006101000a81548173ffffffffffffffffffffffffffffffffffffffff021916908373ffffffffffffffffffffffffffffffffffffffff160217905550827f335721b01866dc23fbee8b6b2c7b1e14d6f05c28cd35a2c934239f94095602a083604051610dce91906111cd565b60405180910390a25b60008084815260200190815260200160002060010160149054906101000a900467ffffffffffffffff1667ffffffffffffffff168167ffffffffffffffff1614610e90578060008085815260200190815260200160002060010160146101000a81548167ffffffffffffffff021916908367ffffffffffffffff160217905550827f1d4f9bbfc9cab89d66e1a1562f2233ccbf1308cb4f63de2ead5787adddb8fa6882604051610e87919061123e565b60405180910390a25b505050565b600081359050610ea4816112f9565b92915050565b600081359050610eb981611310565b92915050565b600081359050610ece81611327565b92915050565b600081359050610ee38161133e565b92915050565b60008060408385031215610efc57600080fd5b6000610f0a85828601610e95565b9250506020610f1b85828601610e95565b9150509250929050565b60008060408385031215610f3857600080fd5b6000610f4685828601610e95565b9250506020610f5785828601610eaa565b9150509250929050565b600060208284031215610f7357600080fd5b6000610f8184828501610ebf565b91505092915050565b60008060408385031215610f9d57600080fd5b6000610fab85828601610ebf565b9250506020610fbc85828601610e95565b9150509250929050565b60008060008060808587031215610fdc57600080fd5b6000610fea87828801610ebf565b9450506020610ffb87828801610e95565b935050604061100c87828801610e95565b925050606061101d87828801610ed4565b91505092959194509250565b60008060006060848603121561103e57600080fd5b600061104c86828701610ebf565b935050602061105d86828701610ebf565b925050604061106e86828701610e95565b9150509250925092565b600080600080600060a0868803121561109057600080fd5b600061109e88828901610ebf565b95505060206110af88828901610ebf565b94505060406110c088828901610e95565b93505060606110d188828901610e95565b92505060806110e288828901610ed4565b9150509295509295909350565b6000806040838503121561110257600080fd5b600061111085828601610ebf565b925050602061112185828601610ed4565b9150509250929050565b6111348161126a565b82525050565b6111438161127c565b82525050565b61115281611288565b82525050565b61116961116482611288565b6112c6565b82525050565b600061117c600f83611259565b9150611187826112d0565b602082019050919050565b61119b816112b2565b82525050565b60006111ad8285611158565b6020820191506111bd8284611158565b6020820191508190509392505050565b60006020820190506111e2600083018461112b565b92915050565b60006020820190506111fd600083018461113a565b92915050565b60006020820190506112186000830184611149565b92915050565b600060208201905081810360008301526112378161116f565b9050919050565b60006020820190506112536000830184611192565b92915050565b600082825260208201905092915050565b600061127582611292565b9050919050565b60008115159050919050565b6000819050919050565b600073ffffffffffffffffffffffffffffffffffffffff82169050919050565b600067ffffffffffffffff82169050919050565b6000819050919050565b7f4f70657261746f7273206572726f720000000000000000000000000000000000600082015250565b6113028161126a565b811461130d57600080fd5b50565b6113198161127c565b811461132457600080fd5b50565b61133081611288565b811461133b57600080fd5b50565b611347816112b2565b811461135257600080fd5b5056fea26469706673582212206c9aef9ed8f0e8e41e1add2854997a1a14d8872d0d96da14190ac7e077149cb264736f6c63430008040033",
  "immutableReferences": {},
  "source": "// SPDX-License-Identifier: UNLICCNSED\r\npragma solidity ^0.8.0;\r\n\r\nimport \"./CNS.sol\";\r\n\r\n/**\r\n * The CNS registry contract.\r\n */\r\ncontract CNSRegistry is CNS {\r\n\r\n    struct Record {\r\n        address owner;\r\n        address resolver;\r\n        uint64 ttl;\r\n    }\r\n\r\n    mapping (bytes32 => Record) records;\r\n    mapping (address => mapping(address => bool)) operators;\r\n\r\n    // Permits modifications only by the owner of the specified node.\r\n    modifier authorised(bytes32 node) {\r\n        address _owner = records[node].owner;\r\n        // operators[msg.sender][operator] = approved;\r\n        require(_owner == msg.sender || operators[_owner][msg.sender],\"Operators error\");\r\n        _;\r\n    }\r\n\r\n    /**\r\n     * @dev Constructs a new CNS registrar.\r\n     */\r\n    constructor() {\r\n        records[0x0].owner = msg.sender;\r\n    }\r\n\r\n    /**\r\n     * @dev Sets the record for a node.\r\n     * @param _node The node to update.\r\n     * @param _owner The address of the new owner.\r\n     * @param _resolver The address of the resolver.\r\n     * @param _ttl The TTL in seconds.\r\n     */\r\n    function setRecord(bytes32 _node, address _owner, address _resolver, uint64 _ttl) external virtual override {\r\n        setOwner(_node, _owner);\r\n        _setResolverAndTTL(_node, _resolver, _ttl);\r\n    }\r\n\r\n    /**\r\n     * @dev Sets the record for a subnode.\r\n     * @param node The parent node.\r\n     * @param label The hash of the label specifying the subnode.\r\n     * @param _owner The address of the new owner.\r\n     * @param _resolver The address of the resolver.\r\n     * @param _ttl The TTL in seconds.\r\n     */\r\n    function setSubnodeRecord(bytes32 node, bytes32 label, address _owner, address _resolver, uint64 _ttl) external virtual override {\r\n        bytes32 subnode = setSubnodeOwner(node, label, _owner);\r\n        _setResolverAndTTL(subnode, _resolver, _ttl);\r\n    }\r\n\r\n    /**\r\n     * @dev Transfers ownership of a node to a new address. May only be called by the current owner of the node.\r\n     * @param node The node to transfer ownership of.\r\n     * @param _owner The address of the new owner.\r\n     */\r\n    function setOwner(bytes32 node, address _owner) public virtual override authorised(node) {\r\n        _setOwner(node, _owner);\r\n        emit Transfer(node, _owner);\r\n    }\r\n\r\n    /**\r\n     * @dev Transfers ownership of a subnode keccak256(node, label) to a new address. May only be called by the owner of the parent node.\r\n     * @param node The parent node.\r\n     * @param label The hash of the label specifying the subnode.\r\n     * @param _owner The address of the new owner.\r\n     */\r\n    function setSubnodeOwner(bytes32 node, bytes32 label, address _owner) public virtual override authorised(node) returns(bytes32) {\r\n        bytes32 subnode = keccak256(abi.encodePacked(node, label));\r\n        _setOwner(subnode, _owner);\r\n        emit NewOwner(node, label, _owner);\r\n        return subnode;\r\n    }\r\n\r\n    /**\r\n     * @dev Sets the resolver address for the specified node.\r\n     * @param node The node to update.\r\n     * @param _resolver The address of the resolver.\r\n     */\r\n    function setResolver(bytes32 node, address _resolver) public virtual override authorised(node) {\r\n        emit NewResolver(node, _resolver);\r\n        records[node].resolver = _resolver;\r\n    }\r\n\r\n    /**\r\n     * @dev Sets the TTL for the specified node.\r\n     * @param node The node to update.\r\n     * @param _ttl The TTL in seconds.\r\n     */\r\n    function setTTL(bytes32 node, uint64 _ttl) public virtual override authorised(node) {\r\n        emit NewTTL(node, _ttl);\r\n        records[node].ttl = _ttl;\r\n    }\r\n\r\n    /**\r\n     * @dev Enable or disable approval for a third party (\"operator\") to manage\r\n     *  all of `msg.sender`'s CNS records. Emits the ApprovalForAll event.\r\n     * @param operator Address to add to the set of authorized operators.\r\n     * @param approved True if the operator is approved, false to revoke approval.\r\n     */\r\n    function setApprovalForAll(address operator, bool approved) external virtual override {\r\n        operators[msg.sender][operator] = approved;\r\n        emit ApprovalForAll(msg.sender, operator, approved);\r\n    }\r\n\r\n    /**\r\n     * @dev Returns the address that owns the specified node.\r\n     * @param node The specified node.\r\n     * @return address of the owner.\r\n     */\r\n    function owner(bytes32 node) public virtual override view returns (address) {\r\n        address addr = records[node].owner;\r\n        if (addr == address(this)) {\r\n            return address(0x0);\r\n        }\r\n\r\n        return addr;\r\n    }\r\n\r\n    /**\r\n     * @dev Returns the address of the resolver for the specified node.\r\n     * @param node The specified node.\r\n     * @return address of the resolver.\r\n     */\r\n    function resolver(bytes32 node) public virtual override view returns (address) {\r\n        return records[node].resolver;\r\n    }\r\n\r\n    /**\r\n     * @dev Returns the TTL of a node, and any records associated with it.\r\n     * @param node The specified node.\r\n     * @return ttl of the node.\r\n     */\r\n    function ttl(bytes32 node) public virtual override view returns (uint64) {\r\n        return records[node].ttl;\r\n    }\r\n\r\n    /**\r\n     * @dev Returns whether a record has been imported to the registry.\r\n     * @param node The specified node.\r\n     * @return Bool if record exists\r\n     */\r\n    function recordExists(bytes32 node) public virtual override view returns (bool) {\r\n        return records[node].owner != address(0x0);\r\n    }\r\n\r\n    /**\r\n     * @dev Query if an address is an authorized operator for another address.\r\n     * @param _owner The address that owns the records.\r\n     * @param operator The address that acts on behalf of the owner.\r\n     * @return True if `operator` is an approved operator for `owner`, false otherwise.\r\n     */\r\n    function isApprovedForAll(address _owner, address operator) external virtual override view returns (bool) {\r\n        return operators[_owner][operator];\r\n    }\r\n\r\n    function _setOwner(bytes32 node, address _owner) internal virtual {\r\n        records[node].owner = _owner;\r\n    }\r\n\r\n    function _setResolverAndTTL(bytes32 node, address _resolver, uint64 _ttl) internal {\r\n        if(_resolver != records[node].resolver) {\r\n            records[node].resolver = _resolver;\r\n            emit NewResolver(node, _resolver);\r\n        }\r\n\r\n        if(_ttl != records[node].ttl) {\r\n            records[node].ttl = _ttl;\r\n            emit NewTTL(node, _ttl);\r\n        }\r\n    }\r\n}\r\n",
  "sourcePath": "E:\\CNS\\yns\\contracts\\registry\\CNSRegistry.sol",
  "compiler": {
    "name": "solc",
    "version": "0.8.4+commit.c7e474f2.Emscripten.clang"
  },
  "schemaVersion": "3.4.3",
  "updatedAt": "2021-11-18T09:13:35.635Z",
  "networkType": "ethereum",
  "devdoc": {
    "kind": "dev",
    "methods": {
      "constructor": {
        "details": "Constructs a new CNS registrar."
      },
      "isApprovedForAll(address,address)": {
        "details": "Query if an address is an authorized operator for another address.",
        "params": {
          "_owner": "The address that owns the records.",
          "operator": "The address that acts on behalf of the owner."
        },
        "returns": {
          "_0": "True if `operator` is an approved operator for `owner`, false otherwise."
        }
      },
      "owner(bytes32)": {
        "details": "Returns the address that owns the specified node.",
        "params": {
          "node": "The specified node."
        },
        "returns": {
          "_0": "address of the owner."
        }
      },
      "recordExists(bytes32)": {
        "details": "Returns whether a record has been imported to the registry.",
        "params": {
          "node": "The specified node."
        },
        "returns": {
          "_0": "Bool if record exists"
        }
      },
      "resolver(bytes32)": {
        "details": "Returns the address of the resolver for the specified node.",
        "params": {
          "node": "The specified node."
        },
        "returns": {
          "_0": "address of the resolver."
        }
      },
      "setApprovalForAll(address,bool)": {
        "details": "Enable or disable approval for a third party (\"operator\") to manage  all of `msg.sender`'s CNS records. Emits the ApprovalForAll event.",
        "params": {
          "approved": "True if the operator is approved, false to revoke approval.",
          "operator": "Address to add to the set of authorized operators."
        }
      },
      "setOwner(bytes32,address)": {
        "details": "Transfers ownership of a node to a new address. May only be called by the current owner of the node.",
        "params": {
          "_owner": "The address of the new owner.",
          "node": "The node to transfer ownership of."
        }
      },
      "setRecord(bytes32,address,address,uint64)": {
        "details": "Sets the record for a node.",
        "params": {
          "_node": "The node to update.",
          "_owner": "The address of the new owner.",
          "_resolver": "The address of the resolver.",
          "_ttl": "The TTL in seconds."
        }
      },
      "setResolver(bytes32,address)": {
        "details": "Sets the resolver address for the specified node.",
        "params": {
          "_resolver": "The address of the resolver.",
          "node": "The node to update."
        }
      },
      "setSubnodeOwner(bytes32,bytes32,address)": {
        "details": "Transfers ownership of a subnode keccak256(node, label) to a new address. May only be called by the owner of the parent node.",
        "params": {
          "_owner": "The address of the new owner.",
          "label": "The hash of the label specifying the subnode.",
          "node": "The parent node."
        }
      },
      "setSubnodeRecord(bytes32,bytes32,address,address,uint64)": {
        "details": "Sets the record for a subnode.",
        "params": {
          "_owner": "The address of the new owner.",
          "_resolver": "The address of the resolver.",
          "_ttl": "The TTL in seconds.",
          "label": "The hash of the label specifying the subnode.",
          "node": "The parent node."
        }
      },
      "setTTL(bytes32,uint64)": {
        "details": "Sets the TTL for the specified node.",
        "params": {
          "_ttl": "The TTL in seconds.",
          "node": "The node to update."
        }
      },
      "ttl(bytes32)": {
        "details": "Returns the TTL of a node, and any records associated with it.",
        "params": {
          "node": "The specified node."
        },
        "returns": {
          "_0": "ttl of the node."
        }
      }
    },
    "version": 1
  },
  "userdoc": {
    "kind": "user",
    "methods": {},
    "notice": "The CNS registry contract.",
    "version": 1
  }
}