{
  "contractName": "Migrations",
  "abi": [
    {
      "inputs": [
        {
          "internalType": "address",
          "name": "",
          "type": "address"
        }
      ],
      "name": "asd",
      "outputs": [
        {
          "internalType": "uint256",
          "name": "",
          "type": "uint256"
        }
      ],
      "stateMutability": "view",
      "type": "function",
      "constant": true
    },
    {
      "inputs": [],
      "name": "last_completed_migration",
      "outputs": [
        {
          "internalType": "uint256",
          "name": "",
          "type": "uint256"
        }
      ],
      "stateMutability": "view",
      "type": "function",
      "constant": true
    },
    {
      "inputs": [],
      "name": "owner",
      "outputs": [
        {
          "internalType": "address",
          "name": "",
          "type": "address"
        }
      ],
      "stateMutability": "view",
      "type": "function",
      "constant": true
    },
    {
      "inputs": [
        {
          "internalType": "uint256",
          "name": "",
          "type": "uint256"
        }
      ],
      "name": "rentPrices",
      "outputs": [
        {
          "internalType": "uint256",
          "name": "",
          "type": "uint256"
        }
      ],
      "stateMutability": "view",
      "type": "function",
      "constant": true
    },
    {
      "inputs": [],
      "name": "value",
      "outputs": [
        {
          "internalType": "uint256",
          "name": "",
          "type": "uint256"
        }
      ],
      "stateMutability": "view",
      "type": "function",
      "constant": true
    },
    {
      "inputs": [
        {
          "internalType": "uint256",
          "name": "completed",
          "type": "uint256"
        }
      ],
      "name": "setCompleted",
      "outputs": [],
      "stateMutability": "nonpayable",
      "type": "function"
    },
    {
      "inputs": [],
      "name": "_transfer",
      "outputs": [],
      "stateMutability": "payable",
      "type": "function",
      "payable": true
    },
    {
      "inputs": [
        {
          "internalType": "string",
          "name": "name",
          "type": "string"
        }
      ],
      "name": "test21",
      "outputs": [
        {
          "internalType": "uint256",
          "name": "",
          "type": "uint256"
        },
        {
          "internalType": "bytes32",
          "name": "",
          "type": "bytes32"
        },
        {
          "internalType": "bytes32",
          "name": "",
          "type": "bytes32"
        }
      ],
      "stateMutability": "view",
      "type": "function",
      "constant": true
    },
    {
      "inputs": [
        {
          "internalType": "uint256",
          "name": "duration",
          "type": "uint256"
        }
      ],
      "name": "setArr",
      "outputs": [
        {
          "internalType": "uint256",
          "name": "ys",
          "type": "uint256"
        }
      ],
      "stateMutability": "pure",
      "type": "function",
      "constant": true
    },
    {
      "inputs": [],
      "name": "register",
      "outputs": [
        {
          "internalType": "uint256",
          "name": "",
          "type": "uint256"
        }
      ],
      "stateMutability": "payable",
      "type": "function",
      "payable": true
    },
    {
      "inputs": [
        {
          "internalType": "bytes32",
          "name": "node",
          "type": "bytes32"
        },
        {
          "internalType": "bytes32",
          "name": "label",
          "type": "bytes32"
        }
      ],
      "name": "testKec",
      "outputs": [
        {
          "internalType": "bytes32",
          "name": "",
          "type": "bytes32"
        }
      ],
      "stateMutability": "view",
      "type": "function",
      "constant": true
    },
    {
      "inputs": [
        {
          "internalType": "address",
          "name": "addr",
          "type": "address"
        }
      ],
      "name": "sha3HexAddress",
      "outputs": [
        {
          "internalType": "bytes32",
          "name": "ret",
          "type": "bytes32"
        }
      ],
      "stateMutability": "pure",
      "type": "function",
      "constant": true
    }
  ],
  "bytecode": "0x6080604052336000806101000a81548173ffffffffffffffffffffffffffffffffffffffff021916908373ffffffffffffffffffffffffffffffffffffffff16021790555034801561005057600080fd5b506109e0806100606000396000f3fe6080604052600436106100c4576000357c0100000000000000000000000000000000000000000000000000000000900480637a9dfbd5116100815780637a9dfbd5146101f45780638da5cb5b14610233578063ca9e19931461025e578063d55104ba14610268578063fdacd576146102a5578063ff0eac2f146102ce576100c4565b806306d5d0b6146100c957806308255318146101065780631aa3a0081461014357806327b752b8146101615780633fa4f2451461019e578063445df0ac146101c9575b600080fd5b3480156100d557600080fd5b506100f060048036038101906100eb91906106f9565b61030b565b6040516100fd9190610849565b60405180910390f35b34801561011257600080fd5b5061012d600480360381019061012891906106f9565b61032f565b60405161013a9190610849565b60405180910390f35b61014b61035a565b6040516101589190610849565b60405180910390f35b34801561016d57600080fd5b506101886004803603810190610183919061064f565b610367565b604051610195919061080e565b60405180910390f35b3480156101aa57600080fd5b506101b36103d1565b6040516101c09190610849565b60405180910390f35b3480156101d557600080fd5b506101de6103d7565b6040516101eb9190610849565b60405180910390f35b34801561020057600080fd5b5061021b600480360381019061021691906106b4565b6103dd565b60405161022a93929190610864565b60405180910390f35b34801561023f57600080fd5b50610248610421565b60405161025591906107f3565b60405180910390f35b610266610445565b005b34801561027457600080fd5b5061028f600480360381019061028a9190610678565b6104e3565b60405161029c919061080e565b60405180910390f35b3480156102b157600080fd5b506102cc60048036038101906102c791906106f9565b610516565b005b3480156102da57600080fd5b506102f560048036038101906102f0919061064f565b6105ae565b6040516103029190610849565b60405180910390f35b6002818154811061031b57600080fd5b906000526020600020016000915090505481565b600080821461034657670de0b6b3a7640000610349565b60015b67ffffffffffffffff169050919050565b6000346004819055905090565b60007f303132333435363738396162636465660000000000000000000000000000000060285b60008111156103c35760018103905081600f85161a815360108404935060018103905081600f85161a815360108404935061038d565b506028600020915050919050565b60045481565b60015481565b60008060008085856040516103f39291906107da565b6040518091039020905060008160019004905060008160010290508183829550955095505050509250925092565b60008054906101000a900473ffffffffffffffffffffffffffffffffffffffff1681565b3373ffffffffffffffffffffffffffffffffffffffff166108fc662386f26fc100009081150290604051600060405180830381858888f19350505050158015610492573d6000803e3d6000fd5b503073ffffffffffffffffffffffffffffffffffffffff166108fc662386f26fc100009081150290604051600060405180830381858888f193505050501580156104e0573d6000803e3d6000fd5b50565b600082826040516020016104f89291906107ae565b60405160208183030381529060405280519060200120905092915050565b60008054906101000a900473ffffffffffffffffffffffffffffffffffffffff1673ffffffffffffffffffffffffffffffffffffffff163373ffffffffffffffffffffffffffffffffffffffff16146105a4576040517f08c379a000000000000000000000000000000000000000000000000000000000815260040161059b90610829565b60405180910390fd5b8060018190555050565b60036020528060005260406000206000915090505481565b6000813590506105d581610965565b92915050565b6000813590506105ea8161097c565b92915050565b60008083601f84011261060257600080fd5b8235905067ffffffffffffffff81111561061b57600080fd5b60208301915083600182028301111561063357600080fd5b9250929050565b60008135905061064981610993565b92915050565b60006020828403121561066157600080fd5b600061066f848285016105c6565b91505092915050565b6000806040838503121561068b57600080fd5b6000610699858286016105db565b92505060206106aa858286016105db565b9150509250929050565b600080602083850312156106c757600080fd5b600083013567ffffffffffffffff8111156106e157600080fd5b6106ed858286016105f0565b92509250509250929050565b60006020828403121561070b57600080fd5b60006107198482850161063a565b91505092915050565b61072b816108b7565b82525050565b61073a816108c9565b82525050565b61075161074c826108c9565b61090c565b82525050565b6000610763838561089b565b93506107708385846108fd565b82840190509392505050565b60006107896033836108a6565b915061079482610916565b604082019050919050565b6107a8816108f3565b82525050565b60006107ba8285610740565b6020820191506107ca8284610740565b6020820191508190509392505050565b60006107e7828486610757565b91508190509392505050565b60006020820190506108086000830184610722565b92915050565b60006020820190506108236000830184610731565b92915050565b600060208201905081810360008301526108428161077c565b9050919050565b600060208201905061085e600083018461079f565b92915050565b6000606082019050610879600083018661079f565b6108866020830185610731565b6108936040830184610731565b949350505050565b600081905092915050565b600082825260208201905092915050565b60006108c2826108d3565b9050919050565b6000819050919050565b600073ffffffffffffffffffffffffffffffffffffffff82169050919050565b6000819050919050565b82818337600083830152505050565b6000819050919050565b7f546869732066756e6374696f6e206973207265737472696374656420746f207460008201527f686520636f6e74726163742773206f776e657200000000000000000000000000602082015250565b61096e816108b7565b811461097957600080fd5b50565b610985816108c9565b811461099057600080fd5b50565b61099c816108f3565b81146109a757600080fd5b5056fea2646970667358221220574ff145a4d71b01582a96a14eb53f363c620a69824977da12bf5788d058e15664736f6c63430008040033",
  "immutableReferences": {},
  "source": "// SPDX-License-Identifier: MIT\npragma solidity >=0.4.22 <0.9.0;\n\ncontract Migrations {\n  address public owner = msg.sender;\n  uint public last_completed_migration;\n\n  modifier restricted() {\n    require(\n      msg.sender == owner,\n      \"This function is restricted to the contract's owner\"\n    );\n    _;\n  }\n\n  function setCompleted(uint completed) public restricted {\n    last_completed_migration = completed;\n  }\n\n  function _transfer() external payable{\n    payable(msg.sender).transfer(1e16);\n    payable(address(this)).transfer(1e16);\n  }\n\n  function test21(string calldata name) view external returns(uint256,bytes32,bytes32){\n      bytes32 label = keccak256(bytes(name));\n      uint256 tokenId = uint256(label);\n      bytes32 lable1 = bytes32(tokenId);\n      return (tokenId,label,lable1);\n  }\n\n  uint256[] public rentPrices;\n  mapping(address=>uint256) public asd;\n\n  function setArr(uint duration) pure external returns(uint ys){\n    return duration == 0?1:1e18; \n  }\n\n  uint256 public value;\n\n    // bytes32 secret\n  function register() external payable returns(uint256) {\n  return value = msg.value;\n  }\n\n  function testKec(bytes32 node,bytes32 label) view external returns(bytes32){\n      return keccak256(abi.encodePacked(node, label));\n  }\n\n  function sha3HexAddress(address addr) external pure returns (bytes32 ret) {\n        addr;\n        ret; // Stop warning us about unused variables\n        assembly {\n            let lookup := 0x3031323334353637383961626364656600000000000000000000000000000000\n\n            for { let i := 40 } gt(i, 0) { } {\n                i := sub(i, 1)\n                mstore8(i, byte(and(addr, 0xf), lookup))\n                addr := div(addr, 0x10)\n                i := sub(i, 1)\n                mstore8(i, byte(and(addr, 0xf), lookup))\n                addr := div(addr, 0x10)\n            }\n\n            ret := keccak256(0, 40)\n        }\n    }\n}\n",
  "sourcePath": "/Users/yzbbanban/Downloads/money/chk/nftbox/bns/yns-sol-master-025696b23c531f8117f2fb03dee6f8c96f21692e/contracts/Migrations.sol",
  "compiler": {
    "name": "solc",
    "version": "0.8.4+commit.c7e474f2.Emscripten.clang"
  },
  "schemaVersion": "3.4.3",
  "updatedAt": "2022-09-08T02:19:26.182Z",
  "networkType": "ethereum",
  "devdoc": {
    "kind": "dev",
    "methods": {},
    "version": 1
  },
  "userdoc": {
    "kind": "user",
    "methods": {},
    "version": 1
  }
}