{
  "contractName": "OwnedResolver",
  "abi": [
    {
      "anonymous": false,
      "inputs": [
        {
          "indexed": true,
          "internalType": "bytes32",
          "name": "node",
          "type": "bytes32"
        },
        {
          "indexed": true,
          "internalType": "uint256",
          "name": "contentType",
          "type": "uint256"
        }
      ],
      "name": "ABIChanged",
      "type": "event"
    },
    {
      "anonymous": false,
      "inputs": [
        {
          "indexed": true,
          "internalType": "bytes32",
          "name": "node",
          "type": "bytes32"
        },
        {
          "indexed": false,
          "internalType": "address",
          "name": "a",
          "type": "address"
        }
      ],
      "name": "AddrChanged",
      "type": "event"
    },
    {
      "anonymous": false,
      "inputs": [
        {
          "indexed": true,
          "internalType": "bytes32",
          "name": "node",
          "type": "bytes32"
        },
        {
          "indexed": false,
          "internalType": "uint256",
          "name": "coinType",
          "type": "uint256"
        },
        {
          "indexed": false,
          "internalType": "bytes",
          "name": "newAddress",
          "type": "bytes"
        }
      ],
      "name": "AddressChanged",
      "type": "event"
    },
    {
      "anonymous": false,
      "inputs": [
        {
          "indexed": true,
          "internalType": "bytes32",
          "name": "node",
          "type": "bytes32"
        },
        {
          "indexed": false,
          "internalType": "bytes",
          "name": "hash",
          "type": "bytes"
        }
      ],
      "name": "ContenthashChanged",
      "type": "event"
    },
    {
      "anonymous": false,
      "inputs": [
        {
          "indexed": true,
          "internalType": "bytes32",
          "name": "node",
          "type": "bytes32"
        },
        {
          "indexed": false,
          "internalType": "bytes",
          "name": "name",
          "type": "bytes"
        },
        {
          "indexed": false,
          "internalType": "uint16",
          "name": "resource",
          "type": "uint16"
        },
        {
          "indexed": false,
          "internalType": "bytes",
          "name": "record",
          "type": "bytes"
        }
      ],
      "name": "DNSRecordChanged",
      "type": "event"
    },
    {
      "anonymous": false,
      "inputs": [
        {
          "indexed": true,
          "internalType": "bytes32",
          "name": "node",
          "type": "bytes32"
        },
        {
          "indexed": false,
          "internalType": "bytes",
          "name": "name",
          "type": "bytes"
        },
        {
          "indexed": false,
          "internalType": "uint16",
          "name": "resource",
          "type": "uint16"
        }
      ],
      "name": "DNSRecordDeleted",
      "type": "event"
    },
    {
      "anonymous": false,
      "inputs": [
        {
          "indexed": true,
          "internalType": "bytes32",
          "name": "node",
          "type": "bytes32"
        }
      ],
      "name": "DNSZoneCleared",
      "type": "event"
    },
    {
      "anonymous": false,
      "inputs": [
        {
          "indexed": true,
          "internalType": "bytes32",
          "name": "node",
          "type": "bytes32"
        },
        {
          "indexed": false,
          "internalType": "bytes",
          "name": "lastzonehash",
          "type": "bytes"
        },
        {
          "indexed": false,
          "internalType": "bytes",
          "name": "zonehash",
          "type": "bytes"
        }
      ],
      "name": "DNSZonehashChanged",
      "type": "event"
    },
    {
      "anonymous": false,
      "inputs": [
        {
          "indexed": true,
          "internalType": "bytes32",
          "name": "node",
          "type": "bytes32"
        },
        {
          "indexed": true,
          "internalType": "bytes4",
          "name": "interfaceID",
          "type": "bytes4"
        },
        {
          "indexed": false,
          "internalType": "address",
          "name": "implementer",
          "type": "address"
        }
      ],
      "name": "InterfaceChanged",
      "type": "event"
    },
    {
      "anonymous": false,
      "inputs": [
        {
          "indexed": true,
          "internalType": "bytes32",
          "name": "node",
          "type": "bytes32"
        },
        {
          "indexed": false,
          "internalType": "string",
          "name": "name",
          "type": "string"
        }
      ],
      "name": "NameChanged",
      "type": "event"
    },
    {
      "anonymous": false,
      "inputs": [
        {
          "indexed": true,
          "internalType": "address",
          "name": "previousOwner",
          "type": "address"
        },
        {
          "indexed": true,
          "internalType": "address",
          "name": "newOwner",
          "type": "address"
        }
      ],
      "name": "OwnershipTransferred",
      "type": "event"
    },
    {
      "anonymous": false,
      "inputs": [
        {
          "indexed": true,
          "internalType": "bytes32",
          "name": "node",
          "type": "bytes32"
        },
        {
          "indexed": false,
          "internalType": "bytes32",
          "name": "x",
          "type": "bytes32"
        },
        {
          "indexed": false,
          "internalType": "bytes32",
          "name": "y",
          "type": "bytes32"
        }
      ],
      "name": "PubkeyChanged",
      "type": "event"
    },
    {
      "anonymous": false,
      "inputs": [
        {
          "indexed": true,
          "internalType": "bytes32",
          "name": "node",
          "type": "bytes32"
        },
        {
          "indexed": true,
          "internalType": "string",
          "name": "indexedKey",
          "type": "string"
        },
        {
          "indexed": false,
          "internalType": "string",
          "name": "key",
          "type": "string"
        }
      ],
      "name": "TextChanged",
      "type": "event"
    },
    {
      "inputs": [
        {
          "internalType": "bytes32",
          "name": "node",
          "type": "bytes32"
        },
        {
          "internalType": "uint256",
          "name": "contentTypes",
          "type": "uint256"
        }
      ],
      "name": "ABI",
      "outputs": [
        {
          "internalType": "uint256",
          "name": "",
          "type": "uint256"
        },
        {
          "internalType": "bytes",
          "name": "",
          "type": "bytes"
        }
      ],
      "stateMutability": "view",
      "type": "function"
    },
    {
      "inputs": [
        {
          "internalType": "bytes32",
          "name": "node",
          "type": "bytes32"
        }
      ],
      "name": "addr",
      "outputs": [
        {
          "internalType": "address payable",
          "name": "",
          "type": "address"
        }
      ],
      "stateMutability": "view",
      "type": "function"
    },
    {
      "inputs": [
        {
          "internalType": "bytes32",
          "name": "node",
          "type": "bytes32"
        },
        {
          "internalType": "uint256",
          "name": "coinType",
          "type": "uint256"
        }
      ],
      "name": "addr",
      "outputs": [
        {
          "internalType": "bytes",
          "name": "",
          "type": "bytes"
        }
      ],
      "stateMutability": "view",
      "type": "function"
    },
    {
      "inputs": [
        {
          "internalType": "bytes32",
          "name": "node",
          "type": "bytes32"
        }
      ],
      "name": "clearDNSZone",
      "outputs": [],
      "stateMutability": "nonpayable",
      "type": "function"
    },
    {
      "inputs": [
        {
          "internalType": "bytes32",
          "name": "node",
          "type": "bytes32"
        }
      ],
      "name": "contenthash",
      "outputs": [
        {
          "internalType": "bytes",
          "name": "",
          "type": "bytes"
        }
      ],
      "stateMutability": "view",
      "type": "function"
    },
    {
      "inputs": [
        {
          "internalType": "bytes32",
          "name": "node",
          "type": "bytes32"
        },
        {
          "internalType": "bytes32",
          "name": "name",
          "type": "bytes32"
        },
        {
          "internalType": "uint16",
          "name": "resource",
          "type": "uint16"
        }
      ],
      "name": "dnsRecord",
      "outputs": [
        {
          "internalType": "bytes",
          "name": "",
          "type": "bytes"
        }
      ],
      "stateMutability": "view",
      "type": "function"
    },
    {
      "inputs": [
        {
          "internalType": "bytes32",
          "name": "node",
          "type": "bytes32"
        },
        {
          "internalType": "bytes32",
          "name": "name",
          "type": "bytes32"
        }
      ],
      "name": "hasDNSRecords",
      "outputs": [
        {
          "internalType": "bool",
          "name": "",
          "type": "bool"
        }
      ],
      "stateMutability": "view",
      "type": "function"
    },
    {
      "inputs": [
        {
          "internalType": "bytes32",
          "name": "node",
          "type": "bytes32"
        },
        {
          "internalType": "bytes4",
          "name": "interfaceID",
          "type": "bytes4"
        }
      ],
      "name": "interfaceImplementer",
      "outputs": [
        {
          "internalType": "address",
          "name": "",
          "type": "address"
        }
      ],
      "stateMutability": "view",
      "type": "function"
    },
    {
      "inputs": [
        {
          "internalType": "bytes32",
          "name": "node",
          "type": "bytes32"
        }
      ],
      "name": "name",
      "outputs": [
        {
          "internalType": "string",
          "name": "",
          "type": "string"
        }
      ],
      "stateMutability": "view",
      "type": "function"
    },
    {
      "inputs": [],
      "name": "owner",
      "outputs": [
        {
          "internalType": "address",
          "name": "",
          "type": "address"
        }
      ],
      "stateMutability": "view",
      "type": "function"
    },
    {
      "inputs": [
        {
          "internalType": "bytes32",
          "name": "node",
          "type": "bytes32"
        }
      ],
      "name": "pubkey",
      "outputs": [
        {
          "internalType": "bytes32",
          "name": "x",
          "type": "bytes32"
        },
        {
          "internalType": "bytes32",
          "name": "y",
          "type": "bytes32"
        }
      ],
      "stateMutability": "view",
      "type": "function"
    },
    {
      "inputs": [],
      "name": "renounceOwnership",
      "outputs": [],
      "stateMutability": "nonpayable",
      "type": "function"
    },
    {
      "inputs": [
        {
          "internalType": "bytes32",
          "name": "node",
          "type": "bytes32"
        },
        {
          "internalType": "uint256",
          "name": "contentType",
          "type": "uint256"
        },
        {
          "internalType": "bytes",
          "name": "data",
          "type": "bytes"
        }
      ],
      "name": "setABI",
      "outputs": [],
      "stateMutability": "nonpayable",
      "type": "function"
    },
    {
      "inputs": [
        {
          "internalType": "bytes32",
          "name": "node",
          "type": "bytes32"
        },
        {
          "internalType": "uint256",
          "name": "coinType",
          "type": "uint256"
        },
        {
          "internalType": "bytes",
          "name": "a",
          "type": "bytes"
        }
      ],
      "name": "setAddr",
      "outputs": [],
      "stateMutability": "nonpayable",
      "type": "function"
    },
    {
      "inputs": [
        {
          "internalType": "bytes32",
          "name": "node",
          "type": "bytes32"
        },
        {
          "internalType": "address",
          "name": "a",
          "type": "address"
        }
      ],
      "name": "setAddr",
      "outputs": [],
      "stateMutability": "nonpayable",
      "type": "function"
    },
    {
      "inputs": [
        {
          "internalType": "bytes32",
          "name": "node",
          "type": "bytes32"
        },
        {
          "internalType": "bytes",
          "name": "hash",
          "type": "bytes"
        }
      ],
      "name": "setContenthash",
      "outputs": [],
      "stateMutability": "nonpayable",
      "type": "function"
    },
    {
      "inputs": [
        {
          "internalType": "bytes32",
          "name": "node",
          "type": "bytes32"
        },
        {
          "internalType": "bytes",
          "name": "data",
          "type": "bytes"
        }
      ],
      "name": "setDNSRecords",
      "outputs": [],
      "stateMutability": "nonpayable",
      "type": "function"
    },
    {
      "inputs": [
        {
          "internalType": "bytes32",
          "name": "node",
          "type": "bytes32"
        },
        {
          "internalType": "bytes4",
          "name": "interfaceID",
          "type": "bytes4"
        },
        {
          "internalType": "address",
          "name": "implementer",
          "type": "address"
        }
      ],
      "name": "setInterface",
      "outputs": [],
      "stateMutability": "nonpayable",
      "type": "function"
    },
    {
      "inputs": [
        {
          "internalType": "bytes32",
          "name": "node",
          "type": "bytes32"
        },
        {
          "internalType": "string",
          "name": "_name",
          "type": "string"
        }
      ],
      "name": "setName",
      "outputs": [],
      "stateMutability": "nonpayable",
      "type": "function"
    },
    {
      "inputs": [
        {
          "internalType": "bytes32",
          "name": "node",
          "type": "bytes32"
        },
        {
          "internalType": "bytes32",
          "name": "x",
          "type": "bytes32"
        },
        {
          "internalType": "bytes32",
          "name": "y",
          "type": "bytes32"
        }
      ],
      "name": "setPubkey",
      "outputs": [],
      "stateMutability": "nonpayable",
      "type": "function"
    },
    {
      "inputs": [
        {
          "internalType": "bytes32",
          "name": "node",
          "type": "bytes32"
        },
        {
          "internalType": "string",
          "name": "key",
          "type": "string"
        },
        {
          "internalType": "string",
          "name": "value",
          "type": "string"
        }
      ],
      "name": "setText",
      "outputs": [],
      "stateMutability": "nonpayable",
      "type": "function"
    },
    {
      "inputs": [
        {
          "internalType": "bytes32",
          "name": "node",
          "type": "bytes32"
        },
        {
          "internalType": "bytes",
          "name": "hash",
          "type": "bytes"
        }
      ],
      "name": "setZonehash",
      "outputs": [],
      "stateMutability": "nonpayable",
      "type": "function"
    },
    {
      "inputs": [
        {
          "internalType": "bytes32",
          "name": "node",
          "type": "bytes32"
        },
        {
          "internalType": "string",
          "name": "key",
          "type": "string"
        }
      ],
      "name": "text",
      "outputs": [
        {
          "internalType": "string",
          "name": "",
          "type": "string"
        }
      ],
      "stateMutability": "view",
      "type": "function"
    },
    {
      "inputs": [
        {
          "internalType": "address",
          "name": "newOwner",
          "type": "address"
        }
      ],
      "name": "transferOwnership",
      "outputs": [],
      "stateMutability": "nonpayable",
      "type": "function"
    },
    {
      "inputs": [
        {
          "internalType": "bytes32",
          "name": "node",
          "type": "bytes32"
        }
      ],
      "name": "zonehash",
      "outputs": [
        {
          "internalType": "bytes",
          "name": "",
          "type": "bytes"
        }
      ],
      "stateMutability": "view",
      "type": "function"
    },
    {
      "inputs": [
        {
          "internalType": "bytes4",
          "name": "interfaceID",
          "type": "bytes4"
        }
      ],
      "name": "supportsInterface",
      "outputs": [
        {
          "internalType": "bool",
          "name": "",
          "type": "bool"
        }
      ],
      "stateMutability": "pure",
      "type": "function"
    }
  ],
  "bytecode": "0x60806040523480156200001157600080fd5b50620000446200002f6200004a640100000000026401000000009004565b62000052640100000000026401000000009004565b62000116565b600033905090565b60008060009054906101000a900473ffffffffffffffffffffffffffffffffffffffff169050816000806101000a81548173ffffffffffffffffffffffffffffffffffffffff021916908373ffffffffffffffffffffffffffffffffffffffff1602179055508173ffffffffffffffffffffffffffffffffffffffff168173ffffffffffffffffffffffffffffffffffffffff167f8be0079c531659141344cd1fd0a4f28419497f9722a3daafe3b4186f6b6457e060405160405180910390a35050565b613d9880620001266000396000f3fe608060405234801561001057600080fd5b50600436106101ab576000357c010000000000000000000000000000000000000000000000000000000090048063715018a6116100fb578063bc1c58d1116100b4578063d5fa2b001161008e578063d5fa2b00146104e6578063e59d895d14610502578063f1cb7e061461051e578063f2fde38b1461054e576101ab565b8063bc1c58d114610469578063c869023314610499578063ce3decdc146104ca576101ab565b8063715018a6146103bd57806377372213146103c75780638b95dd71146103e35780638da5cb5b146103ff578063a8fa56821461041d578063ad5780af1461044d576101ab565b8063304e6ade1161016857806359d1d43c1161014257806359d1d43c146103115780635c98042b14610341578063623195b014610371578063691f34311461038d576101ab565b8063304e6ade146102955780633b3b57de146102b15780634cbf6ba4146102e1576101ab565b806301ffc9a7146101b05780630af179d7146101e057806310f13a8c146101fc578063124a319c146102185780632203ab561461024857806329cd62ea14610279575b600080fd5b6101ca60048036038101906101c59190613283565b61056a565b6040516101d7919061350d565b60405180910390f35b6101fa60048036038101906101f5919061303b565b61057c565b005b610216600480360381019061021191906130eb565b6107ae565b005b610232600480360381019061022d9190612fb0565b61085c565b60405161023f91906134bc565b60405180910390f35b610262600480360381019061025d9190613174565b610d78565b6040516102709291906136e6565b60405180910390f35b610293600480360381019061028e9190612f12565b610eb0565b005b6102af60048036038101906102aa919061303b565b610f42565b005b6102cb60048036038101906102c69190612e71565b610fb8565b6040516102d891906134f2565b60405180910390f35b6102fb60048036038101906102f69190612ed6565b610fee565b604051610308919061350d565b60405180910390f35b61032b60048036038101906103269190613093565b611056565b6040516103389190613684565b60405180910390f35b61035b60048036038101906103569190612e71565b61111b565b6040516103689190613590565b60405180910390f35b61038b600480360381019061038691906131b0565b6111c0565b005b6103a760048036038101906103a29190612e71565b611257565b6040516103b49190613684565b60405180910390f35b6103c56112fc565b005b6103e160048036038101906103dc9190613093565b611384565b005b6103fd60048036038101906103f8919061321c565b6113fa565b005b6104076114d0565b60405161041491906134bc565b60405180910390f35b61043760048036038101906104329190612f61565b6114f9565b6040516104449190613590565b60405180910390f35b61046760048036038101906104629190612e71565b6115ee565b005b610483600480360381019061047e9190612e71565b61165b565b6040516104909190613590565b60405180910390f35b6104b360048036038101906104ae9190612e71565b611700565b6040516104c1929190613528565b60405180910390f35b6104e460048036038101906104df919061303b565b61173a565b005b61050060048036038101906104fb9190612e9a565b611853565b005b61051c60048036038101906105179190612fec565b61187f565b005b61053860048036038101906105339190613174565b611991565b6040516105459190613590565b60405180910390f35b61056860048036038101906105639190612e48565b611a48565b005b600061057582611b40565b9050919050565b8261058681611bbd565b61058f57600080fd5b6000806060806000806105f060008a8a8080601f016020809104026020016040519081016040528093929190818152602001838380828437600081840152601f19601f82011690508083019250505050505050611bfc90919063ffffffff16565b90505b6105fc81611c26565b6107325760008661ffff161415610658578060400151955061061d81611c3c565b935083604051602001610630919061348c565b60405160208183030381529060405280519060200120915061065181611c73565b9250610724565b600061066382611c3c565b9050816040015161ffff168761ffff16141580610690575061068e8186611cac90919063ffffffff16565b155b15610722576106fb8b86898d8d8080601f016020809104026020016040519081016040528093929190818152602001838380828437600081840152601f19601f820116905080830192505050505050508a8b88602001516106f19190613981565b60008b5114611cd3565b81604001519650816020015195508094508480519060200120925061071f82611c73565b93505b505b61072d81611ffe565b6105f3565b506000835111156107a3576107a28984878b8b8080601f016020809104026020016040519081016040528093929190818152602001838380828437600081840152601f19601f8201169050808301925050505050505088898e8e90506107989190613981565b6000895114611cd3565b5b505050505050505050565b846107b881611bbd565b6107c157600080fd5b8282600b600089815260200190815260200160002087876040516107e69291906134a3565b90815260200160405180910390209190610801929190612aa9565b5084846040516108129291906134a3565b6040518091039020867fd8c9334b1a9c2f9da342a0a2b32629c1a229b6445dad78947f674b44444a7550878760405161084c929190613660565b60405180910390a3505050505050565b600080600860008581526020019081526020016000206000847bffffffffffffffffffffffffffffffffffffffffffffffffffffffff19167bffffffffffffffffffffffffffffffffffffffffffffffffffffffff1916815260200190815260200160002060009054906101000a900473ffffffffffffffffffffffffffffffffffffffff169050600073ffffffffffffffffffffffffffffffffffffffff168173ffffffffffffffffffffffffffffffffffffffff16146109215780915050610d72565b600061092c85610fb8565b9050600073ffffffffffffffffffffffffffffffffffffffff168173ffffffffffffffffffffffffffffffffffffffff16141561096e57600092505050610d72565b6000808273ffffffffffffffffffffffffffffffffffffffff166301ffc9a77c0100000000000000000000000000000000000000000000000000000000026040516024016109bc9190613551565b6040516020818303038152906040527f01ffc9a7000000000000000000000000000000000000000000000000000000007bffffffffffffffffffffffffffffffffffffffffffffffffffffffff19166020820180517bffffffffffffffffffffffffffffffffffffffffffffffffffffffff8381831617835250505050604051610a46919061348c565b600060405180830381855afa9150503d8060008114610a81576040519150601f19603f3d011682016040523d82523d6000602084013e610a86565b606091505b5091509150811580610a99575060208151105b80610b6b575060007f01000000000000000000000000000000000000000000000000000000000000000281601f81518110610afd577f4e487b7100000000000000000000000000000000000000000000000000000000600052603260045260246000fd5b60200101517f010000000000000000000000000000000000000000000000000000000000000090047f0100000000000000000000000000000000000000000000000000000000000000027effffffffffffffffffffffffffffffffffffffffffffffffffffffffffffff1916145b15610b7d576000945050505050610d72565b8273ffffffffffffffffffffffffffffffffffffffff1686604051602401610ba59190613551565b6040516020818303038152906040527f01ffc9a7000000000000000000000000000000000000000000000000000000007bffffffffffffffffffffffffffffffffffffffffffffffffffffffff19166020820180517bffffffffffffffffffffffffffffffffffffffffffffffffffffffff8381831617835250505050604051610c2f919061348c565b600060405180830381855afa9150503d8060008114610c6a576040519150601f19603f3d011682016040523d82523d6000602084013e610c6f565b606091505b508092508193505050811580610c86575060208151105b80610d58575060007f01000000000000000000000000000000000000000000000000000000000000000281601f81518110610cea577f4e487b7100000000000000000000000000000000000000000000000000000000600052603260045260246000fd5b60200101517f010000000000000000000000000000000000000000000000000000000000000090047f0100000000000000000000000000000000000000000000000000000000000000027effffffffffffffffffffffffffffffffffffffffffffffffffffffffffffff1916145b15610d6a576000945050505050610d72565b829450505050505b92915050565b6000606060006001600086815260200190815260200160002090506000600190505b848111610e9057600085821614158015610dd2575060008260008381526020019081526020016000208054610dce90613af5565b9050115b15610e815780826000838152602001908152602001600020808054610df690613af5565b80601f0160208091040260200160405190810160405280929190818152602001828054610e2290613af5565b8015610e6f5780601f10610e4457610100808354040283529160200191610e6f565b820191906000526020600020905b815481529060010190602001808311610e5257829003601f168201915b50505050509050935093505050610ea9565b6001819060020a029050610d9a565b5060006040518060200160405280600081525092509250505b9250929050565b82610eba81611bbd565b610ec357600080fd5b604051806040016040528084815260200183815250600a60008681526020019081526020016000206000820151816000015560208201518160010155905050837f1d6f5e03d3f63eb58751986629a5439baee5079ff04f345becb66e23eb154e468484604051610f34929190613528565b60405180910390a250505050565b82610f4c81611bbd565b610f5557600080fd5b8282600360008781526020019081526020016000209190610f77929190612b2f565b50837fe379c1624ed7e714cc0937528a32359d69d5281337765313dba4e081b72d75788484604051610faa92919061356c565b60405180910390a250505050565b600080610fc683603c611991565b9050600081511415610fdc576000915050610fe9565b610fe581612148565b9150505b919050565b60008060076000858152602001908152602001600020600060056000878152602001908152602001600020548152602001908152602001600020600084815260200190815260200160002060009054906101000a900461ffff1661ffff161415905092915050565b6060600b6000858152602001908152602001600020838360405161107b9291906134a3565b9081526020016040518091039020805461109490613af5565b80601f01602080910402602001604051908101604052809291908181526020018280546110c090613af5565b801561110d5780601f106110e25761010080835404028352916020019161110d565b820191906000526020600020905b8154815290600101906020018083116110f057829003601f168201915b505050505090509392505050565b606060046000838152602001908152602001600020805461113b90613af5565b80601f016020809104026020016040519081016040528092919081815260200182805461116790613af5565b80156111b45780601f10611189576101008083540402835291602001916111b4565b820191906000526020600020905b81548152906001019060200180831161119757829003601f168201915b50505050509050919050565b836111ca81611bbd565b6111d357600080fd5b6000846001866111e39190613981565b16146111ee57600080fd5b82826001600088815260200190815260200160002060008781526020019081526020016000209190611221929190612b2f565b5083857faa121bbeef5f32f5961a2a28966e769023910fc9479059ee3495d4c1a696efe360405160405180910390a35050505050565b606060096000838152602001908152602001600020805461127790613af5565b80601f01602080910402602001604051908101604052809291908181526020018280546112a390613af5565b80156112f05780601f106112c5576101008083540402835291602001916112f0565b820191906000526020600020905b8154815290600101906020018083116112d357829003601f168201915b50505050509050919050565b61130461216b565b73ffffffffffffffffffffffffffffffffffffffff166113226114d0565b73ffffffffffffffffffffffffffffffffffffffff1614611378576040517f08c379a000000000000000000000000000000000000000000000000000000000815260040161136f906136c6565b60405180910390fd5b6113826000612173565b565b8261138e81611bbd565b61139757600080fd5b82826009600087815260200190815260200160002091906113b9929190612aa9565b50837fb7d29e911041e8d9b843369e890bcb72c9388692ba48b65ac54e7214c4c348f784846040516113ec929190613660565b60405180910390a250505050565b8261140481611bbd565b61140d57600080fd5b837f65412581168e88a1e60c6459d7f44ae83ad0832e670826c05a4e2476b57af752848460405161143f9291906136e6565b60405180910390a2603c83141561149157837f52d7d861f09ab3d26239d492e8968629f95e9e318cf0b73bfddc441522a15fd261147b84612148565b60405161148891906134d7565b60405180910390a25b8160026000868152602001908152602001600020600085815260200190815260200160002090805190602001906114c9929190612bb5565b5050505050565b60008060009054906101000a900473ffffffffffffffffffffffffffffffffffffffff16905090565b606060066000858152602001908152602001600020600060056000878152602001908152602001600020548152602001908152602001600020600084815260200190815260200160002060008361ffff1661ffff168152602001908152602001600020805461156790613af5565b80601f016020809104026020016040519081016040528092919081815260200182805461159390613af5565b80156115e05780601f106115b5576101008083540402835291602001916115e0565b820191906000526020600020905b8154815290600101906020018083116115c357829003601f168201915b505050505090509392505050565b806115f881611bbd565b61160157600080fd5b60056000838152602001908152602001600020600081548092919061162590613b83565b9190505550817fb757169b8492ca2f1c6619d9d76ce22803035c3b1d5f6930dffe7b127c1a198360405160405180910390a25050565b606060036000838152602001908152602001600020805461167b90613af5565b80601f01602080910402602001604051908101604052809291908181526020018280546116a790613af5565b80156116f45780601f106116c9576101008083540402835291602001916116f4565b820191906000526020600020905b8154815290600101906020018083116116d757829003601f168201915b50505050509050919050565b600080600a600084815260200190815260200160002060000154600a60008581526020019081526020016000206001015491509150915091565b8261174481611bbd565b61174d57600080fd5b600060046000868152602001908152602001600020805461176d90613af5565b80601f016020809104026020016040519081016040528092919081815260200182805461179990613af5565b80156117e65780601f106117bb576101008083540402835291602001916117e6565b820191906000526020600020905b8154815290600101906020018083116117c957829003601f168201915b50505050509050838360046000888152602001908152602001600020919061180f929190612b2f565b50847f8f15ed4b723ef428f250961da8315675b507046737e19319fc1a4d81bfe87f85828686604051611844939291906135b2565b60405180910390a25050505050565b8161185d81611bbd565b61186657600080fd5b61187a83603c61187585612237565b6113fa565b505050565b8261188981611bbd565b61189257600080fd5b81600860008681526020019081526020016000206000857bffffffffffffffffffffffffffffffffffffffffffffffffffffffff19167bffffffffffffffffffffffffffffffffffffffffffffffffffffffff1916815260200190815260200160002060006101000a81548173ffffffffffffffffffffffffffffffffffffffff021916908373ffffffffffffffffffffffffffffffffffffffff160217905550827bffffffffffffffffffffffffffffffffffffffffffffffffffffffff1916847f7c69f06bea0bdef565b709e93a147836b0063ba2dd89f02d0b7e8d931e6a6daa8460405161198391906134bc565b60405180910390a350505050565b606060026000848152602001908152602001600020600083815260200190815260200160002080546119c290613af5565b80601f01602080910402602001604051908101604052809291908181526020018280546119ee90613af5565b8015611a3b5780601f10611a1057610100808354040283529160200191611a3b565b820191906000526020600020905b815481529060010190602001808311611a1e57829003601f168201915b5050505050905092915050565b611a5061216b565b73ffffffffffffffffffffffffffffffffffffffff16611a6e6114d0565b73ffffffffffffffffffffffffffffffffffffffff1614611ac4576040517f08c379a0000000000000000000000000000000000000000000000000000000008152600401611abb906136c6565b60405180910390fd5b600073ffffffffffffffffffffffffffffffffffffffff168173ffffffffffffffffffffffffffffffffffffffff161415611b34576040517f08c379a0000000000000000000000000000000000000000000000000000000008152600401611b2b906136a6565b60405180910390fd5b611b3d81612173565b50565b60006359d1d43c7c0100000000000000000000000000000000000000000000000000000000027bffffffffffffffffffffffffffffffffffffffffffffffffffffffff1916827bffffffffffffffffffffffffffffffffffffffffffffffffffffffff19161480611bb65750611bb5826122c1565b5b9050919050565b6000611bc76114d0565b73ffffffffffffffffffffffffffffffffffffffff163373ffffffffffffffffffffffffffffffffffffffff16149050919050565b611c04612c3b565b828160000181905250818160c0018181525050611c2081611ffe565b92915050565b6000816000015151826020015110159050919050565b6060611c6c8260200151611c588460000151856020015161233e565b84600001516123e19092919063ffffffff16565b9050919050565b6060611ca58260a001518360a001518460c00151611c919190613981565b84600001516123e19092919063ffffffff16565b9050919050565b600081518351148015611ccb5750611cca836000846000875161249c565b5b905092915050565b6000600560008981526020019081526020016000205490506000878051906020012090506000611d0e8686896123e19092919063ffffffff16565b90508315611e80576000600660008c81526020019081526020016000206000858152602001908152602001600020600084815260200190815260200160002060008a61ffff1661ffff1681526020019081526020016000208054611d7190613af5565b905014611de757600760008b815260200190815260200160002060008481526020019081526020016000206000838152602001908152602001600020600081819054906101000a900461ffff1680929190611dcb90613acb565b91906101000a81548161ffff021916908361ffff160217905550505b600660008b81526020019081526020016000206000848152602001908152602001600020600083815260200190815260200160002060008961ffff1661ffff1681526020019081526020016000206000611e419190612c86565b897f03528ed0c2a3ebc993b12ce3c16bb382f9c7d88ef7d8a1bf290eaf35955a12078a8a604051611e739291906135eb565b60405180910390a2611ff2565b6000600660008c81526020019081526020016000206000858152602001908152602001600020600084815260200190815260200160002060008a61ffff1661ffff1681526020019081526020016000208054611edb90613af5565b90501415611f5257600760008b815260200190815260200160002060008481526020019081526020016000206000838152602001908152602001600020600081819054906101000a900461ffff1680929190611f3690613b58565b91906101000a81548161ffff021916908361ffff160217905550505b80600660008c81526020019081526020016000206000858152602001908152602001600020600084815260200190815260200160002060008a61ffff1661ffff1681526020019081526020016000209080519060200190611fb4929190612bb5565b50897f52a608b3303a48862d07a73d82fa221318c0027fbbcfb1b2329bface3f19ff2b8a8a84604051611fe99392919061361b565b60405180910390a25b50505050505050505050565b8060c0015181602001818152505080600001515181602001511061202157612145565b60006120358260000151836020015161233e565b826020015161204491906137ba565b905061205d8183600001516124c090919063ffffffff16565b826040019061ffff16908161ffff168152505060028161207d91906137ba565b90506120968183600001516124c090919063ffffffff16565b826060019061ffff16908161ffff16815250506002816120b691906137ba565b90506120cf8183600001516124ef90919063ffffffff16565b826080019063ffffffff16908163ffffffff16815250506004816120f391906137ba565b9050600061210e8284600001516124c090919063ffffffff16565b61ffff16905060028261212191906137ba565b9150818360a0018181525050808261213991906137ba565b8360c001818152505050505b50565b6000601482511461215857600080fd5b600c6101000a6020830151049050919050565b600033905090565b60008060009054906101000a900473ffffffffffffffffffffffffffffffffffffffff169050816000806101000a81548173ffffffffffffffffffffffffffffffffffffffff021916908373ffffffffffffffffffffffffffffffffffffffff1602179055508173ffffffffffffffffffffffffffffffffffffffff168173ffffffffffffffffffffffffffffffffffffffff167f8be0079c531659141344cd1fd0a4f28419497f9722a3daafe3b4186f6b6457e060405160405180910390a35050565b6060601467ffffffffffffffff81111561227a577f4e487b7100000000000000000000000000000000000000000000000000000000600052604160045260246000fd5b6040519080825280601f01601f1916602001820160405280156122ac5781602001600182028036833780820191505090505b509050600c6101000a82026020820152919050565b600063c86902337c0100000000000000000000000000000000000000000000000000000000027bffffffffffffffffffffffffffffffffffffffffffffffffffffffff1916827bffffffffffffffffffffffffffffffffffffffffffffffffffffffff19161480612337575061233682612520565b5b9050919050565b6000808290505b6001156123cc5783518110612383577f4e487b7100000000000000000000000000000000000000000000000000000000600052600160045260246000fd5b6000612398828661259d90919063ffffffff16565b60ff1690506001816123aa91906137ba565b826123b591906137ba565b915060008114156123c657506123cc565b50612345565b82816123d89190613981565b91505092915050565b6060835182846123f191906137ba565b11156123fc57600080fd5b60008267ffffffffffffffff81111561243e577f4e487b7100000000000000000000000000000000000000000000000000000000600052604160045260246000fd5b6040519080825280601f01601f1916602001820160405280156124705781602001600182028036833780820191505090505b509050600080602083019150856020880101905061248f82828761264d565b8293505050509392505050565b60006124a98484846126cc565b6124b48787856126cc565b14905095945050505050565b600082516002836124d191906137ba565b11156124dc57600080fd5b61ffff8260028501015116905092915050565b6000825160048361250091906137ba565b111561250b57600080fd5b63ffffffff8260048501015116905092915050565b600063691f34317c0100000000000000000000000000000000000000000000000000000000027bffffffffffffffffffffffffffffffffffffffffffffffffffffffff1916827bffffffffffffffffffffffffffffffffffffffffffffffffffffffff191614806125965750612595826126f8565b5b9050919050565b60008282815181106125d8577f4e487b7100000000000000000000000000000000000000000000000000000000600052603260045260246000fd5b60200101517f010000000000000000000000000000000000000000000000000000000000000090047f0100000000000000000000000000000000000000000000000000000000000000027f01000000000000000000000000000000000000000000000000000000000000009004905092915050565b5b6020811061268c578151835260208361266791906137ba565b925060208261267691906137ba565b91506020816126859190613981565b905061264e565b6000600182602061269d9190613981565b6101006126aa9190613863565b6126b49190613981565b90508019835116818551168181178652505050505050565b6000835182846126dc91906137ba565b11156126e757600080fd5b818360208601012090509392505050565b60007f124a319c1247f4318c3c16c7e9cc865d0fb5d80d7bf02f56cafc0d14da0208507bffffffffffffffffffffffffffffffffffffffffffffffffffffffff1916827bffffffffffffffffffffffffffffffffffffffffffffffffffffffff1916148061276b575061276a82612772565b5b9050919050565b600063a8fa56827c0100000000000000000000000000000000000000000000000000000000027bffffffffffffffffffffffffffffffffffffffffffffffffffffffff1916827bffffffffffffffffffffffffffffffffffffffffffffffffffffffff191614806128435750635c47637c7c0100000000000000000000000000000000000000000000000000000000027bffffffffffffffffffffffffffffffffffffffffffffffffffffffff1916827bffffffffffffffffffffffffffffffffffffffffffffffffffffffff1916145b8061285357506128528261285a565b5b9050919050565b600063bc1c58d17c0100000000000000000000000000000000000000000000000000000000027bffffffffffffffffffffffffffffffffffffffffffffffffffffffff1916827bffffffffffffffffffffffffffffffffffffffffffffffffffffffff191614806128d057506128cf826128d7565b5b9050919050565b6000633b3b57de7c0100000000000000000000000000000000000000000000000000000000027bffffffffffffffffffffffffffffffffffffffffffffffffffffffff1916827bffffffffffffffffffffffffffffffffffffffffffffffffffffffff191614806129a8575063f1cb7e067c0100000000000000000000000000000000000000000000000000000000027bffffffffffffffffffffffffffffffffffffffffffffffffffffffff1916827bffffffffffffffffffffffffffffffffffffffffffffffffffffffff1916145b806129b857506129b7826129bf565b5b9050919050565b6000632203ab567c0100000000000000000000000000000000000000000000000000000000027bffffffffffffffffffffffffffffffffffffffffffffffffffffffff1916827bffffffffffffffffffffffffffffffffffffffffffffffffffffffff19161480612a355750612a3482612a3c565b5b9050919050565b60006301ffc9a77c0100000000000000000000000000000000000000000000000000000000027bffffffffffffffffffffffffffffffffffffffffffffffffffffffff1916827bffffffffffffffffffffffffffffffffffffffffffffffffffffffff1916149050919050565b828054612ab590613af5565b90600052602060002090601f016020900481019282612ad75760008555612b1e565b82601f10612af057803560ff1916838001178555612b1e565b82800160010185558215612b1e579182015b82811115612b1d578235825591602001919060010190612b02565b5b509050612b2b9190612cc6565b5090565b828054612b3b90613af5565b90600052602060002090601f016020900481019282612b5d5760008555612ba4565b82601f10612b7657803560ff1916838001178555612ba4565b82800160010185558215612ba4579182015b82811115612ba3578235825591602001919060010190612b88565b5b509050612bb19190612cc6565b5090565b828054612bc190613af5565b90600052602060002090601f016020900481019282612be35760008555612c2a565b82601f10612bfc57805160ff1916838001178555612c2a565b82800160010185558215612c2a579182015b82811115612c29578251825591602001919060010190612c0e565b5b509050612c379190612cc6565b5090565b6040518060e001604052806060815260200160008152602001600061ffff168152602001600061ffff168152602001600063ffffffff16815260200160008152602001600081525090565b508054612c9290613af5565b6000825580601f10612ca45750612cc3565b601f016020900490600052602060002090810190612cc29190612cc6565b5b50565b5b80821115612cdf576000816000905550600101612cc7565b5090565b6000612cf6612cf18461373b565b613716565b905082815260208101848484011115612d0e57600080fd5b612d19848285613a89565b509392505050565b600081359050612d3081613cef565b92915050565b600081359050612d4581613d06565b92915050565b600081359050612d5a81613d1d565b92915050565b60008083601f840112612d7257600080fd5b8235905067ffffffffffffffff811115612d8b57600080fd5b602083019150836001820283011115612da357600080fd5b9250929050565b600082601f830112612dbb57600080fd5b8135612dcb848260208601612ce3565b91505092915050565b60008083601f840112612de657600080fd5b8235905067ffffffffffffffff811115612dff57600080fd5b602083019150836001820283011115612e1757600080fd5b9250929050565b600081359050612e2d81613d34565b92915050565b600081359050612e4281613d4b565b92915050565b600060208284031215612e5a57600080fd5b6000612e6884828501612d21565b91505092915050565b600060208284031215612e8357600080fd5b6000612e9184828501612d36565b91505092915050565b60008060408385031215612ead57600080fd5b6000612ebb85828601612d36565b9250506020612ecc85828601612d21565b9150509250929050565b60008060408385031215612ee957600080fd5b6000612ef785828601612d36565b9250506020612f0885828601612d36565b9150509250929050565b600080600060608486031215612f2757600080fd5b6000612f3586828701612d36565b9350506020612f4686828701612d36565b9250506040612f5786828701612d36565b9150509250925092565b600080600060608486031215612f7657600080fd5b6000612f8486828701612d36565b9350506020612f9586828701612d36565b9250506040612fa686828701612e1e565b9150509250925092565b60008060408385031215612fc357600080fd5b6000612fd185828601612d36565b9250506020612fe285828601612d4b565b9150509250929050565b60008060006060848603121561300157600080fd5b600061300f86828701612d36565b935050602061302086828701612d4b565b925050604061303186828701612d21565b9150509250925092565b60008060006040848603121561305057600080fd5b600061305e86828701612d36565b935050602084013567ffffffffffffffff81111561307b57600080fd5b61308786828701612d60565b92509250509250925092565b6000806000604084860312156130a857600080fd5b60006130b686828701612d36565b935050602084013567ffffffffffffffff8111156130d357600080fd5b6130df86828701612dd4565b92509250509250925092565b60008060008060006060868803121561310357600080fd5b600061311188828901612d36565b955050602086013567ffffffffffffffff81111561312e57600080fd5b61313a88828901612dd4565b9450945050604086013567ffffffffffffffff81111561315957600080fd5b61316588828901612dd4565b92509250509295509295909350565b6000806040838503121561318757600080fd5b600061319585828601612d36565b92505060206131a685828601612e33565b9150509250929050565b600080600080606085870312156131c657600080fd5b60006131d487828801612d36565b94505060206131e587828801612e33565b935050604085013567ffffffffffffffff81111561320257600080fd5b61320e87828801612d60565b925092505092959194509250565b60008060006060848603121561323157600080fd5b600061323f86828701612d36565b935050602061325086828701612e33565b925050604084013567ffffffffffffffff81111561326d57600080fd5b61327986828701612daa565b9150509250925092565b60006020828403121561329557600080fd5b60006132a384828501612d4b565b91505092915050565b6132b581613a53565b82525050565b6132c4816139c7565b82525050565b6132d3816139b5565b82525050565b6132e2816139d9565b82525050565b6132f1816139e5565b82525050565b613300816139ef565b82525050565b60006133128385613782565b935061331f838584613a89565b61332883613c59565b840190509392505050565b600061333e8261376c565b6133488185613782565b9350613358818560208601613a98565b61336181613c59565b840191505092915050565b60006133778261376c565b6133818185613793565b9350613391818560208601613a98565b80840191505092915050565b60006133a9838561379e565b93506133b6838584613a89565b6133bf83613c59565b840190509392505050565b60006133d683856137af565b93506133e3838584613a89565b82840190509392505050565b60006133fa82613777565b613404818561379e565b9350613414818560208601613a98565b61341d81613c59565b840191505092915050565b600061343560268361379e565b915061344082613c77565b604082019050919050565b600061345860208361379e565b915061346382613cc6565b602082019050919050565b61347781613a1b565b82525050565b61348681613a49565b82525050565b6000613498828461336c565b915081905092915050565b60006134b08284866133ca565b91508190509392505050565b60006020820190506134d160008301846132ca565b92915050565b60006020820190506134ec60008301846132ac565b92915050565b600060208201905061350760008301846132bb565b92915050565b600060208201905061352260008301846132d9565b92915050565b600060408201905061353d60008301856132e8565b61354a60208301846132e8565b9392505050565b600060208201905061356660008301846132f7565b92915050565b60006020820190508181036000830152613587818486613306565b90509392505050565b600060208201905081810360008301526135aa8184613333565b905092915050565b600060408201905081810360008301526135cc8186613333565b905081810360208301526135e1818486613306565b9050949350505050565b600060408201905081810360008301526136058185613333565b9050613614602083018461346e565b9392505050565b600060608201905081810360008301526136358186613333565b9050613644602083018561346e565b81810360408301526136568184613333565b9050949350505050565b6000602082019050818103600083015261367b81848661339d565b90509392505050565b6000602082019050818103600083015261369e81846133ef565b905092915050565b600060208201905081810360008301526136bf81613428565b9050919050565b600060208201905081810360008301526136df8161344b565b9050919050565b60006040820190506136fb600083018561347d565b818103602083015261370d8184613333565b90509392505050565b6000613720613731565b905061372c8282613b27565b919050565b6000604051905090565b600067ffffffffffffffff82111561375657613755613c2a565b5b61375f82613c59565b9050602081019050919050565b600081519050919050565b600081519050919050565b600082825260208201905092915050565b600081905092915050565b600082825260208201905092915050565b600081905092915050565b60006137c582613a49565b91506137d083613a49565b9250827fffffffffffffffffffffffffffffffffffffffffffffffffffffffffffffffff0382111561380557613804613bcc565b5b828201905092915050565b6000808291508390505b600185111561385a5780860481111561383657613835613bcc565b5b60018516156138455780820291505b808102905061385385613c6a565b945061381a565b94509492505050565b600061386e82613a49565b915061387983613a49565b92506138a67fffffffffffffffffffffffffffffffffffffffffffffffffffffffffffffffff84846138ae565b905092915050565b6000826138be576001905061397a565b816138cc576000905061397a565b81600181146138e257600281146138ec5761391b565b600191505061397a565b60ff8411156138fe576138fd613bcc565b5b8360020a91508482111561391557613914613bcc565b5b5061397a565b5060208310610133831016604e8410600b84101617156139505782820a90508381111561394b5761394a613bcc565b5b61397a565b61395d8484846001613810565b9250905081840481111561397457613973613bcc565b5b81810290505b9392505050565b600061398c82613a49565b915061399783613a49565b9250828210156139aa576139a9613bcc565b5b828203905092915050565b60006139c082613a29565b9050919050565b60006139d282613a29565b9050919050565b60008115159050919050565b6000819050919050565b60007fffffffff0000000000000000000000000000000000000000000000000000000082169050919050565b600061ffff82169050919050565b600073ffffffffffffffffffffffffffffffffffffffff82169050919050565b6000819050919050565b6000613a5e82613a65565b9050919050565b6000613a7082613a77565b9050919050565b6000613a8282613a29565b9050919050565b82818337600083830152505050565b60005b83811015613ab6578082015181840152602081019050613a9b565b83811115613ac5576000848401525b50505050565b6000613ad682613a1b565b91506000821415613aea57613ae9613bcc565b5b600182039050919050565b60006002820490506001821680613b0d57607f821691505b60208210811415613b2157613b20613bfb565b5b50919050565b613b3082613c59565b810181811067ffffffffffffffff82111715613b4f57613b4e613c2a565b5b80604052505050565b6000613b6382613a1b565b915061ffff821415613b7857613b77613bcc565b5b600182019050919050565b6000613b8e82613a49565b91507fffffffffffffffffffffffffffffffffffffffffffffffffffffffffffffffff821415613bc157613bc0613bcc565b5b600182019050919050565b7f4e487b7100000000000000000000000000000000000000000000000000000000600052601160045260246000fd5b7f4e487b7100000000000000000000000000000000000000000000000000000000600052602260045260246000fd5b7f4e487b7100000000000000000000000000000000000000000000000000000000600052604160045260246000fd5b6000601f19601f8301169050919050565b6000600282049050919050565b7f4f776e61626c653a206e6577206f776e657220697320746865207a65726f206160008201527f6464726573730000000000000000000000000000000000000000000000000000602082015250565b7f4f776e61626c653a2063616c6c6572206973206e6f7420746865206f776e6572600082015250565b613cf8816139b5565b8114613d0357600080fd5b50565b613d0f816139e5565b8114613d1a57600080fd5b50565b613d26816139ef565b8114613d3157600080fd5b50565b613d3d81613a1b565b8114613d4857600080fd5b50565b613d5481613a49565b8114613d5f57600080fd5b5056fea2646970667358221220ae89b4bf99d0181ed1f5f6236150a2ec97cd2d5f278f1644a5b2dd3d424d4a6864736f6c63430008040033",
  "immutableReferences": {},
  "source": "// SPDX-License-Identifier: UNLICCNSED\n\npragma solidity ^0.8.4;\nimport \"@openzeppelin/contracts/access/Ownable.sol\";\nimport \"./profiles/ABIResolver.sol\";\nimport \"./profiles/AddrResolver.sol\";\nimport \"./profiles/ContentHashResolver.sol\";\nimport \"./profiles/DNSResolver.sol\";\nimport \"./profiles/InterfaceResolver.sol\";\nimport \"./profiles/NameResolver.sol\";\nimport \"./profiles/PubkeyResolver.sol\";\nimport \"./profiles/TextResolver.sol\";\n\n/**\n * A simple resolver anyone can use; only allows the owner of a node to set its\n * address.\n */\ncontract OwnedResolver is Ownable, ABIResolver, AddrResolver, ContentHashResolver, DNSResolver, InterfaceResolver, NameResolver, PubkeyResolver, TextResolver {\n    function isAuthorised(bytes32 node) internal override view returns(bool) {\n        return msg.sender == owner();\n    }\n\n    function supportsInterface(bytes4 interfaceID) virtual override(ABIResolver, AddrResolver, ContentHashResolver, DNSResolver, InterfaceResolver, NameResolver, PubkeyResolver, TextResolver) public pure returns(bool) {\n        return super.supportsInterface(interfaceID);\n    }\n}\n",
  "sourcePath": "/Users/yzbbanban/Downloads/money/chk/nftbox/bns/yns-sol-master-025696b23c531f8117f2fb03dee6f8c96f21692e/contracts/resolvers/OwnedResolver.sol",
  "compiler": {
    "name": "solc",
    "version": "0.8.4+commit.c7e474f2.Emscripten.clang"
  },
  "schemaVersion": "3.4.3",
  "updatedAt": "2022-08-20T14:34:01.349Z",
  "devdoc": {
    "kind": "dev",
    "methods": {
      "ABI(bytes32,uint256)": {
        "params": {
          "contentTypes": "A bitwise OR of the ABI formats accepted by the caller.",
          "node": "The CNS node to query"
        },
        "returns": {
          "_0": "contentType The content type of the return value",
          "_1": "data The ABI data"
        }
      },
      "addr(bytes32)": {
        "params": {
          "node": "The CNS node to query."
        },
        "returns": {
          "_0": "The associated address."
        }
      },
      "clearDNSZone(bytes32)": {
        "params": {
          "node": "the namehash of the node for which to clear the zone"
        }
      },
      "contenthash(bytes32)": {
        "params": {
          "node": "The CNS node to query."
        },
        "returns": {
          "_0": "The associated contenthash."
        }
      },
      "dnsRecord(bytes32,bytes32,uint16)": {
        "params": {
          "name": "the keccak-256 hash of the fully-qualified name for which to fetch the record",
          "node": "the namehash of the node for which to fetch the record",
          "resource": "the ID of the resource as per https://en.wikipedia.org/wiki/List_of_DNS_record_types"
        },
        "returns": {
          "_0": "the DNS record in wire format if present, otherwise empty"
        }
      },
      "hasDNSRecords(bytes32,bytes32)": {
        "params": {
          "name": "the namehash of the node for which to check the records",
          "node": "the namehash of the node for which to check the records"
        }
      },
      "interfaceImplementer(bytes32,bytes4)": {
        "params": {
          "interfaceID": "The EIP 165 interface ID to check for.",
          "node": "The CNS node to query."
        },
        "returns": {
          "_0": "The address that implements this interface, or 0 if the interface is unsupported."
        }
      },
      "name(bytes32)": {
        "params": {
          "node": "The CNS node to query."
        },
        "returns": {
          "_0": "The associated name."
        }
      },
      "owner()": {
        "details": "Returns the address of the current owner."
      },
      "pubkey(bytes32)": {
        "params": {
          "node": "The CNS node to query"
        },
        "returns": {
          "x": "The X coordinate of the curve point for the public key.",
          "y": "The Y coordinate of the curve point for the public key."
        }
      },
      "renounceOwnership()": {
        "details": "Leaves the contract without owner. It will not be possible to call `onlyOwner` functions anymore. Can only be called by the current owner. NOTE: Renouncing ownership will leave the contract without an owner, thereby removing any functionality that is only available to the owner."
      },
      "setABI(bytes32,uint256,bytes)": {
        "params": {
          "contentType": "The content type of the ABI",
          "data": "The ABI data.",
          "node": "The node to update."
        }
      },
      "setAddr(bytes32,address)": {
        "params": {
          "a": "The address to set.",
          "node": "The node to update."
        }
      },
      "setContenthash(bytes32,bytes)": {
        "params": {
          "hash": "The contenthash to set",
          "node": "The node to update."
        }
      },
      "setDNSRecords(bytes32,bytes)": {
        "params": {
          "data": "the DNS wire format records to set",
          "node": "the namehash of the node for which to set the records"
        }
      },
      "setInterface(bytes32,bytes4,address)": {
        "params": {
          "implementer": "The address of a contract that implements this interface for this node.",
          "interfaceID": "The EIP 165 interface ID.",
          "node": "The node to update."
        }
      },
      "setName(bytes32,string)": {
        "params": {
          "_name": "The name to set.",
          "node": "The node to update."
        }
      },
      "setPubkey(bytes32,bytes32,bytes32)": {
        "params": {
          "node": "The CNS node to query",
          "x": "the X coordinate of the curve point for the public key.",
          "y": "the Y coordinate of the curve point for the public key."
        }
      },
      "setText(bytes32,string,string)": {
        "params": {
          "key": "The key to set.",
          "node": "The node to update.",
          "value": "The text data value to set."
        }
      },
      "setZonehash(bytes32,bytes)": {
        "params": {
          "hash": "The zonehash to set",
          "node": "The node to update."
        }
      },
      "text(bytes32,string)": {
        "params": {
          "key": "The text data key to query.",
          "node": "The CNS node to query."
        },
        "returns": {
          "_0": "The associated text data."
        }
      },
      "transferOwnership(address)": {
        "details": "Transfers ownership of the contract to a new account (`newOwner`). Can only be called by the current owner."
      },
      "zonehash(bytes32)": {
        "params": {
          "node": "The CNS node to query."
        },
        "returns": {
          "_0": "The associated contenthash."
        }
      }
    },
    "version": 1
  },
  "userdoc": {
    "kind": "user",
    "methods": {
      "ABI(bytes32,uint256)": {
        "notice": "Returns the ABI associated with an CNS node. Defined in EIP205."
      },
      "addr(bytes32)": {
        "notice": "Returns the address associated with an CNS node."
      },
      "clearDNSZone(bytes32)": {
        "notice": "Clear all information for a DNS zone."
      },
      "contenthash(bytes32)": {
        "notice": "Returns the contenthash associated with an CNS node."
      },
      "dnsRecord(bytes32,bytes32,uint16)": {
        "notice": "Obtain a DNS record."
      },
      "hasDNSRecords(bytes32,bytes32)": {
        "notice": "Check if a given node has records."
      },
      "interfaceImplementer(bytes32,bytes4)": {
        "notice": "Returns the address of a contract that implements the specified interface for this name. If an implementer has not been set for this interfaceID and name, the resolver will query the contract at `addr()`. If `addr()` is set, a contract exists at that address, and that contract implements EIP165 and returns `true` for the specified interfaceID, its address will be returned."
      },
      "name(bytes32)": {
        "notice": "Returns the name associated with an CNS node, for reverse records. Defined in EIP181."
      },
      "pubkey(bytes32)": {
        "notice": "Returns the SECP256k1 public key associated with an CNS node. Defined in EIP 619."
      },
      "setABI(bytes32,uint256,bytes)": {
        "notice": "Sets the ABI associated with an CNS node. Nodes may have one ABI of each content type. To remove an ABI, set it to the empty string."
      },
      "setAddr(bytes32,address)": {
        "notice": "Sets the address associated with an CNS node. May only be called by the owner of that node in the CNS registry."
      },
      "setContenthash(bytes32,bytes)": {
        "notice": "Sets the contenthash associated with an CNS node. May only be called by the owner of that node in the CNS registry."
      },
      "setDNSRecords(bytes32,bytes)": {
        "notice": "Set one or more DNS records.  Records are supplied in wire-format. Records with the same node/name/resource must be supplied one after the other to ensure the data is updated correctly. For example, if the data was supplied:     a.example.com IN A 1.2.3.4     a.example.com IN A 5.6.7.8     www.example.com IN CNAME a.example.com. then this would store the two A records for a.example.com correctly as a single RRSET, however if the data was supplied:     a.example.com IN A 1.2.3.4     www.example.com IN CNAME a.example.com.     a.example.com IN A 5.6.7.8 then this would store the first A record, the CNAME, then the second A record which would overwrite the first."
      },
      "setInterface(bytes32,bytes4,address)": {
        "notice": "Sets an interface associated with a name. Setting the address to 0 restores the default behaviour of querying the contract at `addr()` for interface support."
      },
      "setName(bytes32,string)": {
        "notice": "Sets the name associated with an CNS node, for reverse records. May only be called by the owner of that node in the CNS registry."
      },
      "setPubkey(bytes32,bytes32,bytes32)": {
        "notice": "Sets the SECP256k1 public key associated with an CNS node."
      },
      "setText(bytes32,string,string)": {
        "notice": "Sets the text data associated with an CNS node and key. May only be called by the owner of that node in the CNS registry."
      },
      "setZonehash(bytes32,bytes)": {
        "notice": "setZonehash sets the hash for the zone. May only be called by the owner of that node in the CNS registry."
      },
      "text(bytes32,string)": {
        "notice": "Returns the text data associated with an CNS node and key."
      },
      "zonehash(bytes32)": {
        "notice": "zonehash obtains the hash for the zone."
      }
    },
    "notice": "A simple resolver anyone can use; only allows the owner of a node to set its address.",
    "version": 1
  }
}