{
  "contractName": "PublicResolver",
  "abi": [
    {
      "inputs": [
        {
          "internalType": "contract CNS",
          "name": "_cns",
          "type": "address"
        }
      ],
      "stateMutability": "nonpayable",
      "type": "constructor"
    },
    {
      "anonymous": false,
      "inputs": [
        {
          "indexed": true,
          "internalType": "bytes32",
          "name": "node",
          "type": "bytes32"
        },
        {
          "indexed": true,
          "internalType": "uint256",
          "name": "contentType",
          "type": "uint256"
        }
      ],
      "name": "ABIChanged",
      "type": "event"
    },
    {
      "anonymous": false,
      "inputs": [
        {
          "indexed": true,
          "internalType": "bytes32",
          "name": "node",
          "type": "bytes32"
        },
        {
          "indexed": false,
          "internalType": "address",
          "name": "a",
          "type": "address"
        }
      ],
      "name": "AddrChanged",
      "type": "event"
    },
    {
      "anonymous": false,
      "inputs": [
        {
          "indexed": true,
          "internalType": "bytes32",
          "name": "node",
          "type": "bytes32"
        },
        {
          "indexed": false,
          "internalType": "uint256",
          "name": "coinType",
          "type": "uint256"
        },
        {
          "indexed": false,
          "internalType": "bytes",
          "name": "newAddress",
          "type": "bytes"
        }
      ],
      "name": "AddressChanged",
      "type": "event"
    },
    {
      "anonymous": false,
      "inputs": [
        {
          "indexed": true,
          "internalType": "bytes32",
          "name": "node",
          "type": "bytes32"
        },
        {
          "indexed": true,
          "internalType": "address",
          "name": "owner",
          "type": "address"
        },
        {
          "indexed": true,
          "internalType": "address",
          "name": "target",
          "type": "address"
        },
        {
          "indexed": false,
          "internalType": "bool",
          "name": "isAuthorised",
          "type": "bool"
        }
      ],
      "name": "AuthorisationChanged",
      "type": "event"
    },
    {
      "anonymous": false,
      "inputs": [
        {
          "indexed": true,
          "internalType": "bytes32",
          "name": "node",
          "type": "bytes32"
        },
        {
          "indexed": false,
          "internalType": "bytes",
          "name": "hash",
          "type": "bytes"
        }
      ],
      "name": "ContenthashChanged",
      "type": "event"
    },
    {
      "anonymous": false,
      "inputs": [
        {
          "indexed": true,
          "internalType": "bytes32",
          "name": "node",
          "type": "bytes32"
        },
        {
          "indexed": false,
          "internalType": "bytes",
          "name": "name",
          "type": "bytes"
        },
        {
          "indexed": false,
          "internalType": "uint16",
          "name": "resource",
          "type": "uint16"
        },
        {
          "indexed": false,
          "internalType": "bytes",
          "name": "record",
          "type": "bytes"
        }
      ],
      "name": "DNSRecordChanged",
      "type": "event"
    },
    {
      "anonymous": false,
      "inputs": [
        {
          "indexed": true,
          "internalType": "bytes32",
          "name": "node",
          "type": "bytes32"
        },
        {
          "indexed": false,
          "internalType": "bytes",
          "name": "name",
          "type": "bytes"
        },
        {
          "indexed": false,
          "internalType": "uint16",
          "name": "resource",
          "type": "uint16"
        }
      ],
      "name": "DNSRecordDeleted",
      "type": "event"
    },
    {
      "anonymous": false,
      "inputs": [
        {
          "indexed": true,
          "internalType": "bytes32",
          "name": "node",
          "type": "bytes32"
        }
      ],
      "name": "DNSZoneCleared",
      "type": "event"
    },
    {
      "anonymous": false,
      "inputs": [
        {
          "indexed": true,
          "internalType": "bytes32",
          "name": "node",
          "type": "bytes32"
        },
        {
          "indexed": false,
          "internalType": "bytes",
          "name": "lastzonehash",
          "type": "bytes"
        },
        {
          "indexed": false,
          "internalType": "bytes",
          "name": "zonehash",
          "type": "bytes"
        }
      ],
      "name": "DNSZonehashChanged",
      "type": "event"
    },
    {
      "anonymous": false,
      "inputs": [
        {
          "indexed": true,
          "internalType": "bytes32",
          "name": "node",
          "type": "bytes32"
        },
        {
          "indexed": true,
          "internalType": "bytes4",
          "name": "interfaceID",
          "type": "bytes4"
        },
        {
          "indexed": false,
          "internalType": "address",
          "name": "implementer",
          "type": "address"
        }
      ],
      "name": "InterfaceChanged",
      "type": "event"
    },
    {
      "anonymous": false,
      "inputs": [
        {
          "indexed": true,
          "internalType": "bytes32",
          "name": "node",
          "type": "bytes32"
        },
        {
          "indexed": false,
          "internalType": "string",
          "name": "name",
          "type": "string"
        }
      ],
      "name": "NameChanged",
      "type": "event"
    },
    {
      "anonymous": false,
      "inputs": [
        {
          "indexed": true,
          "internalType": "bytes32",
          "name": "node",
          "type": "bytes32"
        },
        {
          "indexed": false,
          "internalType": "bytes32",
          "name": "x",
          "type": "bytes32"
        },
        {
          "indexed": false,
          "internalType": "bytes32",
          "name": "y",
          "type": "bytes32"
        }
      ],
      "name": "PubkeyChanged",
      "type": "event"
    },
    {
      "anonymous": false,
      "inputs": [
        {
          "indexed": true,
          "internalType": "bytes32",
          "name": "node",
          "type": "bytes32"
        },
        {
          "indexed": true,
          "internalType": "string",
          "name": "indexedKey",
          "type": "string"
        },
        {
          "indexed": false,
          "internalType": "string",
          "name": "key",
          "type": "string"
        }
      ],
      "name": "TextChanged",
      "type": "event"
    },
    {
      "inputs": [
        {
          "internalType": "bytes32",
          "name": "node",
          "type": "bytes32"
        },
        {
          "internalType": "uint256",
          "name": "contentTypes",
          "type": "uint256"
        }
      ],
      "name": "ABI",
      "outputs": [
        {
          "internalType": "uint256",
          "name": "",
          "type": "uint256"
        },
        {
          "internalType": "bytes",
          "name": "",
          "type": "bytes"
        }
      ],
      "stateMutability": "view",
      "type": "function",
      "constant": true
    },
    {
      "inputs": [
        {
          "internalType": "bytes32",
          "name": "node",
          "type": "bytes32"
        }
      ],
      "name": "addr",
      "outputs": [
        {
          "internalType": "address payable",
          "name": "",
          "type": "address"
        }
      ],
      "stateMutability": "view",
      "type": "function",
      "constant": true
    },
    {
      "inputs": [
        {
          "internalType": "bytes32",
          "name": "node",
          "type": "bytes32"
        },
        {
          "internalType": "uint256",
          "name": "coinType",
          "type": "uint256"
        }
      ],
      "name": "addr",
      "outputs": [
        {
          "internalType": "bytes",
          "name": "",
          "type": "bytes"
        }
      ],
      "stateMutability": "view",
      "type": "function",
      "constant": true
    },
    {
      "inputs": [
        {
          "internalType": "bytes32",
          "name": "",
          "type": "bytes32"
        },
        {
          "internalType": "address",
          "name": "",
          "type": "address"
        },
        {
          "internalType": "address",
          "name": "",
          "type": "address"
        }
      ],
      "name": "authorisations",
      "outputs": [
        {
          "internalType": "bool",
          "name": "",
          "type": "bool"
        }
      ],
      "stateMutability": "view",
      "type": "function",
      "constant": true
    },
    {
      "inputs": [
        {
          "internalType": "bytes32",
          "name": "node",
          "type": "bytes32"
        }
      ],
      "name": "clearDNSZone",
      "outputs": [],
      "stateMutability": "nonpayable",
      "type": "function"
    },
    {
      "inputs": [
        {
          "internalType": "bytes32",
          "name": "node",
          "type": "bytes32"
        }
      ],
      "name": "contenthash",
      "outputs": [
        {
          "internalType": "bytes",
          "name": "",
          "type": "bytes"
        }
      ],
      "stateMutability": "view",
      "type": "function",
      "constant": true
    },
    {
      "inputs": [
        {
          "internalType": "bytes32",
          "name": "node",
          "type": "bytes32"
        },
        {
          "internalType": "bytes32",
          "name": "name",
          "type": "bytes32"
        },
        {
          "internalType": "uint16",
          "name": "resource",
          "type": "uint16"
        }
      ],
      "name": "dnsRecord",
      "outputs": [
        {
          "internalType": "bytes",
          "name": "",
          "type": "bytes"
        }
      ],
      "stateMutability": "view",
      "type": "function",
      "constant": true
    },
    {
      "inputs": [
        {
          "internalType": "bytes32",
          "name": "node",
          "type": "bytes32"
        },
        {
          "internalType": "bytes32",
          "name": "name",
          "type": "bytes32"
        }
      ],
      "name": "hasDNSRecords",
      "outputs": [
        {
          "internalType": "bool",
          "name": "",
          "type": "bool"
        }
      ],
      "stateMutability": "view",
      "type": "function",
      "constant": true
    },
    {
      "inputs": [
        {
          "internalType": "bytes32",
          "name": "node",
          "type": "bytes32"
        },
        {
          "internalType": "bytes4",
          "name": "interfaceID",
          "type": "bytes4"
        }
      ],
      "name": "interfaceImplementer",
      "outputs": [
        {
          "internalType": "address",
          "name": "",
          "type": "address"
        }
      ],
      "stateMutability": "view",
      "type": "function",
      "constant": true
    },
    {
      "inputs": [
        {
          "internalType": "bytes32",
          "name": "node",
          "type": "bytes32"
        }
      ],
      "name": "name",
      "outputs": [
        {
          "internalType": "string",
          "name": "",
          "type": "string"
        }
      ],
      "stateMutability": "view",
      "type": "function",
      "constant": true
    },
    {
      "inputs": [
        {
          "internalType": "bytes32",
          "name": "node",
          "type": "bytes32"
        }
      ],
      "name": "pubkey",
      "outputs": [
        {
          "internalType": "bytes32",
          "name": "x",
          "type": "bytes32"
        },
        {
          "internalType": "bytes32",
          "name": "y",
          "type": "bytes32"
        }
      ],
      "stateMutability": "view",
      "type": "function",
      "constant": true
    },
    {
      "inputs": [
        {
          "internalType": "bytes32",
          "name": "node",
          "type": "bytes32"
        },
        {
          "internalType": "uint256",
          "name": "contentType",
          "type": "uint256"
        },
        {
          "internalType": "bytes",
          "name": "data",
          "type": "bytes"
        }
      ],
      "name": "setABI",
      "outputs": [],
      "stateMutability": "nonpayable",
      "type": "function"
    },
    {
      "inputs": [
        {
          "internalType": "bytes32",
          "name": "node",
          "type": "bytes32"
        },
        {
          "internalType": "uint256",
          "name": "coinType",
          "type": "uint256"
        },
        {
          "internalType": "bytes",
          "name": "a",
          "type": "bytes"
        }
      ],
      "name": "setAddr",
      "outputs": [],
      "stateMutability": "nonpayable",
      "type": "function"
    },
    {
      "inputs": [
        {
          "internalType": "bytes32",
          "name": "node",
          "type": "bytes32"
        },
        {
          "internalType": "address",
          "name": "a",
          "type": "address"
        }
      ],
      "name": "setAddr",
      "outputs": [],
      "stateMutability": "nonpayable",
      "type": "function"
    },
    {
      "inputs": [
        {
          "internalType": "bytes32",
          "name": "node",
          "type": "bytes32"
        },
        {
          "internalType": "bytes",
          "name": "hash",
          "type": "bytes"
        }
      ],
      "name": "setContenthash",
      "outputs": [],
      "stateMutability": "nonpayable",
      "type": "function"
    },
    {
      "inputs": [
        {
          "internalType": "bytes32",
          "name": "node",
          "type": "bytes32"
        },
        {
          "internalType": "bytes",
          "name": "data",
          "type": "bytes"
        }
      ],
      "name": "setDNSRecords",
      "outputs": [],
      "stateMutability": "nonpayable",
      "type": "function"
    },
    {
      "inputs": [
        {
          "internalType": "bytes32",
          "name": "node",
          "type": "bytes32"
        },
        {
          "internalType": "bytes4",
          "name": "interfaceID",
          "type": "bytes4"
        },
        {
          "internalType": "address",
          "name": "implementer",
          "type": "address"
        }
      ],
      "name": "setInterface",
      "outputs": [],
      "stateMutability": "nonpayable",
      "type": "function"
    },
    {
      "inputs": [
        {
          "internalType": "bytes32",
          "name": "node",
          "type": "bytes32"
        },
        {
          "internalType": "string",
          "name": "_name",
          "type": "string"
        }
      ],
      "name": "setName",
      "outputs": [],
      "stateMutability": "nonpayable",
      "type": "function"
    },
    {
      "inputs": [
        {
          "internalType": "bytes32",
          "name": "node",
          "type": "bytes32"
        },
        {
          "internalType": "bytes32",
          "name": "x",
          "type": "bytes32"
        },
        {
          "internalType": "bytes32",
          "name": "y",
          "type": "bytes32"
        }
      ],
      "name": "setPubkey",
      "outputs": [],
      "stateMutability": "nonpayable",
      "type": "function"
    },
    {
      "inputs": [
        {
          "internalType": "bytes32",
          "name": "node",
          "type": "bytes32"
        },
        {
          "internalType": "string",
          "name": "key",
          "type": "string"
        },
        {
          "internalType": "string",
          "name": "value",
          "type": "string"
        }
      ],
      "name": "setText",
      "outputs": [],
      "stateMutability": "nonpayable",
      "type": "function"
    },
    {
      "inputs": [
        {
          "internalType": "bytes32",
          "name": "node",
          "type": "bytes32"
        },
        {
          "internalType": "bytes",
          "name": "hash",
          "type": "bytes"
        }
      ],
      "name": "setZonehash",
      "outputs": [],
      "stateMutability": "nonpayable",
      "type": "function"
    },
    {
      "inputs": [
        {
          "internalType": "bytes32",
          "name": "node",
          "type": "bytes32"
        },
        {
          "internalType": "string",
          "name": "key",
          "type": "string"
        }
      ],
      "name": "text",
      "outputs": [
        {
          "internalType": "string",
          "name": "",
          "type": "string"
        }
      ],
      "stateMutability": "view",
      "type": "function",
      "constant": true
    },
    {
      "inputs": [
        {
          "internalType": "bytes32",
          "name": "node",
          "type": "bytes32"
        }
      ],
      "name": "zonehash",
      "outputs": [
        {
          "internalType": "bytes",
          "name": "",
          "type": "bytes"
        }
      ],
      "stateMutability": "view",
      "type": "function",
      "constant": true
    },
    {
      "inputs": [
        {
          "internalType": "bytes32",
          "name": "node",
          "type": "bytes32"
        },
        {
          "internalType": "address",
          "name": "target",
          "type": "address"
        },
        {
          "internalType": "bool",
          "name": "_isAuthorised",
          "type": "bool"
        }
      ],
      "name": "setAuthorisation",
      "outputs": [],
      "stateMutability": "nonpayable",
      "type": "function"
    },
    {
      "inputs": [
        {
          "internalType": "bytes[]",
          "name": "data",
          "type": "bytes[]"
        }
      ],
      "name": "multicall",
      "outputs": [
        {
          "internalType": "bytes[]",
          "name": "results",
          "type": "bytes[]"
        }
      ],
      "stateMutability": "nonpayable",
      "type": "function"
    },
    {
      "inputs": [
        {
          "internalType": "bytes4",
          "name": "interfaceID",
          "type": "bytes4"
        }
      ],
      "name": "supportsInterface",
      "outputs": [
        {
          "internalType": "bool",
          "name": "",
          "type": "bool"
        }
      ],
      "stateMutability": "pure",
      "type": "function",
      "constant": true
    }
  ],
  "bytecode": "0x60806040523480156200001157600080fd5b50604051620043db380380620043db833981810160405281019062000037919062000096565b80600b60006101000a81548173ffffffffffffffffffffffffffffffffffffffff021916908373ffffffffffffffffffffffffffffffffffffffff1602179055505062000124565b60008151905062000090816200010a565b92915050565b600060208284031215620000a957600080fd5b6000620000b9848285016200007f565b91505092915050565b6000620000cf82620000ea565b9050919050565b6000620000e382620000c2565b9050919050565b600073ffffffffffffffffffffffffffffffffffffffff82169050919050565b6200011581620000d6565b81146200012157600080fd5b50565b6142a780620001346000396000f3fe608060405234801561001057600080fd5b50600436106101ab576000357c010000000000000000000000000000000000000000000000000000000090048063691f3431116100fb578063bc1c58d1116100b4578063d5fa2b001161008e578063d5fa2b001461050a578063e59d895d14610526578063f1cb7e0614610542578063f86bc87914610572576101ab565b8063bc1c58d11461048d578063c8690233146104bd578063ce3decdc146104ee576101ab565b8063691f3431146103a957806377372213146103d95780638b95dd71146103f5578063a8fa568214610411578063ac9650d814610441578063ad5780af14610471576101ab565b8063304e6ade116101685780634cbf6ba4116101425780634cbf6ba4146102fd57806359d1d43c1461032d5780635c98042b1461035d578063623195b01461038d576101ab565b8063304e6ade146102955780633b3b57de146102b15780633e9ce794146102e1576101ab565b806301ffc9a7146101b05780630af179d7146101e057806310f13a8c146101fc578063124a319c146102185780632203ab561461024857806329cd62ea14610279575b600080fd5b6101ca60048036038101906101c5919061362f565b6105a2565b6040516101d791906139b8565b60405180910390f35b6101fa60048036038101906101f591906133e7565b6105b4565b005b61021660048036038101906102119190613497565b6107e6565b005b610232600480360381019061022d919061335c565b610894565b60405161023f9190613945565b60405180910390f35b610262600480360381019061025d9190613520565b610db0565b604051610270929190613b8c565b60405180910390f35b610293600480360381019061028e91906132be565b610ee7565b005b6102af60048036038101906102aa91906133e7565b610f79565b005b6102cb60048036038101906102c6919061317f565b610fef565b6040516102d8919061397b565b60405180910390f35b6102fb60048036038101906102f69190613233565b611025565b005b61031760048036038101906103129190613282565b611135565b60405161032491906139b8565b60405180910390f35b6103476004803603810190610342919061343f565b61119d565b6040516103549190613b4a565b60405180910390f35b6103776004803603810190610372919061317f565b611262565b6040516103849190613a56565b60405180910390f35b6103a760048036038101906103a2919061355c565b611307565b005b6103c360048036038101906103be919061317f565b61139d565b6040516103d09190613b4a565b60405180910390f35b6103f360048036038101906103ee919061343f565b611442565b005b61040f600480360381019061040a91906135c8565b6114b8565b005b61042b6004803603810190610426919061330d565b61158e565b6040516104389190613a56565b60405180910390f35b61045b6004803603810190610456919061313a565b611683565b6040516104689190613996565b60405180910390f35b61048b6004803603810190610486919061317f565b611865565b005b6104a760048036038101906104a2919061317f565b6118d2565b6040516104b49190613a56565b60405180910390f35b6104d760048036038101906104d2919061317f565b611977565b6040516104e59291906139ee565b60405180910390f35b610508600480360381019061050391906133e7565b6119b1565b005b610524600480360381019061051f91906131a8565b611aca565b005b610540600480360381019061053b9190613398565b611af6565b005b61055c60048036038101906105579190613520565b611c08565b6040516105699190613a56565b60405180910390f35b61058c600480360381019061058791906131e4565b611cbf565b60405161059991906139b8565b60405180910390f35b60006105ad82611cfb565b9050919050565b826105be81611d78565b6105c757600080fd5b60008060608060008061062860008a8a8080601f016020809104026020016040519081016040528093929190818152602001838380828437600081840152601f19601f82011690508083019250505050505050611f1d90919063ffffffff16565b90505b61063481611f47565b61076a5760008661ffff161415610690578060400151955061065581611f5d565b9350836040516020016106689190613915565b60405160208183030381529060405280519060200120915061068981611f94565b925061075c565b600061069b82611f5d565b9050816040015161ffff168761ffff161415806106c857506106c68186611fcd90919063ffffffff16565b155b1561075a576107338b86898d8d8080601f016020809104026020016040519081016040528093929190818152602001838380828437600081840152601f19601f820116905080830192505050505050508a8b88602001516107299190613ec8565b60008b5114611ff4565b81604001519650816020015195508094508480519060200120925061075782611f94565b93505b505b6107658161231f565b61062b565b506000835111156107db576107da8984878b8b8080601f016020809104026020016040519081016040528093929190818152602001838380828437600081840152601f19601f8201169050808301925050505050505088898e8e90506107d09190613ec8565b6000895114611ff4565b5b505050505050505050565b846107f081611d78565b6107f957600080fd5b8282600a6000898152602001908152602001600020878760405161081e92919061392c565b90815260200160405180910390209190610839929190612cfe565b50848460405161084a92919061392c565b6040518091039020867fd8c9334b1a9c2f9da342a0a2b32629c1a229b6445dad78947f674b44444a75508787604051610884929190613b26565b60405180910390a3505050505050565b600080600760008581526020019081526020016000206000847bffffffffffffffffffffffffffffffffffffffffffffffffffffffff19167bffffffffffffffffffffffffffffffffffffffffffffffffffffffff1916815260200190815260200160002060009054906101000a900473ffffffffffffffffffffffffffffffffffffffff169050600073ffffffffffffffffffffffffffffffffffffffff168173ffffffffffffffffffffffffffffffffffffffff16146109595780915050610daa565b600061096485610fef565b9050600073ffffffffffffffffffffffffffffffffffffffff168173ffffffffffffffffffffffffffffffffffffffff1614156109a657600092505050610daa565b6000808273ffffffffffffffffffffffffffffffffffffffff166301ffc9a77c0100000000000000000000000000000000000000000000000000000000026040516024016109f49190613a17565b6040516020818303038152906040527f01ffc9a7000000000000000000000000000000000000000000000000000000007bffffffffffffffffffffffffffffffffffffffffffffffffffffffff19166020820180517bffffffffffffffffffffffffffffffffffffffffffffffffffffffff8381831617835250505050604051610a7e9190613915565b600060405180830381855afa9150503d8060008114610ab9576040519150601f19603f3d011682016040523d82523d6000602084013e610abe565b606091505b5091509150811580610ad1575060208151105b80610ba3575060007f01000000000000000000000000000000000000000000000000000000000000000281601f81518110610b35577f4e487b7100000000000000000000000000000000000000000000000000000000600052603260045260246000fd5b60200101517f010000000000000000000000000000000000000000000000000000000000000090047f0100000000000000000000000000000000000000000000000000000000000000027effffffffffffffffffffffffffffffffffffffffffffffffffffffffffffff1916145b15610bb5576000945050505050610daa565b8273ffffffffffffffffffffffffffffffffffffffff1686604051602401610bdd9190613a17565b6040516020818303038152906040527f01ffc9a7000000000000000000000000000000000000000000000000000000007bffffffffffffffffffffffffffffffffffffffffffffffffffffffff19166020820180517bffffffffffffffffffffffffffffffffffffffffffffffffffffffff8381831617835250505050604051610c679190613915565b600060405180830381855afa9150503d8060008114610ca2576040519150601f19603f3d011682016040523d82523d6000602084013e610ca7565b606091505b508092508193505050811580610cbe575060208151105b80610d90575060007f01000000000000000000000000000000000000000000000000000000000000000281601f81518110610d22577f4e487b7100000000000000000000000000000000000000000000000000000000600052603260045260246000fd5b60200101517f010000000000000000000000000000000000000000000000000000000000000090047f0100000000000000000000000000000000000000000000000000000000000000027effffffffffffffffffffffffffffffffffffffffffffffffffffffffffffff1916145b15610da2576000945050505050610daa565b829450505050505b92915050565b60006060600080600086815260200190815260200160002090506000600190505b848111610ec757600085821614158015610e09575060008260008381526020019081526020016000208054610e059061403c565b9050115b15610eb85780826000838152602001908152602001600020808054610e2d9061403c565b80601f0160208091040260200160405190810160405280929190818152602001828054610e599061403c565b8015610ea65780601f10610e7b57610100808354040283529160200191610ea6565b820191906000526020600020905b815481529060010190602001808311610e8957829003601f168201915b50505050509050935093505050610ee0565b6001819060020a029050610dd1565b5060006040518060200160405280600081525092509250505b9250929050565b82610ef181611d78565b610efa57600080fd5b604051806040016040528084815260200183815250600960008681526020019081526020016000206000820151816000015560208201518160010155905050837f1d6f5e03d3f63eb58751986629a5439baee5079ff04f345becb66e23eb154e468484604051610f6b9291906139ee565b60405180910390a250505050565b82610f8381611d78565b610f8c57600080fd5b8282600260008781526020019081526020016000209190610fae929190612d84565b50837fe379c1624ed7e714cc0937528a32359d69d5281337765313dba4e081b72d75788484604051610fe1929190613a32565b60405180910390a250505050565b600080610ffd83603c611c08565b9050600081511415611013576000915050611020565b61101c81612469565b9150505b919050565b80600c600085815260200190815260200160002060003373ffffffffffffffffffffffffffffffffffffffff1673ffffffffffffffffffffffffffffffffffffffff16815260200190815260200160002060008473ffffffffffffffffffffffffffffffffffffffff1673ffffffffffffffffffffffffffffffffffffffff16815260200190815260200160002060006101000a81548160ff0219169083151502179055508173ffffffffffffffffffffffffffffffffffffffff163373ffffffffffffffffffffffffffffffffffffffff16847fe1c5610a6e0cbe10764ecd182adcef1ec338dc4e199c99c32ce98f38e12791df8460405161112891906139b8565b60405180910390a4505050565b60008060066000858152602001908152602001600020600060046000878152602001908152602001600020548152602001908152602001600020600084815260200190815260200160002060009054906101000a900461ffff1661ffff161415905092915050565b6060600a600085815260200190815260200160002083836040516111c292919061392c565b908152602001604051809103902080546111db9061403c565b80601f01602080910402602001604051908101604052809291908181526020018280546112079061403c565b80156112545780601f1061122957610100808354040283529160200191611254565b820191906000526020600020905b81548152906001019060200180831161123757829003601f168201915b505050505090509392505050565b60606003600083815260200190815260200160002080546112829061403c565b80601f01602080910402602001604051908101604052809291908181526020018280546112ae9061403c565b80156112fb5780601f106112d0576101008083540402835291602001916112fb565b820191906000526020600020905b8154815290600101906020018083116112de57829003601f168201915b50505050509050919050565b8361131181611d78565b61131a57600080fd5b60008460018661132a9190613ec8565b161461133557600080fd5b828260008088815260200190815260200160002060008781526020019081526020016000209190611367929190612d84565b5083857faa121bbeef5f32f5961a2a28966e769023910fc9479059ee3495d4c1a696efe360405160405180910390a35050505050565b60606008600083815260200190815260200160002080546113bd9061403c565b80601f01602080910402602001604051908101604052809291908181526020018280546113e99061403c565b80156114365780601f1061140b57610100808354040283529160200191611436565b820191906000526020600020905b81548152906001019060200180831161141957829003601f168201915b50505050509050919050565b8261144c81611d78565b61145557600080fd5b8282600860008781526020019081526020016000209190611477929190612cfe565b50837fb7d29e911041e8d9b843369e890bcb72c9388692ba48b65ac54e7214c4c348f784846040516114aa929190613b26565b60405180910390a250505050565b826114c281611d78565b6114cb57600080fd5b837f65412581168e88a1e60c6459d7f44ae83ad0832e670826c05a4e2476b57af75284846040516114fd929190613b8c565b60405180910390a2603c83141561154f57837f52d7d861f09ab3d26239d492e8968629f95e9e318cf0b73bfddc441522a15fd261153984612469565b6040516115469190613960565b60405180910390a25b816001600086815260200190815260200160002060008581526020019081526020016000209080519060200190611587929190612e0a565b5050505050565b606060056000858152602001908152602001600020600060046000878152602001908152602001600020548152602001908152602001600020600084815260200190815260200160002060008361ffff1661ffff16815260200190815260200160002080546115fc9061403c565b80601f01602080910402602001604051908101604052809291908181526020018280546116289061403c565b80156116755780601f1061164a57610100808354040283529160200191611675565b820191906000526020600020905b81548152906001019060200180831161165857829003601f168201915b505050505090509392505050565b60608282905067ffffffffffffffff8111156116c8577f4e487b7100000000000000000000000000000000000000000000000000000000600052604160045260246000fd5b6040519080825280602002602001820160405280156116fb57816020015b60608152602001906001900390816116e65790505b50905060005b8383905081101561185e576000803073ffffffffffffffffffffffffffffffffffffffff1686868581811061175f577f4e487b7100000000000000000000000000000000000000000000000000000000600052603260045260246000fd5b90506020028101906117719190613bbc565b60405161177f9291906138fc565b600060405180830381855af49150503d80600081146117ba576040519150601f19603f3d011682016040523d82523d6000602084013e6117bf565b606091505b509150915081611804576040517f08c379a00000000000000000000000000000000000000000000000000000000081526004016117fb90613b6c565b60405180910390fd5b8084848151811061183e577f4e487b7100000000000000000000000000000000000000000000000000000000600052603260045260246000fd5b602002602001018190525050508080611856906140ca565b915050611701565b5092915050565b8061186f81611d78565b61187857600080fd5b60046000838152602001908152602001600020600081548092919061189c906140ca565b9190505550817fb757169b8492ca2f1c6619d9d76ce22803035c3b1d5f6930dffe7b127c1a198360405160405180910390a25050565b60606002600083815260200190815260200160002080546118f29061403c565b80601f016020809104026020016040519081016040528092919081815260200182805461191e9061403c565b801561196b5780601f106119405761010080835404028352916020019161196b565b820191906000526020600020905b81548152906001019060200180831161194e57829003601f168201915b50505050509050919050565b6000806009600084815260200190815260200160002060000154600960008581526020019081526020016000206001015491509150915091565b826119bb81611d78565b6119c457600080fd5b60006003600086815260200190815260200160002080546119e49061403c565b80601f0160208091040260200160405190810160405280929190818152602001828054611a109061403c565b8015611a5d5780601f10611a3257610100808354040283529160200191611a5d565b820191906000526020600020905b815481529060010190602001808311611a4057829003601f168201915b505050505090508383600360008881526020019081526020016000209190611a86929190612d84565b50847f8f15ed4b723ef428f250961da8315675b507046737e19319fc1a4d81bfe87f85828686604051611abb93929190613a78565b60405180910390a25050505050565b81611ad481611d78565b611add57600080fd5b611af183603c611aec8561248c565b6114b8565b505050565b82611b0081611d78565b611b0957600080fd5b81600760008681526020019081526020016000206000857bffffffffffffffffffffffffffffffffffffffffffffffffffffffff19167bffffffffffffffffffffffffffffffffffffffffffffffffffffffff1916815260200190815260200160002060006101000a81548173ffffffffffffffffffffffffffffffffffffffff021916908373ffffffffffffffffffffffffffffffffffffffff160217905550827bffffffffffffffffffffffffffffffffffffffffffffffffffffffff1916847f7c69f06bea0bdef565b709e93a147836b0063ba2dd89f02d0b7e8d931e6a6daa84604051611bfa9190613945565b60405180910390a350505050565b60606001600084815260200190815260200160002060008381526020019081526020016000208054611c399061403c565b80601f0160208091040260200160405190810160405280929190818152602001828054611c659061403c565b8015611cb25780601f10611c8757610100808354040283529160200191611cb2565b820191906000526020600020905b815481529060010190602001808311611c9557829003601f168201915b5050505050905092915050565b600c602052826000526040600020602052816000526040600020602052806000526040600020600092509250509054906101000a900460ff1681565b60006359d1d43c7c0100000000000000000000000000000000000000000000000000000000027bffffffffffffffffffffffffffffffffffffffffffffffffffffffff1916827bffffffffffffffffffffffffffffffffffffffffffffffffffffffff19161480611d715750611d7082612516565b5b9050919050565b600080600b60009054906101000a900473ffffffffffffffffffffffffffffffffffffffff1673ffffffffffffffffffffffffffffffffffffffff166302571be3846040518263ffffffff167c0100000000000000000000000000000000000000000000000000000000028152600401611df291906139d3565b60206040518083038186803b158015611e0a57600080fd5b505afa158015611e1e573d6000803e3d6000fd5b505050506040513d601f19601f82011682018060405250810190611e429190613111565b90503373ffffffffffffffffffffffffffffffffffffffff168173ffffffffffffffffffffffffffffffffffffffff161480611f155750600c600084815260200190815260200160002060008273ffffffffffffffffffffffffffffffffffffffff1673ffffffffffffffffffffffffffffffffffffffff16815260200190815260200160002060003373ffffffffffffffffffffffffffffffffffffffff1673ffffffffffffffffffffffffffffffffffffffff16815260200190815260200160002060009054906101000a900460ff165b915050919050565b611f25612e90565b828160000181905250818160c0018181525050611f418161231f565b92915050565b6000816000015151826020015110159050919050565b6060611f8d8260200151611f7984600001518560200151612593565b84600001516126369092919063ffffffff16565b9050919050565b6060611fc68260a001518360a001518460c00151611fb29190613ec8565b84600001516126369092919063ffffffff16565b9050919050565b600081518351148015611fec5750611feb83600084600087516126f1565b5b905092915050565b600060046000898152602001908152602001600020549050600087805190602001209050600061202f8686896126369092919063ffffffff16565b905083156121a1576000600560008c81526020019081526020016000206000858152602001908152602001600020600084815260200190815260200160002060008a61ffff1661ffff16815260200190815260200160002080546120929061403c565b90501461210857600660008b815260200190815260200160002060008481526020019081526020016000206000838152602001908152602001600020600081819054906101000a900461ffff16809291906120ec90614012565b91906101000a81548161ffff021916908361ffff160217905550505b600560008b81526020019081526020016000206000848152602001908152602001600020600083815260200190815260200160002060008961ffff1661ffff16815260200190815260200160002060006121629190612edb565b897f03528ed0c2a3ebc993b12ce3c16bb382f9c7d88ef7d8a1bf290eaf35955a12078a8a604051612194929190613ab1565b60405180910390a2612313565b6000600560008c81526020019081526020016000206000858152602001908152602001600020600084815260200190815260200160002060008a61ffff1661ffff16815260200190815260200160002080546121fc9061403c565b9050141561227357600660008b815260200190815260200160002060008481526020019081526020016000206000838152602001908152602001600020600081819054906101000a900461ffff16809291906122579061409f565b91906101000a81548161ffff021916908361ffff160217905550505b80600560008c81526020019081526020016000206000858152602001908152602001600020600084815260200190815260200160002060008a61ffff1661ffff16815260200190815260200160002090805190602001906122d5929190612e0a565b50897f52a608b3303a48862d07a73d82fa221318c0027fbbcfb1b2329bface3f19ff2b8a8a8460405161230a93929190613ae1565b60405180910390a25b50505050505050505050565b8060c0015181602001818152505080600001515181602001511061234257612466565b600061235682600001518360200151612593565b82602001516123659190613d01565b905061237e81836000015161271590919063ffffffff16565b826040019061ffff16908161ffff168152505060028161239e9190613d01565b90506123b781836000015161271590919063ffffffff16565b826060019061ffff16908161ffff16815250506002816123d79190613d01565b90506123f081836000015161274490919063ffffffff16565b826080019063ffffffff16908163ffffffff16815250506004816124149190613d01565b9050600061242f82846000015161271590919063ffffffff16565b61ffff1690506002826124429190613d01565b9150818360a0018181525050808261245a9190613d01565b8360c001818152505050505b50565b6000601482511461247957600080fd5b600c6101000a6020830151049050919050565b6060601467ffffffffffffffff8111156124cf577f4e487b7100000000000000000000000000000000000000000000000000000000600052604160045260246000fd5b6040519080825280601f01601f1916602001820160405280156125015781602001600182028036833780820191505090505b509050600c6101000a82026020820152919050565b600063c86902337c0100000000000000000000000000000000000000000000000000000000027bffffffffffffffffffffffffffffffffffffffffffffffffffffffff1916827bffffffffffffffffffffffffffffffffffffffffffffffffffffffff1916148061258c575061258b82612775565b5b9050919050565b6000808290505b60011561262157835181106125d8577f4e487b7100000000000000000000000000000000000000000000000000000000600052600160045260246000fd5b60006125ed82866127f290919063ffffffff16565b60ff1690506001816125ff9190613d01565b8261260a9190613d01565b9150600081141561261b5750612621565b5061259a565b828161262d9190613ec8565b91505092915050565b6060835182846126469190613d01565b111561265157600080fd5b60008267ffffffffffffffff811115612693577f4e487b7100000000000000000000000000000000000000000000000000000000600052604160045260246000fd5b6040519080825280601f01601f1916602001820160405280156126c55781602001600182028036833780820191505090505b50905060008060208301915085602088010190506126e48282876128a2565b8293505050509392505050565b60006126fe848484612921565b612709878785612921565b14905095945050505050565b600082516002836127269190613d01565b111561273157600080fd5b61ffff8260028501015116905092915050565b600082516004836127559190613d01565b111561276057600080fd5b63ffffffff8260048501015116905092915050565b600063691f34317c0100000000000000000000000000000000000000000000000000000000027bffffffffffffffffffffffffffffffffffffffffffffffffffffffff1916827bffffffffffffffffffffffffffffffffffffffffffffffffffffffff191614806127eb57506127ea8261294d565b5b9050919050565b600082828151811061282d577f4e487b7100000000000000000000000000000000000000000000000000000000600052603260045260246000fd5b60200101517f010000000000000000000000000000000000000000000000000000000000000090047f0100000000000000000000000000000000000000000000000000000000000000027f01000000000000000000000000000000000000000000000000000000000000009004905092915050565b5b602081106128e157815183526020836128bc9190613d01565b92506020826128cb9190613d01565b91506020816128da9190613ec8565b90506128a3565b600060018260206128f29190613ec8565b6101006128ff9190613daa565b6129099190613ec8565b90508019835116818551168181178652505050505050565b6000835182846129319190613d01565b111561293c57600080fd5b818360208601012090509392505050565b60007f124a319c1247f4318c3c16c7e9cc865d0fb5d80d7bf02f56cafc0d14da0208507bffffffffffffffffffffffffffffffffffffffffffffffffffffffff1916827bffffffffffffffffffffffffffffffffffffffffffffffffffffffff191614806129c057506129bf826129c7565b5b9050919050565b600063a8fa56827c0100000000000000000000000000000000000000000000000000000000027bffffffffffffffffffffffffffffffffffffffffffffffffffffffff1916827bffffffffffffffffffffffffffffffffffffffffffffffffffffffff19161480612a985750635c47637c7c0100000000000000000000000000000000000000000000000000000000027bffffffffffffffffffffffffffffffffffffffffffffffffffffffff1916827bffffffffffffffffffffffffffffffffffffffffffffffffffffffff1916145b80612aa85750612aa782612aaf565b5b9050919050565b600063bc1c58d17c0100000000000000000000000000000000000000000000000000000000027bffffffffffffffffffffffffffffffffffffffffffffffffffffffff1916827bffffffffffffffffffffffffffffffffffffffffffffffffffffffff19161480612b255750612b2482612b2c565b5b9050919050565b6000633b3b57de7c0100000000000000000000000000000000000000000000000000000000027bffffffffffffffffffffffffffffffffffffffffffffffffffffffff1916827bffffffffffffffffffffffffffffffffffffffffffffffffffffffff19161480612bfd575063f1cb7e067c0100000000000000000000000000000000000000000000000000000000027bffffffffffffffffffffffffffffffffffffffffffffffffffffffff1916827bffffffffffffffffffffffffffffffffffffffffffffffffffffffff1916145b80612c0d5750612c0c82612c14565b5b9050919050565b6000632203ab567c0100000000000000000000000000000000000000000000000000000000027bffffffffffffffffffffffffffffffffffffffffffffffffffffffff1916827bffffffffffffffffffffffffffffffffffffffffffffffffffffffff19161480612c8a5750612c8982612c91565b5b9050919050565b60006301ffc9a77c0100000000000000000000000000000000000000000000000000000000027bffffffffffffffffffffffffffffffffffffffffffffffffffffffff1916827bffffffffffffffffffffffffffffffffffffffffffffffffffffffff1916149050919050565b828054612d0a9061403c565b90600052602060002090601f016020900481019282612d2c5760008555612d73565b82601f10612d4557803560ff1916838001178555612d73565b82800160010185558215612d73579182015b82811115612d72578235825591602001919060010190612d57565b5b509050612d809190612f1b565b5090565b828054612d909061403c565b90600052602060002090601f016020900481019282612db25760008555612df9565b82601f10612dcb57803560ff1916838001178555612df9565b82800160010185558215612df9579182015b82811115612df8578235825591602001919060010190612ddd565b5b509050612e069190612f1b565b5090565b828054612e169061403c565b90600052602060002090601f016020900481019282612e385760008555612e7f565b82601f10612e5157805160ff1916838001178555612e7f565b82800160010185558215612e7f579182015b82811115612e7e578251825591602001919060010190612e63565b5b509050612e8c9190612f1b565b5090565b6040518060e001604052806060815260200160008152602001600061ffff168152602001600061ffff168152602001600063ffffffff16815260200160008152602001600081525090565b508054612ee79061403c565b6000825580601f10612ef95750612f18565b601f016020900490600052602060002090810190612f179190612f1b565b5b50565b5b80821115612f34576000816000905550600101612f1c565b5090565b6000612f4b612f4684613c38565b613c13565b905082815260208101848484011115612f6357600080fd5b612f6e848285613fd0565b509392505050565b600081359050612f85816141e7565b92915050565b600081519050612f9a816141e7565b92915050565b60008083601f840112612fb257600080fd5b8235905067ffffffffffffffff811115612fcb57600080fd5b602083019150836020820283011115612fe357600080fd5b9250929050565b600081359050612ff9816141fe565b92915050565b60008135905061300e81614215565b92915050565b6000813590506130238161422c565b92915050565b60008083601f84011261303b57600080fd5b8235905067ffffffffffffffff81111561305457600080fd5b60208301915083600182028301111561306c57600080fd5b9250929050565b600082601f83011261308457600080fd5b8135613094848260208601612f38565b91505092915050565b60008083601f8401126130af57600080fd5b8235905067ffffffffffffffff8111156130c857600080fd5b6020830191508360018202830111156130e057600080fd5b9250929050565b6000813590506130f681614243565b92915050565b60008135905061310b8161425a565b92915050565b60006020828403121561312357600080fd5b600061313184828501612f8b565b91505092915050565b6000806020838503121561314d57600080fd5b600083013567ffffffffffffffff81111561316757600080fd5b61317385828601612fa0565b92509250509250929050565b60006020828403121561319157600080fd5b600061319f84828501612fff565b91505092915050565b600080604083850312156131bb57600080fd5b60006131c985828601612fff565b92505060206131da85828601612f76565b9150509250929050565b6000806000606084860312156131f957600080fd5b600061320786828701612fff565b935050602061321886828701612f76565b925050604061322986828701612f76565b9150509250925092565b60008060006060848603121561324857600080fd5b600061325686828701612fff565b935050602061326786828701612f76565b925050604061327886828701612fea565b9150509250925092565b6000806040838503121561329557600080fd5b60006132a385828601612fff565b92505060206132b485828601612fff565b9150509250929050565b6000806000606084860312156132d357600080fd5b60006132e186828701612fff565b93505060206132f286828701612fff565b925050604061330386828701612fff565b9150509250925092565b60008060006060848603121561332257600080fd5b600061333086828701612fff565b935050602061334186828701612fff565b9250506040613352868287016130e7565b9150509250925092565b6000806040838503121561336f57600080fd5b600061337d85828601612fff565b925050602061338e85828601613014565b9150509250929050565b6000806000606084860312156133ad57600080fd5b60006133bb86828701612fff565b93505060206133cc86828701613014565b92505060406133dd86828701612f76565b9150509250925092565b6000806000604084860312156133fc57600080fd5b600061340a86828701612fff565b935050602084013567ffffffffffffffff81111561342757600080fd5b61343386828701613029565b92509250509250925092565b60008060006040848603121561345457600080fd5b600061346286828701612fff565b935050602084013567ffffffffffffffff81111561347f57600080fd5b61348b8682870161309d565b92509250509250925092565b6000806000806000606086880312156134af57600080fd5b60006134bd88828901612fff565b955050602086013567ffffffffffffffff8111156134da57600080fd5b6134e68882890161309d565b9450945050604086013567ffffffffffffffff81111561350557600080fd5b6135118882890161309d565b92509250509295509295909350565b6000806040838503121561353357600080fd5b600061354185828601612fff565b9250506020613552858286016130fc565b9150509250929050565b6000806000806060858703121561357257600080fd5b600061358087828801612fff565b9450506020613591878288016130fc565b935050604085013567ffffffffffffffff8111156135ae57600080fd5b6135ba87828801613029565b925092505092959194509250565b6000806000606084860312156135dd57600080fd5b60006135eb86828701612fff565b93505060206135fc868287016130fc565b925050604084013567ffffffffffffffff81111561361957600080fd5b61362586828701613073565b9150509250925092565b60006020828403121561364157600080fd5b600061364f84828501613014565b91505092915050565b6000613664838361378d565b905092915050565b61367581613f9a565b82525050565b61368481613f0e565b82525050565b61369381613efc565b82525050565b60006136a482613c79565b6136ae8185613ca7565b9350836020820285016136c085613c69565b8060005b858110156136fc57848403895281516136dd8582613658565b94506136e883613c9a565b925060208a019950506001810190506136c4565b50829750879550505050505092915050565b61371781613f20565b82525050565b61372681613f2c565b82525050565b61373581613f36565b82525050565b60006137478385613cc9565b9350613754838584613fd0565b61375d836141a0565b840190509392505050565b60006137748385613cda565b9350613781838584613fd0565b82840190509392505050565b600061379882613c84565b6137a28185613cb8565b93506137b2818560208601613fdf565b6137bb816141a0565b840191505092915050565b60006137d182613c84565b6137db8185613cc9565b93506137eb818560208601613fdf565b6137f4816141a0565b840191505092915050565b600061380a82613c84565b6138148185613cda565b9350613824818560208601613fdf565b80840191505092915050565b600061383c8385613ce5565b9350613849838584613fd0565b613852836141a0565b840190509392505050565b60006138698385613cf6565b9350613876838584613fd0565b82840190509392505050565b600061388d82613c8f565b6138978185613ce5565b93506138a7818560208601613fdf565b6138b0816141a0565b840191505092915050565b60006138c8600f83613ce5565b91506138d3826141be565b602082019050919050565b6138e781613f62565b82525050565b6138f681613f90565b82525050565b6000613909828486613768565b91508190509392505050565b600061392182846137ff565b915081905092915050565b600061393982848661385d565b91508190509392505050565b600060208201905061395a600083018461368a565b92915050565b6000602082019050613975600083018461366c565b92915050565b6000602082019050613990600083018461367b565b92915050565b600060208201905081810360008301526139b08184613699565b905092915050565b60006020820190506139cd600083018461370e565b92915050565b60006020820190506139e8600083018461371d565b92915050565b6000604082019050613a03600083018561371d565b613a10602083018461371d565b9392505050565b6000602082019050613a2c600083018461372c565b92915050565b60006020820190508181036000830152613a4d81848661373b565b90509392505050565b60006020820190508181036000830152613a7081846137c6565b905092915050565b60006040820190508181036000830152613a9281866137c6565b90508181036020830152613aa781848661373b565b9050949350505050565b60006040820190508181036000830152613acb81856137c6565b9050613ada60208301846138de565b9392505050565b60006060820190508181036000830152613afb81866137c6565b9050613b0a60208301856138de565b8181036040830152613b1c81846137c6565b9050949350505050565b60006020820190508181036000830152613b41818486613830565b90509392505050565b60006020820190508181036000830152613b648184613882565b905092915050565b60006020820190508181036000830152613b85816138bb565b9050919050565b6000604082019050613ba160008301856138ed565b8181036020830152613bb381846137c6565b90509392505050565b60008083356001602003843603038112613bd557600080fd5b80840192508235915067ffffffffffffffff821115613bf357600080fd5b602083019250600182023603831315613c0b57600080fd5b509250929050565b6000613c1d613c2e565b9050613c29828261406e565b919050565b6000604051905090565b600067ffffffffffffffff821115613c5357613c52614171565b5b613c5c826141a0565b9050602081019050919050565b6000819050602082019050919050565b600081519050919050565b600081519050919050565b600081519050919050565b6000602082019050919050565b600082825260208201905092915050565b600082825260208201905092915050565b600082825260208201905092915050565b600081905092915050565b600082825260208201905092915050565b600081905092915050565b6000613d0c82613f90565b9150613d1783613f90565b9250827fffffffffffffffffffffffffffffffffffffffffffffffffffffffffffffffff03821115613d4c57613d4b614113565b5b828201905092915050565b6000808291508390505b6001851115613da157808604811115613d7d57613d7c614113565b5b6001851615613d8c5780820291505b8081029050613d9a856141b1565b9450613d61565b94509492505050565b6000613db582613f90565b9150613dc083613f90565b9250613ded7fffffffffffffffffffffffffffffffffffffffffffffffffffffffffffffffff8484613df5565b905092915050565b600082613e055760019050613ec1565b81613e135760009050613ec1565b8160018114613e295760028114613e3357613e62565b6001915050613ec1565b60ff841115613e4557613e44614113565b5b8360020a915084821115613e5c57613e5b614113565b5b50613ec1565b5060208310610133831016604e8410600b8410161715613e975782820a905083811115613e9257613e91614113565b5b613ec1565b613ea48484846001613d57565b92509050818404811115613ebb57613eba614113565b5b81810290505b9392505050565b6000613ed382613f90565b9150613ede83613f90565b925082821015613ef157613ef0614113565b5b828203905092915050565b6000613f0782613f70565b9050919050565b6000613f1982613f70565b9050919050565b60008115159050919050565b6000819050919050565b60007fffffffff0000000000000000000000000000000000000000000000000000000082169050919050565b600061ffff82169050919050565b600073ffffffffffffffffffffffffffffffffffffffff82169050919050565b6000819050919050565b6000613fa582613fac565b9050919050565b6000613fb782613fbe565b9050919050565b6000613fc982613f70565b9050919050565b82818337600083830152505050565b60005b83811015613ffd578082015181840152602081019050613fe2565b8381111561400c576000848401525b50505050565b600061401d82613f62565b9150600082141561403157614030614113565b5b600182039050919050565b6000600282049050600182168061405457607f821691505b6020821081141561406857614067614142565b5b50919050565b614077826141a0565b810181811067ffffffffffffffff8211171561409657614095614171565b5b80604052505050565b60006140aa82613f62565b915061ffff8214156140bf576140be614113565b5b600182019050919050565b60006140d582613f90565b91507fffffffffffffffffffffffffffffffffffffffffffffffffffffffffffffffff82141561410857614107614113565b5b600182019050919050565b7f4e487b7100000000000000000000000000000000000000000000000000000000600052601160045260246000fd5b7f4e487b7100000000000000000000000000000000000000000000000000000000600052602260045260246000fd5b7f4e487b7100000000000000000000000000000000000000000000000000000000600052604160045260246000fd5b6000601f19601f8301169050919050565b6000600282049050919050565b7f6d756c746963616c6c206572726f720000000000000000000000000000000000600082015250565b6141f081613efc565b81146141fb57600080fd5b50565b61420781613f20565b811461421257600080fd5b50565b61421e81613f2c565b811461422957600080fd5b50565b61423581613f36565b811461424057600080fd5b50565b61424c81613f62565b811461425757600080fd5b50565b61426381613f90565b811461426e57600080fd5b5056fea2646970667358221220764d4be6654debec1918cf3a8d7766e771a6d9c118c96bc86578a87890834afa64736f6c63430008040033",
  "immutableReferences": {},
  "source": "// SPDX-License-Identifier: UNLICCNSED\n\npragma solidity ^0.8.4;\npragma experimental ABIEncoderV2;\n\nimport \"../registry/CNS.sol\";\nimport \"./profiles/ABIResolver.sol\";\nimport \"./profiles/AddrResolver.sol\";\nimport \"./profiles/ContentHashResolver.sol\";\nimport \"./profiles/DNSResolver.sol\";\nimport \"./profiles/InterfaceResolver.sol\";\nimport \"./profiles/NameResolver.sol\";\nimport \"./profiles/PubkeyResolver.sol\";\nimport \"./profiles/TextResolver.sol\";\n\n/**\n * A simple resolver anyone can use; only allows the owner of a node to set its\n * address.\n */\ncontract PublicResolver is ABIResolver, AddrResolver, ContentHashResolver, DNSResolver, InterfaceResolver, NameResolver, PubkeyResolver, TextResolver {\n    CNS cns;\n\n    /**\n     * A mapping of authorisations. An address that is authorised for a name\n     * may make any changes to the name that the owner could, but may not update\n     * the set of authorisations.\n     * (node, owner, caller) => isAuthorised\n     */\n    mapping(bytes32=>mapping(address=>mapping(address=>bool))) public authorisations;\n\n    event AuthorisationChanged(bytes32 indexed node, address indexed owner, address indexed target, bool isAuthorised);\n\n    constructor(CNS _cns) {\n        cns = _cns;\n    }\n\n    /**\n     * @dev Sets or clears an authorisation.\n     * Authorisations are specific to the caller. Any account can set an authorisation\n     * for any name, but the authorisation that is checked will be that of the\n     * current owner of a name. Thus, transferring a name effectively clears any\n     * existing authorisations, and new authorisations can be set in advance of\n     * an ownership transfer if desired.\n     *\n     * @param node The name to change the authorisation on.\n     * @param target The address that is to be authorised or deauthorised.\n     * @param _isAuthorised True if the address should be authorised, or false if it should be deauthorised.\n     */\n    function setAuthorisation(bytes32 node, address target, bool _isAuthorised) external {\n        authorisations[node][msg.sender][target] = _isAuthorised;\n        emit AuthorisationChanged(node, msg.sender, target, _isAuthorised);\n    }\n\n    function isAuthorised(bytes32 node) internal override view returns(bool) {\n        address owner = cns.owner(node);\n        return owner == msg.sender || authorisations[node][owner][msg.sender];\n    }\n\n    function multicall(bytes[] calldata data) external returns(bytes[] memory results) {\n        results = new bytes[](data.length);\n        for(uint i = 0; i < data.length; i++) {\n            (bool success, bytes memory result) = address(this).delegatecall(data[i]);\n            require(success,'multicall error');\n            results[i] = result;\n        }\n        return results;\n    }\n\n    function supportsInterface(bytes4 interfaceID) virtual override(ABIResolver, AddrResolver, ContentHashResolver, DNSResolver, InterfaceResolver, NameResolver, PubkeyResolver, TextResolver) public pure returns(bool) {\n        return super.supportsInterface(interfaceID);\n    }\n}\n",
  "sourcePath": "/Users/yzbbanban/Downloads/money/chk/nftbox/bns/yns-sol-master-025696b23c531f8117f2fb03dee6f8c96f21692e/contracts/resolvers/PublicResolver.sol",
  "compiler": {
    "name": "solc",
    "version": "0.8.4+commit.c7e474f2.Emscripten.clang"
  },
  "schemaVersion": "3.4.3",
  "updatedAt": "2022-08-28T14:26:02.484Z",
  "networkType": "ethereum",
  "devdoc": {
    "kind": "dev",
    "methods": {
      "ABI(bytes32,uint256)": {
        "params": {
          "contentTypes": "A bitwise OR of the ABI formats accepted by the caller.",
          "node": "The CNS node to query"
        },
        "returns": {
          "_0": "contentType The content type of the return value",
          "_1": "data The ABI data"
        }
      },
      "addr(bytes32)": {
        "params": {
          "node": "The CNS node to query."
        },
        "returns": {
          "_0": "The associated address."
        }
      },
      "clearDNSZone(bytes32)": {
        "params": {
          "node": "the namehash of the node for which to clear the zone"
        }
      },
      "contenthash(bytes32)": {
        "params": {
          "node": "The CNS node to query."
        },
        "returns": {
          "_0": "The associated contenthash."
        }
      },
      "dnsRecord(bytes32,bytes32,uint16)": {
        "params": {
          "name": "the keccak-256 hash of the fully-qualified name for which to fetch the record",
          "node": "the namehash of the node for which to fetch the record",
          "resource": "the ID of the resource as per https://en.wikipedia.org/wiki/List_of_DNS_record_types"
        },
        "returns": {
          "_0": "the DNS record in wire format if present, otherwise empty"
        }
      },
      "hasDNSRecords(bytes32,bytes32)": {
        "params": {
          "name": "the namehash of the node for which to check the records",
          "node": "the namehash of the node for which to check the records"
        }
      },
      "interfaceImplementer(bytes32,bytes4)": {
        "params": {
          "interfaceID": "The EIP 165 interface ID to check for.",
          "node": "The CNS node to query."
        },
        "returns": {
          "_0": "The address that implements this interface, or 0 if the interface is unsupported."
        }
      },
      "name(bytes32)": {
        "params": {
          "node": "The CNS node to query."
        },
        "returns": {
          "_0": "The associated name."
        }
      },
      "pubkey(bytes32)": {
        "params": {
          "node": "The CNS node to query"
        },
        "returns": {
          "x": "The X coordinate of the curve point for the public key.",
          "y": "The Y coordinate of the curve point for the public key."
        }
      },
      "setABI(bytes32,uint256,bytes)": {
        "params": {
          "contentType": "The content type of the ABI",
          "data": "The ABI data.",
          "node": "The node to update."
        }
      },
      "setAddr(bytes32,address)": {
        "params": {
          "a": "The address to set.",
          "node": "The node to update."
        }
      },
      "setAuthorisation(bytes32,address,bool)": {
        "details": "Sets or clears an authorisation. Authorisations are specific to the caller. Any account can set an authorisation for any name, but the authorisation that is checked will be that of the current owner of a name. Thus, transferring a name effectively clears any existing authorisations, and new authorisations can be set in advance of an ownership transfer if desired.",
        "params": {
          "_isAuthorised": "True if the address should be authorised, or false if it should be deauthorised.",
          "node": "The name to change the authorisation on.",
          "target": "The address that is to be authorised or deauthorised."
        }
      },
      "setContenthash(bytes32,bytes)": {
        "params": {
          "hash": "The contenthash to set",
          "node": "The node to update."
        }
      },
      "setDNSRecords(bytes32,bytes)": {
        "params": {
          "data": "the DNS wire format records to set",
          "node": "the namehash of the node for which to set the records"
        }
      },
      "setInterface(bytes32,bytes4,address)": {
        "params": {
          "implementer": "The address of a contract that implements this interface for this node.",
          "interfaceID": "The EIP 165 interface ID.",
          "node": "The node to update."
        }
      },
      "setName(bytes32,string)": {
        "params": {
          "_name": "The name to set.",
          "node": "The node to update."
        }
      },
      "setPubkey(bytes32,bytes32,bytes32)": {
        "params": {
          "node": "The CNS node to query",
          "x": "the X coordinate of the curve point for the public key.",
          "y": "the Y coordinate of the curve point for the public key."
        }
      },
      "setText(bytes32,string,string)": {
        "params": {
          "key": "The key to set.",
          "node": "The node to update.",
          "value": "The text data value to set."
        }
      },
      "setZonehash(bytes32,bytes)": {
        "params": {
          "hash": "The zonehash to set",
          "node": "The node to update."
        }
      },
      "text(bytes32,string)": {
        "params": {
          "key": "The text data key to query.",
          "node": "The CNS node to query."
        },
        "returns": {
          "_0": "The associated text data."
        }
      },
      "zonehash(bytes32)": {
        "params": {
          "node": "The CNS node to query."
        },
        "returns": {
          "_0": "The associated contenthash."
        }
      }
    },
    "version": 1
  },
  "userdoc": {
    "kind": "user",
    "methods": {
      "ABI(bytes32,uint256)": {
        "notice": "Returns the ABI associated with an CNS node. Defined in EIP205."
      },
      "addr(bytes32)": {
        "notice": "Returns the address associated with an CNS node."
      },
      "authorisations(bytes32,address,address)": {
        "notice": "A mapping of authorisations. An address that is authorised for a name may make any changes to the name that the owner could, but may not update the set of authorisations. (node, owner, caller) => isAuthorised"
      },
      "clearDNSZone(bytes32)": {
        "notice": "Clear all information for a DNS zone."
      },
      "contenthash(bytes32)": {
        "notice": "Returns the contenthash associated with an CNS node."
      },
      "dnsRecord(bytes32,bytes32,uint16)": {
        "notice": "Obtain a DNS record."
      },
      "hasDNSRecords(bytes32,bytes32)": {
        "notice": "Check if a given node has records."
      },
      "interfaceImplementer(bytes32,bytes4)": {
        "notice": "Returns the address of a contract that implements the specified interface for this name. If an implementer has not been set for this interfaceID and name, the resolver will query the contract at `addr()`. If `addr()` is set, a contract exists at that address, and that contract implements EIP165 and returns `true` for the specified interfaceID, its address will be returned."
      },
      "name(bytes32)": {
        "notice": "Returns the name associated with an CNS node, for reverse records. Defined in EIP181."
      },
      "pubkey(bytes32)": {
        "notice": "Returns the SECP256k1 public key associated with an CNS node. Defined in EIP 619."
      },
      "setABI(bytes32,uint256,bytes)": {
        "notice": "Sets the ABI associated with an CNS node. Nodes may have one ABI of each content type. To remove an ABI, set it to the empty string."
      },
      "setAddr(bytes32,address)": {
        "notice": "Sets the address associated with an CNS node. May only be called by the owner of that node in the CNS registry."
      },
      "setContenthash(bytes32,bytes)": {
        "notice": "Sets the contenthash associated with an CNS node. May only be called by the owner of that node in the CNS registry."
      },
      "setDNSRecords(bytes32,bytes)": {
        "notice": "Set one or more DNS records.  Records are supplied in wire-format. Records with the same node/name/resource must be supplied one after the other to ensure the data is updated correctly. For example, if the data was supplied:     a.example.com IN A 1.2.3.4     a.example.com IN A 5.6.7.8     www.example.com IN CNAME a.example.com. then this would store the two A records for a.example.com correctly as a single RRSET, however if the data was supplied:     a.example.com IN A 1.2.3.4     www.example.com IN CNAME a.example.com.     a.example.com IN A 5.6.7.8 then this would store the first A record, the CNAME, then the second A record which would overwrite the first."
      },
      "setInterface(bytes32,bytes4,address)": {
        "notice": "Sets an interface associated with a name. Setting the address to 0 restores the default behaviour of querying the contract at `addr()` for interface support."
      },
      "setName(bytes32,string)": {
        "notice": "Sets the name associated with an CNS node, for reverse records. May only be called by the owner of that node in the CNS registry."
      },
      "setPubkey(bytes32,bytes32,bytes32)": {
        "notice": "Sets the SECP256k1 public key associated with an CNS node."
      },
      "setText(bytes32,string,string)": {
        "notice": "Sets the text data associated with an CNS node and key. May only be called by the owner of that node in the CNS registry."
      },
      "setZonehash(bytes32,bytes)": {
        "notice": "setZonehash sets the hash for the zone. May only be called by the owner of that node in the CNS registry."
      },
      "text(bytes32,string)": {
        "notice": "Returns the text data associated with an CNS node and key."
      },
      "zonehash(bytes32)": {
        "notice": "zonehash obtains the hash for the zone."
      }
    },
    "notice": "A simple resolver anyone can use; only allows the owner of a node to set its address.",
    "version": 1
  }
}