{
  "contractName": "ReverseRegistrar",
  "abi": [
    {
      "inputs": [
        {
          "internalType": "contract CNS",
          "name": "ensAddr",
          "type": "address"
        },
        {
          "internalType": "contract DefaultResolver",
          "name": "resolverAddr",
          "type": "address"
        }
      ],
      "stateMutability": "nonpayable",
      "type": "constructor"
    },
    {
      "inputs": [],
      "name": "ADDR_REVERSE_NODE",
      "outputs": [
        {
          "internalType": "bytes32",
          "name": "",
          "type": "bytes32"
        }
      ],
      "stateMutability": "view",
      "type": "function",
      "constant": true
    },
    {
      "inputs": [],
      "name": "defaultResolver",
      "outputs": [
        {
          "internalType": "contract DefaultResolver",
          "name": "",
          "type": "address"
        }
      ],
      "stateMutability": "view",
      "type": "function",
      "constant": true
    },
    {
      "inputs": [],
      "name": "ens",
      "outputs": [
        {
          "internalType": "contract CNS",
          "name": "",
          "type": "address"
        }
      ],
      "stateMutability": "view",
      "type": "function",
      "constant": true
    },
    {
      "inputs": [
        {
          "internalType": "address",
          "name": "owner",
          "type": "address"
        }
      ],
      "name": "claim",
      "outputs": [
        {
          "internalType": "bytes32",
          "name": "",
          "type": "bytes32"
        }
      ],
      "stateMutability": "nonpayable",
      "type": "function"
    },
    {
      "inputs": [
        {
          "internalType": "address",
          "name": "owner",
          "type": "address"
        },
        {
          "internalType": "address",
          "name": "resolver",
          "type": "address"
        }
      ],
      "name": "claimWithResolver",
      "outputs": [
        {
          "internalType": "bytes32",
          "name": "",
          "type": "bytes32"
        }
      ],
      "stateMutability": "nonpayable",
      "type": "function"
    },
    {
      "inputs": [
        {
          "internalType": "string",
          "name": "_name",
          "type": "string"
        }
      ],
      "name": "setName",
      "outputs": [
        {
          "internalType": "bytes32",
          "name": "",
          "type": "bytes32"
        }
      ],
      "stateMutability": "nonpayable",
      "type": "function"
    },
    {
      "inputs": [
        {
          "internalType": "address",
          "name": "addr",
          "type": "address"
        }
      ],
      "name": "node",
      "outputs": [
        {
          "internalType": "bytes32",
          "name": "",
          "type": "bytes32"
        }
      ],
      "stateMutability": "pure",
      "type": "function",
      "constant": true
    }
  ],
  "bytecode": "0x60806040523480156200001157600080fd5b50604051620013593803806200135983398181016040528101906200003791906200034c565b816000806101000a81548173ffffffffffffffffffffffffffffffffffffffff021916908373ffffffffffffffffffffffffffffffffffffffff16021790555080600160006101000a81548173ffffffffffffffffffffffffffffffffffffffff021916908373ffffffffffffffffffffffffffffffffffffffff16021790555060008060009054906101000a900473ffffffffffffffffffffffffffffffffffffffff1673ffffffffffffffffffffffffffffffffffffffff166302571be37f91d1777781884d03a6757a803996e38de2a42967fb37eeaca72729271025a9e26001026040518263ffffffff167c0100000000000000000000000000000000000000000000000000000000028152600401620001559190620003cc565b60206040518083038186803b1580156200016e57600080fd5b505afa15801562000183573d6000803e3d6000fd5b505050506040513d601f19601f82011682018060405250810190620001a99190620002f4565b9050600073ffffffffffffffffffffffffffffffffffffffff168173ffffffffffffffffffffffffffffffffffffffff16146200028f578073ffffffffffffffffffffffffffffffffffffffff16631e83409a336040518263ffffffff167c0100000000000000000000000000000000000000000000000000000000028152600401620002379190620003af565b602060405180830381600087803b1580156200025257600080fd5b505af115801562000267573d6000803e3d6000fd5b505050506040513d601f19601f820116820180604052508101906200028d919062000320565b505b505050620004b7565b600081519050620002a9816200044f565b92915050565b600081519050620002c08162000469565b92915050565b600081519050620002d78162000483565b92915050565b600081519050620002ee816200049d565b92915050565b6000602082840312156200030757600080fd5b6000620003178482850162000298565b91505092915050565b6000602082840312156200033357600080fd5b60006200034384828501620002af565b91505092915050565b600080604083850312156200036057600080fd5b60006200037085828601620002c6565b92505060206200038385828601620002dd565b9150509250929050565b6200039881620003e9565b82525050565b620003a981620003fd565b82525050565b6000602082019050620003c660008301846200038d565b92915050565b6000602082019050620003e360008301846200039e565b92915050565b6000620003f6826200042f565b9050919050565b6000819050919050565b60006200041482620003e9565b9050919050565b60006200042882620003e9565b9050919050565b600073ffffffffffffffffffffffffffffffffffffffff82169050919050565b6200045a81620003e9565b81146200046657600080fd5b50565b6200047481620003fd565b81146200048057600080fd5b50565b6200048e8162000407565b81146200049a57600080fd5b50565b620004a8816200041b565b8114620004b457600080fd5b50565b610e9280620004c76000396000f3fe608060405234801561001057600080fd5b506004361061009a576000357c0100000000000000000000000000000000000000000000000000000000900480637cf8a2eb116100785780637cf8a2eb1461011d578063828eab0e1461013b578063bffbe61c14610159578063c47f0027146101895761009a565b80630f5a54661461009f5780631e83409a146100cf5780633f15457f146100ff575b600080fd5b6100b960048036038101906100b49190610a3c565b6101b9565b6040516100c69190610b9a565b60405180910390f35b6100e960048036038101906100e491906109ea565b610712565b6040516100f69190610b9a565b60405180910390f35b610107610726565b6040516101149190610c45565b60405180910390f35b61012561074a565b6040516101329190610b9a565b60405180910390f35b610143610771565b6040516101509190610c60565b60405180910390f35b610173600480360381019061016e91906109ea565b610797565b6040516101809190610b9a565b60405180910390f35b6101a3600480360381019061019e9190610aa1565b6107f4565b6040516101b09190610b9a565b60405180910390f35b6000806101c5336108d9565b905060007f91d1777781884d03a6757a803996e38de2a42967fb37eeaca72729271025a9e2600102826040516020016101ff929190610b6e565b60405160208183030381529060405280519060200120905060008060009054906101000a900473ffffffffffffffffffffffffffffffffffffffff1673ffffffffffffffffffffffffffffffffffffffff166302571be3836040518263ffffffff167c010000000000000000000000000000000000000000000000000000000002815260040161028f9190610b9a565b60206040518083038186803b1580156102a757600080fd5b505afa1580156102bb573d6000803e3d6000fd5b505050506040513d601f19601f820116820180604052508101906102df9190610a13565b9050600073ffffffffffffffffffffffffffffffffffffffff168573ffffffffffffffffffffffffffffffffffffffff161415801561040e575060008054906101000a900473ffffffffffffffffffffffffffffffffffffffff1673ffffffffffffffffffffffffffffffffffffffff16630178b8bf836040518263ffffffff167c010000000000000000000000000000000000000000000000000000000002815260040161038e9190610b9a565b60206040518083038186803b1580156103a657600080fd5b505afa1580156103ba573d6000803e3d6000fd5b505050506040513d601f19601f820116820180604052508101906103de9190610a13565b73ffffffffffffffffffffffffffffffffffffffff168573ffffffffffffffffffffffffffffffffffffffff1614155b156105e3573073ffffffffffffffffffffffffffffffffffffffff168173ffffffffffffffffffffffffffffffffffffffff16146105395760008054906101000a900473ffffffffffffffffffffffffffffffffffffffff1673ffffffffffffffffffffffffffffffffffffffff166306ab59237f91d1777781884d03a6757a803996e38de2a42967fb37eeaca72729271025a9e260010285306040518463ffffffff167c01000000000000000000000000000000000000000000000000000000000281526004016104e293929190610bde565b602060405180830381600087803b1580156104fc57600080fd5b505af1158015610510573d6000803e3d6000fd5b505050506040513d601f19601f820116820180604052508101906105349190610a78565b503090505b60008054906101000a900473ffffffffffffffffffffffffffffffffffffffff1673ffffffffffffffffffffffffffffffffffffffff16631896f70a83876040518363ffffffff167c01000000000000000000000000000000000000000000000000000000000281526004016105b0929190610bb5565b600060405180830381600087803b1580156105ca57600080fd5b505af11580156105de573d6000803e3d6000fd5b505050505b8573ffffffffffffffffffffffffffffffffffffffff168173ffffffffffffffffffffffffffffffffffffffff16146107065760008054906101000a900473ffffffffffffffffffffffffffffffffffffffff1673ffffffffffffffffffffffffffffffffffffffff166306ab59237f91d1777781884d03a6757a803996e38de2a42967fb37eeaca72729271025a9e260010285896040518463ffffffff167c01000000000000000000000000000000000000000000000000000000000281526004016106b293929190610bde565b602060405180830381600087803b1580156106cc57600080fd5b505af11580156106e0573d6000803e3d6000fd5b505050506040513d601f19601f820116820180604052508101906107049190610a78565b505b81935050505092915050565b600061071f8260006101b9565b9050919050565b60008054906101000a900473ffffffffffffffffffffffffffffffffffffffff1681565b7f91d1777781884d03a6757a803996e38de2a42967fb37eeaca72729271025a9e260010281565b600160009054906101000a900473ffffffffffffffffffffffffffffffffffffffff1681565b60007f91d1777781884d03a6757a803996e38de2a42967fb37eeaca72729271025a9e26001026107c6836108d9565b6040516020016107d7929190610b6e565b604051602081830303815290604052805190602001209050919050565b60008061082330600160009054906101000a900473ffffffffffffffffffffffffffffffffffffffff166101b9565b9050600160009054906101000a900473ffffffffffffffffffffffffffffffffffffffff1673ffffffffffffffffffffffffffffffffffffffff16637737221382856040518363ffffffff167c010000000000000000000000000000000000000000000000000000000002815260040161089e929190610c15565b600060405180830381600087803b1580156108b857600080fd5b505af11580156108cc573d6000803e3d6000fd5b5050505080915050919050565b60007f303132333435363738396162636465660000000000000000000000000000000060285b60008111156109355760018103905081600f85161a815360108404935060018103905081600f85161a81536010840493506108ff565b506028600020915050919050565b600061095661095184610ca0565b610c7b565b90508281526020810184848401111561096e57600080fd5b610979848285610d71565b509392505050565b60008135905061099081610e2e565b92915050565b6000815190506109a581610e2e565b92915050565b6000815190506109ba81610e45565b92915050565b600082601f8301126109d157600080fd5b81356109e1848260208601610943565b91505092915050565b6000602082840312156109fc57600080fd5b6000610a0a84828501610981565b91505092915050565b600060208284031215610a2557600080fd5b6000610a3384828501610996565b91505092915050565b60008060408385031215610a4f57600080fd5b6000610a5d85828601610981565b9250506020610a6e85828601610981565b9150509250929050565b600060208284031215610a8a57600080fd5b6000610a98848285016109ab565b91505092915050565b600060208284031215610ab357600080fd5b600082013567ffffffffffffffff811115610acd57600080fd5b610ad9848285016109c0565b91505092915050565b610aeb81610ced565b82525050565b610afa81610cff565b82525050565b610b11610b0c82610cff565b610de4565b82525050565b610b2081610d29565b82525050565b610b2f81610d4d565b82525050565b6000610b4082610cd1565b610b4a8185610cdc565b9350610b5a818560208601610d80565b610b6381610e1d565b840191505092915050565b6000610b7a8285610b00565b602082019150610b8a8284610b00565b6020820191508190509392505050565b6000602082019050610baf6000830184610af1565b92915050565b6000604082019050610bca6000830185610af1565b610bd76020830184610ae2565b9392505050565b6000606082019050610bf36000830186610af1565b610c006020830185610af1565b610c0d6040830184610ae2565b949350505050565b6000604082019050610c2a6000830185610af1565b8181036020830152610c3c8184610b35565b90509392505050565b6000602082019050610c5a6000830184610b17565b92915050565b6000602082019050610c756000830184610b26565b92915050565b6000610c85610c96565b9050610c918282610db3565b919050565b6000604051905090565b600067ffffffffffffffff821115610cbb57610cba610dee565b5b610cc482610e1d565b9050602081019050919050565b600081519050919050565b600082825260208201905092915050565b6000610cf882610d09565b9050919050565b6000819050919050565b600073ffffffffffffffffffffffffffffffffffffffff82169050919050565b6000610d3482610d3b565b9050919050565b6000610d4682610d09565b9050919050565b6000610d5882610d5f565b9050919050565b6000610d6a82610d09565b9050919050565b82818337600083830152505050565b60005b83811015610d9e578082015181840152602081019050610d83565b83811115610dad576000848401525b50505050565b610dbc82610e1d565b810181811067ffffffffffffffff82111715610ddb57610dda610dee565b5b80604052505050565b6000819050919050565b7f4e487b7100000000000000000000000000000000000000000000000000000000600052604160045260246000fd5b6000601f19601f8301169050919050565b610e3781610ced565b8114610e4257600080fd5b50565b610e4e81610cff565b8114610e5957600080fd5b5056fea26469706673582212200bc8e5463495d9a2a538a950c15d72186ad5c9d719e8fc03fc40c59644e7e69664736f6c63430008040033",
  "immutableReferences": {},
  "source": "// SPDX-License-Identifier: UNLICCNSED\npragma solidity ^0.8.0;\n\nimport \"./CNS.sol\";\n\nabstract contract DefaultResolver {\n    function setName(bytes32 node, string memory name) public virtual;\n}\n\n\ncontract ReverseRegistrar {\n    // namehash('addr.reverse')\n    bytes32 public constant ADDR_REVERSE_NODE = 0x91d1777781884d03a6757a803996e38de2a42967fb37eeaca72729271025a9e2;\n\n    CNS public ens;\n    DefaultResolver public defaultResolver;\n\n    /**\n     * @dev Constructor\n     * @param ensAddr The address of the CNS registry.\n     * @param resolverAddr The address of the default reverse resolver.\n     */\n    constructor(CNS ensAddr, DefaultResolver resolverAddr) {\n        ens = ensAddr;\n        defaultResolver = resolverAddr;\n\n        // Assign ownership of the reverse record to our deployer\n        ReverseRegistrar oldRegistrar = ReverseRegistrar(ens.owner(ADDR_REVERSE_NODE));\n        if (address(oldRegistrar) != address(0x0)) {\n            oldRegistrar.claim(msg.sender);\n        }\n    }\n\n    /**\n     * @dev Transfers ownership of the reverse CNS record associated with the\n     *      calling account.\n     * @param owner The address to set as the owner of the reverse record in CNS.\n     * @return The CNS node hash of the reverse record.\n     */\n    function claim(address owner) public returns (bytes32) {\n        return claimWithResolver(owner, address(0x0));\n    }\n\n    /**\n     * @dev Transfers ownership of the reverse CNS record associated with the\n     *      calling account.\n     * @param owner The address to set as the owner of the reverse record in CNS.\n     * @param resolver The address of the resolver to set; 0 to leave unchanged.\n     * @return The CNS node hash of the reverse record.\n     */\n    function claimWithResolver(address owner, address resolver) public returns (bytes32) {\n        bytes32 label = sha3HexAddress(msg.sender);\n        bytes32 _node = keccak256(abi.encodePacked(ADDR_REVERSE_NODE, label));\n        address currentOwner = ens.owner(_node);\n\n        // Update the resolver if required\n        if (resolver != address(0x0) && resolver != ens.resolver(_node)) {\n            // Transfer the name to us first if it's not already\n            if (currentOwner != address(this)) {\n                ens.setSubnodeOwner(ADDR_REVERSE_NODE, label, address(this));\n                currentOwner = address(this);\n            }\n            ens.setResolver(_node, resolver);\n        }\n\n        // Update the owner if required\n        if (currentOwner != owner) {\n            ens.setSubnodeOwner(ADDR_REVERSE_NODE, label, owner);\n        }\n\n        return _node;\n    }\n\n    /**\n     * @dev Sets the `name()` record for the reverse CNS record associated with\n     * the calling account. First updates the resolver to the default reverse\n     * resolver if necessary.\n     * @param _name The name to set for this address.\n     * @return The CNS node hash of the reverse record.\n     */\n    function setName(string memory _name) public returns (bytes32) {\n        bytes32 _node = claimWithResolver(address(this), address(defaultResolver));\n        defaultResolver.setName(_node, _name);\n        return _node;\n    }\n\n    /**\n     * @dev Returns the node hash for a given account's reverse records.\n     * @param addr The address to hash\n     * @return The CNS node hash.\n     */\n    function node(address addr) public pure returns (bytes32) {\n        return keccak256(abi.encodePacked(ADDR_REVERSE_NODE, sha3HexAddress(addr)));\n    }\n\n    /**\n     * @dev An optimised function to compute the sha3 of the lower-case\n     *      hexadecimal representation of an Ethereum address.\n     * @param addr The address to hash\n     * @return ret The SHA3 hash of the lower-case hexadecimal encoding of the\n     *         input address.\n     */\n    function sha3HexAddress(address addr) private pure returns (bytes32 ret) {\n        addr;\n        ret; // Stop warning us about unused variables\n        assembly {\n            let lookup := 0x3031323334353637383961626364656600000000000000000000000000000000\n\n            for { let i := 40 } gt(i, 0) { } {\n                i := sub(i, 1)\n                mstore8(i, byte(and(addr, 0xf), lookup))\n                addr := div(addr, 0x10)\n                i := sub(i, 1)\n                mstore8(i, byte(and(addr, 0xf), lookup))\n                addr := div(addr, 0x10)\n            }\n\n            ret := keccak256(0, 40)\n        }\n    }\n}\n",
  "sourcePath": "/Users/yzbbanban/Downloads/money/chk/nftbox/bns/yns-sol-master-025696b23c531f8117f2fb03dee6f8c96f21692e/contracts/registry/ReverseRegistrar.sol",
  "compiler": {
    "name": "solc",
    "version": "0.8.4+commit.c7e474f2.Emscripten.clang"
  },
  "schemaVersion": "3.4.3",
  "updatedAt": "2022-08-28T14:26:02.490Z",
  "networkType": "ethereum",
  "devdoc": {
    "kind": "dev",
    "methods": {
      "claim(address)": {
        "details": "Transfers ownership of the reverse CNS record associated with the      calling account.",
        "params": {
          "owner": "The address to set as the owner of the reverse record in CNS."
        },
        "returns": {
          "_0": "The CNS node hash of the reverse record."
        }
      },
      "claimWithResolver(address,address)": {
        "details": "Transfers ownership of the reverse CNS record associated with the      calling account.",
        "params": {
          "owner": "The address to set as the owner of the reverse record in CNS.",
          "resolver": "The address of the resolver to set; 0 to leave unchanged."
        },
        "returns": {
          "_0": "The CNS node hash of the reverse record."
        }
      },
      "constructor": {
        "details": "Constructor",
        "params": {
          "ensAddr": "The address of the CNS registry.",
          "resolverAddr": "The address of the default reverse resolver."
        }
      },
      "node(address)": {
        "details": "Returns the node hash for a given account's reverse records.",
        "params": {
          "addr": "The address to hash"
        },
        "returns": {
          "_0": "The CNS node hash."
        }
      },
      "setName(string)": {
        "details": "Sets the `name()` record for the reverse CNS record associated with the calling account. First updates the resolver to the default reverse resolver if necessary.",
        "params": {
          "_name": "The name to set for this address."
        },
        "returns": {
          "_0": "The CNS node hash of the reverse record."
        }
      }
    },
    "version": 1
  },
  "userdoc": {
    "kind": "user",
    "methods": {},
    "version": 1
  }
}