{
  "contractName": "StablePriceOracle",
  "abi": [
    {
      "inputs": [
        {
          "internalType": "contract AggregatorInterface",
          "name": "_usdOracle",
          "type": "address"
        },
        {
          "internalType": "uint256[]",
          "name": "_rentPrices",
          "type": "uint256[]"
        }
      ],
      "stateMutability": "nonpayable",
      "type": "constructor"
    },
    {
      "anonymous": false,
      "inputs": [
        {
          "indexed": false,
          "internalType": "address",
          "name": "oracle",
          "type": "address"
        }
      ],
      "name": "OracleChanged",
      "type": "event"
    },
    {
      "anonymous": false,
      "inputs": [
        {
          "indexed": true,
          "internalType": "address",
          "name": "previousOwner",
          "type": "address"
        },
        {
          "indexed": true,
          "internalType": "address",
          "name": "newOwner",
          "type": "address"
        }
      ],
      "name": "OwnershipTransferred",
      "type": "event"
    },
    {
      "anonymous": false,
      "inputs": [
        {
          "indexed": false,
          "internalType": "uint256[]",
          "name": "prices",
          "type": "uint256[]"
        }
      ],
      "name": "RentPriceChanged",
      "type": "event"
    },
    {
      "inputs": [],
      "name": "owner",
      "outputs": [
        {
          "internalType": "address",
          "name": "",
          "type": "address"
        }
      ],
      "stateMutability": "view",
      "type": "function"
    },
    {
      "inputs": [],
      "name": "renounceOwnership",
      "outputs": [],
      "stateMutability": "nonpayable",
      "type": "function"
    },
    {
      "inputs": [
        {
          "internalType": "uint256",
          "name": "",
          "type": "uint256"
        }
      ],
      "name": "rentPrices",
      "outputs": [
        {
          "internalType": "uint256",
          "name": "",
          "type": "uint256"
        }
      ],
      "stateMutability": "view",
      "type": "function"
    },
    {
      "inputs": [
        {
          "internalType": "address",
          "name": "newOwner",
          "type": "address"
        }
      ],
      "name": "transferOwnership",
      "outputs": [],
      "stateMutability": "nonpayable",
      "type": "function"
    },
    {
      "inputs": [],
      "name": "usdOracle",
      "outputs": [
        {
          "internalType": "contract AggregatorInterface",
          "name": "",
          "type": "address"
        }
      ],
      "stateMutability": "view",
      "type": "function"
    },
    {
      "inputs": [
        {
          "internalType": "string",
          "name": "name",
          "type": "string"
        },
        {
          "internalType": "uint256",
          "name": "expires",
          "type": "uint256"
        },
        {
          "internalType": "uint256",
          "name": "duration",
          "type": "uint256"
        },
        {
          "internalType": "address",
          "name": "dealer",
          "type": "address"
        }
      ],
      "name": "price",
      "outputs": [
        {
          "internalType": "uint256",
          "name": "",
          "type": "uint256"
        }
      ],
      "stateMutability": "view",
      "type": "function"
    },
    {
      "inputs": [
        {
          "internalType": "uint256[]",
          "name": "_rentPrices",
          "type": "uint256[]"
        }
      ],
      "name": "setPrices",
      "outputs": [],
      "stateMutability": "nonpayable",
      "type": "function"
    },
    {
      "inputs": [
        {
          "internalType": "contract AggregatorInterface",
          "name": "_usdOracle",
          "type": "address"
        }
      ],
      "name": "setOracle",
      "outputs": [],
      "stateMutability": "nonpayable",
      "type": "function"
    },
    {
      "inputs": [
        {
          "internalType": "string",
          "name": "name",
          "type": "string"
        },
        {
          "internalType": "uint256",
          "name": "expires",
          "type": "uint256"
        },
        {
          "internalType": "uint256",
          "name": "duration",
          "type": "uint256"
        }
      ],
      "name": "premium",
      "outputs": [
        {
          "internalType": "uint256",
          "name": "",
          "type": "uint256"
        }
      ],
      "stateMutability": "view",
      "type": "function"
    },
    {
      "inputs": [
        {
          "internalType": "bytes4",
          "name": "interfaceID",
          "type": "bytes4"
        }
      ],
      "name": "supportsInterface",
      "outputs": [
        {
          "internalType": "bool",
          "name": "",
          "type": "bool"
        }
      ],
      "stateMutability": "view",
      "type": "function"
    }
  ],
  "bytecode": "0x60806040523480156200001157600080fd5b5060405162001ed838038062001ed88339818101604052810190620000379190620003f8565b6200006962000054620000cc640100000000026401000000009004565b620000d4640100000000026401000000009004565b81600260006101000a81548173ffffffffffffffffffffffffffffffffffffffff021916908373ffffffffffffffffffffffffffffffffffffffff160217905550620000c48162000198640100000000026401000000009004565b50506200071b565b600033905090565b60008060009054906101000a900473ffffffffffffffffffffffffffffffffffffffff169050816000806101000a81548173ffffffffffffffffffffffffffffffffffffffff021916908373ffffffffffffffffffffffffffffffffffffffff1602179055508173ffffffffffffffffffffffffffffffffffffffff168173ffffffffffffffffffffffffffffffffffffffff167f8be0079c531659141344cd1fd0a4f28419497f9722a3daafe3b4186f6b6457e060405160405180910390a35050565b620001b1620000cc640100000000026401000000009004565b73ffffffffffffffffffffffffffffffffffffffff16620001e06200028e640100000000026401000000009004565b73ffffffffffffffffffffffffffffffffffffffff161462000239576040517f08c379a0000000000000000000000000000000000000000000000000000000008152600401620002309062000532565b60405180910390fd5b806001908051906020019062000251929190620002b7565b507f73422d94aedd596c2d4d39f27a01033adc390a9054efaf259afefd95ef7331df816040516200028391906200050e565b60405180910390a150565b60008060009054906101000a900473ffffffffffffffffffffffffffffffffffffffff16905090565b828054828255906000526020600020908101928215620002f6579160200282015b82811115620002f5578251825591602001919060010190620002d8565b5b50905062000305919062000309565b5090565b5b80821115620003245760008160009055506001016200030a565b5090565b60006200033f62000339846200057d565b62000554565b905080838252602082019050828560208602820111156200035f57600080fd5b60005b85811015620003935781620003788882620003e1565b84526020840193506020830192505060018101905062000362565b5050509392505050565b600082601f830112620003af57600080fd5b8151620003c184826020860162000328565b91505092915050565b600081519050620003db81620006e7565b92915050565b600081519050620003f28162000701565b92915050565b600080604083850312156200040c57600080fd5b60006200041c85828601620003ca565b925050602083015167ffffffffffffffff8111156200043a57600080fd5b62000448858286016200039d565b9150509250929050565b6000620004608383620004fd565b60208301905092915050565b60006200047982620005bc565b620004858185620005d4565b93506200049283620005ac565b8060005b83811015620004c9578151620004ad888262000452565b9750620004ba83620005c7565b92505060018101905062000496565b5085935050505092915050565b6000620004e5602083620005e5565b9150620004f282620006be565b602082019050919050565b62000508816200063e565b82525050565b600060208201905081810360008301526200052a81846200046c565b905092915050565b600060208201905081810360008301526200054d81620004d6565b9050919050565b60006200056062000573565b90506200056e828262000648565b919050565b6000604051905090565b600067ffffffffffffffff8211156200059b576200059a6200067e565b5b602082029050602081019050919050565b6000819050602082019050919050565b600081519050919050565b6000602082019050919050565b600082825260208201905092915050565b600082825260208201905092915050565b600062000603826200061e565b9050919050565b60006200061782620005f6565b9050919050565b600073ffffffffffffffffffffffffffffffffffffffff82169050919050565b6000819050919050565b6200065382620006ad565b810181811067ffffffffffffffff821117156200067557620006746200067e565b5b80604052505050565b7f4e487b7100000000000000000000000000000000000000000000000000000000600052604160045260246000fd5b6000601f19601f8301169050919050565b7f4f776e61626c653a2063616c6c6572206973206e6f7420746865206f776e6572600082015250565b620006f2816200060a565b8114620006fe57600080fd5b50565b6200070c816200063e565b81146200071857600080fd5b50565b6117ad806200072b6000396000f3fe608060405234801561001057600080fd5b50600436106100bb576000357c01000000000000000000000000000000000000000000000000000000009004806389fce6191161008357806389fce619146101625780638da5cb5b14610192578063a34e3596146101b0578063c8a4271f146101e0578063f2fde38b146101fe576100bb565b806301ffc9a7146100c057806306d5d0b6146100f0578063715018a61461012057806379cf92d31461012a5780637adbf97314610146575b600080fd5b6100da60048036038101906100d59190610fab565b61021a565b6040516100e7919061127f565b60405180910390f35b61010a60048036038101906101059190611112565b61030e565b60405161011791906112f5565b60405180910390f35b610128610332565b005b610144600480360381019061013f9190610f6a565b6103ba565b005b610160600480360381019061015b9190610fd4565b610487565b005b61017c60048036038101906101779190611092565b61057e565b60405161018991906112f5565b60405180910390f35b61019a6106d2565b6040516101a79190611242565b60405180910390f35b6101ca60048036038101906101c59190611026565b6106fb565b6040516101d791906112f5565b60405180910390f35b6101e861075e565b6040516101f5919061129a565b60405180910390f35b61021860048036038101906102139190610f41565b610784565b005b60007f01ffc9a7a5cef8baa21ed3c5c0d7e23accb804b619e9333b597f47a0d84076e27bffffffffffffffffffffffffffffffffffffffffffffffffffffffff1916827bffffffffffffffffffffffffffffffffffffffffffffffffffffffff1916148061030757507fa34e3596c835a2bb0c76af3bc7896686f9d9abbb37ea27272246c0e9dab761c57f50e9a715a506f81ba3cfca69197fa8231c19274521697ca4e52316238d69d8a9187bffffffffffffffffffffffffffffffffffffffffffffffffffffffff1916827bffffffffffffffffffffffffffffffffffffffffffffffffffffffff1916145b9050919050565b6001818154811061031e57600080fd5b906000526020600020016000915090505481565b61033a61087c565b73ffffffffffffffffffffffffffffffffffffffff166103586106d2565b73ffffffffffffffffffffffffffffffffffffffff16146103ae576040517f08c379a00000000000000000000000000000000000000000000000000000000081526004016103a5906112d5565b60405180910390fd5b6103b86000610884565b565b6103c261087c565b73ffffffffffffffffffffffffffffffffffffffff166103e06106d2565b73ffffffffffffffffffffffffffffffffffffffff1614610436576040517f08c379a000000000000000000000000000000000000000000000000000000000815260040161042d906112d5565b60405180910390fd5b806001908051906020019061044c929190610d8e565b507f73422d94aedd596c2d4d39f27a01033adc390a9054efaf259afefd95ef7331df8160405161047c919061125d565b60405180910390a150565b61048f61087c565b73ffffffffffffffffffffffffffffffffffffffff166104ad6106d2565b73ffffffffffffffffffffffffffffffffffffffff1614610503576040517f08c379a00000000000000000000000000000000000000000000000000000000081526004016104fa906112d5565b60405180910390fd5b80600260006101000a81548173ffffffffffffffffffffffffffffffffffffffff021916908373ffffffffffffffffffffffffffffffffffffffff1602179055507f0e05ae75e8b926552cf6fcd744d19f422561e3ced1e426868730852702dbe418816040516105739190611242565b60405180910390a150565b6000806105ce87878080601f016020809104026020016040519081016040528093929190818152602001838380828437600081840152601f19601f82011690508083019250505050505050610948565b90506001805490508111156105e65760018054905090505b600081116105f357600080fd5b60006106578560018085610607919061148c565b8154811061063e577f4e487b7100000000000000000000000000000000000000000000000000000000600052603260045260246000fd5b9060005260206000200154610bfe90919063ffffffff16565b90506106ba6106ab89898080601f016020809104026020016040519081016040528093929190818152602001838380828437600081840152601f19601f820116905080830192505050505050508888610c43565b82610c4c90919063ffffffff16565b90506106c581610c74565b9250505095945050505050565b60008060009054906101000a900473ffffffffffffffffffffffffffffffffffffffff16905090565b600061075461074f86868080601f016020809104026020016040519081016040528093929190818152602001838380828437600081840152601f19601f820116905080830192505050505050508585610c43565b610c74565b9050949350505050565b600260009054906101000a900473ffffffffffffffffffffffffffffffffffffffff1681565b61078c61087c565b73ffffffffffffffffffffffffffffffffffffffff166107aa6106d2565b73ffffffffffffffffffffffffffffffffffffffff1614610800576040517f08c379a00000000000000000000000000000000000000000000000000000000081526004016107f7906112d5565b60405180910390fd5b600073ffffffffffffffffffffffffffffffffffffffff168173ffffffffffffffffffffffffffffffffffffffff161415610870576040517f08c379a0000000000000000000000000000000000000000000000000000000008152600401610867906112b5565b60405180910390fd5b61087981610884565b50565b600033905090565b60008060009054906101000a900473ffffffffffffffffffffffffffffffffffffffff169050816000806101000a81548173ffffffffffffffffffffffffffffffffffffffff021916908373ffffffffffffffffffffffffffffffffffffffff1602179055508173ffffffffffffffffffffffffffffffffffffffff168173ffffffffffffffffffffffffffffffffffffffff167f8be0079c531659141344cd1fd0a4f28419497f9722a3daafe3b4186f6b6457e060405160405180910390a35050565b60008060008084519050600092505b80821015610bf357600085838151811061099a577f4e487b7100000000000000000000000000000000000000000000000000000000600052603260045260246000fd5b60200101517f010000000000000000000000000000000000000000000000000000000000000090047f010000000000000000000000000000000000000000000000000000000000000002905060807f010000000000000000000000000000000000000000000000000000000000000002817effffffffffffffffffffffffffffffffffffffffffffffffffffffffffffff19161015610a4757600183610a4091906113ab565b9250610bdf565b60e07f010000000000000000000000000000000000000000000000000000000000000002817effffffffffffffffffffffffffffffffffffffffffffffffffffffffffffff19161015610aa857600283610aa191906113ab565b9250610bde565b60f07f010000000000000000000000000000000000000000000000000000000000000002817effffffffffffffffffffffffffffffffffffffffffffffffffffffffffffff19161015610b0957600383610b0291906113ab565b9250610bdd565b60f87f010000000000000000000000000000000000000000000000000000000000000002817effffffffffffffffffffffffffffffffffffffffffffffffffffffffffffff19161015610b6a57600483610b6391906113ab565b9250610bdc565b60fc7f010000000000000000000000000000000000000000000000000000000000000002817effffffffffffffffffffffffffffffffffffffffffffffffffffffffffffff19161015610bcb57600583610bc491906113ab565b9250610bdb565b600683610bd891906113ab565b92505b5b5b5b5b508280610beb906115a5565b935050610957565b829350505050919050565b600080831415610c115760009050610c3d565b60008284610c1f9190611432565b9050828482610c2e9190611401565b14610c3857600080fd5b809150505b92915050565b60009392505050565b6000808284610c5b91906113ab565b905083811015610c6a57600080fd5b8091505092915050565b600080600260009054906101000a900473ffffffffffffffffffffffffffffffffffffffff1673ffffffffffffffffffffffffffffffffffffffff166350d25bcd6040518163ffffffff167c010000000000000000000000000000000000000000000000000000000002815260040160206040518083038186803b158015610cfb57600080fd5b505afa158015610d0f573d6000803e3d6000fd5b505050506040513d601f19601f82011682018060405250810190610d339190610ffd565b9050610d5e81610d506305f5e10086610bfe90919063ffffffff16565b610d6690919063ffffffff16565b915050919050565b6000808211610d7457600080fd5b60008284610d829190611401565b90508091505092915050565b828054828255906000526020600020908101928215610dca579160200282015b82811115610dc9578251825591602001919060010190610dae565b5b509050610dd79190610ddb565b5090565b5b80821115610df4576000816000905550600101610ddc565b5090565b6000610e0b610e0684611335565b611310565b90508083825260208201905082856020860282011115610e2a57600080fd5b60005b85811015610e5a5781610e408882610f2c565b845260208401935060208301925050600181019050610e2d565b5050509392505050565b600081359050610e7381611704565b92915050565b600082601f830112610e8a57600080fd5b8135610e9a848260208601610df8565b91505092915050565b600081359050610eb28161171b565b92915050565b600081359050610ec781611732565b92915050565b600081519050610edc81611749565b92915050565b60008083601f840112610ef457600080fd5b8235905067ffffffffffffffff811115610f0d57600080fd5b602083019150836001820283011115610f2557600080fd5b9250929050565b600081359050610f3b81611760565b92915050565b600060208284031215610f5357600080fd5b6000610f6184828501610e64565b91505092915050565b600060208284031215610f7c57600080fd5b600082013567ffffffffffffffff811115610f9657600080fd5b610fa284828501610e79565b91505092915050565b600060208284031215610fbd57600080fd5b6000610fcb84828501610ea3565b91505092915050565b600060208284031215610fe657600080fd5b6000610ff484828501610eb8565b91505092915050565b60006020828403121561100f57600080fd5b600061101d84828501610ecd565b91505092915050565b6000806000806060858703121561103c57600080fd5b600085013567ffffffffffffffff81111561105657600080fd5b61106287828801610ee2565b9450945050602061107587828801610f2c565b925050604061108687828801610f2c565b91505092959194509250565b6000806000806000608086880312156110aa57600080fd5b600086013567ffffffffffffffff8111156110c457600080fd5b6110d088828901610ee2565b955095505060206110e388828901610f2c565b93505060406110f488828901610f2c565b925050606061110588828901610e64565b9150509295509295909350565b60006020828403121561112457600080fd5b600061113284828501610f2c565b91505092915050565b60006111478383611224565b60208301905092915050565b61115c816114c0565b82525050565b600061116d82611371565b6111778185611389565b935061118283611361565b8060005b838110156111b357815161119a888261113b565b97506111a58361137c565b925050600181019050611186565b5085935050505092915050565b6111c9816114d2565b82525050565b6111d881611550565b82525050565b60006111eb60268361139a565b91506111f68261168c565b604082019050919050565b600061120e60208361139a565b9150611219826116db565b602082019050919050565b61122d81611546565b82525050565b61123c81611546565b82525050565b60006020820190506112576000830184611153565b92915050565b600060208201905081810360008301526112778184611162565b905092915050565b600060208201905061129460008301846111c0565b92915050565b60006020820190506112af60008301846111cf565b92915050565b600060208201905081810360008301526112ce816111de565b9050919050565b600060208201905081810360008301526112ee81611201565b9050919050565b600060208201905061130a6000830184611233565b92915050565b600061131a61132b565b90506113268282611574565b919050565b6000604051905090565b600067ffffffffffffffff8211156113505761134f61164c565b5b602082029050602081019050919050565b6000819050602082019050919050565b600081519050919050565b6000602082019050919050565b600082825260208201905092915050565b600082825260208201905092915050565b60006113b682611546565b91506113c183611546565b9250827fffffffffffffffffffffffffffffffffffffffffffffffffffffffffffffffff038211156113f6576113f56115ee565b5b828201905092915050565b600061140c82611546565b915061141783611546565b9250826114275761142661161d565b5b828204905092915050565b600061143d82611546565b915061144883611546565b9250817fffffffffffffffffffffffffffffffffffffffffffffffffffffffffffffffff0483118215151615611481576114806115ee565b5b828202905092915050565b600061149782611546565b91506114a283611546565b9250828210156114b5576114b46115ee565b5b828203905092915050565b60006114cb82611526565b9050919050565b60008115159050919050565b60007fffffffff0000000000000000000000000000000000000000000000000000000082169050919050565b6000611515826114c0565b9050919050565b6000819050919050565b600073ffffffffffffffffffffffffffffffffffffffff82169050919050565b6000819050919050565b600061155b82611562565b9050919050565b600061156d82611526565b9050919050565b61157d8261167b565b810181811067ffffffffffffffff8211171561159c5761159b61164c565b5b80604052505050565b60006115b082611546565b91507fffffffffffffffffffffffffffffffffffffffffffffffffffffffffffffffff8214156115e3576115e26115ee565b5b600182019050919050565b7f4e487b7100000000000000000000000000000000000000000000000000000000600052601160045260246000fd5b7f4e487b7100000000000000000000000000000000000000000000000000000000600052601260045260246000fd5b7f4e487b7100000000000000000000000000000000000000000000000000000000600052604160045260246000fd5b6000601f19601f8301169050919050565b7f4f776e61626c653a206e6577206f776e657220697320746865207a65726f206160008201527f6464726573730000000000000000000000000000000000000000000000000000602082015250565b7f4f776e61626c653a2063616c6c6572206973206e6f7420746865206f776e6572600082015250565b61170d816114c0565b811461171857600080fd5b50565b611724816114de565b811461172f57600080fd5b50565b61173b8161150a565b811461174657600080fd5b50565b6117528161151c565b811461175d57600080fd5b50565b61176981611546565b811461177457600080fd5b5056fea264697066735822122013d3ef6117b01caab909c12485bd95226ee86b89a0b0617fdd0882041c8925b664736f6c63430008040033",
  "immutableReferences": {},
  "source": "// SPDX-License-Identifier: UNLICCNSED\n\npragma solidity >=0.8.4;\n\nimport \"./PriceOracle.sol\";\nimport \"./SafeMath.sol\";\nimport \"./StringUtils.sol\";\nimport \"@openzeppelin/contracts/access/Ownable.sol\";\n\ninterface AggregatorInterface {\n  function latestAnswer() external view returns (int256);\n}\n\n\n// StablePriceOracle sets a price in USD, based on an oracle.\ncontract StablePriceOracle is Ownable, PriceOracle {\n    using SafeMath for *;\n    using StringUtils for *;\n\n    // Rent in base price units by length. Element 0 is for 1-length names, and so on.\n    uint[] public rentPrices;\n\n    // Oracle address\n    AggregatorInterface public usdOracle;\n\n    event OracleChanged(address oracle);\n\n    event RentPriceChanged(uint[] prices);\n\n    bytes4 constant private INTERFACE_META_ID = bytes4(keccak256(\"supportsInterface(bytes4)\"));\n    bytes4 constant private ORACLE_ID = bytes4(keccak256(\"price(string,uint256,uint256)\") ^ keccak256(\"premium(string,uint256,uint256)\"));\n\n    constructor(AggregatorInterface _usdOracle, uint[] memory _rentPrices) {\n        usdOracle = _usdOracle;\n        setPrices(_rentPrices);\n    }\n\n    function price(string calldata name, uint expires, uint duration,address dealer) external view override returns(uint) {\n        uint len = name.strlen();\n        if(len > rentPrices.length) {\n            len = rentPrices.length;\n        }\n        require(len > 0);\n        \n        uint basePrice = rentPrices[len - 1].mul(duration);\n        basePrice = basePrice.add(_premium(name, expires, duration));\n\n        return attoUSDToWei(basePrice);\n    }\n\n    /**\n     * @dev Sets rent prices.\n     * @param _rentPrices The price array. Each element corresponds to a specific\n     *                    name length; names longer than the length of the array\n     *                    default to the price of the last element. Values are\n     *                    in base price units, equal to one attodollar (1e-18\n     *                    dollar) each.\n     */\n    function setPrices(uint[] memory _rentPrices) public onlyOwner {\n        rentPrices = _rentPrices;\n        emit RentPriceChanged(_rentPrices);\n    }\n\n    /**\n     * @dev Sets the price oracle address\n     * @param _usdOracle The address of the price oracle to use.\n     */\n    function setOracle(AggregatorInterface _usdOracle) public onlyOwner {\n        usdOracle = _usdOracle;\n        emit OracleChanged(address(_usdOracle));\n    }\n\n    /**\n     * @dev Returns the pricing premium in wei.\n     */\n    function premium(string calldata name, uint expires, uint duration) external view returns(uint) {\n        return attoUSDToWei(_premium(name, expires, duration));\n    }\n\n    /**\n     * @dev Returns the pricing premium in internal base units.\n     */\n    function _premium(string memory name, uint expires, uint duration) virtual internal view returns(uint) {\n        return 0;\n    }\n\n    function attoUSDToWei(uint amount) internal view returns(uint) {\n        uint ethPrice = uint(usdOracle.latestAnswer());\n        return amount.mul(1e8).div(ethPrice);\n    }\n\n    function weiToAttoUSD(uint amount) internal view returns(uint) {\n        uint ethPrice = uint(usdOracle.latestAnswer());\n        return amount.mul(ethPrice).div(1e8);\n    }\n\n    function supportsInterface(bytes4 interfaceID) public view virtual returns (bool) {\n        return interfaceID == INTERFACE_META_ID || interfaceID == ORACLE_ID;\n    }\n}\n",
  "sourcePath": "/Users/yzbbanban/Downloads/money/chk/nftbox/bns/yns-sol-master-025696b23c531f8117f2fb03dee6f8c96f21692e/contracts/ynsregistry/StablePriceOracle.sol",
  "compiler": {
    "name": "solc",
    "version": "0.8.4+commit.c7e474f2.Emscripten.clang"
  },
  "schemaVersion": "3.4.3",
  "updatedAt": "2022-08-20T14:34:01.416Z",
  "devdoc": {
    "kind": "dev",
    "methods": {
      "owner()": {
        "details": "Returns the address of the current owner."
      },
      "premium(string,uint256,uint256)": {
        "details": "Returns the pricing premium in wei."
      },
      "price(string,uint256,uint256,address)": {
        "details": "Returns the price to register or renew a name.",
        "params": {
          "duration": "How long the name is being registered or extended for, in seconds.",
          "expires": "When the name presently expires (0 if this is a new registration).",
          "name": "The name being registered or renewed."
        },
        "returns": {
          "_0": "The price of this renewal or registration, in wei."
        }
      },
      "renounceOwnership()": {
        "details": "Leaves the contract without owner. It will not be possible to call `onlyOwner` functions anymore. Can only be called by the current owner. NOTE: Renouncing ownership will leave the contract without an owner, thereby removing any functionality that is only available to the owner."
      },
      "setOracle(address)": {
        "details": "Sets the price oracle address",
        "params": {
          "_usdOracle": "The address of the price oracle to use."
        }
      },
      "setPrices(uint256[])": {
        "details": "Sets rent prices.",
        "params": {
          "_rentPrices": "The price array. Each element corresponds to a specific                    name length; names longer than the length of the array                    default to the price of the last element. Values are                    in base price units, equal to one attodollar (1e-18                    dollar) each."
        }
      },
      "transferOwnership(address)": {
        "details": "Transfers ownership of the contract to a new account (`newOwner`). Can only be called by the current owner."
      }
    },
    "version": 1
  },
  "userdoc": {
    "kind": "user",
    "methods": {},
    "version": 1
  }
}