{
  "contractName": "TestNft",
  "abi": [
    {
      "inputs": [],
      "stateMutability": "nonpayable",
      "type": "constructor"
    },
    {
      "anonymous": false,
      "inputs": [
        {
          "indexed": true,
          "internalType": "address",
          "name": "owner",
          "type": "address"
        },
        {
          "indexed": true,
          "internalType": "address",
          "name": "approved",
          "type": "address"
        },
        {
          "indexed": true,
          "internalType": "uint256",
          "name": "tokenId",
          "type": "uint256"
        }
      ],
      "name": "Approval",
      "type": "event"
    },
    {
      "anonymous": false,
      "inputs": [
        {
          "indexed": true,
          "internalType": "address",
          "name": "owner",
          "type": "address"
        },
        {
          "indexed": true,
          "internalType": "address",
          "name": "operator",
          "type": "address"
        },
        {
          "indexed": false,
          "internalType": "bool",
          "name": "approved",
          "type": "bool"
        }
      ],
      "name": "ApprovalForAll",
      "type": "event"
    },
    {
      "anonymous": false,
      "inputs": [
        {
          "indexed": true,
          "internalType": "address",
          "name": "controller",
          "type": "address"
        }
      ],
      "name": "ControllerAdded",
      "type": "event"
    },
    {
      "anonymous": false,
      "inputs": [
        {
          "indexed": true,
          "internalType": "address",
          "name": "controller",
          "type": "address"
        }
      ],
      "name": "ControllerRemoved",
      "type": "event"
    },
    {
      "anonymous": false,
      "inputs": [
        {
          "indexed": true,
          "internalType": "uint256",
          "name": "id",
          "type": "uint256"
        },
        {
          "indexed": true,
          "internalType": "address",
          "name": "owner",
          "type": "address"
        },
        {
          "indexed": false,
          "internalType": "uint256",
          "name": "expires",
          "type": "uint256"
        }
      ],
      "name": "NameMigrated",
      "type": "event"
    },
    {
      "anonymous": false,
      "inputs": [
        {
          "indexed": true,
          "internalType": "uint256",
          "name": "id",
          "type": "uint256"
        },
        {
          "indexed": true,
          "internalType": "address",
          "name": "owner",
          "type": "address"
        },
        {
          "indexed": false,
          "internalType": "uint256",
          "name": "expires",
          "type": "uint256"
        }
      ],
      "name": "NameRegistered",
      "type": "event"
    },
    {
      "anonymous": false,
      "inputs": [
        {
          "indexed": true,
          "internalType": "uint256",
          "name": "id",
          "type": "uint256"
        },
        {
          "indexed": false,
          "internalType": "uint256",
          "name": "expires",
          "type": "uint256"
        }
      ],
      "name": "NameRenewed",
      "type": "event"
    },
    {
      "anonymous": false,
      "inputs": [
        {
          "indexed": true,
          "internalType": "address",
          "name": "previousOwner",
          "type": "address"
        },
        {
          "indexed": true,
          "internalType": "address",
          "name": "newOwner",
          "type": "address"
        }
      ],
      "name": "OwnershipTransferred",
      "type": "event"
    },
    {
      "anonymous": false,
      "inputs": [
        {
          "indexed": true,
          "internalType": "address",
          "name": "from",
          "type": "address"
        },
        {
          "indexed": true,
          "internalType": "address",
          "name": "to",
          "type": "address"
        },
        {
          "indexed": true,
          "internalType": "uint256",
          "name": "tokenId",
          "type": "uint256"
        }
      ],
      "name": "Transfer",
      "type": "event"
    },
    {
      "inputs": [],
      "name": "GRACE_PERIOD",
      "outputs": [
        {
          "internalType": "uint256",
          "name": "",
          "type": "uint256"
        }
      ],
      "stateMutability": "view",
      "type": "function"
    },
    {
      "inputs": [
        {
          "internalType": "address",
          "name": "to",
          "type": "address"
        },
        {
          "internalType": "uint256",
          "name": "tokenId",
          "type": "uint256"
        }
      ],
      "name": "approve",
      "outputs": [],
      "stateMutability": "nonpayable",
      "type": "function"
    },
    {
      "inputs": [
        {
          "internalType": "address",
          "name": "owner",
          "type": "address"
        }
      ],
      "name": "balanceOf",
      "outputs": [
        {
          "internalType": "uint256",
          "name": "",
          "type": "uint256"
        }
      ],
      "stateMutability": "view",
      "type": "function"
    },
    {
      "inputs": [],
      "name": "baseNode",
      "outputs": [
        {
          "internalType": "bytes32",
          "name": "",
          "type": "bytes32"
        }
      ],
      "stateMutability": "view",
      "type": "function"
    },
    {
      "inputs": [],
      "name": "baseURI",
      "outputs": [
        {
          "internalType": "string",
          "name": "",
          "type": "string"
        }
      ],
      "stateMutability": "view",
      "type": "function"
    },
    {
      "inputs": [],
      "name": "cns",
      "outputs": [
        {
          "internalType": "contract CNS",
          "name": "",
          "type": "address"
        }
      ],
      "stateMutability": "view",
      "type": "function"
    },
    {
      "inputs": [
        {
          "internalType": "address",
          "name": "",
          "type": "address"
        }
      ],
      "name": "controllers",
      "outputs": [
        {
          "internalType": "bool",
          "name": "",
          "type": "bool"
        }
      ],
      "stateMutability": "view",
      "type": "function"
    },
    {
      "inputs": [
        {
          "internalType": "uint256",
          "name": "tokenId",
          "type": "uint256"
        }
      ],
      "name": "getApproved",
      "outputs": [
        {
          "internalType": "address",
          "name": "",
          "type": "address"
        }
      ],
      "stateMutability": "view",
      "type": "function"
    },
    {
      "inputs": [
        {
          "internalType": "address",
          "name": "owner",
          "type": "address"
        },
        {
          "internalType": "address",
          "name": "operator",
          "type": "address"
        }
      ],
      "name": "isApprovedForAll",
      "outputs": [
        {
          "internalType": "bool",
          "name": "",
          "type": "bool"
        }
      ],
      "stateMutability": "view",
      "type": "function"
    },
    {
      "inputs": [],
      "name": "name",
      "outputs": [
        {
          "internalType": "string",
          "name": "",
          "type": "string"
        }
      ],
      "stateMutability": "view",
      "type": "function"
    },
    {
      "inputs": [],
      "name": "owner",
      "outputs": [
        {
          "internalType": "address",
          "name": "",
          "type": "address"
        }
      ],
      "stateMutability": "view",
      "type": "function"
    },
    {
      "inputs": [],
      "name": "renounceOwnership",
      "outputs": [],
      "stateMutability": "nonpayable",
      "type": "function"
    },
    {
      "inputs": [
        {
          "internalType": "address",
          "name": "from",
          "type": "address"
        },
        {
          "internalType": "address",
          "name": "to",
          "type": "address"
        },
        {
          "internalType": "uint256",
          "name": "tokenId",
          "type": "uint256"
        }
      ],
      "name": "safeTransferFrom",
      "outputs": [],
      "stateMutability": "nonpayable",
      "type": "function"
    },
    {
      "inputs": [
        {
          "internalType": "address",
          "name": "from",
          "type": "address"
        },
        {
          "internalType": "address",
          "name": "to",
          "type": "address"
        },
        {
          "internalType": "uint256",
          "name": "tokenId",
          "type": "uint256"
        },
        {
          "internalType": "bytes",
          "name": "_data",
          "type": "bytes"
        }
      ],
      "name": "safeTransferFrom",
      "outputs": [],
      "stateMutability": "nonpayable",
      "type": "function"
    },
    {
      "inputs": [
        {
          "internalType": "address",
          "name": "operator",
          "type": "address"
        },
        {
          "internalType": "bool",
          "name": "approved",
          "type": "bool"
        }
      ],
      "name": "setApprovalForAll",
      "outputs": [],
      "stateMutability": "nonpayable",
      "type": "function"
    },
    {
      "inputs": [
        {
          "internalType": "bytes4",
          "name": "interfaceId",
          "type": "bytes4"
        }
      ],
      "name": "supportsInterface",
      "outputs": [
        {
          "internalType": "bool",
          "name": "",
          "type": "bool"
        }
      ],
      "stateMutability": "view",
      "type": "function"
    },
    {
      "inputs": [],
      "name": "symbol",
      "outputs": [
        {
          "internalType": "string",
          "name": "",
          "type": "string"
        }
      ],
      "stateMutability": "view",
      "type": "function"
    },
    {
      "inputs": [
        {
          "internalType": "uint256",
          "name": "index",
          "type": "uint256"
        }
      ],
      "name": "tokenByIndex",
      "outputs": [
        {
          "internalType": "uint256",
          "name": "",
          "type": "uint256"
        }
      ],
      "stateMutability": "view",
      "type": "function"
    },
    {
      "inputs": [
        {
          "internalType": "address",
          "name": "owner",
          "type": "address"
        },
        {
          "internalType": "uint256",
          "name": "index",
          "type": "uint256"
        }
      ],
      "name": "tokenOfOwnerByIndex",
      "outputs": [
        {
          "internalType": "uint256",
          "name": "",
          "type": "uint256"
        }
      ],
      "stateMutability": "view",
      "type": "function"
    },
    {
      "inputs": [
        {
          "internalType": "uint256",
          "name": "tokenId",
          "type": "uint256"
        }
      ],
      "name": "tokenURI",
      "outputs": [
        {
          "internalType": "string",
          "name": "",
          "type": "string"
        }
      ],
      "stateMutability": "view",
      "type": "function"
    },
    {
      "inputs": [],
      "name": "totalSupply",
      "outputs": [
        {
          "internalType": "uint256",
          "name": "",
          "type": "uint256"
        }
      ],
      "stateMutability": "view",
      "type": "function"
    },
    {
      "inputs": [
        {
          "internalType": "address",
          "name": "from",
          "type": "address"
        },
        {
          "internalType": "address",
          "name": "to",
          "type": "address"
        },
        {
          "internalType": "uint256",
          "name": "tokenId",
          "type": "uint256"
        }
      ],
      "name": "transferFrom",
      "outputs": [],
      "stateMutability": "nonpayable",
      "type": "function"
    },
    {
      "inputs": [
        {
          "internalType": "address",
          "name": "newOwner",
          "type": "address"
        }
      ],
      "name": "transferOwnership",
      "outputs": [],
      "stateMutability": "nonpayable",
      "type": "function"
    },
    {
      "inputs": [
        {
          "internalType": "uint256",
          "name": "tokenId",
          "type": "uint256"
        }
      ],
      "name": "ownerOf",
      "outputs": [
        {
          "internalType": "address",
          "name": "",
          "type": "address"
        }
      ],
      "stateMutability": "view",
      "type": "function"
    },
    {
      "inputs": [
        {
          "internalType": "string",
          "name": "_base",
          "type": "string"
        }
      ],
      "name": "setBaseURI",
      "outputs": [],
      "stateMutability": "nonpayable",
      "type": "function"
    },
    {
      "inputs": [
        {
          "internalType": "address",
          "name": "controller",
          "type": "address"
        }
      ],
      "name": "addController",
      "outputs": [],
      "stateMutability": "nonpayable",
      "type": "function"
    },
    {
      "inputs": [
        {
          "internalType": "address",
          "name": "controller",
          "type": "address"
        }
      ],
      "name": "removeController",
      "outputs": [],
      "stateMutability": "nonpayable",
      "type": "function"
    },
    {
      "inputs": [
        {
          "internalType": "address",
          "name": "resolver",
          "type": "address"
        }
      ],
      "name": "setResolver",
      "outputs": [],
      "stateMutability": "nonpayable",
      "type": "function"
    },
    {
      "inputs": [
        {
          "internalType": "uint256",
          "name": "id",
          "type": "uint256"
        }
      ],
      "name": "nameExpires",
      "outputs": [
        {
          "internalType": "uint256",
          "name": "",
          "type": "uint256"
        }
      ],
      "stateMutability": "view",
      "type": "function"
    },
    {
      "inputs": [
        {
          "internalType": "uint256",
          "name": "id",
          "type": "uint256"
        }
      ],
      "name": "available",
      "outputs": [
        {
          "internalType": "bool",
          "name": "",
          "type": "bool"
        }
      ],
      "stateMutability": "view",
      "type": "function"
    },
    {
      "inputs": [
        {
          "internalType": "uint256",
          "name": "id",
          "type": "uint256"
        },
        {
          "internalType": "address",
          "name": "owner",
          "type": "address"
        },
        {
          "internalType": "uint256",
          "name": "duration",
          "type": "uint256"
        }
      ],
      "name": "register",
      "outputs": [
        {
          "internalType": "uint256",
          "name": "",
          "type": "uint256"
        }
      ],
      "stateMutability": "nonpayable",
      "type": "function"
    },
    {
      "inputs": [
        {
          "internalType": "uint256",
          "name": "id",
          "type": "uint256"
        },
        {
          "internalType": "address",
          "name": "owner",
          "type": "address"
        },
        {
          "internalType": "uint256",
          "name": "duration",
          "type": "uint256"
        }
      ],
      "name": "registerOnly",
      "outputs": [
        {
          "internalType": "uint256",
          "name": "",
          "type": "uint256"
        }
      ],
      "stateMutability": "nonpayable",
      "type": "function"
    },
    {
      "inputs": [
        {
          "internalType": "uint256",
          "name": "id",
          "type": "uint256"
        },
        {
          "internalType": "uint256",
          "name": "duration",
          "type": "uint256"
        }
      ],
      "name": "renew",
      "outputs": [
        {
          "internalType": "uint256",
          "name": "",
          "type": "uint256"
        }
      ],
      "stateMutability": "nonpayable",
      "type": "function"
    },
    {
      "inputs": [
        {
          "internalType": "uint256",
          "name": "id",
          "type": "uint256"
        },
        {
          "internalType": "address",
          "name": "owner",
          "type": "address"
        }
      ],
      "name": "reclaim",
      "outputs": [],
      "stateMutability": "nonpayable",
      "type": "function"
    }
  ],
  "bytecode": "0x60806040523480156200001157600080fd5b506040518060400160405280601481526020017f436f6e666c7578204e616d6520536572766963650000000000000000000000008152506040518060400160405280600381526020017f434e530000000000000000000000000000000000000000000000000000000000815250620000b06200009b620000ea640100000000026401000000009004565b620000f2640100000000026401000000009004565b8160019080519060200190620000c8929190620001b6565b508060029080519060200190620000e1929190620001b6565b505050620002cb565b600033905090565b60008060009054906101000a900473ffffffffffffffffffffffffffffffffffffffff169050816000806101000a81548173ffffffffffffffffffffffffffffffffffffffff021916908373ffffffffffffffffffffffffffffffffffffffff1602179055508173ffffffffffffffffffffffffffffffffffffffff168173ffffffffffffffffffffffffffffffffffffffff167f8be0079c531659141344cd1fd0a4f28419497f9722a3daafe3b4186f6b6457e060405160405180910390a35050565b828054620001c49062000266565b90600052602060002090601f016020900481019282620001e8576000855562000234565b82601f106200020357805160ff191683800117855562000234565b8280016001018555821562000234579182015b828111156200023357825182559160200191906001019062000216565b5b50905062000243919062000247565b5090565b5b808211156200026257600081600090555060010162000248565b5090565b600060028204905060018216806200027f57607f821691505b602082108114156200029657620002956200029c565b5b50919050565b7f4e487b7100000000000000000000000000000000000000000000000000000000600052602260045260246000fd5b6147e080620002db6000396000f3fe608060405234801561001057600080fd5b5060043610610223576000357c0100000000000000000000000000000000000000000000000000000000900480638da5cb5b11610137578063c87b56dd116100ca578063e985e9c511610099578063e985e9c514610640578063f1c248b114610670578063f2fde38b1461068e578063f6a74ed7146106aa578063fca247ac146106c657610223565b8063c87b56dd14610592578063d6e4fa86146105c2578063da8c229e146105f2578063ddf7fcb01461062257610223565b8063a7fc7a0711610106578063a7fc7a071461050c578063b88d4fde14610528578063c1a287e214610544578063c475abff1461056257610223565b80638da5cb5b1461048457806395d89b41146104a257806396e494e8146104c0578063a22cb465146104f057610223565b80632f745c59116101ba57806355f804b31161018957806355f804b3146103e05780636352211e146103fc5780636c0360eb1461042c57806370a082311461044a578063715018a61461047a57610223565b80632f745c591461034857806342842e0e146103785780634e543b26146103945780634f6ccce7146103b057610223565b80630e297b45116101f65780630e297b45146102c257806318160ddd146102f257806323b872dd1461031057806328ed4f6c1461032c57610223565b806301ffc9a71461022857806306fdde0314610258578063081812fc14610276578063095ea7b3146102a6575b600080fd5b610242600480360381019061023d919061344a565b6106f6565b60405161024f9190613a25565b60405180910390f35b610260610770565b60405161026d9190613ad6565b60405180910390f35b610290600480360381019061028b91906134dd565b610802565b60405161029d91906139be565b60405180910390f35b6102c060048036038101906102bb91906133e5565b610887565b005b6102dc60048036038101906102d79190613542565b61099f565b6040516102e99190613d98565b60405180910390f35b6102fa6109b7565b6040516103079190613d98565b60405180910390f35b61032a600480360381019061032591906132df565b6109c4565b005b61034660048036038101906103419190613506565b610a24565b005b610362600480360381019061035d91906133e5565b610c44565b60405161036f9190613d98565b60405180910390f35b610392600480360381019061038d91906132df565b610ce9565b005b6103ae60048036038101906103a99190613251565b610d09565b005b6103ca60048036038101906103c591906134dd565b610e35565b6040516103d79190613d98565b60405180910390f35b6103fa60048036038101906103f5919061349c565b610ecc565b005b610416600480360381019061041191906134dd565b610f62565b60405161042391906139be565b60405180910390f35b610434610f93565b6040516104419190613ad6565b60405180910390f35b610464600480360381019061045f9190613251565b611021565b6040516104719190613d98565b60405180910390f35b6104826110d9565b005b61048c611161565b60405161049991906139be565b60405180910390f35b6104aa61118a565b6040516104b79190613ad6565b60405180910390f35b6104da60048036038101906104d591906134dd565b61121c565b6040516104e79190613a25565b60405180910390f35b61050a600480360381019061050591906133a9565b611249565b005b61052660048036038101906105219190613251565b6113ca565b005b610542600480360381019061053d919061332e565b6114e4565b005b61054c611546565b6040516105599190613d98565b60405180910390f35b61057c60048036038101906105779190613591565b61154d565b6040516105899190613d98565b60405180910390f35b6105ac60048036038101906105a791906134dd565b611816565b6040516105b99190613ad6565b60405180910390f35b6105dc60048036038101906105d791906134dd565b6118bd565b6040516105e99190613d98565b60405180910390f35b61060c60048036038101906106079190613251565b6118da565b6040516106199190613a25565b60405180910390f35b61062a6118fa565b6040516106379190613a40565b60405180910390f35b61065a600480360381019061065591906132a3565b611900565b6040516106679190613a25565b60405180910390f35b610678611994565b6040516106859190613abb565b60405180910390f35b6106a860048036038101906106a39190613251565b6119ba565b005b6106c460048036038101906106bf9190613251565b611ab2565b005b6106e060048036038101906106db9190613542565b611bcc565b6040516106ed9190613d98565b60405180910390f35b60007f780e9d63000000000000000000000000000000000000000000000000000000007bffffffffffffffffffffffffffffffffffffffffffffffffffffffff1916827bffffffffffffffffffffffffffffffffffffffffffffffffffffffff19161480610769575061076882611be4565b5b9050919050565b60606001805461077f9061401c565b80601f01602080910402602001604051908101604052809291908181526020018280546107ab9061401c565b80156107f85780601f106107cd576101008083540402835291602001916107f8565b820191906000526020600020905b8154815290600101906020018083116107db57829003601f168201915b5050505050905090565b600061080d82611cc6565b61084c576040517f08c379a000000000000000000000000000000000000000000000000000000000815260040161084390613c98565b60405180910390fd5b6005600083815260200190815260200160002060009054906101000a900473ffffffffffffffffffffffffffffffffffffffff169050919050565b600061089282611d32565b90508073ffffffffffffffffffffffffffffffffffffffff168373ffffffffffffffffffffffffffffffffffffffff161415610903576040517f08c379a00000000000000000000000000000000000000000000000000000000081526004016108fa90613d38565b60405180910390fd5b8073ffffffffffffffffffffffffffffffffffffffff16610922611de4565b73ffffffffffffffffffffffffffffffffffffffff16148061095157506109508161094b611de4565b611900565b5b610990576040517f08c379a000000000000000000000000000000000000000000000000000000000815260040161098790613bf8565b60405180910390fd5b61099a8383611dec565b505050565b60006109ae8484846000611ea5565b90509392505050565b6000600980549050905090565b6109d56109cf611de4565b82611fd7565b610a14576040517f08c379a0000000000000000000000000000000000000000000000000000000008152600401610a0b90613d58565b60405180910390fd5b610a1f8383836120b5565b505050565b3073ffffffffffffffffffffffffffffffffffffffff16600b60009054906101000a900473ffffffffffffffffffffffffffffffffffffffff1673ffffffffffffffffffffffffffffffffffffffff166302571be3600c546040518263ffffffff167c0100000000000000000000000000000000000000000000000000000000028152600401610ab49190613a40565b60206040518083038186803b158015610acc57600080fd5b505afa158015610ae0573d6000803e3d6000fd5b505050506040513d601f19601f82011682018060405250810190610b04919061327a565b73ffffffffffffffffffffffffffffffffffffffff1614610b5a576040517f08c379a0000000000000000000000000000000000000000000000000000000008152600401610b5190613b38565b60405180910390fd5b610b643383611fd7565b610b6d57600080fd5b600b60009054906101000a900473ffffffffffffffffffffffffffffffffffffffff1673ffffffffffffffffffffffffffffffffffffffff166306ab5923600c5484600102846040518463ffffffff167c0100000000000000000000000000000000000000000000000000000000028152600401610bed93929190613a84565b602060405180830381600087803b158015610c0757600080fd5b505af1158015610c1b573d6000803e3d6000fd5b505050506040513d601f19601f82011682018060405250810190610c3f9190613421565b505050565b6000610c4f83611021565b8210610c90576040517f08c379a0000000000000000000000000000000000000000000000000000000008152600401610c8790613af8565b60405180910390fd5b600760008473ffffffffffffffffffffffffffffffffffffffff1673ffffffffffffffffffffffffffffffffffffffff168152602001908152602001600020600083815260200190815260200160002054905092915050565b610d04838383604051806020016040528060008152506114e4565b505050565b610d11611de4565b73ffffffffffffffffffffffffffffffffffffffff16610d2f611161565b73ffffffffffffffffffffffffffffffffffffffff1614610d85576040517f08c379a0000000000000000000000000000000000000000000000000000000008152600401610d7c90613cb8565b60405180910390fd5b600b60009054906101000a900473ffffffffffffffffffffffffffffffffffffffff1673ffffffffffffffffffffffffffffffffffffffff16631896f70a600c54836040518363ffffffff167c0100000000000000000000000000000000000000000000000000000000028152600401610e00929190613a5b565b600060405180830381600087803b158015610e1a57600080fd5b505af1158015610e2e573d6000803e3d6000fd5b5050505050565b6000610e3f6109b7565b8210610e80576040517f08c379a0000000000000000000000000000000000000000000000000000000008152600401610e7790613d78565b60405180910390fd5b60098281548110610eba577f4e487b7100000000000000000000000000000000000000000000000000000000600052603260045260246000fd5b90600052602060002001549050919050565b610ed4611de4565b73ffffffffffffffffffffffffffffffffffffffff16610ef2611161565b73ffffffffffffffffffffffffffffffffffffffff1614610f48576040517f08c379a0000000000000000000000000000000000000000000000000000000008152600401610f3f90613cb8565b60405180910390fd5b80600f9080519060200190610f5e92919061304b565b5050565b600042600e60008481526020019081526020016000205411610f8357600080fd5b610f8c82611d32565b9050919050565b600f8054610fa09061401c565b80601f0160208091040260200160405190810160405280929190818152602001828054610fcc9061401c565b80156110195780601f10610fee57610100808354040283529160200191611019565b820191906000526020600020905b815481529060010190602001808311610ffc57829003601f168201915b505050505081565b60008073ffffffffffffffffffffffffffffffffffffffff168273ffffffffffffffffffffffffffffffffffffffff161415611092576040517f08c379a000000000000000000000000000000000000000000000000000000000815260040161108990613c38565b60405180910390fd5b600460008373ffffffffffffffffffffffffffffffffffffffff1673ffffffffffffffffffffffffffffffffffffffff168152602001908152602001600020549050919050565b6110e1611de4565b73ffffffffffffffffffffffffffffffffffffffff166110ff611161565b73ffffffffffffffffffffffffffffffffffffffff1614611155576040517f08c379a000000000000000000000000000000000000000000000000000000000815260040161114c90613cb8565b60405180910390fd5b61115f6000612311565b565b60008060009054906101000a900473ffffffffffffffffffffffffffffffffffffffff16905090565b6060600280546111999061401c565b80601f01602080910402602001604051908101604052809291908181526020018280546111c59061401c565b80156112125780601f106111e757610100808354040283529160200191611212565b820191906000526020600020905b8154815290600101906020018083116111f557829003601f168201915b5050505050905090565b6000426276a700600e6000858152602001908152602001600020546112419190613e7d565b109050919050565b611251611de4565b73ffffffffffffffffffffffffffffffffffffffff168273ffffffffffffffffffffffffffffffffffffffff1614156112bf576040517f08c379a00000000000000000000000000000000000000000000000000000000081526004016112b690613bb8565b60405180910390fd5b80600660006112cc611de4565b73ffffffffffffffffffffffffffffffffffffffff1673ffffffffffffffffffffffffffffffffffffffff16815260200190815260200160002060008473ffffffffffffffffffffffffffffffffffffffff1673ffffffffffffffffffffffffffffffffffffffff16815260200190815260200160002060006101000a81548160ff0219169083151502179055508173ffffffffffffffffffffffffffffffffffffffff16611379611de4565b73ffffffffffffffffffffffffffffffffffffffff167f17307eab39ab6107e8899845ad3d59bd9653f200f220920489ca2b5937696c31836040516113be9190613a25565b60405180910390a35050565b6113d2611de4565b73ffffffffffffffffffffffffffffffffffffffff166113f0611161565b73ffffffffffffffffffffffffffffffffffffffff1614611446576040517f08c379a000000000000000000000000000000000000000000000000000000000815260040161143d90613cb8565b60405180910390fd5b6001600d60008373ffffffffffffffffffffffffffffffffffffffff1673ffffffffffffffffffffffffffffffffffffffff16815260200190815260200160002060006101000a81548160ff0219169083151502179055508073ffffffffffffffffffffffffffffffffffffffff167f0a8bb31534c0ed46f380cb867bd5c803a189ced9a764e30b3a4991a9901d747460405160405180910390a250565b6114f56114ef611de4565b83611fd7565b611534576040517f08c379a000000000000000000000000000000000000000000000000000000000815260040161152b90613d58565b60405180910390fd5b611540848484846123d5565b50505050565b6276a70081565b60003073ffffffffffffffffffffffffffffffffffffffff16600b60009054906101000a900473ffffffffffffffffffffffffffffffffffffffff1673ffffffffffffffffffffffffffffffffffffffff166302571be3600c546040518263ffffffff167c01000000000000000000000000000000000000000000000000000000000281526004016115df9190613a40565b60206040518083038186803b1580156115f757600080fd5b505afa15801561160b573d6000803e3d6000fd5b505050506040513d601f19601f8201168201806040525081019061162f919061327a565b73ffffffffffffffffffffffffffffffffffffffff1614611685576040517f08c379a000000000000000000000000000000000000000000000000000000000815260040161167c90613b38565b60405180910390fd5b600d60003373ffffffffffffffffffffffffffffffffffffffff1673ffffffffffffffffffffffffffffffffffffffff16815260200190815260200160002060009054906101000a900460ff16611711576040517f08c379a000000000000000000000000000000000000000000000000000000000815260040161170890613d18565b60405180910390fd5b426276a700600e6000868152602001908152602001600020546117349190613e7d565b101561173f57600080fd5b6276a7008261174e9190613e7d565b6276a70083600e6000878152602001908152602001600020546117719190613e7d565b61177b9190613e7d565b1161178557600080fd5b81600e600085815260200190815260200160002060008282546117a89190613e7d565b92505081905550827f9b87a00e30f1ac65d898f070f8a3488fe60517182d0a2098e1b4b93a54aa9bd6600e6000868152602001908152602001600020546040516117f29190613d98565b60405180910390a2600e600084815260200190815260200160002054905092915050565b606061182182611cc6565b611860576040517f08c379a000000000000000000000000000000000000000000000000000000000815260040161185790613cf8565b60405180910390fd5b600061186a612431565b9050600081511161188a57604051806020016040528060008152506118b5565b80611894846124c3565b6040516020016118a592919061399a565b6040516020818303038152906040525b915050919050565b6000600e6000838152602001908152602001600020549050919050565b600d6020528060005260406000206000915054906101000a900460ff1681565b600c5481565b6000600660008473ffffffffffffffffffffffffffffffffffffffff1673ffffffffffffffffffffffffffffffffffffffff16815260200190815260200160002060008373ffffffffffffffffffffffffffffffffffffffff1673ffffffffffffffffffffffffffffffffffffffff16815260200190815260200160002060009054906101000a900460ff16905092915050565b600b60009054906101000a900473ffffffffffffffffffffffffffffffffffffffff1681565b6119c2611de4565b73ffffffffffffffffffffffffffffffffffffffff166119e0611161565b73ffffffffffffffffffffffffffffffffffffffff1614611a36576040517f08c379a0000000000000000000000000000000000000000000000000000000008152600401611a2d90613cb8565b60405180910390fd5b600073ffffffffffffffffffffffffffffffffffffffff168173ffffffffffffffffffffffffffffffffffffffff161415611aa6576040517f08c379a0000000000000000000000000000000000000000000000000000000008152600401611a9d90613b58565b60405180910390fd5b611aaf81612311565b50565b611aba611de4565b73ffffffffffffffffffffffffffffffffffffffff16611ad8611161565b73ffffffffffffffffffffffffffffffffffffffff1614611b2e576040517f08c379a0000000000000000000000000000000000000000000000000000000008152600401611b2590613cb8565b60405180910390fd5b6000600d60008373ffffffffffffffffffffffffffffffffffffffff1673ffffffffffffffffffffffffffffffffffffffff16815260200190815260200160002060006101000a81548160ff0219169083151502179055508073ffffffffffffffffffffffffffffffffffffffff167f33d83959be2573f5453b12eb9d43b3499bc57d96bd2f067ba44803c859e8111360405160405180910390a250565b6000611bdb8484846001611ea5565b90509392505050565b60007f80ac58cd000000000000000000000000000000000000000000000000000000007bffffffffffffffffffffffffffffffffffffffffffffffffffffffff1916827bffffffffffffffffffffffffffffffffffffffffffffffffffffffff19161480611caf57507f5b5e139f000000000000000000000000000000000000000000000000000000007bffffffffffffffffffffffffffffffffffffffffffffffffffffffff1916827bffffffffffffffffffffffffffffffffffffffffffffffffffffffff1916145b80611cbf5750611cbe8261268f565b5b9050919050565b60008073ffffffffffffffffffffffffffffffffffffffff166003600084815260200190815260200160002060009054906101000a900473ffffffffffffffffffffffffffffffffffffffff1673ffffffffffffffffffffffffffffffffffffffff1614159050919050565b6000806003600084815260200190815260200160002060009054906101000a900473ffffffffffffffffffffffffffffffffffffffff169050600073ffffffffffffffffffffffffffffffffffffffff168173ffffffffffffffffffffffffffffffffffffffff161415611ddb576040517f08c379a0000000000000000000000000000000000000000000000000000000008152600401611dd290613c58565b60405180910390fd5b80915050919050565b600033905090565b816005600083815260200190815260200160002060006101000a81548173ffffffffffffffffffffffffffffffffffffffff021916908373ffffffffffffffffffffffffffffffffffffffff160217905550808273ffffffffffffffffffffffffffffffffffffffff16611e5f83611d32565b73ffffffffffffffffffffffffffffffffffffffff167f8c5be1e5ebec7d5bd14f71427d1e84f3dd0314c0f7b2291e5b200ac8c7c3b92560405160405180910390a45050565b6000611eb08561121c565b611eb957600080fd5b6276a70042611ec89190613e7d565b6276a7008442611ed89190613e7d565b611ee29190613e7d565b11611f22576040517f08c379a0000000000000000000000000000000000000000000000000000000008152600401611f1990613c18565b60405180910390fd5b8242611f2e9190613e7d565b600e600087815260200190815260200160002081905550611f4e85611cc6565b15611f5d57611f5c856126f9565b5b611f67848661280a565b8373ffffffffffffffffffffffffffffffffffffffff16857fb3d987963d01b2f68493b4bdb130988f157ea43070d4ad840fee0466ed9370d98542611fac9190613e7d565b604051611fb99190613d98565b60405180910390a38242611fcd9190613e7d565b9050949350505050565b6000611fe282611cc6565b612021576040517f08c379a000000000000000000000000000000000000000000000000000000000815260040161201890613bd8565b60405180910390fd5b600061202c83611d32565b90508073ffffffffffffffffffffffffffffffffffffffff168473ffffffffffffffffffffffffffffffffffffffff16148061209b57508373ffffffffffffffffffffffffffffffffffffffff1661208384610802565b73ffffffffffffffffffffffffffffffffffffffff16145b806120ac57506120ab8185611900565b5b91505092915050565b8273ffffffffffffffffffffffffffffffffffffffff166120d582611d32565b73ffffffffffffffffffffffffffffffffffffffff161461212b576040517f08c379a000000000000000000000000000000000000000000000000000000000815260040161212290613cd8565b60405180910390fd5b600073ffffffffffffffffffffffffffffffffffffffff168273ffffffffffffffffffffffffffffffffffffffff16141561219b576040517f08c379a000000000000000000000000000000000000000000000000000000000815260040161219290613b98565b60405180910390fd5b6121a68383836129d8565b6121b1600082611dec565b6001600460008573ffffffffffffffffffffffffffffffffffffffff1673ffffffffffffffffffffffffffffffffffffffff16815260200190815260200160002060008282546122019190613f04565b925050819055506001600460008473ffffffffffffffffffffffffffffffffffffffff1673ffffffffffffffffffffffffffffffffffffffff16815260200190815260200160002060008282546122589190613e7d565b92505081905550816003600083815260200190815260200160002060006101000a81548173ffffffffffffffffffffffffffffffffffffffff021916908373ffffffffffffffffffffffffffffffffffffffff160217905550808273ffffffffffffffffffffffffffffffffffffffff168473ffffffffffffffffffffffffffffffffffffffff167fddf252ad1be2c89b69c2b068fc378daa952ba7f163c4a11628f55a4df523b3ef60405160405180910390a4505050565b60008060009054906101000a900473ffffffffffffffffffffffffffffffffffffffff169050816000806101000a81548173ffffffffffffffffffffffffffffffffffffffff021916908373ffffffffffffffffffffffffffffffffffffffff1602179055508173ffffffffffffffffffffffffffffffffffffffff168173ffffffffffffffffffffffffffffffffffffffff167f8be0079c531659141344cd1fd0a4f28419497f9722a3daafe3b4186f6b6457e060405160405180910390a35050565b6123e08484846120b5565b6123ec84848484612aec565b61242b576040517f08c379a000000000000000000000000000000000000000000000000000000000815260040161242290613b18565b60405180910390fd5b50505050565b6060600f80546124409061401c565b80601f016020809104026020016040519081016040528092919081815260200182805461246c9061401c565b80156124b95780601f1061248e576101008083540402835291602001916124b9565b820191906000526020600020905b81548152906001019060200180831161249c57829003601f168201915b5050505050905090565b6060600082141561250b576040518060400160405280600181526020017f3000000000000000000000000000000000000000000000000000000000000000815250905061268a565b600082905060005b6000821461253d5780806125269061407f565b915050600a826125369190613ed3565b9150612513565b60008167ffffffffffffffff81111561257f577f4e487b7100000000000000000000000000000000000000000000000000000000600052604160045260246000fd5b6040519080825280601f01601f1916602001820160405280156125b15781602001600182028036833780820191505090505b5090505b60008514612683576001826125ca9190613f04565b9150600a856125d991906140c8565b60306125e59190613e7d565b7f010000000000000000000000000000000000000000000000000000000000000002818381518110612640577f4e487b7100000000000000000000000000000000000000000000000000000000600052603260045260246000fd5b60200101907effffffffffffffffffffffffffffffffffffffffffffffffffffffffffffff1916908160001a905350600a8561267c9190613ed3565b94506125b5565b8093505050505b919050565b60007f01ffc9a7000000000000000000000000000000000000000000000000000000007bffffffffffffffffffffffffffffffffffffffffffffffffffffffff1916827bffffffffffffffffffffffffffffffffffffffffffffffffffffffff1916149050919050565b600061270482611d32565b9050612712816000846129d8565b61271d600083611dec565b6001600460008373ffffffffffffffffffffffffffffffffffffffff1673ffffffffffffffffffffffffffffffffffffffff168152602001908152602001600020600082825461276d9190613f04565b925050819055506003600083815260200190815260200160002060006101000a81549073ffffffffffffffffffffffffffffffffffffffff021916905581600073ffffffffffffffffffffffffffffffffffffffff168273ffffffffffffffffffffffffffffffffffffffff167fddf252ad1be2c89b69c2b068fc378daa952ba7f163c4a11628f55a4df523b3ef60405160405180910390a45050565b600073ffffffffffffffffffffffffffffffffffffffff168273ffffffffffffffffffffffffffffffffffffffff16141561287a576040517f08c379a000000000000000000000000000000000000000000000000000000000815260040161287190613c78565b60405180910390fd5b61288381611cc6565b156128c3576040517f08c379a00000000000000000000000000000000000000000000000000000000081526004016128ba90613b78565b60405180910390fd5b6128cf600083836129d8565b6001600460008473ffffffffffffffffffffffffffffffffffffffff1673ffffffffffffffffffffffffffffffffffffffff168152602001908152602001600020600082825461291f9190613e7d565b92505081905550816003600083815260200190815260200160002060006101000a81548173ffffffffffffffffffffffffffffffffffffffff021916908373ffffffffffffffffffffffffffffffffffffffff160217905550808273ffffffffffffffffffffffffffffffffffffffff16600073ffffffffffffffffffffffffffffffffffffffff167fddf252ad1be2c89b69c2b068fc378daa952ba7f163c4a11628f55a4df523b3ef60405160405180910390a45050565b6129e3838383612cbb565b600073ffffffffffffffffffffffffffffffffffffffff168373ffffffffffffffffffffffffffffffffffffffff161415612a2657612a2181612cc0565b612a65565b8173ffffffffffffffffffffffffffffffffffffffff168373ffffffffffffffffffffffffffffffffffffffff1614612a6457612a638382612d09565b5b5b600073ffffffffffffffffffffffffffffffffffffffff168273ffffffffffffffffffffffffffffffffffffffff161415612aa857612aa381612e76565b612ae7565b8273ffffffffffffffffffffffffffffffffffffffff168273ffffffffffffffffffffffffffffffffffffffff1614612ae657612ae58282612fb9565b5b5b505050565b6000612b0d8473ffffffffffffffffffffffffffffffffffffffff16613038565b15612cae578373ffffffffffffffffffffffffffffffffffffffff1663150b7a02612b36611de4565b8786866040518563ffffffff167c0100000000000000000000000000000000000000000000000000000000028152600401612b7494939291906139d9565b602060405180830381600087803b158015612b8e57600080fd5b505af1925050508015612bbf57506040513d601f19601f82011682018060405250810190612bbc9190613473565b60015b612c42573d8060008114612bef576040519150601f19603f3d011682016040523d82523d6000602084013e612bf4565b606091505b50600081511415612c3a576040517f08c379a0000000000000000000000000000000000000000000000000000000008152600401612c3190613b18565b60405180910390fd5b805181602001fd5b63150b7a027c0100000000000000000000000000000000000000000000000000000000027bffffffffffffffffffffffffffffffffffffffffffffffffffffffff1916817bffffffffffffffffffffffffffffffffffffffffffffffffffffffff191614915050612cb3565b600190505b949350505050565b505050565b600980549050600a600083815260200190815260200160002081905550600981908060018154018082558091505060019003906000526020600020016000909190919091505550565b60006001612d1684611021565b612d209190613f04565b9050600060086000848152602001908152602001600020549050818114612e05576000600760008673ffffffffffffffffffffffffffffffffffffffff1673ffffffffffffffffffffffffffffffffffffffff168152602001908152602001600020600084815260200190815260200160002054905080600760008773ffffffffffffffffffffffffffffffffffffffff1673ffffffffffffffffffffffffffffffffffffffff168152602001908152602001600020600084815260200190815260200160002081905550816008600083815260200190815260200160002081905550505b6008600084815260200190815260200160002060009055600760008573ffffffffffffffffffffffffffffffffffffffff1673ffffffffffffffffffffffffffffffffffffffff16815260200190815260200160002060008381526020019081526020016000206000905550505050565b60006001600980549050612e8a9190613f04565b90506000600a6000848152602001908152602001600020549050600060098381548110612ee0577f4e487b7100000000000000000000000000000000000000000000000000000000600052603260045260246000fd5b906000526020600020015490508060098381548110612f28577f4e487b7100000000000000000000000000000000000000000000000000000000600052603260045260246000fd5b906000526020600020018190555081600a600083815260200190815260200160002081905550600a6000858152602001908152602001600020600090556009805480612f9d577f4e487b7100000000000000000000000000000000000000000000000000000000600052603160045260246000fd5b6001900381819060005260206000200160009055905550505050565b6000612fc483611021565b905081600760008573ffffffffffffffffffffffffffffffffffffffff1673ffffffffffffffffffffffffffffffffffffffff168152602001908152602001600020600083815260200190815260200160002081905550806008600084815260200190815260200160002081905550505050565b600080823b905060008111915050919050565b8280546130579061401c565b90600052602060002090601f01602090048101928261307957600085556130c0565b82601f1061309257805160ff19168380011785556130c0565b828001600101855582156130c0579182015b828111156130bf5782518255916020019190600101906130a4565b5b5090506130cd91906130d1565b5090565b5b808211156130ea5760008160009055506001016130d2565b5090565b60006131016130fc84613dd8565b613db3565b90508281526020810184848401111561311957600080fd5b613124848285613fda565b509392505050565b600061313f61313a84613e09565b613db3565b90508281526020810184848401111561315757600080fd5b613162848285613fda565b509392505050565b60008135905061317981614737565b92915050565b60008151905061318e81614737565b92915050565b6000813590506131a38161474e565b92915050565b6000815190506131b881614765565b92915050565b6000813590506131cd8161477c565b92915050565b6000815190506131e28161477c565b92915050565b600082601f8301126131f957600080fd5b81356132098482602086016130ee565b91505092915050565b600082601f83011261322357600080fd5b813561323384826020860161312c565b91505092915050565b60008135905061324b81614793565b92915050565b60006020828403121561326357600080fd5b60006132718482850161316a565b91505092915050565b60006020828403121561328c57600080fd5b600061329a8482850161317f565b91505092915050565b600080604083850312156132b657600080fd5b60006132c48582860161316a565b92505060206132d58582860161316a565b9150509250929050565b6000806000606084860312156132f457600080fd5b60006133028682870161316a565b93505060206133138682870161316a565b92505060406133248682870161323c565b9150509250925092565b6000806000806080858703121561334457600080fd5b60006133528782880161316a565b94505060206133638782880161316a565b93505060406133748782880161323c565b925050606085013567ffffffffffffffff81111561339157600080fd5b61339d878288016131e8565b91505092959194509250565b600080604083850312156133bc57600080fd5b60006133ca8582860161316a565b92505060206133db85828601613194565b9150509250929050565b600080604083850312156133f857600080fd5b60006134068582860161316a565b92505060206134178582860161323c565b9150509250929050565b60006020828403121561343357600080fd5b6000613441848285016131a9565b91505092915050565b60006020828403121561345c57600080fd5b600061346a848285016131be565b91505092915050565b60006020828403121561348557600080fd5b6000613493848285016131d3565b91505092915050565b6000602082840312156134ae57600080fd5b600082013567ffffffffffffffff8111156134c857600080fd5b6134d484828501613212565b91505092915050565b6000602082840312156134ef57600080fd5b60006134fd8482850161323c565b91505092915050565b6000806040838503121561351957600080fd5b60006135278582860161323c565b92505060206135388582860161316a565b9150509250929050565b60008060006060848603121561355757600080fd5b60006135658682870161323c565b93505060206135768682870161316a565b92505060406135878682870161323c565b9150509250925092565b600080604083850312156135a457600080fd5b60006135b28582860161323c565b92505060206135c38582860161323c565b9150509250929050565b6135d681613f38565b82525050565b6135e581613f4a565b82525050565b6135f481613f56565b82525050565b600061360582613e3a565b61360f8185613e50565b935061361f818560208601613fe9565b613628816141b5565b840191505092915050565b61363c81613fb6565b82525050565b600061364d82613e45565b6136578185613e61565b9350613667818560208601613fe9565b613670816141b5565b840191505092915050565b600061368682613e45565b6136908185613e72565b93506136a0818560208601613fe9565b80840191505092915050565b60006136b9602b83613e61565b91506136c4826141c6565b604082019050919050565b60006136dc603283613e61565b91506136e782614215565b604082019050919050565b60006136ff601683613e61565b915061370a82614264565b602082019050919050565b6000613722602683613e61565b915061372d8261428d565b604082019050919050565b6000613745601c83613e61565b9150613750826142dc565b602082019050919050565b6000613768602483613e61565b915061377382614305565b604082019050919050565b600061378b601983613e61565b915061379682614354565b602082019050919050565b60006137ae602c83613e61565b91506137b98261437d565b604082019050919050565b60006137d1603883613e61565b91506137dc826143cc565b604082019050919050565b60006137f4600a83613e61565b91506137ff8261441b565b602082019050919050565b6000613817602a83613e61565b915061382282614444565b604082019050919050565b600061383a602983613e61565b915061384582614493565b604082019050919050565b600061385d602083613e61565b9150613868826144e2565b602082019050919050565b6000613880602c83613e61565b915061388b8261450b565b604082019050919050565b60006138a3602083613e61565b91506138ae8261455a565b602082019050919050565b60006138c6602983613e61565b91506138d182614583565b604082019050919050565b60006138e9602f83613e61565b91506138f4826145d2565b604082019050919050565b600061390c601183613e61565b915061391782614621565b602082019050919050565b600061392f602183613e61565b915061393a8261464a565b604082019050919050565b6000613952603183613e61565b915061395d82614699565b604082019050919050565b6000613975602c83613e61565b9150613980826146e8565b604082019050919050565b61399481613fac565b82525050565b60006139a6828561367b565b91506139b2828461367b565b91508190509392505050565b60006020820190506139d360008301846135cd565b92915050565b60006080820190506139ee60008301876135cd565b6139fb60208301866135cd565b613a08604083018561398b565b8181036060830152613a1a81846135fa565b905095945050505050565b6000602082019050613a3a60008301846135dc565b92915050565b6000602082019050613a5560008301846135eb565b92915050565b6000604082019050613a7060008301856135eb565b613a7d60208301846135cd565b9392505050565b6000606082019050613a9960008301866135eb565b613aa660208301856135eb565b613ab360408301846135cd565b949350505050565b6000602082019050613ad06000830184613633565b92915050565b60006020820190508181036000830152613af08184613642565b905092915050565b60006020820190508181036000830152613b11816136ac565b9050919050565b60006020820190508181036000830152613b31816136cf565b9050919050565b60006020820190508181036000830152613b51816136f2565b9050919050565b60006020820190508181036000830152613b7181613715565b9050919050565b60006020820190508181036000830152613b9181613738565b9050919050565b60006020820190508181036000830152613bb18161375b565b9050919050565b60006020820190508181036000830152613bd18161377e565b9050919050565b60006020820190508181036000830152613bf1816137a1565b9050919050565b60006020820190508181036000830152613c11816137c4565b9050919050565b60006020820190508181036000830152613c31816137e7565b9050919050565b60006020820190508181036000830152613c518161380a565b9050919050565b60006020820190508181036000830152613c718161382d565b9050919050565b60006020820190508181036000830152613c9181613850565b9050919050565b60006020820190508181036000830152613cb181613873565b9050919050565b60006020820190508181036000830152613cd181613896565b9050919050565b60006020820190508181036000830152613cf1816138b9565b9050919050565b60006020820190508181036000830152613d11816138dc565b9050919050565b60006020820190508181036000830152613d31816138ff565b9050919050565b60006020820190508181036000830152613d5181613922565b9050919050565b60006020820190508181036000830152613d7181613945565b9050919050565b60006020820190508181036000830152613d9181613968565b9050919050565b6000602082019050613dad600083018461398b565b92915050565b6000613dbd613dce565b9050613dc9828261404e565b919050565b6000604051905090565b600067ffffffffffffffff821115613df357613df2614186565b5b613dfc826141b5565b9050602081019050919050565b600067ffffffffffffffff821115613e2457613e23614186565b5b613e2d826141b5565b9050602081019050919050565b600081519050919050565b600081519050919050565b600082825260208201905092915050565b600082825260208201905092915050565b600081905092915050565b6000613e8882613fac565b9150613e9383613fac565b9250827fffffffffffffffffffffffffffffffffffffffffffffffffffffffffffffffff03821115613ec857613ec76140f9565b5b828201905092915050565b6000613ede82613fac565b9150613ee983613fac565b925082613ef957613ef8614128565b5b828204905092915050565b6000613f0f82613fac565b9150613f1a83613fac565b925082821015613f2d57613f2c6140f9565b5b828203905092915050565b6000613f4382613f8c565b9050919050565b60008115159050919050565b6000819050919050565b60007fffffffff0000000000000000000000000000000000000000000000000000000082169050919050565b600073ffffffffffffffffffffffffffffffffffffffff82169050919050565b6000819050919050565b6000613fc182613fc8565b9050919050565b6000613fd382613f8c565b9050919050565b82818337600083830152505050565b60005b83811015614007578082015181840152602081019050613fec565b83811115614016576000848401525b50505050565b6000600282049050600182168061403457607f821691505b6020821081141561404857614047614157565b5b50919050565b614057826141b5565b810181811067ffffffffffffffff8211171561407657614075614186565b5b80604052505050565b600061408a82613fac565b91507fffffffffffffffffffffffffffffffffffffffffffffffffffffffffffffffff8214156140bd576140bc6140f9565b5b600182019050919050565b60006140d382613fac565b91506140de83613fac565b9250826140ee576140ed614128565b5b828206905092915050565b7f4e487b7100000000000000000000000000000000000000000000000000000000600052601160045260246000fd5b7f4e487b7100000000000000000000000000000000000000000000000000000000600052601260045260246000fd5b7f4e487b7100000000000000000000000000000000000000000000000000000000600052602260045260246000fd5b7f4e487b7100000000000000000000000000000000000000000000000000000000600052604160045260246000fd5b6000601f19601f8301169050919050565b7f455243373231456e756d657261626c653a206f776e657220696e646578206f7560008201527f74206f6620626f756e6473000000000000000000000000000000000000000000602082015250565b7f4552433732313a207472616e7366657220746f206e6f6e20455243373231526560008201527f63656976657220696d706c656d656e7465720000000000000000000000000000602082015250565b7f426173654e6f6465206e6f7420636e73206f776e657200000000000000000000600082015250565b7f4f776e61626c653a206e6577206f776e657220697320746865207a65726f206160008201527f6464726573730000000000000000000000000000000000000000000000000000602082015250565b7f4552433732313a20746f6b656e20616c7265616479206d696e74656400000000600082015250565b7f4552433732313a207472616e7366657220746f20746865207a65726f2061646460008201527f7265737300000000000000000000000000000000000000000000000000000000602082015250565b7f4552433732313a20617070726f766520746f2063616c6c657200000000000000600082015250565b7f4552433732313a206f70657261746f7220717565727920666f72206e6f6e657860008201527f697374656e7420746f6b656e0000000000000000000000000000000000000000602082015250565b7f4552433732313a20617070726f76652063616c6c6572206973206e6f74206f7760008201527f6e6572206e6f7220617070726f76656420666f7220616c6c0000000000000000602082015250565b7f54696d65206572726f7200000000000000000000000000000000000000000000600082015250565b7f4552433732313a2062616c616e636520717565727920666f7220746865207a6560008201527f726f206164647265737300000000000000000000000000000000000000000000602082015250565b7f4552433732313a206f776e657220717565727920666f72206e6f6e657869737460008201527f656e7420746f6b656e0000000000000000000000000000000000000000000000602082015250565b7f4552433732313a206d696e7420746f20746865207a65726f2061646472657373600082015250565b7f4552433732313a20617070726f76656420717565727920666f72206e6f6e657860008201527f697374656e7420746f6b656e0000000000000000000000000000000000000000602082015250565b7f4f776e61626c653a2063616c6c6572206973206e6f7420746865206f776e6572600082015250565b7f4552433732313a207472616e73666572206f6620746f6b656e2074686174206960008201527f73206e6f74206f776e0000000000000000000000000000000000000000000000602082015250565b7f4552433732314d657461646174613a2055524920717565727920666f72206e6f60008201527f6e6578697374656e7420746f6b656e0000000000000000000000000000000000602082015250565b7f436f6e74726f6c6c657273206572726f72000000000000000000000000000000600082015250565b7f4552433732313a20617070726f76616c20746f2063757272656e74206f776e6560008201527f7200000000000000000000000000000000000000000000000000000000000000602082015250565b7f4552433732313a207472616e736665722063616c6c6572206973206e6f74206f60008201527f776e6572206e6f7220617070726f766564000000000000000000000000000000602082015250565b7f455243373231456e756d657261626c653a20676c6f62616c20696e646578206f60008201527f7574206f6620626f756e64730000000000000000000000000000000000000000602082015250565b61474081613f38565b811461474b57600080fd5b50565b61475781613f4a565b811461476257600080fd5b50565b61476e81613f56565b811461477957600080fd5b50565b61478581613f60565b811461479057600080fd5b50565b61479c81613fac565b81146147a757600080fd5b5056fea264697066735822122006fc50f96395a92b7722ab7b36c8e7da6086336b5f9735b656b46b7ac052535f64736f6c63430008040033",
  "immutableReferences": {},
  "source": "// SPDX-License-Identifier: UNLICCNSED\n\npragma solidity ^0.8.4;\n\nimport \"../registry/CNS.sol\";\nimport \"@openzeppelin/contracts/token/ERC721/extensions/ERC721Enumerable.sol\";\nimport \"./BaseRegistrar.sol\";\n\ncontract TestNft is ERC721Enumerable, BaseRegistrar {\n    // A map of expiry times\n    mapping(uint256=>uint) expiries;\n\n    string public baseURI;\n\n    bytes4 constant private INTERFACE_META_ID = bytes4(keccak256(\"supportsInterface(bytes4)\"));\n    bytes4 constant private ERC721_ID = bytes4(\n        keccak256(\"totalSupply()\") ^\n        keccak256(\"balanceOf(address)\") ^\n        keccak256(\"ownerOf(uint256)\") ^\n        keccak256(\"approve(address,uint256)\") ^\n        keccak256(\"getApproved(uint256)\") ^\n        keccak256(\"setApprovalForAll(address,bool)\") ^\n        keccak256(\"isApprovedForAll(address,address)\") ^\n        keccak256(\"transferFrom(address,address,uint256)\") ^\n        keccak256(\"safeTransferFrom(address,address,uint256)\") ^\n        keccak256(\"safeTransferFrom(address,address,uint256,bytes)\") ^\n        keccak256(\"tokenByIndex(uint256 index)\") ^\n        keccak256(\"tokenOfOwnerByIndex(address owner, uint256 index)\")\n    );\n    bytes4 constant private RECLAIM_ID = bytes4(keccak256(\"reclaim(uint256,address)\"));\n\n    constructor(\n        // CNS _cns, bytes32 _baseNode\n        ) ERC721(\"Conflux Name Service\",\"CNS\") {\n        // cns = _cns;\n        // baseNode = _baseNode;\n    }\n\n    modifier live {\n        require(cns.owner(baseNode) == address(this),\"BaseNode not cns owner\");\n        _;\n    }\n\n    modifier onlyController {\n        require(controllers[msg.sender],\"Controllers error\");\n        _;\n    }\n    \n\n    /**\n     * @dev Gets the owner of the specified token ID. Names become unowned\n     *      when their registration expires.\n     * @param tokenId uint256 ID of the token to query the owner of\n     * @return address currently marked as the owner of the given token ID\n     */\n    function ownerOf(uint256 tokenId) public view override(IERC721, ERC721) returns (address) {\n        require(expiries[tokenId] > block.timestamp);\n        return super.ownerOf(tokenId);\n    }\n\n    /**\n     * @dev Base URI for computing {tokenURI}. If set, the resulting URI for each\n     * token will be the concatenation of the `baseURI` and the `tokenId`. Empty\n     * by default, can be overriden in child contracts.\n     */\n    function _baseURI() internal view override returns (string memory) {\n        return baseURI;\n    }\n\n    function setBaseURI(string memory _base) public onlyOwner{\n        baseURI = _base;\n    }\n\n    // Authorises a controller, who can register and renew domains.\n    function addController(address controller) external override onlyOwner {\n        controllers[controller] = true;\n        emit ControllerAdded(controller);\n    }\n\n    // Revoke controller permission for an address.\n    function removeController(address controller) external override onlyOwner {\n        controllers[controller] = false;\n        emit ControllerRemoved(controller);\n    }\n\n    // Set the resolver for the TLD this registrar manages.\n    function setResolver(address resolver) external override onlyOwner {\n        cns.setResolver(baseNode, resolver);\n    }\n\n    // Returns the expiration timestamp of the specified id.\n    function nameExpires(uint256 id) external view override returns(uint) {\n        return expiries[id];\n    }\n\n    // Returns true iff the specified name is available for registration.\n    function available(uint256 id) public view override returns(bool) {\n        // Not available if it's registered here or in its grace period.\n        return expiries[id] + GRACE_PERIOD < block.timestamp;\n    }\n\n    /**\n     * @dev Register a name.\n     * @param id The token ID (keccak256 of the label).\n     * @param owner The address that should own the registration.\n     * @param duration Duration in seconds for the registration.\n     */\n    function register(uint256 id, address owner, uint duration) external override returns(uint) {\n      return _register(id, owner, duration, true);\n    }\n\n    /**\n     * @dev Register a name, without modifying the registry.\n     * @param id The token ID (keccak256 of the label).\n     * @param owner The address that should own the registration.\n     * @param duration Duration in seconds for the registration.\n     */\n    function registerOnly(uint256 id, address owner, uint duration) external returns(uint) {\n      return _register(id, owner, duration, false);\n    }\n\n    function _register(uint256 tokenId, address owner, uint duration, bool updateRegistry) internal returns(uint) {\n        require(available(tokenId));\n        require(block.timestamp + duration + GRACE_PERIOD > block.timestamp + GRACE_PERIOD,\"Time error\"); // Prevent future overflow\n        expiries[tokenId] = block.timestamp + duration;\n        if(_exists(tokenId)) {\n            // Name was previously owned, and expired\n            _burn(tokenId);\n        }\n        _mint(owner, tokenId);\n        // if(updateRegistry) {\n        //     cns.setSubnodeOwner(baseNode, bytes32(tokenId), owner);\n        // }\n\n        emit NameRegistered(tokenId, owner, block.timestamp + duration);\n\n        return block.timestamp + duration;\n    }\n\n    function renew(uint256 id, uint duration) external override live onlyController returns(uint) {\n        require(expiries[id] + GRACE_PERIOD >= block.timestamp); // Name must be registered here or in grace period\n        require(expiries[id] + duration + GRACE_PERIOD > duration + GRACE_PERIOD); // Prevent future overflow\n\n        expiries[id] += duration;\n        emit NameRenewed(id, expiries[id]);\n        return expiries[id];\n    }\n\n    /**\n     * @dev Reclaim ownership of a name in CNS, if you own it in the registrar.\n     */\n    function reclaim(uint256 id, address owner) external override live {\n        require(_isApprovedOrOwner(msg.sender, id));\n        cns.setSubnodeOwner(baseNode, bytes32(id), owner);\n    }\n\n}\n",
  "sourcePath": "/Users/yzbbanban/Downloads/money/chk/nftbox/bns/yns-sol-master-025696b23c531f8117f2fb03dee6f8c96f21692e/contracts/ynsregistry/TestNft.sol",
  "compiler": {
    "name": "solc",
    "version": "0.8.4+commit.c7e474f2.Emscripten.clang"
  },
  "schemaVersion": "3.4.3",
  "updatedAt": "2022-08-28T14:24:17.049Z",
  "devdoc": {
    "kind": "dev",
    "methods": {
      "approve(address,uint256)": {
        "details": "See {IERC721-approve}."
      },
      "balanceOf(address)": {
        "details": "See {IERC721-balanceOf}."
      },
      "getApproved(uint256)": {
        "details": "See {IERC721-getApproved}."
      },
      "isApprovedForAll(address,address)": {
        "details": "See {IERC721-isApprovedForAll}."
      },
      "name()": {
        "details": "See {IERC721Metadata-name}."
      },
      "owner()": {
        "details": "Returns the address of the current owner."
      },
      "ownerOf(uint256)": {
        "details": "Gets the owner of the specified token ID. Names become unowned      when their registration expires.",
        "params": {
          "tokenId": "uint256 ID of the token to query the owner of"
        },
        "returns": {
          "_0": "address currently marked as the owner of the given token ID"
        }
      },
      "reclaim(uint256,address)": {
        "details": "Reclaim ownership of a name in CNS, if you own it in the registrar."
      },
      "register(uint256,address,uint256)": {
        "details": "Register a name.",
        "params": {
          "duration": "Duration in seconds for the registration.",
          "id": "The token ID (keccak256 of the label).",
          "owner": "The address that should own the registration."
        }
      },
      "registerOnly(uint256,address,uint256)": {
        "details": "Register a name, without modifying the registry.",
        "params": {
          "duration": "Duration in seconds for the registration.",
          "id": "The token ID (keccak256 of the label).",
          "owner": "The address that should own the registration."
        }
      },
      "renounceOwnership()": {
        "details": "Leaves the contract without owner. It will not be possible to call `onlyOwner` functions anymore. Can only be called by the current owner. NOTE: Renouncing ownership will leave the contract without an owner, thereby removing any functionality that is only available to the owner."
      },
      "safeTransferFrom(address,address,uint256)": {
        "details": "See {IERC721-safeTransferFrom}."
      },
      "safeTransferFrom(address,address,uint256,bytes)": {
        "details": "See {IERC721-safeTransferFrom}."
      },
      "setApprovalForAll(address,bool)": {
        "details": "See {IERC721-setApprovalForAll}."
      },
      "supportsInterface(bytes4)": {
        "details": "See {IERC165-supportsInterface}."
      },
      "symbol()": {
        "details": "See {IERC721Metadata-symbol}."
      },
      "tokenByIndex(uint256)": {
        "details": "See {IERC721Enumerable-tokenByIndex}."
      },
      "tokenOfOwnerByIndex(address,uint256)": {
        "details": "See {IERC721Enumerable-tokenOfOwnerByIndex}."
      },
      "tokenURI(uint256)": {
        "details": "See {IERC721Metadata-tokenURI}."
      },
      "totalSupply()": {
        "details": "See {IERC721Enumerable-totalSupply}."
      },
      "transferFrom(address,address,uint256)": {
        "details": "See {IERC721-transferFrom}."
      },
      "transferOwnership(address)": {
        "details": "Transfers ownership of the contract to a new account (`newOwner`). Can only be called by the current owner."
      }
    },
    "version": 1
  },
  "userdoc": {
    "kind": "user",
    "methods": {},
    "version": 1
  }
}